{
  "_format": "hh-sol-artifact-1",
  "contractName": "DisputeHandler",
  "sourceName": "contracts/DISPUTE_HANDLER.sol",
  "abi": [
    {
      "inputs": [
        {
          "internalType": "address",
          "name": "_grullToken",
          "type": "address"
        }
      ],
      "stateMutability": "nonpayable",
      "type": "constructor"
    },
    {
      "anonymous": false,
      "inputs": [
        {
          "indexed": false,
          "internalType": "uint256",
          "name": "disputeId",
          "type": "uint256"
        },
        {
          "indexed": false,
          "internalType": "address",
          "name": "winner",
          "type": "address"
        },
        {
          "indexed": false,
          "internalType": "address",
          "name": "loser",
          "type": "address"
        }
      ],
      "name": "DisputeSettled",
      "type": "event"
    },
    {
      "inputs": [
        {
          "internalType": "uint256",
          "name": "",
          "type": "uint256"
        }
      ],
      "name": "disputes",
      "outputs": [
        {
          "internalType": "uint256",
          "name": "id",
          "type": "uint256"
        },
        {
          "internalType": "address",
          "name": "clientA",
          "type": "address"
        },
        {
          "internalType": "address",
          "name": "clientB",
          "type": "address"
        },
        {
          "internalType": "uint256",
          "name": "votingDeadline",
          "type": "uint256"
        },
        {
          "internalType": "bool",
          "name": "isResolved",
          "type": "bool"
        },
        {
          "internalType": "uint256",
          "name": "totalStaked",
          "type": "uint256"
        },
        {
          "internalType": "uint256",
          "name": "votesForA",
          "type": "uint256"
        },
        {
          "internalType": "uint256",
          "name": "votesForB",
          "type": "uint256"
        }
      ],
      "stateMutability": "view",
      "type": "function"
    },
    {
      "inputs": [],
      "name": "grullToken",
      "outputs": [
        {
          "internalType": "contract IERC20",
          "name": "",
          "type": "address"
        }
      ],
      "stateMutability": "view",
      "type": "function"
    },
    {
      "inputs": [
        {
          "internalType": "uint256",
          "name": "disputeId",
          "type": "uint256"
        }
      ],
      "name": "settleDispute",
      "outputs": [
        {
          "internalType": "bool",
          "name": "",
          "type": "bool"
        }
      ],
      "stateMutability": "nonpayable",
      "type": "function"
    },
    {
      "inputs": [
        {
          "internalType": "uint256",
          "name": "disputeId",
          "type": "uint256"
        },
        {
          "internalType": "bool",
          "name": "voteForA",
          "type": "bool"
        },
        {
          "internalType": "uint256",
          "name": "stakeAmount",
          "type": "uint256"
        },
        {
          "internalType": "uint256[]",
          "name": "skills",
          "type": "uint256[]"
        }
      ],
      "name": "stakeAndVote",
      "outputs": [],
      "stateMutability": "nonpayable",
      "type": "function"
    }
  ],
  "bytecode": "0x608060405234801561001057600080fd5b50604051611cad380380611cad833981810160405281019061003291906100dc565b80600160006101000a81548173ffffffffffffffffffffffffffffffffffffffff021916908373ffffffffffffffffffffffffffffffffffffffff16021790555050610109565b600080fd5b600073ffffffffffffffffffffffffffffffffffffffff82169050919050565b60006100a98261007e565b9050919050565b6100b98161009e565b81146100c457600080fd5b50565b6000815190506100d6816100b0565b92915050565b6000602082840312156100f2576100f1610079565b5b6000610100848285016100c7565b91505092915050565b611b95806101186000396000f3fe608060405234801561001057600080fd5b506004361061004c5760003560e01c80631c099ad61461005157806348dbec2e14610081578063564a565d1461009d578063c9cf5ddf146100d4575b600080fd5b61006b6004803603810190610066919061132a565b6100f2565b6040516100789190611372565b60405180910390f35b61009b60048036038101906100969190611512565b61048a565b005b6100b760048036038101906100b2919061132a565b61086b565b6040516100cb9897969594939291906115e5565b60405180910390f35b6100dc610900565b6040516100e991906116c2565b60405180910390f35b60008060008084815260200190815260200160002090508060050160009054906101000a900460ff161561015b576040517f08c379a00000000000000000000000000000000000000000000000000000000081526004016101529061173a565b60405180910390fd5b428160040154106101a1576040517f08c379a0000000000000000000000000000000000000000000000000000000008152600401610198906117a6565b60405180910390fd5b6000816008015482600701546101b791906117f5565b905060006064603c836101ca9190611829565b6101d4919061189a565b905060006101e28683610926565b905060008060005b835181101561036957600087600901600086848151811061020e5761020d6118cb565b5b602002602001015173ffffffffffffffffffffffffffffffffffffffff1673ffffffffffffffffffffffffffffffffffffffff168152602001908152602001600020905060018160030160006101000a81548160ff021916908315150217905550600061031f826002018054806020026020016040519081016040528092919081815260200182805480156102c257602002820191906000526020600020905b8154815260200190600101908083116102ae575b50505050508a60030180548060200260200160405190810160405280929190818152602001828054801561031557602002820191906000526020600020905b815481526020019060010190808311610301575b5050505050610abb565b90508160030160019054906101000a900460ff161561034b57808561034491906117f5565b945061035a565b808461035791906117f5565b93505b505080806001019150506101ea565b50600080828411156103c8578760010160009054906101000a900473ffffffffffffffffffffffffffffffffffffffff1691508760020160009054906101000a900473ffffffffffffffffffffffffffffffffffffffff169050610417565b8760020160009054906101000a900473ffffffffffffffffffffffffffffffffffffffff1691508760010160009054906101000a900473ffffffffffffffffffffffffffffffffffffffff1690505b6104218a83610b4a565b60018860050160006101000a81548160ff0219169083151502179055507f35877583839d988b6da68ba7e2b2836d26c0d18b83d80943b5633ded778bc4fc8a8383604051610471939291906118fa565b60405180910390a1600198505050505050505050919050565b4260008086815260200190815260200160002060040154116104e1576040517f08c379a00000000000000000000000000000000000000000000000000000000081526004016104d89061197d565b60405180910390fd5b600080600086815260200190815260200160002060090160003373ffffffffffffffffffffffffffffffffffffffff1673ffffffffffffffffffffffffffffffffffffffff1681526020019081526020016000206001015414610579576040517f08c379a0000000000000000000000000000000000000000000000000000000008152600401610570906119e9565b60405180910390fd5b600160009054906101000a900473ffffffffffffffffffffffffffffffffffffffff1673ffffffffffffffffffffffffffffffffffffffff166323b872dd3330856040518463ffffffff1660e01b81526004016105d893929190611a09565b6020604051808303816000875af11580156105f7573d6000803e3d6000fd5b505050506040513d601f19601f8201168201806040525081019061061b9190611a55565b506040518060a001604052803373ffffffffffffffffffffffffffffffffffffffff16815260200183815260200182815260200160001515815260200184151581525060008086815260200190815260200160002060090160003373ffffffffffffffffffffffffffffffffffffffff1673ffffffffffffffffffffffffffffffffffffffff16815260200190815260200160002060008201518160000160006101000a81548173ffffffffffffffffffffffffffffffffffffffff021916908373ffffffffffffffffffffffffffffffffffffffff16021790555060208201518160010155604082015181600201908051906020019061071d929190611276565b5060608201518160030160006101000a81548160ff02191690831515021790555060808201518160030160016101000a81548160ff021916908315150217905550905050600080858152602001908152602001600020600a01339080600181540180825580915050600190039060005260206000200160009091909190916101000a81548173ffffffffffffffffffffffffffffffffffffffff021916908373ffffffffffffffffffffffffffffffffffffffff1602179055508160008086815260200190815260200160002060060160008282546107fc91906117f5565b92505081905550821561083957600080858152602001908152602001600020600701600081548092919061082f90611a82565b9190505550610865565b600080858152602001908152602001600020600801600081548092919061085f90611a82565b91905055505b50505050565b60006020528060005260406000206000915090508060000154908060010160009054906101000a900473ffffffffffffffffffffffffffffffffffffffff16908060020160009054906101000a900473ffffffffffffffffffffffffffffffffffffffff16908060040154908060050160009054906101000a900460ff16908060060154908060070154908060080154905088565b600160009054906101000a900473ffffffffffffffffffffffffffffffffffffffff1681565b606060008060008581526020019081526020016000209050600081600a018054806020026020016040519081016040528092919081815260200182805480156109c457602002820191906000526020600020905b8160009054906101000a900473ffffffffffffffffffffffffffffffffffffffff1673ffffffffffffffffffffffffffffffffffffffff168152602001906001019080831161097a575b505050505090506000815185106109dc5781516109de565b845b905060008167ffffffffffffffff8111156109fc576109fb6113cf565b5b604051908082528060200260200182016040528015610a2a5781602001602082028036833780820191505090505b50905060005b82811015610aad57838181518110610a4b57610a4a6118cb565b5b6020026020010151828281518110610a6657610a656118cb565b5b602002602001019073ffffffffffffffffffffffffffffffffffffffff16908173ffffffffffffffffffffffffffffffffffffffff16815250508080600101915050610a30565b508094505050505092915050565b6000806000905060005b8451811015610b3f5760005b8451811015610b3157848181518110610aed57610aec6118cb565b5b6020026020010151868381518110610b0857610b076118cb565b5b602002602001015103610b24578280610b2090611a82565b9350505b8080600101915050610ad1565b508080600101915050610ac5565b508091505092915050565b600080600084815260200190815260200160002090506000805b82600a0180549050811015610de957600083600901600085600a018481548110610b9157610b906118cb565b5b9060005260206000200160009054906101000a900473ffffffffffffffffffffffffffffffffffffffff1673ffffffffffffffffffffffffffffffffffffffff1673ffffffffffffffffffffffffffffffffffffffff1681526020019081526020016000206040518060a00160405290816000820160009054906101000a900473ffffffffffffffffffffffffffffffffffffffff1673ffffffffffffffffffffffffffffffffffffffff1673ffffffffffffffffffffffffffffffffffffffff1681526020016001820154815260200160028201805480602002602001604051908101604052809291908181526020018280548015610cb057602002820191906000526020600020905b815481526020019060010190808311610c9c575b505050505081526020016003820160009054906101000a900460ff161515151581526020016003820160019054906101000a900460ff1615151515815250509050806060015115610ddb5780608001518015610d5b57508360010160009054906101000a900473ffffffffffffffffffffffffffffffffffffffff1673ffffffffffffffffffffffffffffffffffffffff168573ffffffffffffffffffffffffffffffffffffffff16145b80610dc357508060800151158015610dc257508360020160009054906101000a900473ffffffffffffffffffffffffffffffffffffffff1673ffffffffffffffffffffffffffffffffffffffff168573ffffffffffffffffffffffffffffffffffffffff16145b5b610dda57806020015183610dd791906117f5565b92505b5b508080600101915050610b64565b5060005b82600a018054905081101561126f57600083600901600085600a018481548110610e1a57610e196118cb565b5b9060005260206000200160009054906101000a900473ffffffffffffffffffffffffffffffffffffffff1673ffffffffffffffffffffffffffffffffffffffff1673ffffffffffffffffffffffffffffffffffffffff1681526020019081526020016000206040518060a00160405290816000820160009054906101000a900473ffffffffffffffffffffffffffffffffffffffff1673ffffffffffffffffffffffffffffffffffffffff1673ffffffffffffffffffffffffffffffffffffffff1681526020016001820154815260200160028201805480602002602001604051908101604052809291908181526020018280548015610f3957602002820191906000526020600020905b815481526020019060010190808311610f25575b505050505081526020016003820160009054906101000a900460ff161515151581526020016003820160019054906101000a900460ff16151515158152505090508060600151156112615780608001518015610fe457508360010160009054906101000a900473ffffffffffffffffffffffffffffffffffffffff1673ffffffffffffffffffffffffffffffffffffffff168573ffffffffffffffffffffffffffffffffffffffff16145b8061104c5750806080015115801561104b57508360020160009054906101000a900473ffffffffffffffffffffffffffffffffffffffff1673ffffffffffffffffffffffffffffffffffffffff168573ffffffffffffffffffffffffffffffffffffffff16145b5b1561117257600084600601548260200151611067919061189a565b846110729190611829565b826020015161108191906117f5565b90506000600160009054906101000a900473ffffffffffffffffffffffffffffffffffffffff1673ffffffffffffffffffffffffffffffffffffffff1663a9059cbb8460000151846040518363ffffffff1660e01b81526004016110e6929190611aca565b6020604051808303816000875af1158015611105573d6000803e3d6000fd5b505050506040513d601f19601f820116820180604052508101906111299190611a55565b90508061116b576040517f08c379a000000000000000000000000000000000000000000000000000000000815260040161116290611b3f565b60405180910390fd5b5050611260565b6000600160009054906101000a900473ffffffffffffffffffffffffffffffffffffffff1673ffffffffffffffffffffffffffffffffffffffff1663a9059cbb836000015184602001516040518363ffffffff1660e01b81526004016111d9929190611aca565b6020604051808303816000875af11580156111f8573d6000803e3d6000fd5b505050506040513d601f19601f8201168201806040525081019061121c9190611a55565b90508061125e576040517f08c379a000000000000000000000000000000000000000000000000000000000815260040161125590611b3f565b60405180910390fd5b505b5b508080600101915050610ded565b5050505050565b8280548282559060005260206000209081019282156112b2579160200282015b828111156112b1578251825591602001919060010190611296565b5b5090506112bf91906112c3565b5090565b5b808211156112dc5760008160009055506001016112c4565b5090565b6000604051905090565b600080fd5b600080fd5b6000819050919050565b611307816112f4565b811461131257600080fd5b50565b600081359050611324816112fe565b92915050565b6000602082840312156113405761133f6112ea565b5b600061134e84828501611315565b91505092915050565b60008115159050919050565b61136c81611357565b82525050565b60006020820190506113876000830184611363565b92915050565b61139681611357565b81146113a157600080fd5b50565b6000813590506113b38161138d565b92915050565b600080fd5b6000601f19601f8301169050919050565b7f4e487b7100000000000000000000000000000000000000000000000000000000600052604160045260246000fd5b611407826113be565b810181811067ffffffffffffffff82111715611426576114256113cf565b5b80604052505050565b60006114396112e0565b905061144582826113fe565b919050565b600067ffffffffffffffff821115611465576114646113cf565b5b602082029050602081019050919050565b600080fd5b600061148e6114898461144a565b61142f565b905080838252602082019050602084028301858111156114b1576114b0611476565b5b835b818110156114da57806114c68882611315565b8452602084019350506020810190506114b3565b5050509392505050565b600082601f8301126114f9576114f86113b9565b5b813561150984826020860161147b565b91505092915050565b6000806000806080858703121561152c5761152b6112ea565b5b600061153a87828801611315565b945050602061154b878288016113a4565b935050604061155c87828801611315565b925050606085013567ffffffffffffffff81111561157d5761157c6112ef565b5b611589878288016114e4565b91505092959194509250565b61159e816112f4565b82525050565b600073ffffffffffffffffffffffffffffffffffffffff82169050919050565b60006115cf826115a4565b9050919050565b6115df816115c4565b82525050565b6000610100820190506115fb600083018b611595565b611608602083018a6115d6565b61161560408301896115d6565b6116226060830188611595565b61162f6080830187611363565b61163c60a0830186611595565b61164960c0830185611595565b61165660e0830184611595565b9998505050505050505050565b6000819050919050565b600061168861168361167e846115a4565b611663565b6115a4565b9050919050565b600061169a8261166d565b9050919050565b60006116ac8261168f565b9050919050565b6116bc816116a1565b82525050565b60006020820190506116d760008301846116b3565b92915050565b600082825260208201905092915050565b7f4469737075746520616c7265616479207265736f6c7665640000000000000000600082015250565b60006117246018836116dd565b915061172f826116ee565b602082019050919050565b6000602082019050818103600083015261175381611717565b9050919050565b7f566f74696e67207374696c6c206f6e676f696e67000000000000000000000000600082015250565b60006117906014836116dd565b915061179b8261175a565b602082019050919050565b600060208201905081810360008301526117bf81611783565b9050919050565b7f4e487b7100000000000000000000000000000000000000000000000000000000600052601160045260246000fd5b6000611800826112f4565b915061180b836112f4565b9250828201905080821115611823576118226117c6565b5b92915050565b6000611834826112f4565b915061183f836112f4565b925082820261184d816112f4565b91508282048414831517611864576118636117c6565b5b5092915050565b7f4e487b7100000000000000000000000000000000000000000000000000000000600052601260045260246000fd5b60006118a5826112f4565b91506118b0836112f4565b9250826118c0576118bf61186b565b5b828204905092915050565b7f4e487b7100000000000000000000000000000000000000000000000000000000600052603260045260246000fd5b600060608201905061190f6000830186611595565b61191c60208301856115d6565b61192960408301846115d6565b949350505050565b7f566f74696e6720646561646c696e652070617373656400000000000000000000600082015250565b60006119676016836116dd565b915061197282611931565b602082019050919050565b600060208201905081810360008301526119968161195a565b9050919050565b7f416c726561647920766f74656400000000000000000000000000000000000000600082015250565b60006119d3600d836116dd565b91506119de8261199d565b602082019050919050565b60006020820190508181036000830152611a02816119c6565b9050919050565b6000606082019050611a1e60008301866115d6565b611a2b60208301856115d6565b611a386040830184611595565b949350505050565b600081519050611a4f8161138d565b92915050565b600060208284031215611a6b57611a6a6112ea565b5b6000611a7984828501611a40565b91505092915050565b6000611a8d826112f4565b91507fffffffffffffffffffffffffffffffffffffffffffffffffffffffffffffffff8203611abf57611abe6117c6565b5b600182019050919050565b6000604082019050611adf60008301856115d6565b611aec6020830184611595565b9392505050565b7f4572726f7220696e20736574746c696e67207472616465730000000000000000600082015250565b6000611b296018836116dd565b9150611b3482611af3565b602082019050919050565b60006020820190508181036000830152611b5881611b1c565b905091905056fea2646970667358221220e727f68aa3c95ed364e640691ce549244c1c31b755909b45db337fa273bb7af764736f6c634300081b0033",
  "linkReferences": {},
  "deployedLinkReferences": {}
}