{
  "_format": "hh-sol-artifact-1",
  "contractName": "GRULL",
  "sourceName": "contracts/GRULL.sol",
  "abi": [
    {
      "inputs": [
        {
          "internalType": "address",
          "name": "initialOwner",
          "type": "address"
        }
      ],
      "stateMutability": "nonpayable",
      "type": "constructor"
    },
    {
      "inputs": [],
      "name": "CheckpointUnorderedInsertion",
      "type": "error"
    },
    {
      "inputs": [],
      "name": "ECDSAInvalidSignature",
      "type": "error"
    },
    {
      "inputs": [
        {
          "internalType": "uint256",
          "name": "length",
          "type": "uint256"
        }
      ],
      "name": "ECDSAInvalidSignatureLength",
      "type": "error"
    },
    {
      "inputs": [
        {
          "internalType": "bytes32",
          "name": "s",
          "type": "bytes32"
        }
      ],
      "name": "ECDSAInvalidSignatureS",
      "type": "error"
    },
    {
      "inputs": [
        {
          "internalType": "uint256",
          "name": "increasedSupply",
          "type": "uint256"
        },
        {
          "internalType": "uint256",
          "name": "cap",
          "type": "uint256"
        }
      ],
      "name": "ERC20ExceededSafeSupply",
      "type": "error"
    },
    {
      "inputs": [
        {
          "internalType": "address",
          "name": "spender",
          "type": "address"
        },
        {
          "internalType": "uint256",
          "name": "allowance",
          "type": "uint256"
        },
        {
          "internalType": "uint256",
          "name": "needed",
          "type": "uint256"
        }
      ],
      "name": "ERC20InsufficientAllowance",
      "type": "error"
    },
    {
      "inputs": [
        {
          "internalType": "address",
          "name": "sender",
          "type": "address"
        },
        {
          "internalType": "uint256",
          "name": "balance",
          "type": "uint256"
        },
        {
          "internalType": "uint256",
          "name": "needed",
          "type": "uint256"
        }
      ],
      "name": "ERC20InsufficientBalance",
      "type": "error"
    },
    {
      "inputs": [
        {
          "internalType": "address",
          "name": "approver",
          "type": "address"
        }
      ],
      "name": "ERC20InvalidApprover",
      "type": "error"
    },
    {
      "inputs": [
        {
          "internalType": "address",
          "name": "receiver",
          "type": "address"
        }
      ],
      "name": "ERC20InvalidReceiver",
      "type": "error"
    },
    {
      "inputs": [
        {
          "internalType": "address",
          "name": "sender",
          "type": "address"
        }
      ],
      "name": "ERC20InvalidSender",
      "type": "error"
    },
    {
      "inputs": [
        {
          "internalType": "address",
          "name": "spender",
          "type": "address"
        }
      ],
      "name": "ERC20InvalidSpender",
      "type": "error"
    },
    {
      "inputs": [
        {
          "internalType": "uint256",
          "name": "deadline",
          "type": "uint256"
        }
      ],
      "name": "ERC2612ExpiredSignature",
      "type": "error"
    },
    {
      "inputs": [
        {
          "internalType": "address",
          "name": "signer",
          "type": "address"
        },
        {
          "internalType": "address",
          "name": "owner",
          "type": "address"
        }
      ],
      "name": "ERC2612InvalidSigner",
      "type": "error"
    },
    {
      "inputs": [
        {
          "internalType": "uint256",
          "name": "maxLoan",
          "type": "uint256"
        }
      ],
      "name": "ERC3156ExceededMaxLoan",
      "type": "error"
    },
    {
      "inputs": [
        {
          "internalType": "address",
          "name": "receiver",
          "type": "address"
        }
      ],
      "name": "ERC3156InvalidReceiver",
      "type": "error"
    },
    {
      "inputs": [
        {
          "internalType": "address",
          "name": "token",
          "type": "address"
        }
      ],
      "name": "ERC3156UnsupportedToken",
      "type": "error"
    },
    {
      "inputs": [
        {
          "internalType": "uint256",
          "name": "timepoint",
          "type": "uint256"
        },
        {
          "internalType": "uint48",
          "name": "clock",
          "type": "uint48"
        }
      ],
      "name": "ERC5805FutureLookup",
      "type": "error"
    },
    {
      "inputs": [],
      "name": "ERC6372InconsistentClock",
      "type": "error"
    },
    {
      "inputs": [],
      "name": "EnforcedPause",
      "type": "error"
    },
    {
      "inputs": [],
      "name": "ExpectedPause",
      "type": "error"
    },
    {
      "inputs": [
        {
          "internalType": "address",
          "name": "account",
          "type": "address"
        },
        {
          "internalType": "uint256",
          "name": "currentNonce",
          "type": "uint256"
        }
      ],
      "name": "InvalidAccountNonce",
      "type": "error"
    },
    {
      "inputs": [],
      "name": "InvalidShortString",
      "type": "error"
    },
    {
      "inputs": [
        {
          "internalType": "address",
          "name": "owner",
          "type": "address"
        }
      ],
      "name": "OwnableInvalidOwner",
      "type": "error"
    },
    {
      "inputs": [
        {
          "internalType": "address",
          "name": "account",
          "type": "address"
        }
      ],
      "name": "OwnableUnauthorizedAccount",
      "type": "error"
    },
    {
      "inputs": [
        {
          "internalType": "uint8",
          "name": "bits",
          "type": "uint8"
        },
        {
          "internalType": "uint256",
          "name": "value",
          "type": "uint256"
        }
      ],
      "name": "SafeCastOverflowedUintDowncast",
      "type": "error"
    },
    {
      "inputs": [
        {
          "internalType": "string",
          "name": "str",
          "type": "string"
        }
      ],
      "name": "StringTooLong",
      "type": "error"
    },
    {
      "inputs": [
        {
          "internalType": "uint256",
          "name": "expiry",
          "type": "uint256"
        }
      ],
      "name": "VotesExpiredSignature",
      "type": "error"
    },
    {
      "anonymous": false,
      "inputs": [
        {
          "indexed": true,
          "internalType": "address",
          "name": "owner",
          "type": "address"
        },
        {
          "indexed": true,
          "internalType": "address",
          "name": "spender",
          "type": "address"
        },
        {
          "indexed": false,
          "internalType": "uint256",
          "name": "value",
          "type": "uint256"
        }
      ],
      "name": "Approval",
      "type": "event"
    },
    {
      "anonymous": false,
      "inputs": [
        {
          "indexed": true,
          "internalType": "address",
          "name": "delegator",
          "type": "address"
        },
        {
          "indexed": true,
          "internalType": "address",
          "name": "fromDelegate",
          "type": "address"
        },
        {
          "indexed": true,
          "internalType": "address",
          "name": "toDelegate",
          "type": "address"
        }
      ],
      "name": "DelegateChanged",
      "type": "event"
    },
    {
      "anonymous": false,
      "inputs": [
        {
          "indexed": true,
          "internalType": "address",
          "name": "delegate",
          "type": "address"
        },
        {
          "indexed": false,
          "internalType": "uint256",
          "name": "previousVotes",
          "type": "uint256"
        },
        {
          "indexed": false,
          "internalType": "uint256",
          "name": "newVotes",
          "type": "uint256"
        }
      ],
      "name": "DelegateVotesChanged",
      "type": "event"
    },
    {
      "anonymous": false,
      "inputs": [],
      "name": "EIP712DomainChanged",
      "type": "event"
    },
    {
      "anonymous": false,
      "inputs": [
        {
          "indexed": true,
          "internalType": "address",
          "name": "previousOwner",
          "type": "address"
        },
        {
          "indexed": true,
          "internalType": "address",
          "name": "newOwner",
          "type": "address"
        }
      ],
      "name": "OwnershipTransferred",
      "type": "event"
    },
    {
      "anonymous": false,
      "inputs": [
        {
          "indexed": false,
          "internalType": "address",
          "name": "account",
          "type": "address"
        }
      ],
      "name": "Paused",
      "type": "event"
    },
    {
      "anonymous": false,
      "inputs": [
        {
          "indexed": true,
          "internalType": "address",
          "name": "from",
          "type": "address"
        },
        {
          "indexed": true,
          "internalType": "address",
          "name": "to",
          "type": "address"
        },
        {
          "indexed": false,
          "internalType": "uint256",
          "name": "value",
          "type": "uint256"
        }
      ],
      "name": "Transfer",
      "type": "event"
    },
    {
      "anonymous": false,
      "inputs": [
        {
          "indexed": false,
          "internalType": "address",
          "name": "account",
          "type": "address"
        }
      ],
      "name": "Unpaused",
      "type": "event"
    },
    {
      "inputs": [],
      "name": "CLOCK_MODE",
      "outputs": [
        {
          "internalType": "string",
          "name": "",
          "type": "string"
        }
      ],
      "stateMutability": "pure",
      "type": "function"
    },
    {
      "inputs": [],
      "name": "DOMAIN_SEPARATOR",
      "outputs": [
        {
          "internalType": "bytes32",
          "name": "",
          "type": "bytes32"
        }
      ],
      "stateMutability": "view",
      "type": "function"
    },
    {
      "inputs": [
        {
          "internalType": "address",
          "name": "owner",
          "type": "address"
        },
        {
          "internalType": "address",
          "name": "spender",
          "type": "address"
        }
      ],
      "name": "allowance",
      "outputs": [
        {
          "internalType": "uint256",
          "name": "",
          "type": "uint256"
        }
      ],
      "stateMutability": "view",
      "type": "function"
    },
    {
      "inputs": [
        {
          "internalType": "address",
          "name": "spender",
          "type": "address"
        },
        {
          "internalType": "uint256",
          "name": "value",
          "type": "uint256"
        }
      ],
      "name": "approve",
      "outputs": [
        {
          "internalType": "bool",
          "name": "",
          "type": "bool"
        }
      ],
      "stateMutability": "nonpayable",
      "type": "function"
    },
    {
      "inputs": [
        {
          "internalType": "address",
          "name": "account",
          "type": "address"
        }
      ],
      "name": "balanceOf",
      "outputs": [
        {
          "internalType": "uint256",
          "name": "",
          "type": "uint256"
        }
      ],
      "stateMutability": "view",
      "type": "function"
    },
    {
      "inputs": [
        {
          "internalType": "uint256",
          "name": "value",
          "type": "uint256"
        }
      ],
      "name": "burn",
      "outputs": [],
      "stateMutability": "nonpayable",
      "type": "function"
    },
    {
      "inputs": [
        {
          "internalType": "address",
          "name": "account",
          "type": "address"
        },
        {
          "internalType": "uint256",
          "name": "value",
          "type": "uint256"
        }
      ],
      "name": "burnFrom",
      "outputs": [],
      "stateMutability": "nonpayable",
      "type": "function"
    },
    {
      "inputs": [
        {
          "internalType": "address",
          "name": "account",
          "type": "address"
        },
        {
          "internalType": "uint32",
          "name": "pos",
          "type": "uint32"
        }
      ],
      "name": "checkpoints",
      "outputs": [
        {
          "components": [
            {
              "internalType": "uint48",
              "name": "_key",
              "type": "uint48"
            },
            {
              "internalType": "uint208",
              "name": "_value",
              "type": "uint208"
            }
          ],
          "internalType": "struct Checkpoints.Checkpoint208",
          "name": "",
          "type": "tuple"
        }
      ],
      "stateMutability": "view",
      "type": "function"
    },
    {
      "inputs": [],
      "name": "clock",
      "outputs": [
        {
          "internalType": "uint48",
          "name": "",
          "type": "uint48"
        }
      ],
      "stateMutability": "view",
      "type": "function"
    },
    {
      "inputs": [],
      "name": "decimals",
      "outputs": [
        {
          "internalType": "uint8",
          "name": "",
          "type": "uint8"
        }
      ],
      "stateMutability": "view",
      "type": "function"
    },
    {
      "inputs": [
        {
          "internalType": "address",
          "name": "delegatee",
          "type": "address"
        }
      ],
      "name": "delegate",
      "outputs": [],
      "stateMutability": "nonpayable",
      "type": "function"
    },
    {
      "inputs": [
        {
          "internalType": "address",
          "name": "delegatee",
          "type": "address"
        },
        {
          "internalType": "uint256",
          "name": "nonce",
          "type": "uint256"
        },
        {
          "internalType": "uint256",
          "name": "expiry",
          "type": "uint256"
        },
        {
          "internalType": "uint8",
          "name": "v",
          "type": "uint8"
        },
        {
          "internalType": "bytes32",
          "name": "r",
          "type": "bytes32"
        },
        {
          "internalType": "bytes32",
          "name": "s",
          "type": "bytes32"
        }
      ],
      "name": "delegateBySig",
      "outputs": [],
      "stateMutability": "nonpayable",
      "type": "function"
    },
    {
      "inputs": [
        {
          "internalType": "address",
          "name": "account",
          "type": "address"
        }
      ],
      "name": "delegates",
      "outputs": [
        {
          "internalType": "address",
          "name": "",
          "type": "address"
        }
      ],
      "stateMutability": "view",
      "type": "function"
    },
    {
      "inputs": [],
      "name": "eip712Domain",
      "outputs": [
        {
          "internalType": "bytes1",
          "name": "fields",
          "type": "bytes1"
        },
        {
          "internalType": "string",
          "name": "name",
          "type": "string"
        },
        {
          "internalType": "string",
          "name": "version",
          "type": "string"
        },
        {
          "internalType": "uint256",
          "name": "chainId",
          "type": "uint256"
        },
        {
          "internalType": "address",
          "name": "verifyingContract",
          "type": "address"
        },
        {
          "internalType": "bytes32",
          "name": "salt",
          "type": "bytes32"
        },
        {
          "internalType": "uint256[]",
          "name": "extensions",
          "type": "uint256[]"
        }
      ],
      "stateMutability": "view",
      "type": "function"
    },
    {
      "inputs": [
        {
          "internalType": "address",
          "name": "token",
          "type": "address"
        },
        {
          "internalType": "uint256",
          "name": "value",
          "type": "uint256"
        }
      ],
      "name": "flashFee",
      "outputs": [
        {
          "internalType": "uint256",
          "name": "",
          "type": "uint256"
        }
      ],
      "stateMutability": "view",
      "type": "function"
    },
    {
      "inputs": [
        {
          "internalType": "contract IERC3156FlashBorrower",
          "name": "receiver",
          "type": "address"
        },
        {
          "internalType": "address",
          "name": "token",
          "type": "address"
        },
        {
          "internalType": "uint256",
          "name": "value",
          "type": "uint256"
        },
        {
          "internalType": "bytes",
          "name": "data",
          "type": "bytes"
        }
      ],
      "name": "flashLoan",
      "outputs": [
        {
          "internalType": "bool",
          "name": "",
          "type": "bool"
        }
      ],
      "stateMutability": "nonpayable",
      "type": "function"
    },
    {
      "inputs": [
        {
          "internalType": "uint256",
          "name": "timepoint",
          "type": "uint256"
        }
      ],
      "name": "getPastTotalSupply",
      "outputs": [
        {
          "internalType": "uint256",
          "name": "",
          "type": "uint256"
        }
      ],
      "stateMutability": "view",
      "type": "function"
    },
    {
      "inputs": [
        {
          "internalType": "address",
          "name": "account",
          "type": "address"
        },
        {
          "internalType": "uint256",
          "name": "timepoint",
          "type": "uint256"
        }
      ],
      "name": "getPastVotes",
      "outputs": [
        {
          "internalType": "uint256",
          "name": "",
          "type": "uint256"
        }
      ],
      "stateMutability": "view",
      "type": "function"
    },
    {
      "inputs": [
        {
          "internalType": "address",
          "name": "account",
          "type": "address"
        }
      ],
      "name": "getVotes",
      "outputs": [
        {
          "internalType": "uint256",
          "name": "",
          "type": "uint256"
        }
      ],
      "stateMutability": "view",
      "type": "function"
    },
    {
      "inputs": [
        {
          "internalType": "address",
          "name": "token",
          "type": "address"
        }
      ],
      "name": "maxFlashLoan",
      "outputs": [
        {
          "internalType": "uint256",
          "name": "",
          "type": "uint256"
        }
      ],
      "stateMutability": "view",
      "type": "function"
    },
    {
      "inputs": [
        {
          "internalType": "address",
          "name": "to",
          "type": "address"
        },
        {
          "internalType": "uint256",
          "name": "amount",
          "type": "uint256"
        }
      ],
      "name": "mint",
      "outputs": [],
      "stateMutability": "nonpayable",
      "type": "function"
    },
    {
      "inputs": [],
      "name": "name",
      "outputs": [
        {
          "internalType": "string",
          "name": "",
          "type": "string"
        }
      ],
      "stateMutability": "view",
      "type": "function"
    },
    {
      "inputs": [
        {
          "internalType": "address",
          "name": "owner",
          "type": "address"
        }
      ],
      "name": "nonces",
      "outputs": [
        {
          "internalType": "uint256",
          "name": "",
          "type": "uint256"
        }
      ],
      "stateMutability": "view",
      "type": "function"
    },
    {
      "inputs": [
        {
          "internalType": "address",
          "name": "account",
          "type": "address"
        }
      ],
      "name": "numCheckpoints",
      "outputs": [
        {
          "internalType": "uint32",
          "name": "",
          "type": "uint32"
        }
      ],
      "stateMutability": "view",
      "type": "function"
    },
    {
      "inputs": [],
      "name": "owner",
      "outputs": [
        {
          "internalType": "address",
          "name": "",
          "type": "address"
        }
      ],
      "stateMutability": "view",
      "type": "function"
    },
    {
      "inputs": [],
      "name": "pause",
      "outputs": [],
      "stateMutability": "nonpayable",
      "type": "function"
    },
    {
      "inputs": [],
      "name": "paused",
      "outputs": [
        {
          "internalType": "bool",
          "name": "",
          "type": "bool"
        }
      ],
      "stateMutability": "view",
      "type": "function"
    },
    {
      "inputs": [
        {
          "internalType": "address",
          "name": "owner",
          "type": "address"
        },
        {
          "internalType": "address",
          "name": "spender",
          "type": "address"
        },
        {
          "internalType": "uint256",
          "name": "value",
          "type": "uint256"
        },
        {
          "internalType": "uint256",
          "name": "deadline",
          "type": "uint256"
        },
        {
          "internalType": "uint8",
          "name": "v",
          "type": "uint8"
        },
        {
          "internalType": "bytes32",
          "name": "r",
          "type": "bytes32"
        },
        {
          "internalType": "bytes32",
          "name": "s",
          "type": "bytes32"
        }
      ],
      "name": "permit",
      "outputs": [],
      "stateMutability": "nonpayable",
      "type": "function"
    },
    {
      "inputs": [],
      "name": "renounceOwnership",
      "outputs": [],
      "stateMutability": "nonpayable",
      "type": "function"
    },
    {
      "inputs": [],
      "name": "symbol",
      "outputs": [
        {
          "internalType": "string",
          "name": "",
          "type": "string"
        }
      ],
      "stateMutability": "view",
      "type": "function"
    },
    {
      "inputs": [],
      "name": "totalSupply",
      "outputs": [
        {
          "internalType": "uint256",
          "name": "",
          "type": "uint256"
        }
      ],
      "stateMutability": "view",
      "type": "function"
    },
    {
      "inputs": [
        {
          "internalType": "address",
          "name": "to",
          "type": "address"
        },
        {
          "internalType": "uint256",
          "name": "value",
          "type": "uint256"
        }
      ],
      "name": "transfer",
      "outputs": [
        {
          "internalType": "bool",
          "name": "",
          "type": "bool"
        }
      ],
      "stateMutability": "nonpayable",
      "type": "function"
    },
    {
      "inputs": [
        {
          "internalType": "address",
          "name": "from",
          "type": "address"
        },
        {
          "internalType": "address",
          "name": "to",
          "type": "address"
        },
        {
          "internalType": "uint256",
          "name": "value",
          "type": "uint256"
        }
      ],
      "name": "transferFrom",
      "outputs": [
        {
          "internalType": "bool",
          "name": "",
          "type": "bool"
        }
      ],
      "stateMutability": "nonpayable",
      "type": "function"
    },
    {
      "inputs": [
        {
          "internalType": "address",
          "name": "newOwner",
          "type": "address"
        }
      ],
      "name": "transferOwnership",
      "outputs": [],
      "stateMutability": "nonpayable",
      "type": "function"
    },
    {
      "inputs": [],
      "name": "unpause",
      "outputs": [],
      "stateMutability": "nonpayable",
      "type": "function"
    }
  ],
  "bytecode": "0x61016060405234801561001157600080fd5b50604051615ee1380380615ee1833981810160405281019061003391906111dd565b6040518060400160405280600581526020017f4752554c4c000000000000000000000000000000000000000000000000000000815250806040518060400160405280600181526020017f3100000000000000000000000000000000000000000000000000000000000000815250836040518060400160405280600581526020017f4752554c4c0000000000000000000000000000000000000000000000000000008152506040518060400160405280600481526020017f47524c4c00000000000000000000000000000000000000000000000000000000815250816003908161011c919061145a565b50806004908161012c919061145a565b5050506000600560006101000a81548160ff021916908315150217905550600073ffffffffffffffffffffffffffffffffffffffff168173ffffffffffffffffffffffffffffffffffffffff16036101bc5760006040517f1e4fbdf70000000000000000000000000000000000000000000000000000000081526004016101b3919061153b565b60405180910390fd5b6101cb816102b460201b60201c565b506101e060068361037a60201b90919060201c565b61012081815250506101fc60078261037a60201b90919060201c565b6101408181525050818051906020012060e08181525050808051906020012061010081815250504660a081815250506102396103ca60201b60201c565b608081815250503073ffffffffffffffffffffffffffffffffffffffff1660c08173ffffffffffffffffffffffffffffffffffffffff16815250505050506102ae3361028961042560201b60201c565b600a61029591906116c5565b620f42406102a39190611710565b61042e60201b60201c565b50611b14565b6000600560019054906101000a900473ffffffffffffffffffffffffffffffffffffffff16905081600560016101000a81548173ffffffffffffffffffffffffffffffffffffffff021916908373ffffffffffffffffffffffffffffffffffffffff1602179055508173ffffffffffffffffffffffffffffffffffffffff168173ffffffffffffffffffffffffffffffffffffffff167f8be0079c531659141344cd1fd0a4f28419497f9722a3daafe3b4186f6b6457e060405160405180910390a35050565b600060208351101561039c57610395836104b660201b60201c565b90506103c4565b826103ac8361051e60201b60201c565b60000190816103bb919061145a565b5060ff60001b90505b92915050565b60007f8b73c3c69bb8fe3d512ecc4cf759cc79239f7b179b0ffacaa9a75d522b39400f60e05161010051463060405160200161040a95949392919061177a565b60405160208183030381529060405280519060200120905090565b60006012905090565b600073ffffffffffffffffffffffffffffffffffffffff168273ffffffffffffffffffffffffffffffffffffffff16036104a05760006040517fec442f05000000000000000000000000000000000000000000000000000000008152600401610497919061153b565b60405180910390fd5b6104b26000838361052860201b60201c565b5050565b600080829050601f8151111561050357826040517f305a27a90000000000000000000000000000000000000000000000000000000081526004016104fa9190611852565b60405180910390fd5b80518161050f906118a4565b60001c1760001b915050919050565b6000819050919050565b61053983838361053e60201b60201c565b505050565b61054f83838361060760201b60201c565b600073ffffffffffffffffffffffffffffffffffffffff168373ffffffffffffffffffffffffffffffffffffffff16036105f157600061059361062b60201b60201c565b905060006105a561063560201b60201c565b9050808211156105ee5781816040517f1cb15d260000000000000000000000000000000000000000000000000000000081526004016105e592919061190b565b60405180910390fd5b50505b61060283838361065960201b60201c565b505050565b61061561074b60201b60201c565b61062683838361079260201b60201c565b505050565b6000600254905090565b600079ffffffffffffffffffffffffffffffffffffffffffffffffffff8016905090565b600073ffffffffffffffffffffffffffffffffffffffff168373ffffffffffffffffffffffffffffffffffffffff16036106b9576106b6600b6109b760201b611363176106ab846109cd60201b60201c565b610a3b60201b60201c565b50505b600073ffffffffffffffffffffffffffffffffffffffff168273ffffffffffffffffffffffffffffffffffffffff160361071957610716600b610a8460201b6113791761070b846109cd60201b60201c565b610a3b60201b60201c565b50505b61074661072b84610a9a60201b60201c565b61073a84610a9a60201b60201c565b83610b0360201b60201c565b505050565b610759610da260201b60201c565b15610790576040517fd93c066500000000000000000000000000000000000000000000000000000000815260040160405180910390fd5b565b600073ffffffffffffffffffffffffffffffffffffffff168373ffffffffffffffffffffffffffffffffffffffff16036107e45780600260008282546107d89190611934565b925050819055506108b7565b60008060008573ffffffffffffffffffffffffffffffffffffffff1673ffffffffffffffffffffffffffffffffffffffff16815260200190815260200160002054905081811015610870578381836040517fe450d38c00000000000000000000000000000000000000000000000000000000815260040161086793929190611968565b60405180910390fd5b8181036000808673ffffffffffffffffffffffffffffffffffffffff1673ffffffffffffffffffffffffffffffffffffffff16815260200190815260200160002081905550505b600073ffffffffffffffffffffffffffffffffffffffff168273ffffffffffffffffffffffffffffffffffffffff1603610900578060026000828254039250508190555061094d565b806000808473ffffffffffffffffffffffffffffffffffffffff1673ffffffffffffffffffffffffffffffffffffffff168152602001908152602001600020600082825401925050819055505b8173ffffffffffffffffffffffffffffffffffffffff168373ffffffffffffffffffffffffffffffffffffffff167fddf252ad1be2c89b69c2b068fc378daa952ba7f163c4a11628f55a4df523b3ef836040516109aa919061199f565b60405180910390a3505050565b600081836109c591906119e0565b905092915050565b600079ffffffffffffffffffffffffffffffffffffffffffffffffffff8016821115610a335760d0826040517f6dfcc650000000000000000000000000000000000000000000000000000000008152600401610a2a929190611a69565b60405180910390fd5b819050919050565b600080610a78610a4f610db960201b60201c565b610a68610a6188610dc160201b60201c565b868860201c565b87610e2f60201b9092919060201c565b91509150935093915050565b60008183610a929190611a92565b905092915050565b6000600960008373ffffffffffffffffffffffffffffffffffffffff1673ffffffffffffffffffffffffffffffffffffffff16815260200190815260200160002060009054906101000a900473ffffffffffffffffffffffffffffffffffffffff169050919050565b8173ffffffffffffffffffffffffffffffffffffffff168373ffffffffffffffffffffffffffffffffffffffff1614158015610b3f5750600081115b15610d9d57600073ffffffffffffffffffffffffffffffffffffffff168373ffffffffffffffffffffffffffffffffffffffff1614610c7057600080610be1600a60008773ffffffffffffffffffffffffffffffffffffffff1673ffffffffffffffffffffffffffffffffffffffff168152602001908152602001600020610a8460201b61137917610bd6866109cd60201b60201c565b610a3b60201b60201c565b79ffffffffffffffffffffffffffffffffffffffffffffffffffff16915079ffffffffffffffffffffffffffffffffffffffffffffffffffff1691508473ffffffffffffffffffffffffffffffffffffffff167fdec2bacdd2f05b59de34da9b523dff8be42e5e38e818c82fdb0bae774387a7248383604051610c6592919061190b565b60405180910390a250505b600073ffffffffffffffffffffffffffffffffffffffff168273ffffffffffffffffffffffffffffffffffffffff1614610d9c57600080610d0d600a60008673ffffffffffffffffffffffffffffffffffffffff1673ffffffffffffffffffffffffffffffffffffffff1681526020019081526020016000206109b760201b61136317610d02866109cd60201b60201c565b610a3b60201b60201c565b79ffffffffffffffffffffffffffffffffffffffffffffffffffff16915079ffffffffffffffffffffffffffffffffffffffffffffffffffff1691508373ffffffffffffffffffffffffffffffffffffffff167fdec2bacdd2f05b59de34da9b523dff8be42e5e38e818c82fdb0bae774387a7248383604051610d9192919061190b565b60405180910390a250505b5b505050565b6000600560009054906101000a900460ff16905090565b600042905090565b6000808260000180549050905060008114610e2457610df583600001600183610dea9190611ae0565b610e5260201b60201c565b60000160069054906101000a900479ffffffffffffffffffffffffffffffffffffffffffffffffffff16610e27565b60005b915050919050565b600080610e46856000018585610e6760201b60201c565b91509150935093915050565b60008260005281602060002001905092915050565b600080600085805490509050600081111561108a576000610e9a87600184610e8f9190611ae0565b610e5260201b60201c565b905060008160000160009054906101000a900465ffffffffffff16905060008260000160069054906101000a900479ffffffffffffffffffffffffffffffffffffffffffffffffffff1690508765ffffffffffff168265ffffffffffff161115610f30576040517f2520601d00000000000000000000000000000000000000000000000000000000815260040160405180910390fd5b8765ffffffffffff168265ffffffffffff1603610f9b57868360000160066101000a81548179ffffffffffffffffffffffffffffffffffffffffffffffffffff021916908379ffffffffffffffffffffffffffffffffffffffffffffffffffff16021790555061107b565b8860405180604001604052808a65ffffffffffff1681526020018979ffffffffffffffffffffffffffffffffffffffffffffffffffff168152509080600181540180825580915050600190039060005260206000200160009091909190915060008201518160000160006101000a81548165ffffffffffff021916908365ffffffffffff16021790555060208201518160000160066101000a81548179ffffffffffffffffffffffffffffffffffffffffffffffffffff021916908379ffffffffffffffffffffffffffffffffffffffffffffffffffff16021790555050505b80879550955050505050611172565b8560405180604001604052808765ffffffffffff1681526020018679ffffffffffffffffffffffffffffffffffffffffffffffffffff168152509080600181540180825580915050600190039060005260206000200160009091909190915060008201518160000160006101000a81548165ffffffffffff021916908365ffffffffffff16021790555060208201518160000160066101000a81548179ffffffffffffffffffffffffffffffffffffffffffffffffffff021916908379ffffffffffffffffffffffffffffffffffffffffffffffffffff160217905550505060008492509250505b935093915050565b600080fd5b600073ffffffffffffffffffffffffffffffffffffffff82169050919050565b60006111aa8261117f565b9050919050565b6111ba8161119f565b81146111c557600080fd5b50565b6000815190506111d7816111b1565b92915050565b6000602082840312156111f3576111f261117a565b5b6000611201848285016111c8565b91505092915050565b600081519050919050565b7f4e487b7100000000000000000000000000000000000000000000000000000000600052604160045260246000fd5b7f4e487b7100000000000000000000000000000000000000000000000000000000600052602260045260246000fd5b6000600282049050600182168061128b57607f821691505b60208210810361129e5761129d611244565b5b50919050565b60008190508160005260206000209050919050565b60006020601f8301049050919050565b600082821b905092915050565b6000600883026113067fffffffffffffffffffffffffffffffffffffffffffffffffffffffffffffffff826112c9565b61131086836112c9565b95508019841693508086168417925050509392505050565b6000819050919050565b6000819050919050565b600061135761135261134d84611328565b611332565b611328565b9050919050565b6000819050919050565b6113718361133c565b61138561137d8261135e565b8484546112d6565b825550505050565b600090565b61139a61138d565b6113a5818484611368565b505050565b5b818110156113c9576113be600082611392565b6001810190506113ab565b5050565b601f82111561140e576113df816112a4565b6113e8846112b9565b810160208510156113f7578190505b61140b611403856112b9565b8301826113aa565b50505b505050565b600082821c905092915050565b600061143160001984600802611413565b1980831691505092915050565b600061144a8383611420565b9150826002028217905092915050565b6114638261120a565b67ffffffffffffffff81111561147c5761147b611215565b5b6114868254611273565b6114918282856113cd565b600060209050601f8311600181146114c457600084156114b2578287015190505b6114bc858261143e565b865550611524565b601f1984166114d2866112a4565b60005b828110156114fa578489015182556001820191506020850194506020810190506114d5565b868310156115175784890151611513601f891682611420565b8355505b6001600288020188555050505b505050505050565b6115358161119f565b82525050565b6000602082019050611550600083018461152c565b92915050565b7f4e487b7100000000000000000000000000000000000000000000000000000000600052601160045260246000fd5b60008160011c9050919050565b6000808291508390505b60018511156115dc578086048111156115b8576115b7611556565b5b60018516156115c75780820291505b80810290506115d585611585565b945061159c565b94509492505050565b6000826115f557600190506116b1565b8161160357600090506116b1565b8160018114611619576002811461162357611652565b60019150506116b1565b60ff84111561163557611634611556565b5b8360020a91508482111561164c5761164b611556565b5b506116b1565b5060208310610133831016604e8410600b84101617156116875782820a90508381111561168257611681611556565b5b6116b1565b6116948484846001611592565b925090508184048111156116ab576116aa611556565b5b81810290505b9392505050565b600060ff82169050919050565b60006116d082611328565b91506116db836116b8565b92506117087fffffffffffffffffffffffffffffffffffffffffffffffffffffffffffffffff84846115e5565b905092915050565b600061171b82611328565b915061172683611328565b925082820261173481611328565b9150828204841483151761174b5761174a611556565b5b5092915050565b6000819050919050565b61176581611752565b82525050565b61177481611328565b82525050565b600060a08201905061178f600083018861175c565b61179c602083018761175c565b6117a9604083018661175c565b6117b6606083018561176b565b6117c3608083018461152c565b9695505050505050565b600082825260208201905092915050565b60005b838110156117fc5780820151818401526020810190506117e1565b60008484015250505050565b6000601f19601f8301169050919050565b60006118248261120a565b61182e81856117cd565b935061183e8185602086016117de565b61184781611808565b840191505092915050565b6000602082019050818103600083015261186c8184611819565b905092915050565b600081519050919050565b6000819050602082019050919050565b600061189b8251611752565b80915050919050565b60006118af82611874565b826118b98461187f565b90506118c48161188f565b92506020821015611904576118ff7fffffffffffffffffffffffffffffffffffffffffffffffffffffffffffffffff836020036008026112c9565b831692505b5050919050565b6000604082019050611920600083018561176b565b61192d602083018461176b565b9392505050565b600061193f82611328565b915061194a83611328565b925082820190508082111561196257611961611556565b5b92915050565b600060608201905061197d600083018661152c565b61198a602083018561176b565b611997604083018461176b565b949350505050565b60006020820190506119b4600083018461176b565b92915050565b600079ffffffffffffffffffffffffffffffffffffffffffffffffffff82169050919050565b60006119eb826119ba565b91506119f6836119ba565b9250828201905079ffffffffffffffffffffffffffffffffffffffffffffffffffff811115611a2857611a27611556565b5b92915050565b6000819050919050565b6000611a53611a4e611a4984611a2e565b611332565b6116b8565b9050919050565b611a6381611a38565b82525050565b6000604082019050611a7e6000830185611a5a565b611a8b602083018461176b565b9392505050565b6000611a9d826119ba565b9150611aa8836119ba565b9250828203905079ffffffffffffffffffffffffffffffffffffffffffffffffffff811115611ada57611ad9611556565b5b92915050565b6000611aeb82611328565b9150611af683611328565b9250828203905081811115611b0e57611b0d611556565b5b92915050565b60805160a05160c05160e051610100516101205161014051614373611b6e6000396000611c1a01526000611bdf0152600061204301526000612022015260006115350152600061158b015260006115b401526143736000f3fe608060405234801561001057600080fd5b50600436106102115760003560e01c806370a082311161012557806395d89b41116100ad578063d505accf1161007c578063d505accf14610632578063d9d98ce41461064e578063dd62ed3e1461067e578063f1127ed8146106ae578063f2fde38b146106de57610211565b806395d89b41146105985780639ab24eb0146105b6578063a9059cbb146105e6578063c3cda5201461061657610211565b80638456cb59116100f45780638456cb59146104fe57806384b0196e146105085780638da5cb5b1461052c5780638e539e8c1461054a57806391ddadf41461057a57610211565b806370a0823114610478578063715018a6146104a857806379cc6790146104b25780637ecebe00146104ce57610211565b806340c10f19116101a85780635c19a95c116101775780635c19a95c146103ae5780635c975abb146103ca5780635cffe9de146103e8578063613255ab146104185780636fcfff451461044857610211565b806340c10f191461032857806342966c68146103445780634bf5d7e914610360578063587cde1e1461037e57610211565b8063313ce567116101e4578063313ce567146102b25780633644e515146102d05780633a46b1a8146102ee5780633f4ba83a1461031e57610211565b806306fdde0314610216578063095ea7b31461023457806318160ddd1461026457806323b872dd14610282575b600080fd5b61021e6106fa565b60405161022b9190613402565b60405180910390f35b61024e600480360381019061024991906134c2565b61078c565b60405161025b919061351d565b60405180910390f35b61026c6107af565b6040516102799190613547565b60405180910390f35b61029c60048036038101906102979190613562565b6107b9565b6040516102a9919061351d565b60405180910390f35b6102ba6107e8565b6040516102c791906135d1565b60405180910390f35b6102d86107f1565b6040516102e59190613605565b60405180910390f35b610308600480360381019061030391906134c2565b610800565b6040516103159190613547565b60405180910390f35b6103266108d9565b005b610342600480360381019061033d91906134c2565b6108eb565b005b61035e60048036038101906103599190613620565b610901565b005b610368610915565b6040516103759190613402565b60405180910390f35b6103986004803603810190610393919061364d565b610952565b6040516103a59190613689565b60405180910390f35b6103c860048036038101906103c3919061364d565b6109bb565b005b6103d26109d5565b6040516103df919061351d565b60405180910390f35b61040260048036038101906103fd9190613747565b6109ec565b60405161040f919061351d565b60405180910390f35b610432600480360381019061042d919061364d565b610be9565b60405161043f9190613547565b60405180910390f35b610462600480360381019061045d919061364d565b610c60565b60405161046f91906137ee565b60405180910390f35b610492600480360381019061048d919061364d565b610c72565b60405161049f9190613547565b60405180910390f35b6104b0610cba565b005b6104cc60048036038101906104c791906134c2565b610cce565b005b6104e860048036038101906104e3919061364d565b610cee565b6040516104f59190613547565b60405180910390f35b610506610d00565b005b610510610d12565b6040516105239796959493929190613902565b60405180910390f35b610534610dbc565b6040516105419190613689565b60405180910390f35b610564600480360381019061055f9190613620565b610de6565b6040516105719190613547565b60405180910390f35b610582610e81565b60405161058f91906139a7565b60405180910390f35b6105a0610e89565b6040516105ad9190613402565b60405180910390f35b6105d060048036038101906105cb919061364d565b610f1b565b6040516105dd9190613547565b60405180910390f35b61060060048036038101906105fb91906134c2565b610f87565b60405161060d919061351d565b60405180910390f35b610630600480360381019061062b9190613a1a565b610faa565b005b61064c60048036038101906106479190613aa7565b611070565b005b610668600480360381019061066391906134c2565b6111b8565b6040516106759190613547565b60405180910390f35b61069860048036038101906106939190613b49565b61123c565b6040516106a59190613547565b60405180910390f35b6106c860048036038101906106c39190613bb5565b6112c3565b6040516106d59190613c68565b60405180910390f35b6106f860048036038101906106f3919061364d565b6112dd565b005b60606003805461070990613cb2565b80601f016020809104026020016040519081016040528092919081815260200182805461073590613cb2565b80156107825780601f1061075757610100808354040283529160200191610782565b820191906000526020600020905b81548152906001019060200180831161076557829003601f168201915b5050505050905090565b60008061079761138f565b90506107a4818585611397565b600191505092915050565b6000600254905090565b6000806107c461138f565b90506107d18582856113a9565b6107dc85858561143d565b60019150509392505050565b60006012905090565b60006107fb611531565b905090565b60008061080b610e81565b90508065ffffffffffff16831061085b5782816040517fecd3f81e000000000000000000000000000000000000000000000000000000008152600401610852929190613ce3565b60405180910390fd5b6108b4610867846115e8565b600a60008773ffffffffffffffffffffffffffffffffffffffff1673ffffffffffffffffffffffffffffffffffffffff16815260200190815260200160002061164290919063ffffffff16565b79ffffffffffffffffffffffffffffffffffffffffffffffffffff1691505092915050565b6108e161173c565b6108e96117c3565b565b6108f361173c565b6108fd8282611826565b5050565b61091261090c61138f565b826118a8565b50565b60606040518060400160405280600e81526020017f6d6f64653d74696d657374616d70000000000000000000000000000000000000815250905090565b6000600960008373ffffffffffffffffffffffffffffffffffffffff1673ffffffffffffffffffffffffffffffffffffffff16815260200190815260200160002060009054906101000a900473ffffffffffffffffffffffffffffffffffffffff169050919050565b60006109c561138f565b90506109d1818361192a565b5050565b6000600560009054906101000a900460ff16905090565b6000806109f886610be9565b905080851115610a3f57806040517ffd9a7609000000000000000000000000000000000000000000000000000000008152600401610a369190613547565b60405180910390fd5b6000610a4b87876111b8565b9050610a578887611826565b7f439148f0bbc682ca079e46d6e2c2f0c1e3b820f1a291b069d8882abf8cf18dd98873ffffffffffffffffffffffffffffffffffffffff166323e30c8b610a9c61138f565b8a8a868b8b6040518763ffffffff1660e01b8152600401610ac296959493929190613d59565b6020604051808303816000875af1158015610ae1573d6000803e3d6000fd5b505050506040513d601f19601f82011682018060405250810190610b059190613dca565b14610b4757876040517f678c5b00000000000000000000000000000000000000000000000000000000008152600401610b3e9190613689565b60405180910390fd5b6000610b51611a3e565b9050610b698930848a610b649190613e26565b6113a9565b6000821480610ba45750600073ffffffffffffffffffffffffffffffffffffffff168173ffffffffffffffffffffffffffffffffffffffff16145b15610bc357610bbe898389610bb99190613e26565b6118a8565b610bd9565b610bcd89886118a8565b610bd889828461143d565b5b6001935050505095945050505050565b60003073ffffffffffffffffffffffffffffffffffffffff168273ffffffffffffffffffffffffffffffffffffffff1614610c25576000610c59565b610c2d6107af565b7fffffffffffffffffffffffffffffffffffffffffffffffffffffffffffffffff610c589190613e5a565b5b9050919050565b6000610c6b82611a43565b9050919050565b60008060008373ffffffffffffffffffffffffffffffffffffffff1673ffffffffffffffffffffffffffffffffffffffff168152602001908152602001600020549050919050565b610cc261173c565b610ccc6000611a9b565b565b610ce082610cda61138f565b836113a9565b610cea82826118a8565b5050565b6000610cf982611b61565b9050919050565b610d0861173c565b610d10611b73565b565b600060608060008060006060610d26611bd6565b610d2e611c11565b46306000801b600067ffffffffffffffff811115610d4f57610d4e613e8e565b5b604051908082528060200260200182016040528015610d7d5781602001602082028036833780820191505090505b507f0f00000000000000000000000000000000000000000000000000000000000000959493929190965096509650965096509650965090919293949596565b6000600560019054906101000a900473ffffffffffffffffffffffffffffffffffffffff16905090565b600080610df1610e81565b90508065ffffffffffff168310610e415782816040517fecd3f81e000000000000000000000000000000000000000000000000000000008152600401610e38929190613ce3565b60405180910390fd5b610e5d610e4d846115e8565b600b61164290919063ffffffff16565b79ffffffffffffffffffffffffffffffffffffffffffffffffffff16915050919050565b600042905090565b606060048054610e9890613cb2565b80601f0160208091040260200160405190810160405280929190818152602001828054610ec490613cb2565b8015610f115780601f10610ee657610100808354040283529160200191610f11565b820191906000526020600020905b815481529060010190602001808311610ef457829003601f168201915b5050505050905090565b6000610f64600a60008473ffffffffffffffffffffffffffffffffffffffff1673ffffffffffffffffffffffffffffffffffffffff168152602001908152602001600020611c4c565b79ffffffffffffffffffffffffffffffffffffffffffffffffffff169050919050565b600080610f9261138f565b9050610f9f81858561143d565b600191505092915050565b83421115610fef57836040517f4683af0e000000000000000000000000000000000000000000000000000000008152600401610fe69190613547565b60405180910390fd5b60006110516110497fe48329057bfd03d55e49b547132e39cffd9c1820ad7b9d4c5307691425d15adf89898960405160200161102e9493929190613ebd565b60405160208183030381529060405280519060200120611cb4565b858585611cce565b905061105d8187611cfe565b611067818861192a565b50505050505050565b834211156110b557836040517f627913020000000000000000000000000000000000000000000000000000000081526004016110ac9190613547565b60405180910390fd5b60007f6e71edae12b1b97f4d1f60370fef10105fa2faae0126114a169c64845d6126c98888886110e48c611d56565b896040516020016110fa96959493929190613f02565b604051602081830303815290604052805190602001209050600061111d82611cb4565b9050600061112d82878787611cce565b90508973ffffffffffffffffffffffffffffffffffffffff168173ffffffffffffffffffffffffffffffffffffffff16146111a157808a6040517f4b800e46000000000000000000000000000000000000000000000000000000008152600401611198929190613f63565b60405180910390fd5b6111ac8a8a8a611397565b50505050505050505050565b60003073ffffffffffffffffffffffffffffffffffffffff168373ffffffffffffffffffffffffffffffffffffffff161461122a57826040517fb5a7db920000000000000000000000000000000000000000000000000000000081526004016112219190613689565b60405180910390fd5b6112348383611dad565b905092915050565b6000600160008473ffffffffffffffffffffffffffffffffffffffff1673ffffffffffffffffffffffffffffffffffffffff16815260200190815260200160002060008373ffffffffffffffffffffffffffffffffffffffff1673ffffffffffffffffffffffffffffffffffffffff16815260200190815260200160002054905092915050565b6112cb613334565b6112d58383611db5565b905092915050565b6112e561173c565b600073ffffffffffffffffffffffffffffffffffffffff168173ffffffffffffffffffffffffffffffffffffffff16036113575760006040517f1e4fbdf700000000000000000000000000000000000000000000000000000000815260040161134e9190613689565b60405180910390fd5b61136081611a9b565b50565b600081836113719190613f8c565b905092915050565b600081836113879190613fda565b905092915050565b600033905090565b6113a48383836001611e16565b505050565b60006113b5848461123c565b90507fffffffffffffffffffffffffffffffffffffffffffffffffffffffffffffffff81146114375781811015611427578281836040517ffb8f41b200000000000000000000000000000000000000000000000000000000815260040161141e93929190614028565b60405180910390fd5b61143684848484036000611e16565b5b50505050565b600073ffffffffffffffffffffffffffffffffffffffff168373ffffffffffffffffffffffffffffffffffffffff16036114af5760006040517f96c6fd1e0000000000000000000000000000000000000000000000000000000081526004016114a69190613689565b60405180910390fd5b600073ffffffffffffffffffffffffffffffffffffffff168273ffffffffffffffffffffffffffffffffffffffff16036115215760006040517fec442f050000000000000000000000000000000000000000000000000000000081526004016115189190613689565b60405180910390fd5b61152c838383611fed565b505050565b60007f000000000000000000000000000000000000000000000000000000000000000073ffffffffffffffffffffffffffffffffffffffff163073ffffffffffffffffffffffffffffffffffffffff161480156115ad57507f000000000000000000000000000000000000000000000000000000000000000046145b156115da577f000000000000000000000000000000000000000000000000000000000000000090506115e5565b6115e2611ffd565b90505b90565b600065ffffffffffff801682111561163a576030826040517f6dfcc6500000000000000000000000000000000000000000000000000000000081526004016116319291906140a4565b60405180910390fd5b819050919050565b6000808360000180549050905060008082905060058311156116ca57600061166984612093565b846116749190613e5a565b90506116838760000182612230565b60000160009054906101000a900465ffffffffffff1665ffffffffffff168665ffffffffffff1610156116b8578091506116c8565b6001816116c59190613e26565b92505b505b60006116db87600001878585612245565b90506000811461172d576116fe876000016001836116f99190613e5a565b612230565b60000160069054906101000a900479ffffffffffffffffffffffffffffffffffffffffffffffffffff16611730565b60005b94505050505092915050565b61174461138f565b73ffffffffffffffffffffffffffffffffffffffff16611762610dbc565b73ffffffffffffffffffffffffffffffffffffffff16146117c15761178561138f565b6040517f118cdaa70000000000000000000000000000000000000000000000000000000081526004016117b89190613689565b60405180910390fd5b565b6117cb6122be565b6000600560006101000a81548160ff0219169083151502179055507f5db9ee0a495bf2e6ff9c91a7834c1ba4fdd244a5e8aa4e537bd38aeae4b073aa61180f61138f565b60405161181c9190613689565b60405180910390a1565b600073ffffffffffffffffffffffffffffffffffffffff168273ffffffffffffffffffffffffffffffffffffffff16036118985760006040517fec442f0500000000000000000000000000000000000000000000000000000000815260040161188f9190613689565b60405180910390fd5b6118a460008383611fed565b5050565b600073ffffffffffffffffffffffffffffffffffffffff168273ffffffffffffffffffffffffffffffffffffffff160361191a5760006040517f96c6fd1e0000000000000000000000000000000000000000000000000000000081526004016119119190613689565b60405180910390fd5b61192682600083611fed565b5050565b600061193583610952565b905081600960008573ffffffffffffffffffffffffffffffffffffffff1673ffffffffffffffffffffffffffffffffffffffff16815260200190815260200160002060006101000a81548173ffffffffffffffffffffffffffffffffffffffff021916908373ffffffffffffffffffffffffffffffffffffffff1602179055508173ffffffffffffffffffffffffffffffffffffffff168173ffffffffffffffffffffffffffffffffffffffff168473ffffffffffffffffffffffffffffffffffffffff167f3134e8a2e6d97e929a7e54011ea5485d7d196dd5f0ba4d4ef95803e8e3fc257f60405160405180910390a4611a398183611a34866122fe565b612310565b505050565b600090565b6000611a94611a8f600a60008573ffffffffffffffffffffffffffffffffffffffff1673ffffffffffffffffffffffffffffffffffffffff168152602001908152602001600020612589565b61259a565b9050919050565b6000600560019054906101000a900473ffffffffffffffffffffffffffffffffffffffff16905081600560016101000a81548173ffffffffffffffffffffffffffffffffffffffff021916908373ffffffffffffffffffffffffffffffffffffffff1602179055508173ffffffffffffffffffffffffffffffffffffffff168173ffffffffffffffffffffffffffffffffffffffff167f8be0079c531659141344cd1fd0a4f28419497f9722a3daafe3b4186f6b6457e060405160405180910390a35050565b6000611b6c826125f2565b9050919050565b611b7b61263b565b6001600560006101000a81548160ff0219169083151502179055507f62e78cea01bee320cd4e420270b5ea74000d11b0c9f74754ebdbfc544b05a258611bbf61138f565b604051611bcc9190613689565b60405180910390a1565b6060611c0c60067f000000000000000000000000000000000000000000000000000000000000000061267c90919063ffffffff16565b905090565b6060611c4760077f000000000000000000000000000000000000000000000000000000000000000061267c90919063ffffffff16565b905090565b6000808260000180549050905060008114611ca957611c7a83600001600183611c759190613e5a565b612230565b60000160069054906101000a900479ffffffffffffffffffffffffffffffffffffffffffffffffffff16611cac565b60005b915050919050565b6000611cc7611cc1611531565b8361272c565b9050919050565b600080600080611ce08888888861276d565b925092509250611cf08282612861565b829350505050949350505050565b6000611d0983611d56565b9050808214611d515782816040517f752d88c0000000000000000000000000000000000000000000000000000000008152600401611d489291906140cd565b60405180910390fd5b505050565b6000600860008373ffffffffffffffffffffffffffffffffffffffff1673ffffffffffffffffffffffffffffffffffffffff1681526020019081526020016000206000815480929190600101919050559050919050565b600092915050565b611dbd613334565b611e0e82600a60008673ffffffffffffffffffffffffffffffffffffffff1673ffffffffffffffffffffffffffffffffffffffff1681526020019081526020016000206129c590919063ffffffff16565b905092915050565b600073ffffffffffffffffffffffffffffffffffffffff168473ffffffffffffffffffffffffffffffffffffffff1603611e885760006040517fe602df05000000000000000000000000000000000000000000000000000000008152600401611e7f9190613689565b60405180910390fd5b600073ffffffffffffffffffffffffffffffffffffffff168373ffffffffffffffffffffffffffffffffffffffff1603611efa5760006040517f94280d62000000000000000000000000000000000000000000000000000000008152600401611ef19190613689565b60405180910390fd5b81600160008673ffffffffffffffffffffffffffffffffffffffff1673ffffffffffffffffffffffffffffffffffffffff16815260200190815260200160002060008573ffffffffffffffffffffffffffffffffffffffff1673ffffffffffffffffffffffffffffffffffffffff168152602001908152602001600020819055508015611fe7578273ffffffffffffffffffffffffffffffffffffffff168473ffffffffffffffffffffffffffffffffffffffff167f8c5be1e5ebec7d5bd14f71427d1e84f3dd0314c0f7b2291e5b200ac8c7c3b92584604051611fde9190613547565b60405180910390a35b50505050565b611ff8838383612a9a565b505050565b60007f8b73c3c69bb8fe3d512ecc4cf759cc79239f7b179b0ffacaa9a75d522b39400f7f00000000000000000000000000000000000000000000000000000000000000007f000000000000000000000000000000000000000000000000000000000000000046306040516020016120789594939291906140f6565b60405160208183030381529060405280519060200120905090565b6000600182116120a55781905061222b565b600082905060006001905070010000000000000000000000000000000082106120d757608082901c9150604081901b90505b6801000000000000000082106120f657604082901c9150602081901b90505b640100000000821061211157602082901c9150601081901b90505b62010000821061212a57601082901c9150600881901b90505b610100821061214257600882901c9150600481901b90505b6010821061215957600482901c9150600281901b90505b6004821061216957600181901b90505b600181600302901c9050600181858161218557612184614149565b5b048201901c9050600181858161219e5761219d614149565b5b048201901c905060018185816121b7576121b6614149565b5b048201901c905060018185816121d0576121cf614149565b5b048201901c905060018185816121e9576121e8614149565b5b048201901c9050600181858161220257612201614149565b5b048201901c905061222481858161221c5761221b614149565b5b048211612b4b565b8103925050505b919050565b60008260005281602060002001905092915050565b60005b818310156122b357600061225c8484612b57565b90508465ffffffffffff166122718783612230565b60000160009054906101000a900465ffffffffffff1665ffffffffffff16111561229d578092506122ad565b6001816122aa9190613e26565b93505b50612248565b819050949350505050565b6122c66109d5565b6122fc576040517f8dfc202b00000000000000000000000000000000000000000000000000000000815260040160405180910390fd5b565b600061230982610c72565b9050919050565b8173ffffffffffffffffffffffffffffffffffffffff168373ffffffffffffffffffffffffffffffffffffffff161415801561234c5750600081115b1561258457600073ffffffffffffffffffffffffffffffffffffffff168373ffffffffffffffffffffffffffffffffffffffff161461246a576000806123db600a60008773ffffffffffffffffffffffffffffffffffffffff1673ffffffffffffffffffffffffffffffffffffffff1681526020019081526020016000206113796123d686612b7d565b612beb565b79ffffffffffffffffffffffffffffffffffffffffffffffffffff16915079ffffffffffffffffffffffffffffffffffffffffffffffffffff1691508473ffffffffffffffffffffffffffffffffffffffff167fdec2bacdd2f05b59de34da9b523dff8be42e5e38e818c82fdb0bae774387a724838360405161245f929190614178565b60405180910390a250505b600073ffffffffffffffffffffffffffffffffffffffff168273ffffffffffffffffffffffffffffffffffffffff1614612583576000806124f4600a60008673ffffffffffffffffffffffffffffffffffffffff1673ffffffffffffffffffffffffffffffffffffffff1681526020019081526020016000206113636124ef86612b7d565b612beb565b79ffffffffffffffffffffffffffffffffffffffffffffffffffff16915079ffffffffffffffffffffffffffffffffffffffffffffffffffff1691508373ffffffffffffffffffffffffffffffffffffffff167fdec2bacdd2f05b59de34da9b523dff8be42e5e38e818c82fdb0bae774387a7248383604051612578929190614178565b60405180910390a250505b5b505050565b600081600001805490509050919050565b600063ffffffff80168211156125ea576020826040517f6dfcc6500000000000000000000000000000000000000000000000000000000081526004016125e19291906141dc565b60405180910390fd5b819050919050565b6000600860008373ffffffffffffffffffffffffffffffffffffffff1673ffffffffffffffffffffffffffffffffffffffff168152602001908152602001600020549050919050565b6126436109d5565b1561267a576040517fd93c066500000000000000000000000000000000000000000000000000000000815260040160405180910390fd5b565b606060ff60001b83146126995761269283612c2b565b9050612726565b8180546126a590613cb2565b80601f01602080910402602001604051908101604052809291908181526020018280546126d190613cb2565b801561271e5780601f106126f35761010080835404028352916020019161271e565b820191906000526020600020905b81548152906001019060200180831161270157829003601f168201915b505050505090505b92915050565b60006040517f190100000000000000000000000000000000000000000000000000000000000081528360028201528260228201526042812091505092915050565b60008060007f7fffffffffffffffffffffffffffffff5d576e7357a4501ddfe92f46681b20a08460001c11156127ad576000600385925092509250612857565b6000600188888888604051600081526020016040526040516127d29493929190614205565b6020604051602081039080840390855afa1580156127f4573d6000803e3d6000fd5b505050602060405103519050600073ffffffffffffffffffffffffffffffffffffffff168173ffffffffffffffffffffffffffffffffffffffff160361284857600060016000801b93509350935050612857565b8060008060001b935093509350505b9450945094915050565b600060038111156128755761287461424a565b5b8260038111156128885761288761424a565b5b03156129c157600160038111156128a2576128a161424a565b5b8260038111156128b5576128b461424a565b5b036128ec576040517ff645eedf00000000000000000000000000000000000000000000000000000000815260040160405180910390fd5b60026003811115612900576128ff61424a565b5b8260038111156129135761291261424a565b5b03612958578060001c6040517ffce698f700000000000000000000000000000000000000000000000000000000815260040161294f9190613547565b60405180910390fd5b60038081111561296b5761296a61424a565b5b82600381111561297e5761297d61424a565b5b036129c057806040517fd78bce0c0000000000000000000000000000000000000000000000000000000081526004016129b79190613605565b60405180910390fd5b5b5050565b6129cd613334565b826000018263ffffffff16815481106129e9576129e8614279565b5b906000526020600020016040518060400160405290816000820160009054906101000a900465ffffffffffff1665ffffffffffff1665ffffffffffff1681526020016000820160069054906101000a900479ffffffffffffffffffffffffffffffffffffffffffffffffffff1679ffffffffffffffffffffffffffffffffffffffffffffffffffff1679ffffffffffffffffffffffffffffffffffffffffffffffffffff1681525050905092915050565b612aa5838383612c9f565b600073ffffffffffffffffffffffffffffffffffffffff168373ffffffffffffffffffffffffffffffffffffffff1603612b3b576000612ae36107af565b90506000612aef612cb7565b905080821115612b385781816040517f1cb15d26000000000000000000000000000000000000000000000000000000008152600401612b2f929190614178565b60405180910390fd5b50505b612b46838383612cdb565b505050565b60008115159050919050565b60006002828418612b6891906142a8565b828416612b759190613e26565b905092915050565b600079ffffffffffffffffffffffffffffffffffffffffffffffffffff8016821115612be35760d0826040517f6dfcc650000000000000000000000000000000000000000000000000000000008152600401612bda929190614314565b60405180910390fd5b819050919050565b600080612c1f612bf9610e81565b612c0f612c0588611c4c565b868863ffffffff16565b87612d959092919063ffffffff16565b91509150935093915050565b60606000612c3883612db2565b90506000602067ffffffffffffffff811115612c5757612c56613e8e565b5b6040519080825280601f01601f191660200182016040528015612c895781602001600182028036833780820191505090505b5090508181528360208201528092505050919050565b612ca761263b565b612cb2838383612e02565b505050565b600079ffffffffffffffffffffffffffffffffffffffffffffffffffff8016905090565b600073ffffffffffffffffffffffffffffffffffffffff168373ffffffffffffffffffffffffffffffffffffffff1603612d2857612d25600b611363612d2084612b7d565b612beb565b50505b600073ffffffffffffffffffffffffffffffffffffffff168273ffffffffffffffffffffffffffffffffffffffff1603612d7557612d72600b611379612d6d84612b7d565b612beb565b50505b612d90612d8184610952565b612d8a84610952565b83612310565b505050565b600080612da6856000018585613027565b91509150935093915050565b60008060ff8360001c169050601f811115612df9576040517fb3512b0c00000000000000000000000000000000000000000000000000000000815260040160405180910390fd5b80915050919050565b600073ffffffffffffffffffffffffffffffffffffffff168373ffffffffffffffffffffffffffffffffffffffff1603612e54578060026000828254612e489190613e26565b92505081905550612f27565b60008060008573ffffffffffffffffffffffffffffffffffffffff1673ffffffffffffffffffffffffffffffffffffffff16815260200190815260200160002054905081811015612ee0578381836040517fe450d38c000000000000000000000000000000000000000000000000000000008152600401612ed793929190614028565b60405180910390fd5b8181036000808673ffffffffffffffffffffffffffffffffffffffff1673ffffffffffffffffffffffffffffffffffffffff16815260200190815260200160002081905550505b600073ffffffffffffffffffffffffffffffffffffffff168273ffffffffffffffffffffffffffffffffffffffff1603612f705780600260008282540392505081905550612fbd565b806000808473ffffffffffffffffffffffffffffffffffffffff1673ffffffffffffffffffffffffffffffffffffffff168152602001908152602001600020600082825401925050819055505b8173ffffffffffffffffffffffffffffffffffffffff168373ffffffffffffffffffffffffffffffffffffffff167fddf252ad1be2c89b69c2b068fc378daa952ba7f163c4a11628f55a4df523b3ef8360405161301a9190613547565b60405180910390a3505050565b60008060008580549050905060008111156132445760006130548760018461304f9190613e5a565b612230565b905060008160000160009054906101000a900465ffffffffffff16905060008260000160069054906101000a900479ffffffffffffffffffffffffffffffffffffffffffffffffffff1690508765ffffffffffff168265ffffffffffff1611156130ea576040517f2520601d00000000000000000000000000000000000000000000000000000000815260040160405180910390fd5b8765ffffffffffff168265ffffffffffff160361315557868360000160066101000a81548179ffffffffffffffffffffffffffffffffffffffffffffffffffff021916908379ffffffffffffffffffffffffffffffffffffffffffffffffffff160217905550613235565b8860405180604001604052808a65ffffffffffff1681526020018979ffffffffffffffffffffffffffffffffffffffffffffffffffff168152509080600181540180825580915050600190039060005260206000200160009091909190915060008201518160000160006101000a81548165ffffffffffff021916908365ffffffffffff16021790555060208201518160000160066101000a81548179ffffffffffffffffffffffffffffffffffffffffffffffffffff021916908379ffffffffffffffffffffffffffffffffffffffffffffffffffff16021790555050505b8087955095505050505061332c565b8560405180604001604052808765ffffffffffff1681526020018679ffffffffffffffffffffffffffffffffffffffffffffffffffff168152509080600181540180825580915050600190039060005260206000200160009091909190915060008201518160000160006101000a81548165ffffffffffff021916908365ffffffffffff16021790555060208201518160000160066101000a81548179ffffffffffffffffffffffffffffffffffffffffffffffffffff021916908379ffffffffffffffffffffffffffffffffffffffffffffffffffff160217905550505060008492509250505b935093915050565b6040518060400160405280600065ffffffffffff168152602001600079ffffffffffffffffffffffffffffffffffffffffffffffffffff1681525090565b600081519050919050565b600082825260208201905092915050565b60005b838110156133ac578082015181840152602081019050613391565b60008484015250505050565b6000601f19601f8301169050919050565b60006133d482613372565b6133de818561337d565b93506133ee81856020860161338e565b6133f7816133b8565b840191505092915050565b6000602082019050818103600083015261341c81846133c9565b905092915050565b600080fd5b600080fd5b600073ffffffffffffffffffffffffffffffffffffffff82169050919050565b60006134598261342e565b9050919050565b6134698161344e565b811461347457600080fd5b50565b60008135905061348681613460565b92915050565b6000819050919050565b61349f8161348c565b81146134aa57600080fd5b50565b6000813590506134bc81613496565b92915050565b600080604083850312156134d9576134d8613424565b5b60006134e785828601613477565b92505060206134f8858286016134ad565b9150509250929050565b60008115159050919050565b61351781613502565b82525050565b6000602082019050613532600083018461350e565b92915050565b6135418161348c565b82525050565b600060208201905061355c6000830184613538565b92915050565b60008060006060848603121561357b5761357a613424565b5b600061358986828701613477565b935050602061359a86828701613477565b92505060406135ab868287016134ad565b9150509250925092565b600060ff82169050919050565b6135cb816135b5565b82525050565b60006020820190506135e660008301846135c2565b92915050565b6000819050919050565b6135ff816135ec565b82525050565b600060208201905061361a60008301846135f6565b92915050565b60006020828403121561363657613635613424565b5b6000613644848285016134ad565b91505092915050565b60006020828403121561366357613662613424565b5b600061367184828501613477565b91505092915050565b6136838161344e565b82525050565b600060208201905061369e600083018461367a565b92915050565b60006136af8261344e565b9050919050565b6136bf816136a4565b81146136ca57600080fd5b50565b6000813590506136dc816136b6565b92915050565b600080fd5b600080fd5b600080fd5b60008083601f840112613707576137066136e2565b5b8235905067ffffffffffffffff811115613724576137236136e7565b5b6020830191508360018202830111156137405761373f6136ec565b5b9250929050565b60008060008060006080868803121561376357613762613424565b5b6000613771888289016136cd565b955050602061378288828901613477565b9450506040613793888289016134ad565b935050606086013567ffffffffffffffff8111156137b4576137b3613429565b5b6137c0888289016136f1565b92509250509295509295909350565b600063ffffffff82169050919050565b6137e8816137cf565b82525050565b600060208201905061380360008301846137df565b92915050565b60007fff0000000000000000000000000000000000000000000000000000000000000082169050919050565b61383e81613809565b82525050565b600081519050919050565b600082825260208201905092915050565b6000819050602082019050919050565b6138798161348c565b82525050565b600061388b8383613870565b60208301905092915050565b6000602082019050919050565b60006138af82613844565b6138b9818561384f565b93506138c483613860565b8060005b838110156138f55781516138dc888261387f565b97506138e783613897565b9250506001810190506138c8565b5085935050505092915050565b600060e082019050613917600083018a613835565b818103602083015261392981896133c9565b9050818103604083015261393d81886133c9565b905061394c6060830187613538565b613959608083018661367a565b61396660a08301856135f6565b81810360c083015261397881846138a4565b905098975050505050505050565b600065ffffffffffff82169050919050565b6139a181613986565b82525050565b60006020820190506139bc6000830184613998565b92915050565b6139cb816135b5565b81146139d657600080fd5b50565b6000813590506139e8816139c2565b92915050565b6139f7816135ec565b8114613a0257600080fd5b50565b600081359050613a14816139ee565b92915050565b60008060008060008060c08789031215613a3757613a36613424565b5b6000613a4589828a01613477565b9650506020613a5689828a016134ad565b9550506040613a6789828a016134ad565b9450506060613a7889828a016139d9565b9350506080613a8989828a01613a05565b92505060a0613a9a89828a01613a05565b9150509295509295509295565b600080600080600080600060e0888a031215613ac657613ac5613424565b5b6000613ad48a828b01613477565b9750506020613ae58a828b01613477565b9650506040613af68a828b016134ad565b9550506060613b078a828b016134ad565b9450506080613b188a828b016139d9565b93505060a0613b298a828b01613a05565b92505060c0613b3a8a828b01613a05565b91505092959891949750929550565b60008060408385031215613b6057613b5f613424565b5b6000613b6e85828601613477565b9250506020613b7f85828601613477565b9150509250929050565b613b92816137cf565b8114613b9d57600080fd5b50565b600081359050613baf81613b89565b92915050565b60008060408385031215613bcc57613bcb613424565b5b6000613bda85828601613477565b9250506020613beb85828601613ba0565b9150509250929050565b613bfe81613986565b82525050565b600079ffffffffffffffffffffffffffffffffffffffffffffffffffff82169050919050565b613c3381613c04565b82525050565b604082016000820151613c4f6000850182613bf5565b506020820151613c626020850182613c2a565b50505050565b6000604082019050613c7d6000830184613c39565b92915050565b7f4e487b7100000000000000000000000000000000000000000000000000000000600052602260045260246000fd5b60006002820490506001821680613cca57607f821691505b602082108103613cdd57613cdc613c83565b5b50919050565b6000604082019050613cf86000830185613538565b613d056020830184613998565b9392505050565b600082825260208201905092915050565b82818337600083830152505050565b6000613d388385613d0c565b9350613d45838584613d1d565b613d4e836133b8565b840190509392505050565b600060a082019050613d6e600083018961367a565b613d7b602083018861367a565b613d886040830187613538565b613d956060830186613538565b8181036080830152613da8818486613d2c565b9050979650505050505050565b600081519050613dc4816139ee565b92915050565b600060208284031215613de057613ddf613424565b5b6000613dee84828501613db5565b91505092915050565b7f4e487b7100000000000000000000000000000000000000000000000000000000600052601160045260246000fd5b6000613e318261348c565b9150613e3c8361348c565b9250828201905080821115613e5457613e53613df7565b5b92915050565b6000613e658261348c565b9150613e708361348c565b9250828203905081811115613e8857613e87613df7565b5b92915050565b7f4e487b7100000000000000000000000000000000000000000000000000000000600052604160045260246000fd5b6000608082019050613ed260008301876135f6565b613edf602083018661367a565b613eec6040830185613538565b613ef96060830184613538565b95945050505050565b600060c082019050613f1760008301896135f6565b613f24602083018861367a565b613f31604083018761367a565b613f3e6060830186613538565b613f4b6080830185613538565b613f5860a0830184613538565b979650505050505050565b6000604082019050613f78600083018561367a565b613f85602083018461367a565b9392505050565b6000613f9782613c04565b9150613fa283613c04565b9250828201905079ffffffffffffffffffffffffffffffffffffffffffffffffffff811115613fd457613fd3613df7565b5b92915050565b6000613fe582613c04565b9150613ff083613c04565b9250828203905079ffffffffffffffffffffffffffffffffffffffffffffffffffff81111561402257614021613df7565b5b92915050565b600060608201905061403d600083018661367a565b61404a6020830185613538565b6140576040830184613538565b949350505050565b6000819050919050565b6000819050919050565b600061408e6140896140848461405f565b614069565b6135b5565b9050919050565b61409e81614073565b82525050565b60006040820190506140b96000830185614095565b6140c66020830184613538565b9392505050565b60006040820190506140e2600083018561367a565b6140ef6020830184613538565b9392505050565b600060a08201905061410b60008301886135f6565b61411860208301876135f6565b61412560408301866135f6565b6141326060830185613538565b61413f608083018461367a565b9695505050505050565b7f4e487b7100000000000000000000000000000000000000000000000000000000600052601260045260246000fd5b600060408201905061418d6000830185613538565b61419a6020830184613538565b9392505050565b6000819050919050565b60006141c66141c16141bc846141a1565b614069565b6135b5565b9050919050565b6141d6816141ab565b82525050565b60006040820190506141f160008301856141cd565b6141fe6020830184613538565b9392505050565b600060808201905061421a60008301876135f6565b61422760208301866135c2565b61423460408301856135f6565b61424160608301846135f6565b95945050505050565b7f4e487b7100000000000000000000000000000000000000000000000000000000600052602160045260246000fd5b7f4e487b7100000000000000000000000000000000000000000000000000000000600052603260045260246000fd5b60006142b38261348c565b91506142be8361348c565b9250826142ce576142cd614149565b5b828204905092915050565b6000819050919050565b60006142fe6142f96142f4846142d9565b614069565b6135b5565b9050919050565b61430e816142e3565b82525050565b60006040820190506143296000830185614305565b6143366020830184613538565b939250505056fea26469706673582212206e63f2e85b6c97997b7742e072c7dc91fdd497ee21a6e284fd0367eaf57c396f64736f6c634300081b0033",
  "linkReferences": {},
  "deployedLinkReferences": {}
}