{
  "_format": "hh-sol-artifact-1",
  "contractName": "Marketplace",
  "sourceName": "contracts/Marketplace.sol",
  "abi": [
    {
      "inputs": [
        {
          "internalType": "address",
          "name": "tokenAddress",
          "type": "address"
        },
        {
          "internalType": "address",
          "name": "disputeHandler",
          "type": "address"
        }
      ],
      "stateMutability": "nonpayable",
      "type": "constructor"
    },
    {
      "inputs": [
        {
          "internalType": "address",
          "name": "owner",
          "type": "address"
        }
      ],
      "name": "OwnableInvalidOwner",
      "type": "error"
    },
    {
      "inputs": [
        {
          "internalType": "address",
          "name": "account",
          "type": "address"
        }
      ],
      "name": "OwnableUnauthorizedAccount",
      "type": "error"
    },
    {
      "anonymous": false,
      "inputs": [
        {
          "indexed": true,
          "internalType": "uint256",
          "name": "disputeId",
          "type": "uint256"
        },
        {
          "indexed": true,
          "internalType": "address",
          "name": "creator",
          "type": "address"
        },
        {
          "indexed": false,
          "internalType": "address",
          "name": "clientA",
          "type": "address"
        },
        {
          "indexed": false,
          "internalType": "address",
          "name": "clientB",
          "type": "address"
        },
        {
          "indexed": false,
          "internalType": "string",
          "name": "description",
          "type": "string"
        },
        {
          "indexed": false,
          "internalType": "uint256",
          "name": "votingDeadline",
          "type": "uint256"
        }
      ],
      "name": "DisputeCreated",
      "type": "event"
    },
    {
      "anonymous": false,
      "inputs": [
        {
          "indexed": true,
          "internalType": "uint256",
          "name": "disputeId",
          "type": "uint256"
        }
      ],
      "name": "DisputeResolved",
      "type": "event"
    },
    {
      "anonymous": false,
      "inputs": [
        {
          "indexed": true,
          "internalType": "address",
          "name": "previousOwner",
          "type": "address"
        },
        {
          "indexed": true,
          "internalType": "address",
          "name": "newOwner",
          "type": "address"
        }
      ],
      "name": "OwnershipTransferred",
      "type": "event"
    },
    {
      "inputs": [],
      "name": "buyGRULL",
      "outputs": [
        {
          "internalType": "bool",
          "name": "",
          "type": "bool"
        }
      ],
      "stateMutability": "payable",
      "type": "function"
    },
    {
      "inputs": [
        {
          "internalType": "address",
          "name": "_clientA",
          "type": "address"
        },
        {
          "internalType": "address",
          "name": "_clientB",
          "type": "address"
        },
        {
          "internalType": "string",
          "name": "_description",
          "type": "string"
        },
        {
          "internalType": "uint256",
          "name": "_votingDeadline",
          "type": "uint256"
        },
        {
          "internalType": "uint256[]",
          "name": "_skillsReqd",
          "type": "uint256[]"
        }
      ],
      "name": "createDispute",
      "outputs": [],
      "stateMutability": "nonpayable",
      "type": "function"
    },
    {
      "inputs": [
        {
          "internalType": "uint256",
          "name": "",
          "type": "uint256"
        }
      ],
      "name": "disputes",
      "outputs": [
        {
          "internalType": "uint256",
          "name": "id",
          "type": "uint256"
        },
        {
          "internalType": "address",
          "name": "creator",
          "type": "address"
        },
        {
          "internalType": "address",
          "name": "clientA",
          "type": "address"
        },
        {
          "internalType": "address",
          "name": "clientB",
          "type": "address"
        },
        {
          "internalType": "string",
          "name": "description",
          "type": "string"
        },
        {
          "internalType": "uint256",
          "name": "votingDeadline",
          "type": "uint256"
        },
        {
          "internalType": "bool",
          "name": "isResolved",
          "type": "bool"
        }
      ],
      "stateMutability": "view",
      "type": "function"
    },
    {
      "inputs": [
        {
          "internalType": "uint256",
          "name": "_disputeId",
          "type": "uint256"
        }
      ],
      "name": "getDispute",
      "outputs": [
        {
          "components": [
            {
              "internalType": "uint256",
              "name": "id",
              "type": "uint256"
            },
            {
              "internalType": "address",
              "name": "creator",
              "type": "address"
            },
            {
              "internalType": "address",
              "name": "clientA",
              "type": "address"
            },
            {
              "internalType": "address",
              "name": "clientB",
              "type": "address"
            },
            {
              "internalType": "string",
              "name": "description",
              "type": "string"
            },
            {
              "internalType": "uint256[]",
              "name": "skillsReqd",
              "type": "uint256[]"
            },
            {
              "internalType": "uint256",
              "name": "votingDeadline",
              "type": "uint256"
            },
            {
              "internalType": "bool",
              "name": "isResolved",
              "type": "bool"
            }
          ],
          "internalType": "struct Marketplace.Dispute",
          "name": "",
          "type": "tuple"
        }
      ],
      "stateMutability": "view",
      "type": "function"
    },
    {
      "inputs": [],
      "name": "getDisputeCount",
      "outputs": [
        {
          "internalType": "uint256",
          "name": "",
          "type": "uint256"
        }
      ],
      "stateMutability": "view",
      "type": "function"
    },
    {
      "inputs": [
        {
          "internalType": "uint256",
          "name": "_disputeId",
          "type": "uint256"
        }
      ],
      "name": "getDisputeResolved",
      "outputs": [],
      "stateMutability": "nonpayable",
      "type": "function"
    },
    {
      "inputs": [
        {
          "internalType": "uint256",
          "name": "_disputeId",
          "type": "uint256"
        }
      ],
      "name": "getDisputeStatus",
      "outputs": [
        {
          "internalType": "bool",
          "name": "",
          "type": "bool"
        }
      ],
      "stateMutability": "view",
      "type": "function"
    },
    {
      "inputs": [],
      "name": "owner",
      "outputs": [
        {
          "internalType": "address",
          "name": "",
          "type": "address"
        }
      ],
      "stateMutability": "view",
      "type": "function"
    },
    {
      "inputs": [],
      "name": "renounceOwnership",
      "outputs": [],
      "stateMutability": "nonpayable",
      "type": "function"
    },
    {
      "inputs": [
        {
          "internalType": "address",
          "name": "newOwner",
          "type": "address"
        }
      ],
      "name": "transferOwnership",
      "outputs": [],
      "stateMutability": "nonpayable",
      "type": "function"
    }
  ],
  "bytecode": "0x60c0604052600060025534801561001557600080fd5b5060405161222238038061222283398181016040528101906100379190610250565b33600073ffffffffffffffffffffffffffffffffffffffff168173ffffffffffffffffffffffffffffffffffffffff16036100aa5760006040517f1e4fbdf70000000000000000000000000000000000000000000000000000000081526004016100a1919061029f565b60405180910390fd5b6100b98161012960201b60201c565b508173ffffffffffffffffffffffffffffffffffffffff1660a08173ffffffffffffffffffffffffffffffffffffffff16815250508073ffffffffffffffffffffffffffffffffffffffff1660808173ffffffffffffffffffffffffffffffffffffffff168152505050506102ba565b60008060009054906101000a900473ffffffffffffffffffffffffffffffffffffffff169050816000806101000a81548173ffffffffffffffffffffffffffffffffffffffff021916908373ffffffffffffffffffffffffffffffffffffffff1602179055508173ffffffffffffffffffffffffffffffffffffffff168173ffffffffffffffffffffffffffffffffffffffff167f8be0079c531659141344cd1fd0a4f28419497f9722a3daafe3b4186f6b6457e060405160405180910390a35050565b600080fd5b600073ffffffffffffffffffffffffffffffffffffffff82169050919050565b600061021d826101f2565b9050919050565b61022d81610212565b811461023857600080fd5b50565b60008151905061024a81610224565b92915050565b60008060408385031215610267576102666101ed565b5b60006102758582860161023b565b92505060206102868582860161023b565b9150509250929050565b61029981610212565b82525050565b60006020820190506102b46000830184610290565b92915050565b60805160a051611f436102df6000396000610780015260006109ac0152611f436000f3fe6080604052600436106100915760003560e01c806371a753c31161005957806371a753c3146101815780638da5cb5b1461019f5780639b89d4fd146101ca578063e3a96cbd146101f3578063f2fde38b1461023057610091565b806310987b771461009657806320f7aa3f146100c1578063222219e6146100fe578063564a565d14610127578063715018a61461016a575b600080fd5b3480156100a257600080fd5b506100ab610259565b6040516100b89190611066565b60405180910390f35b3480156100cd57600080fd5b506100e860048036038101906100e391906110c1565b610263565b6040516100f59190611109565b60405180910390f35b34801561010a57600080fd5b5061012560048036038101906101209190611390565b6102e0565b005b34801561013357600080fd5b5061014e600480360381019061014991906110c1565b61061f565b60405161016197969594939291906114d1565b60405180910390f35b34801561017657600080fd5b5061017f610756565b005b61018961076a565b6040516101969190611109565b60405180910390f35b3480156101ab57600080fd5b506101b4610826565b6040516101c19190611547565b60405180910390f35b3480156101d657600080fd5b506101f160048036038101906101ec91906110c1565b61084f565b005b3480156101ff57600080fd5b5061021a600480360381019061021591906110c1565b610ae7565b604051610227919061173f565b60405180910390f35b34801561023c57600080fd5b5061025760048036038101906102529190611761565b610d81565b005b6000600254905090565b6000808211801561027657506002548211155b6102b5576040517f08c379a00000000000000000000000000000000000000000000000000000000081526004016102ac906117da565b60405180910390fd5b6001600083815260200190815260200160002060070160009054906101000a900460ff169050919050565b8373ffffffffffffffffffffffffffffffffffffffff168573ffffffffffffffffffffffffffffffffffffffff160361034e576040517f08c379a000000000000000000000000000000000000000000000000000000000815260040161034590611846565b60405180910390fd5b6000835111610392576040517f08c379a0000000000000000000000000000000000000000000000000000000008152600401610389906118b2565b60405180910390fd5b4282116103d4576040517f08c379a00000000000000000000000000000000000000000000000000000000081526004016103cb90611944565b60405180910390fd5b600260008154809291906103e790611993565b919050555060405180610100016040528060025481526020013373ffffffffffffffffffffffffffffffffffffffff1681526020018673ffffffffffffffffffffffffffffffffffffffff1681526020018573ffffffffffffffffffffffffffffffffffffffff168152602001848152602001828152602001838152602001600015158152506001600060025481526020019081526020016000206000820151816000015560208201518160010160006101000a81548173ffffffffffffffffffffffffffffffffffffffff021916908373ffffffffffffffffffffffffffffffffffffffff16021790555060408201518160020160006101000a81548173ffffffffffffffffffffffffffffffffffffffff021916908373ffffffffffffffffffffffffffffffffffffffff16021790555060608201518160030160006101000a81548173ffffffffffffffffffffffffffffffffffffffff021916908373ffffffffffffffffffffffffffffffffffffffff16021790555060808201518160040190816105769190611be7565b5060a0820151816005019080519060200190610593929190610f5a565b5060c0820151816006015560e08201518160070160006101000a81548160ff0219169083151502179055509050503373ffffffffffffffffffffffffffffffffffffffff166002547f84cc6176a87c4c0fa1b2660f39f582e4b29cbf20161a5e7d1b1c77237008f88b878787876040516106109493929190611cb9565b60405180910390a35050505050565b60016020528060005260406000206000915090508060000154908060010160009054906101000a900473ffffffffffffffffffffffffffffffffffffffff16908060020160009054906101000a900473ffffffffffffffffffffffffffffffffffffffff16908060030160009054906101000a900473ffffffffffffffffffffffffffffffffffffffff16908060040180546106ba90611a0a565b80601f01602080910402602001604051908101604052809291908181526020018280546106e690611a0a565b80156107335780601f1061070857610100808354040283529160200191610733565b820191906000526020600020905b81548152906001019060200180831161071657829003601f168201915b5050505050908060060154908060070160009054906101000a900460ff16905087565b61075e610e07565b6107686000610e8e565b565b60008060643461077a9190611d05565b905060007f000000000000000000000000000000000000000000000000000000000000000073ffffffffffffffffffffffffffffffffffffffff1663a9059cbb33846040518363ffffffff1660e01b81526004016107d9929190611d47565b6020604051808303816000875af11580156107f8573d6000803e3d6000fd5b505050506040513d601f19601f8201168201806040525081019061081c9190611d9c565b9050809250505090565b60008060009054906101000a900473ffffffffffffffffffffffffffffffffffffffff16905090565b60008111801561086157506002548111155b6108a0576040517f08c379a0000000000000000000000000000000000000000000000000000000008152600401610897906117da565b60405180910390fd5b6001600082815260200190815260200160002060070160009054906101000a900460ff1615610904576040517f08c379a00000000000000000000000000000000000000000000000000000000081526004016108fb90611e15565b60405180910390fd5b3373ffffffffffffffffffffffffffffffffffffffff166001600083815260200190815260200160002060010160009054906101000a900473ffffffffffffffffffffffffffffffffffffffff1673ffffffffffffffffffffffffffffffffffffffff16146109a8576040517f08c379a000000000000000000000000000000000000000000000000000000000815260040161099f90611e81565b60405180910390fd5b60007f000000000000000000000000000000000000000000000000000000000000000073ffffffffffffffffffffffffffffffffffffffff16631c099ad6836040518263ffffffff1660e01b8152600401610a039190611066565b6020604051808303816000875af1158015610a22573d6000803e3d6000fd5b505050506040513d601f19601f82011682018060405250810190610a469190611d9c565b905080610a88576040517f08c379a0000000000000000000000000000000000000000000000000000000008152600401610a7f90611eed565b60405180910390fd5b600180600084815260200190815260200160002060070160006101000a81548160ff021916908315150217905550817f57cce005d496355471bb5269f1dea3d6c81b6ac14c1d74ba28aefb022357013b60405160405180910390a25050565b610aef610fa7565b600082118015610b0157506002548211155b610b40576040517f08c379a0000000000000000000000000000000000000000000000000000000008152600401610b37906117da565b60405180910390fd5b6001600083815260200190815260200160002060405180610100016040529081600082015481526020016001820160009054906101000a900473ffffffffffffffffffffffffffffffffffffffff1673ffffffffffffffffffffffffffffffffffffffff1673ffffffffffffffffffffffffffffffffffffffff1681526020016002820160009054906101000a900473ffffffffffffffffffffffffffffffffffffffff1673ffffffffffffffffffffffffffffffffffffffff1673ffffffffffffffffffffffffffffffffffffffff1681526020016003820160009054906101000a900473ffffffffffffffffffffffffffffffffffffffff1673ffffffffffffffffffffffffffffffffffffffff1673ffffffffffffffffffffffffffffffffffffffff168152602001600482018054610c7b90611a0a565b80601f0160208091040260200160405190810160405280929190818152602001828054610ca790611a0a565b8015610cf45780601f10610cc957610100808354040283529160200191610cf4565b820191906000526020600020905b815481529060010190602001808311610cd757829003601f168201915b5050505050815260200160058201805480602002602001604051908101604052809291908181526020018280548015610d4c57602002820191906000526020600020905b815481526020019060010190808311610d38575b50505050508152602001600682015481526020016007820160009054906101000a900460ff1615151515815250509050919050565b610d89610e07565b600073ffffffffffffffffffffffffffffffffffffffff168173ffffffffffffffffffffffffffffffffffffffff1603610dfb5760006040517f1e4fbdf7000000000000000000000000000000000000000000000000000000008152600401610df29190611547565b60405180910390fd5b610e0481610e8e565b50565b610e0f610f52565b73ffffffffffffffffffffffffffffffffffffffff16610e2d610826565b73ffffffffffffffffffffffffffffffffffffffff1614610e8c57610e50610f52565b6040517f118cdaa7000000000000000000000000000000000000000000000000000000008152600401610e839190611547565b60405180910390fd5b565b60008060009054906101000a900473ffffffffffffffffffffffffffffffffffffffff169050816000806101000a81548173ffffffffffffffffffffffffffffffffffffffff021916908373ffffffffffffffffffffffffffffffffffffffff1602179055508173ffffffffffffffffffffffffffffffffffffffff168173ffffffffffffffffffffffffffffffffffffffff167f8be0079c531659141344cd1fd0a4f28419497f9722a3daafe3b4186f6b6457e060405160405180910390a35050565b600033905090565b828054828255906000526020600020908101928215610f96579160200282015b82811115610f95578251825591602001919060010190610f7a565b5b509050610fa39190611030565b5090565b60405180610100016040528060008152602001600073ffffffffffffffffffffffffffffffffffffffff168152602001600073ffffffffffffffffffffffffffffffffffffffff168152602001600073ffffffffffffffffffffffffffffffffffffffff1681526020016060815260200160608152602001600081526020016000151581525090565b5b80821115611049576000816000905550600101611031565b5090565b6000819050919050565b6110608161104d565b82525050565b600060208201905061107b6000830184611057565b92915050565b6000604051905090565b600080fd5b600080fd5b61109e8161104d565b81146110a957600080fd5b50565b6000813590506110bb81611095565b92915050565b6000602082840312156110d7576110d661108b565b5b60006110e5848285016110ac565b91505092915050565b60008115159050919050565b611103816110ee565b82525050565b600060208201905061111e60008301846110fa565b92915050565b600073ffffffffffffffffffffffffffffffffffffffff82169050919050565b600061114f82611124565b9050919050565b61115f81611144565b811461116a57600080fd5b50565b60008135905061117c81611156565b92915050565b600080fd5b600080fd5b6000601f19601f8301169050919050565b7f4e487b7100000000000000000000000000000000000000000000000000000000600052604160045260246000fd5b6111d58261118c565b810181811067ffffffffffffffff821117156111f4576111f361119d565b5b80604052505050565b6000611207611081565b905061121382826111cc565b919050565b600067ffffffffffffffff8211156112335761123261119d565b5b61123c8261118c565b9050602081019050919050565b82818337600083830152505050565b600061126b61126684611218565b6111fd565b90508281526020810184848401111561128757611286611187565b5b611292848285611249565b509392505050565b600082601f8301126112af576112ae611182565b5b81356112bf848260208601611258565b91505092915050565b600067ffffffffffffffff8211156112e3576112e261119d565b5b602082029050602081019050919050565b600080fd5b600061130c611307846112c8565b6111fd565b9050808382526020820190506020840283018581111561132f5761132e6112f4565b5b835b81811015611358578061134488826110ac565b845260208401935050602081019050611331565b5050509392505050565b600082601f83011261137757611376611182565b5b81356113878482602086016112f9565b91505092915050565b600080600080600060a086880312156113ac576113ab61108b565b5b60006113ba8882890161116d565b95505060206113cb8882890161116d565b945050604086013567ffffffffffffffff8111156113ec576113eb611090565b5b6113f88882890161129a565b9350506060611409888289016110ac565b925050608086013567ffffffffffffffff81111561142a57611429611090565b5b61143688828901611362565b9150509295509295909350565b61144c81611144565b82525050565b600081519050919050565b600082825260208201905092915050565b60005b8381101561148c578082015181840152602081019050611471565b60008484015250505050565b60006114a382611452565b6114ad818561145d565b93506114bd81856020860161146e565b6114c68161118c565b840191505092915050565b600060e0820190506114e6600083018a611057565b6114f36020830189611443565b6115006040830188611443565b61150d6060830187611443565b818103608083015261151f8186611498565b905061152e60a0830185611057565b61153b60c08301846110fa565b98975050505050505050565b600060208201905061155c6000830184611443565b92915050565b61156b8161104d565b82525050565b61157a81611144565b82525050565b600082825260208201905092915050565b600061159c82611452565b6115a68185611580565b93506115b681856020860161146e565b6115bf8161118c565b840191505092915050565b600081519050919050565b600082825260208201905092915050565b6000819050602082019050919050565b60006116028383611562565b60208301905092915050565b6000602082019050919050565b6000611626826115ca565b61163081856115d5565b935061163b836115e6565b8060005b8381101561166c57815161165388826115f6565b975061165e8361160e565b92505060018101905061163f565b5085935050505092915050565b611682816110ee565b82525050565b6000610100830160008301516116a16000860182611562565b5060208301516116b46020860182611571565b5060408301516116c76040860182611571565b5060608301516116da6060860182611571565b50608083015184820360808601526116f28282611591565b91505060a083015184820360a086015261170c828261161b565b91505060c083015161172160c0860182611562565b5060e083015161173460e0860182611679565b508091505092915050565b600060208201905081810360008301526117598184611688565b905092915050565b6000602082840312156117775761177661108b565b5b60006117858482850161116d565b91505092915050565b7f496e76616c696420646973707574652049440000000000000000000000000000600082015250565b60006117c460128361145d565b91506117cf8261178e565b602082019050919050565b600060208201905081810360008301526117f3816117b7565b9050919050565b7f54776f20706172746965732063616e742062652073616d650000000000000000600082015250565b600061183060188361145d565b915061183b826117fa565b602082019050919050565b6000602082019050818103600083015261185f81611823565b9050919050565b7f4465736372697074696f6e2063616e6e6f7420626520656d7074790000000000600082015250565b600061189c601b8361145d565b91506118a782611866565b602082019050919050565b600060208201905081810360008301526118cb8161188f565b9050919050565b7f566f74696e6720646561646c696e65206d75737420626520696e20746865206660008201527f7574757265000000000000000000000000000000000000000000000000000000602082015250565b600061192e60258361145d565b9150611939826118d2565b604082019050919050565b6000602082019050818103600083015261195d81611921565b9050919050565b7f4e487b7100000000000000000000000000000000000000000000000000000000600052601160045260246000fd5b600061199e8261104d565b91507fffffffffffffffffffffffffffffffffffffffffffffffffffffffffffffffff82036119d0576119cf611964565b5b600182019050919050565b7f4e487b7100000000000000000000000000000000000000000000000000000000600052602260045260246000fd5b60006002820490506001821680611a2257607f821691505b602082108103611a3557611a346119db565b5b50919050565b60008190508160005260206000209050919050565b60006020601f8301049050919050565b600082821b905092915050565b600060088302611a9d7fffffffffffffffffffffffffffffffffffffffffffffffffffffffffffffffff82611a60565b611aa78683611a60565b95508019841693508086168417925050509392505050565b6000819050919050565b6000611ae4611adf611ada8461104d565b611abf565b61104d565b9050919050565b6000819050919050565b611afe83611ac9565b611b12611b0a82611aeb565b848454611a6d565b825550505050565b600090565b611b27611b1a565b611b32818484611af5565b505050565b5b81811015611b5657611b4b600082611b1f565b600181019050611b38565b5050565b601f821115611b9b57611b6c81611a3b565b611b7584611a50565b81016020851015611b84578190505b611b98611b9085611a50565b830182611b37565b50505b505050565b600082821c905092915050565b6000611bbe60001984600802611ba0565b1980831691505092915050565b6000611bd78383611bad565b9150826002028217905092915050565b611bf082611452565b67ffffffffffffffff811115611c0957611c0861119d565b5b611c138254611a0a565b611c1e828285611b5a565b600060209050601f831160018114611c515760008415611c3f578287015190505b611c498582611bcb565b865550611cb1565b601f198416611c5f86611a3b565b60005b82811015611c8757848901518255600182019150602085019450602081019050611c62565b86831015611ca45784890151611ca0601f891682611bad565b8355505b6001600288020188555050505b505050505050565b6000608082019050611cce6000830187611443565b611cdb6020830186611443565b8181036040830152611ced8185611498565b9050611cfc6060830184611057565b95945050505050565b6000611d108261104d565b9150611d1b8361104d565b9250828202611d298161104d565b91508282048414831517611d4057611d3f611964565b5b5092915050565b6000604082019050611d5c6000830185611443565b611d696020830184611057565b9392505050565b611d79816110ee565b8114611d8457600080fd5b50565b600081519050611d9681611d70565b92915050565b600060208284031215611db257611db161108b565b5b6000611dc084828501611d87565b91505092915050565b7f4469737075746520697320616c7265616479207265736f6c7665640000000000600082015250565b6000611dff601b8361145d565b9150611e0a82611dc9565b602082019050919050565b60006020820190508181036000830152611e2e81611df2565b9050919050565b7f4163636573732064656e69656400000000000000000000000000000000000000600082015250565b6000611e6b600d8361145d565b9150611e7682611e35565b602082019050919050565b60006020820190508181036000830152611e9a81611e5e565b9050919050565b7f4572726f72207769746820736574746c656d656e740000000000000000000000600082015250565b6000611ed760158361145d565b9150611ee282611ea1565b602082019050919050565b60006020820190508181036000830152611f0681611eca565b905091905056fea2646970667358221220fff8ef9775fdf2ca526c9ce112f752e256ab55cdfbb27e04030f275458e7f87764736f6c634300081b0033",
  "linkReferences": {},
  "deployedLinkReferences": {}
}