{
  "_format": "hh-sol-artifact-1",
  "contractName": "DisputeHandler",
  "sourceName": "contracts/DISPUTE_HANDLER.sol",
  "abi": [
    {
      "inputs": [
        {
          "internalType": "address",
          "name": "_grullToken",
          "type": "address"
        }
      ],
      "stateMutability": "nonpayable",
      "type": "constructor"
    },
    {
      "inputs": [
        {
          "internalType": "address",
          "name": "owner",
          "type": "address"
        }
      ],
      "name": "OwnableInvalidOwner",
      "type": "error"
    },
    {
      "inputs": [
        {
          "internalType": "address",
          "name": "account",
          "type": "address"
        }
      ],
      "name": "OwnableUnauthorizedAccount",
      "type": "error"
    },
    {
      "anonymous": false,
      "inputs": [
        {
          "indexed": false,
          "internalType": "uint256",
          "name": "disputeId",
          "type": "uint256"
        },
        {
          "indexed": false,
          "internalType": "address",
          "name": "winner",
          "type": "address"
        },
        {
          "indexed": false,
          "internalType": "address",
          "name": "loser",
          "type": "address"
        }
      ],
      "name": "DisputeSettled",
      "type": "event"
    },
    {
      "anonymous": false,
      "inputs": [
        {
          "indexed": true,
          "internalType": "address",
          "name": "previousOwner",
          "type": "address"
        },
        {
          "indexed": true,
          "internalType": "address",
          "name": "newOwner",
          "type": "address"
        }
      ],
      "name": "OwnershipTransferred",
      "type": "event"
    },
    {
      "inputs": [],
      "name": "GRULL_TOKEN_ADDRESS",
      "outputs": [
        {
          "internalType": "address",
          "name": "",
          "type": "address"
        }
      ],
      "stateMutability": "view",
      "type": "function"
    },
    {
      "inputs": [
        {
          "internalType": "uint256",
          "name": "",
          "type": "uint256"
        }
      ],
      "name": "disputes",
      "outputs": [
        {
          "internalType": "uint256",
          "name": "id",
          "type": "uint256"
        },
        {
          "internalType": "address",
          "name": "clientA",
          "type": "address"
        },
        {
          "internalType": "address",
          "name": "clientB",
          "type": "address"
        },
        {
          "internalType": "uint256",
          "name": "votingDeadline",
          "type": "uint256"
        },
        {
          "internalType": "bool",
          "name": "isResolved",
          "type": "bool"
        },
        {
          "internalType": "uint256",
          "name": "totalStaked",
          "type": "uint256"
        },
        {
          "internalType": "uint256",
          "name": "votesForA",
          "type": "uint256"
        },
        {
          "internalType": "uint256",
          "name": "votesForB",
          "type": "uint256"
        }
      ],
      "stateMutability": "view",
      "type": "function"
    },
    {
      "inputs": [],
      "name": "getGRULLOwnership",
      "outputs": [],
      "stateMutability": "nonpayable",
      "type": "function"
    },
    {
      "inputs": [],
      "name": "grullToken",
      "outputs": [
        {
          "internalType": "contract IERC20",
          "name": "",
          "type": "address"
        }
      ],
      "stateMutability": "view",
      "type": "function"
    },
    {
      "inputs": [
        {
          "components": [
            {
              "internalType": "uint256",
              "name": "id",
              "type": "uint256"
            },
            {
              "internalType": "address",
              "name": "creator",
              "type": "address"
            },
            {
              "internalType": "address",
              "name": "clientA",
              "type": "address"
            },
            {
              "internalType": "address",
              "name": "clientB",
              "type": "address"
            },
            {
              "internalType": "string",
              "name": "description",
              "type": "string"
            },
            {
              "internalType": "uint256[]",
              "name": "skillsReqd",
              "type": "uint256[]"
            },
            {
              "internalType": "uint256",
              "name": "votingDeadline",
              "type": "uint256"
            },
            {
              "internalType": "bool",
              "name": "isResolved",
              "type": "bool"
            },
            {
              "internalType": "address",
              "name": "winner",
              "type": "address"
            }
          ],
          "internalType": "struct IMARKETPLACE.Dispute",
          "name": "_newDispute",
          "type": "tuple"
        },
        {
          "internalType": "uint256",
          "name": "disputeCount",
          "type": "uint256"
        }
      ],
      "name": "handleCreateDispute",
      "outputs": [
        {
          "internalType": "bool",
          "name": "",
          "type": "bool"
        }
      ],
      "stateMutability": "nonpayable",
      "type": "function"
    },
    {
      "inputs": [
        {
          "internalType": "uint256",
          "name": "stakedAmount",
          "type": "uint256"
        },
        {
          "internalType": "uint256[]",
          "name": "jurySkills",
          "type": "uint256[]"
        },
        {
          "internalType": "uint256[]",
          "name": "requiredSkills",
          "type": "uint256[]"
        }
      ],
      "name": "normaliser",
      "outputs": [
        {
          "internalType": "uint256",
          "name": "",
          "type": "uint256"
        }
      ],
      "stateMutability": "pure",
      "type": "function"
    },
    {
      "inputs": [],
      "name": "owner",
      "outputs": [
        {
          "internalType": "address",
          "name": "",
          "type": "address"
        }
      ],
      "stateMutability": "view",
      "type": "function"
    },
    {
      "inputs": [],
      "name": "renounceOwnership",
      "outputs": [],
      "stateMutability": "nonpayable",
      "type": "function"
    },
    {
      "inputs": [
        {
          "internalType": "address",
          "name": "_address",
          "type": "address"
        }
      ],
      "name": "setGRULLApproveal",
      "outputs": [
        {
          "internalType": "bool",
          "name": "",
          "type": "bool"
        }
      ],
      "stateMutability": "nonpayable",
      "type": "function"
    },
    {
      "inputs": [
        {
          "internalType": "uint256",
          "name": "disputeId",
          "type": "uint256"
        }
      ],
      "name": "settleDispute",
      "outputs": [
        {
          "internalType": "bool",
          "name": "",
          "type": "bool"
        },
        {
          "internalType": "address",
          "name": "",
          "type": "address"
        }
      ],
      "stateMutability": "nonpayable",
      "type": "function"
    },
    {
      "inputs": [
        {
          "internalType": "uint256",
          "name": "disputeId",
          "type": "uint256"
        },
        {
          "internalType": "bool",
          "name": "voteForA",
          "type": "bool"
        },
        {
          "internalType": "uint256",
          "name": "stakeAmount",
          "type": "uint256"
        },
        {
          "internalType": "uint256[]",
          "name": "skills",
          "type": "uint256[]"
        }
      ],
      "name": "stakeAndVote",
      "outputs": [],
      "stateMutability": "nonpayable",
      "type": "function"
    },
    {
      "inputs": [
        {
          "internalType": "address",
          "name": "newOwner",
          "type": "address"
        }
      ],
      "name": "transferOwnership",
      "outputs": [],
      "stateMutability": "nonpayable",
      "type": "function"
    },
    {
      "inputs": [],
      "name": "withdrawFunds",
      "outputs": [],
      "stateMutability": "payable",
      "type": "function"
    }
  ],
  "bytecode": "0x60a060405234801561001057600080fd5b50604051612cc5380380612cc583398181016040528101906100329190610257565b33600073ffffffffffffffffffffffffffffffffffffffff168173ffffffffffffffffffffffffffffffffffffffff16036100a55760006040517f1e4fbdf700000000000000000000000000000000000000000000000000000000815260040161009c9190610293565b60405180910390fd5b6100b48161013060201b60201c565b508073ffffffffffffffffffffffffffffffffffffffff1660808173ffffffffffffffffffffffffffffffffffffffff168152505080600260006101000a81548173ffffffffffffffffffffffffffffffffffffffff021916908373ffffffffffffffffffffffffffffffffffffffff160217905550506102ae565b60008060009054906101000a900473ffffffffffffffffffffffffffffffffffffffff169050816000806101000a81548173ffffffffffffffffffffffffffffffffffffffff021916908373ffffffffffffffffffffffffffffffffffffffff1602179055508173ffffffffffffffffffffffffffffffffffffffff168173ffffffffffffffffffffffffffffffffffffffff167f8be0079c531659141344cd1fd0a4f28419497f9722a3daafe3b4186f6b6457e060405160405180910390a35050565b600080fd5b600073ffffffffffffffffffffffffffffffffffffffff82169050919050565b6000610224826101f9565b9050919050565b61023481610219565b811461023f57600080fd5b50565b6000815190506102518161022b565b92915050565b60006020828403121561026d5761026c6101f4565b5b600061027b84828501610242565b91505092915050565b61028d81610219565b82525050565b60006020820190506102a86000830184610284565b92915050565b6080516129ee6102d76000396000818161076501528181610c4b0152610ead01526129ee6000f3fe6080604052600436106100c25760003560e01c80638da5cb5b1161007f578063c9cf5ddf11610059578063c9cf5ddf1461023d578063f2fde38b14610268578063f5d4663514610291578063ff65cdae146102ce576100c2565b80638da5cb5b146101be578063a2d687ef146101e9578063c4b9c72e14610200576100c2565b80631c099ad6146100c757806324600fc3146101055780633c4cd4771461010f57806348dbec2e1461013a578063564a565d14610163578063715018a6146101a7575b600080fd5b3480156100d357600080fd5b506100ee60048036038101906100e99190611c65565b61030b565b6040516100fc929190611cee565b60405180910390f35b61010d6106a9565b005b34801561011b57600080fd5b50610124610763565b6040516101319190611d17565b60405180910390f35b34801561014657600080fd5b50610161600480360381019061015c9190611eb7565b610787565b005b34801561016f57600080fd5b5061018a60048036038101906101859190611c65565b610b6f565b60405161019e989796959493929190611f49565b60405180910390f35b3480156101b357600080fd5b506101bc610c04565b005b3480156101ca57600080fd5b506101d3610c18565b6040516101e09190611d17565b60405180910390f35b3480156101f557600080fd5b506101fe610c41565b005b34801561020c57600080fd5b50610227600480360381019061022291906121ca565b610cd6565b6040516102349190612226565b60405180910390f35b34801561024957600080fd5b50610252610df5565b60405161025f91906122a0565b60405180910390f35b34801561027457600080fd5b5061028f600480360381019061028a91906122bb565b610e1b565b005b34801561029d57600080fd5b506102b860048036038101906102b391906122bb565b610ea1565b6040516102c59190612226565b60405180910390f35b3480156102da57600080fd5b506102f560048036038101906102f091906122e8565b610f5d565b6040516103029190612373565b60405180910390f35b60008060006001600085815260200190815260200160002090508060050160009054906101000a900460ff1615610377576040517f08c379a000000000000000000000000000000000000000000000000000000000815260040161036e906123eb565b60405180910390fd5b428160040154106103bd576040517f08c379a00000000000000000000000000000000000000000000000000000000081526004016103b490612457565b60405180910390fd5b6000816008015482600701546103d391906124a6565b905060006064603c836103e691906124da565b6103f0919061254b565b905060006103fe87836110e1565b905060008060005b835181101561058557600087600901600086848151811061042a5761042961257c565b5b602002602001015173ffffffffffffffffffffffffffffffffffffffff1673ffffffffffffffffffffffffffffffffffffffff168152602001908152602001600020905060018160030160006101000a81548160ff021916908315150217905550600061053b826002018054806020026020016040519081016040528092919081815260200182805480156104de57602002820191906000526020600020905b8154815260200190600101908083116104ca575b50505050508a60030180548060200260200160405190810160405280929190818152602001828054801561053157602002820191906000526020600020905b81548152602001906001019080831161051d575b5050505050611277565b90508160030160019054906101000a900460ff161561056757808561056091906124a6565b9450610576565b808461057391906124a6565b93505b50508080600101915050610406565b50600080828411156105e4578760010160009054906101000a900473ffffffffffffffffffffffffffffffffffffffff1691508760020160009054906101000a900473ffffffffffffffffffffffffffffffffffffffff169050610633565b8760020160009054906101000a900473ffffffffffffffffffffffffffffffffffffffff1691508760010160009054906101000a900473ffffffffffffffffffffffffffffffffffffffff1690505b61063d8b83611306565b60018860050160006101000a81548160ff0219169083151502179055507f35877583839d988b6da68ba7e2b2836d26c0d18b83d80943b5633ded778bc4fc8b838360405161068d939291906125ab565b60405180910390a1600182995099505050505050505050915091565b6106b1611a33565b6000803373ffffffffffffffffffffffffffffffffffffffff16346040516106d890612613565b60006040518083038185875af1925050503d8060008114610715576040519150601f19603f3d011682016040523d82523d6000602084013e61071a565b606091505b50915091508161075f576040517f08c379a000000000000000000000000000000000000000000000000000000000815260040161075690612674565b60405180910390fd5b5050565b7f000000000000000000000000000000000000000000000000000000000000000081565b426001600086815260200190815260200160002060040154116107df576040517f08c379a00000000000000000000000000000000000000000000000000000000081526004016107d6906126e0565b60405180910390fd5b60006001600086815260200190815260200160002060090160003373ffffffffffffffffffffffffffffffffffffffff1673ffffffffffffffffffffffffffffffffffffffff1681526020019081526020016000206001015414610878576040517f08c379a000000000000000000000000000000000000000000000000000000000815260040161086f9061274c565b60405180910390fd5b600260009054906101000a900473ffffffffffffffffffffffffffffffffffffffff1673ffffffffffffffffffffffffffffffffffffffff166323b872dd3230856040518463ffffffff1660e01b81526004016108d79392919061276c565b6020604051808303816000875af11580156108f6573d6000803e3d6000fd5b505050506040513d601f19601f8201168201806040525081019061091a91906127b8565b506040518060a001604052803373ffffffffffffffffffffffffffffffffffffffff1681526020018381526020018281526020016000151581526020018415158152506001600086815260200190815260200160002060090160003373ffffffffffffffffffffffffffffffffffffffff1673ffffffffffffffffffffffffffffffffffffffff16815260200190815260200160002060008201518160000160006101000a81548173ffffffffffffffffffffffffffffffffffffffff021916908373ffffffffffffffffffffffffffffffffffffffff160217905550602082015181600101556040820151816002019080519060200190610a1d929190611bb1565b5060608201518160030160006101000a81548160ff02191690831515021790555060808201518160030160016101000a81548160ff02191690831515021790555090505060016000858152602001908152602001600020600a01339080600181540180825580915050600190039060005260206000200160009091909190916101000a81548173ffffffffffffffffffffffffffffffffffffffff021916908373ffffffffffffffffffffffffffffffffffffffff16021790555081600160008681526020019081526020016000206006016000828254610afe91906124a6565b925050819055508215610b3c57600160008581526020019081526020016000206007016000815480929190610b32906127e5565b9190505550610b69565b600160008581526020019081526020016000206008016000815480929190610b63906127e5565b91905055505b50505050565b60016020528060005260406000206000915090508060000154908060010160009054906101000a900473ffffffffffffffffffffffffffffffffffffffff16908060020160009054906101000a900473ffffffffffffffffffffffffffffffffffffffff16908060040154908060050160009054906101000a900460ff16908060060154908060070154908060080154905088565b610c0c611a33565b610c166000611aba565b565b60008060009054906101000a900473ffffffffffffffffffffffffffffffffffffffff16905090565b610c49611a33565b7f000000000000000000000000000000000000000000000000000000000000000073ffffffffffffffffffffffffffffffffffffffff1663f2fde38b336040518263ffffffff1660e01b8152600401610ca29190611d17565b600060405180830381600087803b158015610cbc57600080fd5b505af1158015610cd0573d6000803e3d6000fd5b50505050565b60008060016000848152602001908152602001600020905082816000018190555083604001518160010160006101000a81548173ffffffffffffffffffffffffffffffffffffffff021916908373ffffffffffffffffffffffffffffffffffffffff16021790555083606001518160020160006101000a81548173ffffffffffffffffffffffffffffffffffffffff021916908373ffffffffffffffffffffffffffffffffffffffff1602179055508360a00151816003019080519060200190610da1929190611bb1565b508360c00151816004018190555060008160050160006101000a81548160ff021916908315150217905550600081600601819055506000816007018190555060008160080181905550600191505092915050565b600260009054906101000a900473ffffffffffffffffffffffffffffffffffffffff1681565b610e23611a33565b600073ffffffffffffffffffffffffffffffffffffffff168173ffffffffffffffffffffffffffffffffffffffff1603610e955760006040517f1e4fbdf7000000000000000000000000000000000000000000000000000000008152600401610e8c9190611d17565b60405180910390fd5b610e9e81611aba565b50565b6000610eab611a33565b7f000000000000000000000000000000000000000000000000000000000000000073ffffffffffffffffffffffffffffffffffffffff1663095ea7b38369d3c21bcecceda10000006040518363ffffffff1660e01b8152600401610f10929190612868565b6020604051808303816000875af1158015610f2f573d6000803e3d6000fd5b505050506040513d601f19601f82011682018060405250810190610f5391906127b8565b5060019050919050565b6000806000905060008351905060008111610fad576040517f08c379a0000000000000000000000000000000000000000000000000000000008152600401610fa490612903565b60405180910390fd5b60005b8181101561102d5760005b865181101561101f57868181518110610fd757610fd661257c565b5b6020026020010151868381518110610ff257610ff161257c565b5b60200260200101510361101257838061100a906127e5565b94505061101f565b8080600101915050610fbb565b508080600101915050610fb0565b506000601e9050600060469050600080890361104c5760009050611084565b6110576103e9611b7e565b61106c60018b61106791906124a6565b611b7e565b8461107791906124da565b611081919061254b565b90505b600084838761109391906124da565b61109d919061254b565b9050600081836110ad91906124a6565b905060648111156110c157606490506110d0565b60018110156110cf57600190505b5b809750505050505050509392505050565b60606000600160008581526020019081526020016000209050600081600a0180548060200260200160405190810160405280929190818152602001828054801561118057602002820191906000526020600020905b8160009054906101000a900473ffffffffffffffffffffffffffffffffffffffff1673ffffffffffffffffffffffffffffffffffffffff1681526020019060010190808311611136575b5050505050905060008151851061119857815161119a565b845b905060008167ffffffffffffffff8111156111b8576111b7611d74565b5b6040519080825280602002602001820160405280156111e65781602001602082028036833780820191505090505b50905060005b82811015611269578381815181106112075761120661257c565b5b60200260200101518282815181106112225761122161257c565b5b602002602001019073ffffffffffffffffffffffffffffffffffffffff16908173ffffffffffffffffffffffffffffffffffffffff168152505080806001019150506111ec565b508094505050505092915050565b6000806000905060005b84518110156112fb5760005b84518110156112ed578481815181106112a9576112a861257c565b5b60200260200101518683815181106112c4576112c361257c565b5b6020026020010151036112e05782806112dc906127e5565b9350505b808060010191505061128d565b508080600101915050611281565b508091505092915050565b60006001600084815260200190815260200160002090506000805b82600a01805490508110156115a657600083600901600085600a01848154811061134e5761134d61257c565b5b9060005260206000200160009054906101000a900473ffffffffffffffffffffffffffffffffffffffff1673ffffffffffffffffffffffffffffffffffffffff1673ffffffffffffffffffffffffffffffffffffffff1681526020019081526020016000206040518060a00160405290816000820160009054906101000a900473ffffffffffffffffffffffffffffffffffffffff1673ffffffffffffffffffffffffffffffffffffffff1673ffffffffffffffffffffffffffffffffffffffff168152602001600182015481526020016002820180548060200260200160405190810160405280929190818152602001828054801561146d57602002820191906000526020600020905b815481526020019060010190808311611459575b505050505081526020016003820160009054906101000a900460ff161515151581526020016003820160019054906101000a900460ff1615151515815250509050806060015115611598578060800151801561151857508360010160009054906101000a900473ffffffffffffffffffffffffffffffffffffffff1673ffffffffffffffffffffffffffffffffffffffff168573ffffffffffffffffffffffffffffffffffffffff16145b806115805750806080015115801561157f57508360020160009054906101000a900473ffffffffffffffffffffffffffffffffffffffff1673ffffffffffffffffffffffffffffffffffffffff168573ffffffffffffffffffffffffffffffffffffffff16145b5b6115975780602001518361159491906124a6565b92505b5b508080600101915050611321565b5060005b82600a0180549050811015611a2c57600083600901600085600a0184815481106115d7576115d661257c565b5b9060005260206000200160009054906101000a900473ffffffffffffffffffffffffffffffffffffffff1673ffffffffffffffffffffffffffffffffffffffff1673ffffffffffffffffffffffffffffffffffffffff1681526020019081526020016000206040518060a00160405290816000820160009054906101000a900473ffffffffffffffffffffffffffffffffffffffff1673ffffffffffffffffffffffffffffffffffffffff1673ffffffffffffffffffffffffffffffffffffffff16815260200160018201548152602001600282018054806020026020016040519081016040528092919081815260200182805480156116f657602002820191906000526020600020905b8154815260200190600101908083116116e2575b505050505081526020016003820160009054906101000a900460ff161515151581526020016003820160019054906101000a900460ff1615151515815250509050806060015115611a1e57806080015180156117a157508360010160009054906101000a900473ffffffffffffffffffffffffffffffffffffffff1673ffffffffffffffffffffffffffffffffffffffff168573ffffffffffffffffffffffffffffffffffffffff16145b806118095750806080015115801561180857508360020160009054906101000a900473ffffffffffffffffffffffffffffffffffffffff1673ffffffffffffffffffffffffffffffffffffffff168573ffffffffffffffffffffffffffffffffffffffff16145b5b1561192f57600084600601548260200151611824919061254b565b8461182f91906124da565b826020015161183e91906124a6565b90506000600260009054906101000a900473ffffffffffffffffffffffffffffffffffffffff1673ffffffffffffffffffffffffffffffffffffffff1663a9059cbb8460000151846040518363ffffffff1660e01b81526004016118a3929190612923565b6020604051808303816000875af11580156118c2573d6000803e3d6000fd5b505050506040513d601f19601f820116820180604052508101906118e691906127b8565b905080611928576040517f08c379a000000000000000000000000000000000000000000000000000000000815260040161191f90612998565b60405180910390fd5b5050611a1d565b6000600260009054906101000a900473ffffffffffffffffffffffffffffffffffffffff1673ffffffffffffffffffffffffffffffffffffffff1663a9059cbb836000015184602001516040518363ffffffff1660e01b8152600401611996929190612923565b6020604051808303816000875af11580156119b5573d6000803e3d6000fd5b505050506040513d601f19601f820116820180604052508101906119d991906127b8565b905080611a1b576040517f08c379a0000000000000000000000000000000000000000000000000000000008152600401611a1290612998565b60405180910390fd5b505b5b5080806001019150506115aa565b5050505050565b611a3b611ba9565b73ffffffffffffffffffffffffffffffffffffffff16611a59610c18565b73ffffffffffffffffffffffffffffffffffffffff1614611ab857611a7c611ba9565b6040517f118cdaa7000000000000000000000000000000000000000000000000000000008152600401611aaf9190611d17565b60405180910390fd5b565b60008060009054906101000a900473ffffffffffffffffffffffffffffffffffffffff169050816000806101000a81548173ffffffffffffffffffffffffffffffffffffffff021916908373ffffffffffffffffffffffffffffffffffffffff1602179055508173ffffffffffffffffffffffffffffffffffffffff168173ffffffffffffffffffffffffffffffffffffffff167f8be0079c531659141344cd1fd0a4f28419497f9722a3daafe3b4186f6b6457e060405160405180910390a35050565b60005b6001821115611ba457600182901c91508080611b9c906127e5565b915050611b81565b919050565b600033905090565b828054828255906000526020600020908101928215611bed579160200282015b82811115611bec578251825591602001919060010190611bd1565b5b509050611bfa9190611bfe565b5090565b5b80821115611c17576000816000905550600101611bff565b5090565b6000604051905090565b600080fd5b600080fd5b6000819050919050565b611c4281611c2f565b8114611c4d57600080fd5b50565b600081359050611c5f81611c39565b92915050565b600060208284031215611c7b57611c7a611c25565b5b6000611c8984828501611c50565b91505092915050565b60008115159050919050565b611ca781611c92565b82525050565b600073ffffffffffffffffffffffffffffffffffffffff82169050919050565b6000611cd882611cad565b9050919050565b611ce881611ccd565b82525050565b6000604082019050611d036000830185611c9e565b611d106020830184611cdf565b9392505050565b6000602082019050611d2c6000830184611cdf565b92915050565b611d3b81611c92565b8114611d4657600080fd5b50565b600081359050611d5881611d32565b92915050565b600080fd5b6000601f19601f8301169050919050565b7f4e487b7100000000000000000000000000000000000000000000000000000000600052604160045260246000fd5b611dac82611d63565b810181811067ffffffffffffffff82111715611dcb57611dca611d74565b5b80604052505050565b6000611dde611c1b565b9050611dea8282611da3565b919050565b600067ffffffffffffffff821115611e0a57611e09611d74565b5b602082029050602081019050919050565b600080fd5b6000611e33611e2e84611def565b611dd4565b90508083825260208201905060208402830185811115611e5657611e55611e1b565b5b835b81811015611e7f5780611e6b8882611c50565b845260208401935050602081019050611e58565b5050509392505050565b600082601f830112611e9e57611e9d611d5e565b5b8135611eae848260208601611e20565b91505092915050565b60008060008060808587031215611ed157611ed0611c25565b5b6000611edf87828801611c50565b9450506020611ef087828801611d49565b9350506040611f0187828801611c50565b925050606085013567ffffffffffffffff811115611f2257611f21611c2a565b5b611f2e87828801611e89565b91505092959194509250565b611f4381611c2f565b82525050565b600061010082019050611f5f600083018b611f3a565b611f6c602083018a611cdf565b611f796040830189611cdf565b611f866060830188611f3a565b611f936080830187611c9e565b611fa060a0830186611f3a565b611fad60c0830185611f3a565b611fba60e0830184611f3a565b9998505050505050505050565b600080fd5b600080fd5b611fda81611ccd565b8114611fe557600080fd5b50565b600081359050611ff781611fd1565b92915050565b600080fd5b600067ffffffffffffffff82111561201d5761201c611d74565b5b61202682611d63565b9050602081019050919050565b82818337600083830152505050565b600061205561205084612002565b611dd4565b90508281526020810184848401111561207157612070611ffd565b5b61207c848285612033565b509392505050565b600082601f83011261209957612098611d5e565b5b81356120a9848260208601612042565b91505092915050565b600061012082840312156120c9576120c8611fc7565b5b6120d4610120611dd4565b905060006120e484828501611c50565b60008301525060206120f884828501611fe8565b602083015250604061210c84828501611fe8565b604083015250606061212084828501611fe8565b606083015250608082013567ffffffffffffffff81111561214457612143611fcc565b5b61215084828501612084565b60808301525060a082013567ffffffffffffffff81111561217457612173611fcc565b5b61218084828501611e89565b60a08301525060c061219484828501611c50565b60c08301525060e06121a884828501611d49565b60e0830152506101006121bd84828501611fe8565b6101008301525092915050565b600080604083850312156121e1576121e0611c25565b5b600083013567ffffffffffffffff8111156121ff576121fe611c2a565b5b61220b858286016120b2565b925050602061221c85828601611c50565b9150509250929050565b600060208201905061223b6000830184611c9e565b92915050565b6000819050919050565b600061226661226161225c84611cad565b612241565b611cad565b9050919050565b60006122788261224b565b9050919050565b600061228a8261226d565b9050919050565b61229a8161227f565b82525050565b60006020820190506122b56000830184612291565b92915050565b6000602082840312156122d1576122d0611c25565b5b60006122df84828501611fe8565b91505092915050565b60008060006060848603121561230157612300611c25565b5b600061230f86828701611c50565b935050602084013567ffffffffffffffff8111156123305761232f611c2a565b5b61233c86828701611e89565b925050604084013567ffffffffffffffff81111561235d5761235c611c2a565b5b61236986828701611e89565b9150509250925092565b60006020820190506123886000830184611f3a565b92915050565b600082825260208201905092915050565b7f4469737075746520616c7265616479207265736f6c7665640000000000000000600082015250565b60006123d560188361238e565b91506123e08261239f565b602082019050919050565b60006020820190508181036000830152612404816123c8565b9050919050565b7f566f74696e67207374696c6c206f6e676f696e67000000000000000000000000600082015250565b600061244160148361238e565b915061244c8261240b565b602082019050919050565b6000602082019050818103600083015261247081612434565b9050919050565b7f4e487b7100000000000000000000000000000000000000000000000000000000600052601160045260246000fd5b60006124b182611c2f565b91506124bc83611c2f565b92508282019050808211156124d4576124d3612477565b5b92915050565b60006124e582611c2f565b91506124f083611c2f565b92508282026124fe81611c2f565b9150828204841483151761251557612514612477565b5b5092915050565b7f4e487b7100000000000000000000000000000000000000000000000000000000600052601260045260246000fd5b600061255682611c2f565b915061256183611c2f565b9250826125715761257061251c565b5b828204905092915050565b7f4e487b7100000000000000000000000000000000000000000000000000000000600052603260045260246000fd5b60006060820190506125c06000830186611f3a565b6125cd6020830185611cdf565b6125da6040830184611cdf565b949350505050565b600081905092915050565b50565b60006125fd6000836125e2565b9150612608826125ed565b600082019050919050565b600061261e826125f0565b9150819050919050565b7f4661696c656420746f2073656e64204574686572000000000000000000000000600082015250565b600061265e60148361238e565b915061266982612628565b602082019050919050565b6000602082019050818103600083015261268d81612651565b9050919050565b7f566f74696e6720646561646c696e652070617373656400000000000000000000600082015250565b60006126ca60168361238e565b91506126d582612694565b602082019050919050565b600060208201905081810360008301526126f9816126bd565b9050919050565b7f416c726561647920766f74656400000000000000000000000000000000000000600082015250565b6000612736600d8361238e565b915061274182612700565b602082019050919050565b6000602082019050818103600083015261276581612729565b9050919050565b60006060820190506127816000830186611cdf565b61278e6020830185611cdf565b61279b6040830184611f3a565b949350505050565b6000815190506127b281611d32565b92915050565b6000602082840312156127ce576127cd611c25565b5b60006127dc848285016127a3565b91505092915050565b60006127f082611c2f565b91507fffffffffffffffffffffffffffffffffffffffffffffffffffffffffffffffff820361282257612821612477565b5b600182019050919050565b6000819050919050565b600061285261284d6128488461282d565b612241565b611c2f565b9050919050565b61286281612837565b82525050565b600060408201905061287d6000830185611cdf565b61288a6020830184612859565b9392505050565b7f7265717569726564536b696c6c73206172726179206d757374206e6f7420626560008201527f20656d7074790000000000000000000000000000000000000000000000000000602082015250565b60006128ed60268361238e565b91506128f882612891565b604082019050919050565b6000602082019050818103600083015261291c816128e0565b9050919050565b60006040820190506129386000830185611cdf565b6129456020830184611f3a565b9392505050565b7f4572726f7220696e20736574746c696e67207472616465730000000000000000600082015250565b600061298260188361238e565b915061298d8261294c565b602082019050919050565b600060208201905081810360008301526129b181612975565b905091905056fea264697066735822122081bd628b509bf29cf6ccf39756e0412c066716ffaad25fbb18a84867e82cd2c664736f6c634300081b0033",
  "linkReferences": {},
  "deployedLinkReferences": {}
}