{
  "_format": "hh-sol-artifact-1",
  "contractName": "DisputeHandler",
  "sourceName": "contracts/DISPUTE_HANDLER.sol",
  "abi": [
    {
      "inputs": [
        {
          "internalType": "address",
          "name": "_grullToken",
          "type": "address"
        }
      ],
      "stateMutability": "nonpayable",
      "type": "constructor"
    },
    {
      "inputs": [
        {
          "internalType": "address",
          "name": "owner",
          "type": "address"
        }
      ],
      "name": "OwnableInvalidOwner",
      "type": "error"
    },
    {
      "inputs": [
        {
          "internalType": "address",
          "name": "account",
          "type": "address"
        }
      ],
      "name": "OwnableUnauthorizedAccount",
      "type": "error"
    },
    {
      "anonymous": false,
      "inputs": [
        {
          "indexed": false,
          "internalType": "uint256",
          "name": "disputeId",
          "type": "uint256"
        },
        {
          "indexed": false,
          "internalType": "address",
          "name": "winner",
          "type": "address"
        },
        {
          "indexed": false,
          "internalType": "address",
          "name": "loser",
          "type": "address"
        }
      ],
      "name": "DisputeSettled",
      "type": "event"
    },
    {
      "anonymous": false,
      "inputs": [
        {
          "indexed": true,
          "internalType": "address",
          "name": "previousOwner",
          "type": "address"
        },
        {
          "indexed": true,
          "internalType": "address",
          "name": "newOwner",
          "type": "address"
        }
      ],
      "name": "OwnershipTransferred",
      "type": "event"
    },
    {
      "inputs": [],
      "name": "GRULL_TOKEN_ADDRESS",
      "outputs": [
        {
          "internalType": "address",
          "name": "",
          "type": "address"
        }
      ],
      "stateMutability": "view",
      "type": "function"
    },
    {
      "inputs": [
        {
          "internalType": "uint256",
          "name": "",
          "type": "uint256"
        }
      ],
      "name": "disputes",
      "outputs": [
        {
          "internalType": "uint256",
          "name": "id",
          "type": "uint256"
        },
        {
          "internalType": "address",
          "name": "clientA",
          "type": "address"
        },
        {
          "internalType": "address",
          "name": "clientB",
          "type": "address"
        },
        {
          "internalType": "uint256",
          "name": "votingDeadline",
          "type": "uint256"
        },
        {
          "internalType": "bool",
          "name": "isResolved",
          "type": "bool"
        },
        {
          "internalType": "uint256",
          "name": "totalStaked",
          "type": "uint256"
        },
        {
          "internalType": "uint256",
          "name": "votesForA",
          "type": "uint256"
        },
        {
          "internalType": "uint256",
          "name": "votesForB",
          "type": "uint256"
        }
      ],
      "stateMutability": "view",
      "type": "function"
    },
    {
      "inputs": [],
      "name": "grullToken",
      "outputs": [
        {
          "internalType": "contract IERC20",
          "name": "",
          "type": "address"
        }
      ],
      "stateMutability": "view",
      "type": "function"
    },
    {
      "inputs": [
        {
          "components": [
            {
              "internalType": "uint256",
              "name": "id",
              "type": "uint256"
            },
            {
              "internalType": "address",
              "name": "creator",
              "type": "address"
            },
            {
              "internalType": "address",
              "name": "clientA",
              "type": "address"
            },
            {
              "internalType": "address",
              "name": "clientB",
              "type": "address"
            },
            {
              "internalType": "string",
              "name": "description",
              "type": "string"
            },
            {
              "internalType": "uint256[]",
              "name": "skillsReqd",
              "type": "uint256[]"
            },
            {
              "internalType": "uint256",
              "name": "votingDeadline",
              "type": "uint256"
            },
            {
              "internalType": "bool",
              "name": "isResolved",
              "type": "bool"
            },
            {
              "internalType": "address",
              "name": "winner",
              "type": "address"
            }
          ],
          "internalType": "struct IMARKETPLACE.Dispute",
          "name": "_newDispute",
          "type": "tuple"
        },
        {
          "internalType": "uint256",
          "name": "disputeCount",
          "type": "uint256"
        }
      ],
      "name": "handleCreateDispute",
      "outputs": [
        {
          "internalType": "bool",
          "name": "",
          "type": "bool"
        }
      ],
      "stateMutability": "nonpayable",
      "type": "function"
    },
    {
      "inputs": [
        {
          "internalType": "uint256",
          "name": "stakedAmount",
          "type": "uint256"
        },
        {
          "internalType": "uint256[]",
          "name": "jurySkills",
          "type": "uint256[]"
        },
        {
          "internalType": "uint256[]",
          "name": "requiredSkills",
          "type": "uint256[]"
        }
      ],
      "name": "normaliser",
      "outputs": [
        {
          "internalType": "uint256",
          "name": "",
          "type": "uint256"
        }
      ],
      "stateMutability": "pure",
      "type": "function"
    },
    {
      "inputs": [],
      "name": "owner",
      "outputs": [
        {
          "internalType": "address",
          "name": "",
          "type": "address"
        }
      ],
      "stateMutability": "view",
      "type": "function"
    },
    {
      "inputs": [],
      "name": "renounceOwnership",
      "outputs": [],
      "stateMutability": "nonpayable",
      "type": "function"
    },
    {
      "inputs": [
        {
          "internalType": "address",
          "name": "_address",
          "type": "address"
        }
      ],
      "name": "setGRULLApproveal",
      "outputs": [
        {
          "internalType": "bool",
          "name": "",
          "type": "bool"
        }
      ],
      "stateMutability": "nonpayable",
      "type": "function"
    },
    {
      "inputs": [
        {
          "internalType": "uint256",
          "name": "disputeId",
          "type": "uint256"
        }
      ],
      "name": "settleDispute",
      "outputs": [
        {
          "internalType": "bool",
          "name": "",
          "type": "bool"
        },
        {
          "internalType": "address",
          "name": "",
          "type": "address"
        }
      ],
      "stateMutability": "nonpayable",
      "type": "function"
    },
    {
      "inputs": [
        {
          "internalType": "uint256",
          "name": "disputeId",
          "type": "uint256"
        },
        {
          "internalType": "bool",
          "name": "voteForA",
          "type": "bool"
        },
        {
          "internalType": "uint256",
          "name": "stakeAmount",
          "type": "uint256"
        },
        {
          "internalType": "uint256[]",
          "name": "skills",
          "type": "uint256[]"
        }
      ],
      "name": "stakeAndVote",
      "outputs": [],
      "stateMutability": "nonpayable",
      "type": "function"
    },
    {
      "inputs": [
        {
          "internalType": "address",
          "name": "newOwner",
          "type": "address"
        }
      ],
      "name": "transferOwnership",
      "outputs": [],
      "stateMutability": "nonpayable",
      "type": "function"
    }
  ],
  "bytecode": "0x60a060405234801561001057600080fd5b506040516129f43803806129f483398181016040528101906100329190610257565b33600073ffffffffffffffffffffffffffffffffffffffff168173ffffffffffffffffffffffffffffffffffffffff16036100a55760006040517f1e4fbdf700000000000000000000000000000000000000000000000000000000815260040161009c9190610293565b60405180910390fd5b6100b48161013060201b60201c565b508073ffffffffffffffffffffffffffffffffffffffff1660808173ffffffffffffffffffffffffffffffffffffffff168152505080600260006101000a81548173ffffffffffffffffffffffffffffffffffffffff021916908373ffffffffffffffffffffffffffffffffffffffff160217905550506102ae565b60008060009054906101000a900473ffffffffffffffffffffffffffffffffffffffff169050816000806101000a81548173ffffffffffffffffffffffffffffffffffffffff021916908373ffffffffffffffffffffffffffffffffffffffff1602179055508173ffffffffffffffffffffffffffffffffffffffff168173ffffffffffffffffffffffffffffffffffffffff167f8be0079c531659141344cd1fd0a4f28419497f9722a3daafe3b4186f6b6457e060405160405180910390a35050565b600080fd5b600073ffffffffffffffffffffffffffffffffffffffff82169050919050565b6000610224826101f9565b9050919050565b61023481610219565b811461023f57600080fd5b50565b6000815190506102518161022b565b92915050565b60006020828403121561026d5761026c6101f4565b5b600061027b84828501610242565b91505092915050565b61028d81610219565b82525050565b60006020820190506102a86000830184610284565b92915050565b6080516127246102d0600039600081816105e20152610c9501526127246000f3fe608060405234801561001057600080fd5b50600436106100a95760003560e01c80638da5cb5b116100715780638da5cb5b1461015a578063c4b9c72e14610178578063c9cf5ddf146101a8578063f2fde38b146101c6578063f5d46635146101e2578063ff65cdae14610212576100a9565b80631c099ad6146100ae5780633c4cd477146100df57806348dbec2e146100fd578063564a565d14610119578063715018a614610150575b600080fd5b6100c860048036038101906100c39190611a4d565b610242565b6040516100d6929190611ad6565b60405180910390f35b6100e76105e0565b6040516100f49190611aff565b60405180910390f35b61011760048036038101906101129190611c9f565b610604565b005b610133600480360381019061012e9190611a4d565b6109ec565b604051610147989796959493929190611d31565b60405180910390f35b610158610a81565b005b610162610a95565b60405161016f9190611aff565b60405180910390f35b610192600480360381019061018d9190611fb2565b610abe565b60405161019f919061200e565b60405180910390f35b6101b0610bdd565b6040516101bd9190612088565b60405180910390f35b6101e060048036038101906101db91906120a3565b610c03565b005b6101fc60048036038101906101f791906120a3565b610c89565b604051610209919061200e565b60405180910390f35b61022c600480360381019061022791906120d0565b610d45565b604051610239919061215b565b60405180910390f35b60008060006001600085815260200190815260200160002090508060050160009054906101000a900460ff16156102ae576040517f08c379a00000000000000000000000000000000000000000000000000000000081526004016102a5906121d3565b60405180910390fd5b428160040154106102f4576040517f08c379a00000000000000000000000000000000000000000000000000000000081526004016102eb9061223f565b60405180910390fd5b60008160080154826007015461030a919061228e565b905060006064603c8361031d91906122c2565b6103279190612333565b905060006103358783610ec9565b905060008060005b83518110156104bc57600087600901600086848151811061036157610360612364565b5b602002602001015173ffffffffffffffffffffffffffffffffffffffff1673ffffffffffffffffffffffffffffffffffffffff168152602001908152602001600020905060018160030160006101000a81548160ff02191690831515021790555060006104728260020180548060200260200160405190810160405280929190818152602001828054801561041557602002820191906000526020600020905b815481526020019060010190808311610401575b50505050508a60030180548060200260200160405190810160405280929190818152602001828054801561046857602002820191906000526020600020905b815481526020019060010190808311610454575b505050505061105f565b90508160030160019054906101000a900460ff161561049e578085610497919061228e565b94506104ad565b80846104aa919061228e565b93505b5050808060010191505061033d565b506000808284111561051b578760010160009054906101000a900473ffffffffffffffffffffffffffffffffffffffff1691508760020160009054906101000a900473ffffffffffffffffffffffffffffffffffffffff16905061056a565b8760020160009054906101000a900473ffffffffffffffffffffffffffffffffffffffff1691508760010160009054906101000a900473ffffffffffffffffffffffffffffffffffffffff1690505b6105748b836110ee565b60018860050160006101000a81548160ff0219169083151502179055507f35877583839d988b6da68ba7e2b2836d26c0d18b83d80943b5633ded778bc4fc8b83836040516105c493929190612393565b60405180910390a1600182995099505050505050505050915091565b7f000000000000000000000000000000000000000000000000000000000000000081565b4260016000868152602001908152602001600020600401541161065c576040517f08c379a000000000000000000000000000000000000000000000000000000000815260040161065390612416565b60405180910390fd5b60006001600086815260200190815260200160002060090160003373ffffffffffffffffffffffffffffffffffffffff1673ffffffffffffffffffffffffffffffffffffffff16815260200190815260200160002060010154146106f5576040517f08c379a00000000000000000000000000000000000000000000000000000000081526004016106ec90612482565b60405180910390fd5b600260009054906101000a900473ffffffffffffffffffffffffffffffffffffffff1673ffffffffffffffffffffffffffffffffffffffff166323b872dd3330856040518463ffffffff1660e01b8152600401610754939291906124a2565b6020604051808303816000875af1158015610773573d6000803e3d6000fd5b505050506040513d601f19601f8201168201806040525081019061079791906124ee565b506040518060a001604052803373ffffffffffffffffffffffffffffffffffffffff1681526020018381526020018281526020016000151581526020018415158152506001600086815260200190815260200160002060090160003373ffffffffffffffffffffffffffffffffffffffff1673ffffffffffffffffffffffffffffffffffffffff16815260200190815260200160002060008201518160000160006101000a81548173ffffffffffffffffffffffffffffffffffffffff021916908373ffffffffffffffffffffffffffffffffffffffff16021790555060208201518160010155604082015181600201908051906020019061089a929190611999565b5060608201518160030160006101000a81548160ff02191690831515021790555060808201518160030160016101000a81548160ff02191690831515021790555090505060016000858152602001908152602001600020600a01339080600181540180825580915050600190039060005260206000200160009091909190916101000a81548173ffffffffffffffffffffffffffffffffffffffff021916908373ffffffffffffffffffffffffffffffffffffffff1602179055508160016000868152602001908152602001600020600601600082825461097b919061228e565b9250508190555082156109b9576001600085815260200190815260200160002060070160008154809291906109af9061251b565b91905055506109e6565b6001600085815260200190815260200160002060080160008154809291906109e09061251b565b91905055505b50505050565b60016020528060005260406000206000915090508060000154908060010160009054906101000a900473ffffffffffffffffffffffffffffffffffffffff16908060020160009054906101000a900473ffffffffffffffffffffffffffffffffffffffff16908060040154908060050160009054906101000a900460ff16908060060154908060070154908060080154905088565b610a8961181b565b610a9360006118a2565b565b60008060009054906101000a900473ffffffffffffffffffffffffffffffffffffffff16905090565b60008060016000848152602001908152602001600020905082816000018190555083604001518160010160006101000a81548173ffffffffffffffffffffffffffffffffffffffff021916908373ffffffffffffffffffffffffffffffffffffffff16021790555083606001518160020160006101000a81548173ffffffffffffffffffffffffffffffffffffffff021916908373ffffffffffffffffffffffffffffffffffffffff1602179055508360a00151816003019080519060200190610b89929190611999565b508360c00151816004018190555060008160050160006101000a81548160ff021916908315150217905550600081600601819055506000816007018190555060008160080181905550600191505092915050565b600260009054906101000a900473ffffffffffffffffffffffffffffffffffffffff1681565b610c0b61181b565b600073ffffffffffffffffffffffffffffffffffffffff168173ffffffffffffffffffffffffffffffffffffffff1603610c7d5760006040517f1e4fbdf7000000000000000000000000000000000000000000000000000000008152600401610c749190611aff565b60405180910390fd5b610c86816118a2565b50565b6000610c9361181b565b7f000000000000000000000000000000000000000000000000000000000000000073ffffffffffffffffffffffffffffffffffffffff1663095ea7b38369d3c21bcecceda10000006040518363ffffffff1660e01b8152600401610cf892919061259e565b6020604051808303816000875af1158015610d17573d6000803e3d6000fd5b505050506040513d601f19601f82011682018060405250810190610d3b91906124ee565b5060019050919050565b6000806000905060008351905060008111610d95576040517f08c379a0000000000000000000000000000000000000000000000000000000008152600401610d8c90612639565b60405180910390fd5b60005b81811015610e155760005b8651811015610e0757868181518110610dbf57610dbe612364565b5b6020026020010151868381518110610dda57610dd9612364565b5b602002602001015103610dfa578380610df29061251b565b945050610e07565b8080600101915050610da3565b508080600101915050610d98565b506000601e90506000604690506000808903610e345760009050610e6c565b610e3f6103e9611966565b610e5460018b610e4f919061228e565b611966565b84610e5f91906122c2565b610e699190612333565b90505b6000848387610e7b91906122c2565b610e859190612333565b905060008183610e95919061228e565b90506064811115610ea95760649050610eb8565b6001811015610eb757600190505b5b809750505050505050509392505050565b60606000600160008581526020019081526020016000209050600081600a01805480602002602001604051908101604052809291908181526020018280548015610f6857602002820191906000526020600020905b8160009054906101000a900473ffffffffffffffffffffffffffffffffffffffff1673ffffffffffffffffffffffffffffffffffffffff1681526020019060010190808311610f1e575b50505050509050600081518510610f80578151610f82565b845b905060008167ffffffffffffffff811115610fa057610f9f611b5c565b5b604051908082528060200260200182016040528015610fce5781602001602082028036833780820191505090505b50905060005b8281101561105157838181518110610fef57610fee612364565b5b602002602001015182828151811061100a57611009612364565b5b602002602001019073ffffffffffffffffffffffffffffffffffffffff16908173ffffffffffffffffffffffffffffffffffffffff16815250508080600101915050610fd4565b508094505050505092915050565b6000806000905060005b84518110156110e35760005b84518110156110d55784818151811061109157611090612364565b5b60200260200101518683815181106110ac576110ab612364565b5b6020026020010151036110c85782806110c49061251b565b9350505b8080600101915050611075565b508080600101915050611069565b508091505092915050565b60006001600084815260200190815260200160002090506000805b82600a018054905081101561138e57600083600901600085600a01848154811061113657611135612364565b5b9060005260206000200160009054906101000a900473ffffffffffffffffffffffffffffffffffffffff1673ffffffffffffffffffffffffffffffffffffffff1673ffffffffffffffffffffffffffffffffffffffff1681526020019081526020016000206040518060a00160405290816000820160009054906101000a900473ffffffffffffffffffffffffffffffffffffffff1673ffffffffffffffffffffffffffffffffffffffff1673ffffffffffffffffffffffffffffffffffffffff168152602001600182015481526020016002820180548060200260200160405190810160405280929190818152602001828054801561125557602002820191906000526020600020905b815481526020019060010190808311611241575b505050505081526020016003820160009054906101000a900460ff161515151581526020016003820160019054906101000a900460ff1615151515815250509050806060015115611380578060800151801561130057508360010160009054906101000a900473ffffffffffffffffffffffffffffffffffffffff1673ffffffffffffffffffffffffffffffffffffffff168573ffffffffffffffffffffffffffffffffffffffff16145b806113685750806080015115801561136757508360020160009054906101000a900473ffffffffffffffffffffffffffffffffffffffff1673ffffffffffffffffffffffffffffffffffffffff168573ffffffffffffffffffffffffffffffffffffffff16145b5b61137f5780602001518361137c919061228e565b92505b5b508080600101915050611109565b5060005b82600a018054905081101561181457600083600901600085600a0184815481106113bf576113be612364565b5b9060005260206000200160009054906101000a900473ffffffffffffffffffffffffffffffffffffffff1673ffffffffffffffffffffffffffffffffffffffff1673ffffffffffffffffffffffffffffffffffffffff1681526020019081526020016000206040518060a00160405290816000820160009054906101000a900473ffffffffffffffffffffffffffffffffffffffff1673ffffffffffffffffffffffffffffffffffffffff1673ffffffffffffffffffffffffffffffffffffffff16815260200160018201548152602001600282018054806020026020016040519081016040528092919081815260200182805480156114de57602002820191906000526020600020905b8154815260200190600101908083116114ca575b505050505081526020016003820160009054906101000a900460ff161515151581526020016003820160019054906101000a900460ff1615151515815250509050806060015115611806578060800151801561158957508360010160009054906101000a900473ffffffffffffffffffffffffffffffffffffffff1673ffffffffffffffffffffffffffffffffffffffff168573ffffffffffffffffffffffffffffffffffffffff16145b806115f1575080608001511580156115f057508360020160009054906101000a900473ffffffffffffffffffffffffffffffffffffffff1673ffffffffffffffffffffffffffffffffffffffff168573ffffffffffffffffffffffffffffffffffffffff16145b5b156117175760008460060154826020015161160c9190612333565b8461161791906122c2565b8260200151611626919061228e565b90506000600260009054906101000a900473ffffffffffffffffffffffffffffffffffffffff1673ffffffffffffffffffffffffffffffffffffffff1663a9059cbb8460000151846040518363ffffffff1660e01b815260040161168b929190612659565b6020604051808303816000875af11580156116aa573d6000803e3d6000fd5b505050506040513d601f19601f820116820180604052508101906116ce91906124ee565b905080611710576040517f08c379a0000000000000000000000000000000000000000000000000000000008152600401611707906126ce565b60405180910390fd5b5050611805565b6000600260009054906101000a900473ffffffffffffffffffffffffffffffffffffffff1673ffffffffffffffffffffffffffffffffffffffff1663a9059cbb836000015184602001516040518363ffffffff1660e01b815260040161177e929190612659565b6020604051808303816000875af115801561179d573d6000803e3d6000fd5b505050506040513d601f19601f820116820180604052508101906117c191906124ee565b905080611803576040517f08c379a00000000000000000000000000000000000000000000000000000000081526004016117fa906126ce565b60405180910390fd5b505b5b508080600101915050611392565b5050505050565b611823611991565b73ffffffffffffffffffffffffffffffffffffffff16611841610a95565b73ffffffffffffffffffffffffffffffffffffffff16146118a057611864611991565b6040517f118cdaa70000000000000000000000000000000000000000000000000000000081526004016118979190611aff565b60405180910390fd5b565b60008060009054906101000a900473ffffffffffffffffffffffffffffffffffffffff169050816000806101000a81548173ffffffffffffffffffffffffffffffffffffffff021916908373ffffffffffffffffffffffffffffffffffffffff1602179055508173ffffffffffffffffffffffffffffffffffffffff168173ffffffffffffffffffffffffffffffffffffffff167f8be0079c531659141344cd1fd0a4f28419497f9722a3daafe3b4186f6b6457e060405160405180910390a35050565b60005b600182111561198c57600182901c915080806119849061251b565b915050611969565b919050565b600033905090565b8280548282559060005260206000209081019282156119d5579160200282015b828111156119d45782518255916020019190600101906119b9565b5b5090506119e291906119e6565b5090565b5b808211156119ff5760008160009055506001016119e7565b5090565b6000604051905090565b600080fd5b600080fd5b6000819050919050565b611a2a81611a17565b8114611a3557600080fd5b50565b600081359050611a4781611a21565b92915050565b600060208284031215611a6357611a62611a0d565b5b6000611a7184828501611a38565b91505092915050565b60008115159050919050565b611a8f81611a7a565b82525050565b600073ffffffffffffffffffffffffffffffffffffffff82169050919050565b6000611ac082611a95565b9050919050565b611ad081611ab5565b82525050565b6000604082019050611aeb6000830185611a86565b611af86020830184611ac7565b9392505050565b6000602082019050611b146000830184611ac7565b92915050565b611b2381611a7a565b8114611b2e57600080fd5b50565b600081359050611b4081611b1a565b92915050565b600080fd5b6000601f19601f8301169050919050565b7f4e487b7100000000000000000000000000000000000000000000000000000000600052604160045260246000fd5b611b9482611b4b565b810181811067ffffffffffffffff82111715611bb357611bb2611b5c565b5b80604052505050565b6000611bc6611a03565b9050611bd28282611b8b565b919050565b600067ffffffffffffffff821115611bf257611bf1611b5c565b5b602082029050602081019050919050565b600080fd5b6000611c1b611c1684611bd7565b611bbc565b90508083825260208201905060208402830185811115611c3e57611c3d611c03565b5b835b81811015611c675780611c538882611a38565b845260208401935050602081019050611c40565b5050509392505050565b600082601f830112611c8657611c85611b46565b5b8135611c96848260208601611c08565b91505092915050565b60008060008060808587031215611cb957611cb8611a0d565b5b6000611cc787828801611a38565b9450506020611cd887828801611b31565b9350506040611ce987828801611a38565b925050606085013567ffffffffffffffff811115611d0a57611d09611a12565b5b611d1687828801611c71565b91505092959194509250565b611d2b81611a17565b82525050565b600061010082019050611d47600083018b611d22565b611d54602083018a611ac7565b611d616040830189611ac7565b611d6e6060830188611d22565b611d7b6080830187611a86565b611d8860a0830186611d22565b611d9560c0830185611d22565b611da260e0830184611d22565b9998505050505050505050565b600080fd5b600080fd5b611dc281611ab5565b8114611dcd57600080fd5b50565b600081359050611ddf81611db9565b92915050565b600080fd5b600067ffffffffffffffff821115611e0557611e04611b5c565b5b611e0e82611b4b565b9050602081019050919050565b82818337600083830152505050565b6000611e3d611e3884611dea565b611bbc565b905082815260208101848484011115611e5957611e58611de5565b5b611e64848285611e1b565b509392505050565b600082601f830112611e8157611e80611b46565b5b8135611e91848260208601611e2a565b91505092915050565b60006101208284031215611eb157611eb0611daf565b5b611ebc610120611bbc565b90506000611ecc84828501611a38565b6000830152506020611ee084828501611dd0565b6020830152506040611ef484828501611dd0565b6040830152506060611f0884828501611dd0565b606083015250608082013567ffffffffffffffff811115611f2c57611f2b611db4565b5b611f3884828501611e6c565b60808301525060a082013567ffffffffffffffff811115611f5c57611f5b611db4565b5b611f6884828501611c71565b60a08301525060c0611f7c84828501611a38565b60c08301525060e0611f9084828501611b31565b60e083015250610100611fa584828501611dd0565b6101008301525092915050565b60008060408385031215611fc957611fc8611a0d565b5b600083013567ffffffffffffffff811115611fe757611fe6611a12565b5b611ff385828601611e9a565b925050602061200485828601611a38565b9150509250929050565b60006020820190506120236000830184611a86565b92915050565b6000819050919050565b600061204e61204961204484611a95565b612029565b611a95565b9050919050565b600061206082612033565b9050919050565b600061207282612055565b9050919050565b61208281612067565b82525050565b600060208201905061209d6000830184612079565b92915050565b6000602082840312156120b9576120b8611a0d565b5b60006120c784828501611dd0565b91505092915050565b6000806000606084860312156120e9576120e8611a0d565b5b60006120f786828701611a38565b935050602084013567ffffffffffffffff81111561211857612117611a12565b5b61212486828701611c71565b925050604084013567ffffffffffffffff81111561214557612144611a12565b5b61215186828701611c71565b9150509250925092565b60006020820190506121706000830184611d22565b92915050565b600082825260208201905092915050565b7f4469737075746520616c7265616479207265736f6c7665640000000000000000600082015250565b60006121bd601883612176565b91506121c882612187565b602082019050919050565b600060208201905081810360008301526121ec816121b0565b9050919050565b7f566f74696e67207374696c6c206f6e676f696e67000000000000000000000000600082015250565b6000612229601483612176565b9150612234826121f3565b602082019050919050565b600060208201905081810360008301526122588161221c565b9050919050565b7f4e487b7100000000000000000000000000000000000000000000000000000000600052601160045260246000fd5b600061229982611a17565b91506122a483611a17565b92508282019050808211156122bc576122bb61225f565b5b92915050565b60006122cd82611a17565b91506122d883611a17565b92508282026122e681611a17565b915082820484148315176122fd576122fc61225f565b5b5092915050565b7f4e487b7100000000000000000000000000000000000000000000000000000000600052601260045260246000fd5b600061233e82611a17565b915061234983611a17565b92508261235957612358612304565b5b828204905092915050565b7f4e487b7100000000000000000000000000000000000000000000000000000000600052603260045260246000fd5b60006060820190506123a86000830186611d22565b6123b56020830185611ac7565b6123c26040830184611ac7565b949350505050565b7f566f74696e6720646561646c696e652070617373656400000000000000000000600082015250565b6000612400601683612176565b915061240b826123ca565b602082019050919050565b6000602082019050818103600083015261242f816123f3565b9050919050565b7f416c726561647920766f74656400000000000000000000000000000000000000600082015250565b600061246c600d83612176565b915061247782612436565b602082019050919050565b6000602082019050818103600083015261249b8161245f565b9050919050565b60006060820190506124b76000830186611ac7565b6124c46020830185611ac7565b6124d16040830184611d22565b949350505050565b6000815190506124e881611b1a565b92915050565b60006020828403121561250457612503611a0d565b5b6000612512848285016124d9565b91505092915050565b600061252682611a17565b91507fffffffffffffffffffffffffffffffffffffffffffffffffffffffffffffffff82036125585761255761225f565b5b600182019050919050565b6000819050919050565b600061258861258361257e84612563565b612029565b611a17565b9050919050565b6125988161256d565b82525050565b60006040820190506125b36000830185611ac7565b6125c0602083018461258f565b9392505050565b7f7265717569726564536b696c6c73206172726179206d757374206e6f7420626560008201527f20656d7074790000000000000000000000000000000000000000000000000000602082015250565b6000612623602683612176565b915061262e826125c7565b604082019050919050565b6000602082019050818103600083015261265281612616565b9050919050565b600060408201905061266e6000830185611ac7565b61267b6020830184611d22565b9392505050565b7f4572726f7220696e20736574746c696e67207472616465730000000000000000600082015250565b60006126b8601883612176565b91506126c382612682565b602082019050919050565b600060208201905081810360008301526126e7816126ab565b905091905056fea2646970667358221220e9cb98e97a7a0ed45678c3c7f9207f9c76480d0098812d4cf2ae6d24cefd0bd964736f6c634300081b0033",
  "linkReferences": {},
  "deployedLinkReferences": {}
}