{
  "_format": "hh-sol-artifact-1",
  "contractName": "Marketplace",
  "sourceName": "contracts/Marketplace.sol",
  "abi": [
    {
      "inputs": [
        {
          "internalType": "address",
          "name": "tokenAddress",
          "type": "address"
        },
        {
          "internalType": "address",
          "name": "disputeHandler",
          "type": "address"
        },
        {
          "internalType": "address",
          "name": "escrowAddress",
          "type": "address"
        }
      ],
      "stateMutability": "nonpayable",
      "type": "constructor"
    },
    {
      "inputs": [
        {
          "internalType": "address",
          "name": "owner",
          "type": "address"
        }
      ],
      "name": "OwnableInvalidOwner",
      "type": "error"
    },
    {
      "inputs": [
        {
          "internalType": "address",
          "name": "account",
          "type": "address"
        }
      ],
      "name": "OwnableUnauthorizedAccount",
      "type": "error"
    },
    {
      "anonymous": false,
      "inputs": [
        {
          "indexed": true,
          "internalType": "uint256",
          "name": "disputeId",
          "type": "uint256"
        },
        {
          "indexed": true,
          "internalType": "address",
          "name": "clientA",
          "type": "address"
        },
        {
          "indexed": true,
          "internalType": "address",
          "name": "clientB",
          "type": "address"
        },
        {
          "indexed": false,
          "internalType": "string",
          "name": "description",
          "type": "string"
        },
        {
          "indexed": false,
          "internalType": "uint256",
          "name": "votingDeadline",
          "type": "uint256"
        }
      ],
      "name": "DisputeCreated",
      "type": "event"
    },
    {
      "anonymous": false,
      "inputs": [
        {
          "indexed": true,
          "internalType": "uint256",
          "name": "disputeId",
          "type": "uint256"
        }
      ],
      "name": "DisputeResolved",
      "type": "event"
    },
    {
      "anonymous": false,
      "inputs": [
        {
          "indexed": true,
          "internalType": "address",
          "name": "previousOwner",
          "type": "address"
        },
        {
          "indexed": true,
          "internalType": "address",
          "name": "newOwner",
          "type": "address"
        }
      ],
      "name": "OwnershipTransferred",
      "type": "event"
    },
    {
      "inputs": [
        {
          "internalType": "address",
          "name": "_clientA",
          "type": "address"
        },
        {
          "internalType": "address",
          "name": "_clientB",
          "type": "address"
        },
        {
          "internalType": "string",
          "name": "_description",
          "type": "string"
        },
        {
          "internalType": "uint256",
          "name": "_votingDeadline",
          "type": "uint256"
        }
      ],
      "name": "createDispute",
      "outputs": [],
      "stateMutability": "nonpayable",
      "type": "function"
    },
    {
      "inputs": [
        {
          "internalType": "uint256",
          "name": "",
          "type": "uint256"
        }
      ],
      "name": "disputes",
      "outputs": [
        {
          "internalType": "uint256",
          "name": "id",
          "type": "uint256"
        },
        {
          "internalType": "address",
          "name": "clientA",
          "type": "address"
        },
        {
          "internalType": "address",
          "name": "clientB",
          "type": "address"
        },
        {
          "internalType": "string",
          "name": "description",
          "type": "string"
        },
        {
          "internalType": "uint256",
          "name": "votingDeadline",
          "type": "uint256"
        },
        {
          "internalType": "bool",
          "name": "isResolved",
          "type": "bool"
        }
      ],
      "stateMutability": "view",
      "type": "function"
    },
    {
      "inputs": [
        {
          "internalType": "uint256",
          "name": "_disputeId",
          "type": "uint256"
        }
      ],
      "name": "getDispute",
      "outputs": [
        {
          "components": [
            {
              "internalType": "uint256",
              "name": "id",
              "type": "uint256"
            },
            {
              "internalType": "address",
              "name": "clientA",
              "type": "address"
            },
            {
              "internalType": "address",
              "name": "clientB",
              "type": "address"
            },
            {
              "internalType": "string",
              "name": "description",
              "type": "string"
            },
            {
              "internalType": "uint256",
              "name": "votingDeadline",
              "type": "uint256"
            },
            {
              "internalType": "bool",
              "name": "isResolved",
              "type": "bool"
            }
          ],
          "internalType": "struct Marketplace.Dispute",
          "name": "",
          "type": "tuple"
        }
      ],
      "stateMutability": "view",
      "type": "function"
    },
    {
      "inputs": [],
      "name": "getDisputeCount",
      "outputs": [
        {
          "internalType": "uint256",
          "name": "",
          "type": "uint256"
        }
      ],
      "stateMutability": "view",
      "type": "function"
    },
    {
      "inputs": [],
      "name": "owner",
      "outputs": [
        {
          "internalType": "address",
          "name": "",
          "type": "address"
        }
      ],
      "stateMutability": "view",
      "type": "function"
    },
    {
      "inputs": [],
      "name": "renounceOwnership",
      "outputs": [],
      "stateMutability": "nonpayable",
      "type": "function"
    },
    {
      "inputs": [
        {
          "internalType": "uint256",
          "name": "_disputeId",
          "type": "uint256"
        }
      ],
      "name": "resolveDispute",
      "outputs": [],
      "stateMutability": "nonpayable",
      "type": "function"
    },
    {
      "inputs": [
        {
          "internalType": "address",
          "name": "newOwner",
          "type": "address"
        }
      ],
      "name": "transferOwnership",
      "outputs": [],
      "stateMutability": "nonpayable",
      "type": "function"
    }
  ],
  "bytecode": "0x60e0604052600060025534801561001557600080fd5b50604051611a4e380380611a4e83398181016040528101906100379190610285565b33600073ffffffffffffffffffffffffffffffffffffffff168173ffffffffffffffffffffffffffffffffffffffff16036100aa5760006040517f1e4fbdf70000000000000000000000000000000000000000000000000000000081526004016100a191906102e7565b60405180910390fd5b6100b98161015e60201b60201c565b508273ffffffffffffffffffffffffffffffffffffffff1660a08173ffffffffffffffffffffffffffffffffffffffff16815250508173ffffffffffffffffffffffffffffffffffffffff1660808173ffffffffffffffffffffffffffffffffffffffff16815250508073ffffffffffffffffffffffffffffffffffffffff1660c08173ffffffffffffffffffffffffffffffffffffffff1681525050505050610302565b60008060009054906101000a900473ffffffffffffffffffffffffffffffffffffffff169050816000806101000a81548173ffffffffffffffffffffffffffffffffffffffff021916908373ffffffffffffffffffffffffffffffffffffffff1602179055508173ffffffffffffffffffffffffffffffffffffffff168173ffffffffffffffffffffffffffffffffffffffff167f8be0079c531659141344cd1fd0a4f28419497f9722a3daafe3b4186f6b6457e060405160405180910390a35050565b600080fd5b600073ffffffffffffffffffffffffffffffffffffffff82169050919050565b600061025282610227565b9050919050565b61026281610247565b811461026d57600080fd5b50565b60008151905061027f81610259565b92915050565b60008060006060848603121561029e5761029d610222565b5b60006102ac86828701610270565b93505060206102bd86828701610270565b92505060406102ce86828701610270565b9150509250925092565b6102e181610247565b82525050565b60006020820190506102fc60008301846102d8565b92915050565b60805160a05160c05161172361032b600039600050506000505060006102e601526117236000f3fe608060405234801561001057600080fd5b50600436106100885760003560e01c8063c2b7b8681161005b578063c2b7b86814610108578063c3ac928914610124578063e3a96cbd14610140578063f2fde38b1461017057610088565b806310987b771461008d578063564a565d146100ab578063715018a6146100e05780638da5cb5b146100ea575b600080fd5b61009561018c565b6040516100a29190610b90565b60405180910390f35b6100c560048036038101906100c09190610beb565b610196565b6040516100d796959493929190610d04565b60405180910390f35b6100e86102a7565b005b6100f26102bb565b6040516100ff9190610d6c565b60405180910390f35b610122600480360381019061011d9190610beb565b6102e4565b005b61013e60048036038101906101399190610ee8565b610485565b005b61015a60048036038101906101559190610beb565b61074f565b604051610167919061106b565b60405180910390f35b61018a6004803603810190610185919061108d565b61093a565b005b6000600254905090565b60016020528060005260406000206000915090508060000154908060010160009054906101000a900473ffffffffffffffffffffffffffffffffffffffff16908060020160009054906101000a900473ffffffffffffffffffffffffffffffffffffffff169080600301805461020b906110e9565b80601f0160208091040260200160405190810160405280929190818152602001828054610237906110e9565b80156102845780601f1061025957610100808354040283529160200191610284565b820191906000526020600020905b81548152906001019060200180831161026757829003601f168201915b5050505050908060040154908060050160009054906101000a900460ff16905086565b6102af6109c0565b6102b96000610a47565b565b60008060009054906101000a900473ffffffffffffffffffffffffffffffffffffffff16905090565b7f000000000000000000000000000000000000000000000000000000000000000073ffffffffffffffffffffffffffffffffffffffff163373ffffffffffffffffffffffffffffffffffffffff1614610372576040517f08c379a000000000000000000000000000000000000000000000000000000000815260040161036990611166565b60405180910390fd5b60008111801561038457506002548111155b6103c3576040517f08c379a00000000000000000000000000000000000000000000000000000000081526004016103ba906111d2565b60405180910390fd5b6001600082815260200190815260200160002060050160009054906101000a900460ff1615610427576040517f08c379a000000000000000000000000000000000000000000000000000000000815260040161041e9061123e565b60405180910390fd5b600180600083815260200190815260200160002060050160006101000a81548160ff021916908315150217905550807f57cce005d496355471bb5269f1dea3d6c81b6ac14c1d74ba28aefb022357013b60405160405180910390a250565b8273ffffffffffffffffffffffffffffffffffffffff168473ffffffffffffffffffffffffffffffffffffffff16036104f3576040517f08c379a00000000000000000000000000000000000000000000000000000000081526004016104ea906112aa565b60405180910390fd5b6000825111610537576040517f08c379a000000000000000000000000000000000000000000000000000000000815260040161052e90611316565b60405180910390fd5b428111610579576040517f08c379a0000000000000000000000000000000000000000000000000000000008152600401610570906113a8565b60405180910390fd5b6002600081548092919061058c906113f7565b91905055506040518060c0016040528060025481526020018573ffffffffffffffffffffffffffffffffffffffff1681526020018473ffffffffffffffffffffffffffffffffffffffff168152602001838152602001828152602001600015158152506001600060025481526020019081526020016000206000820151816000015560208201518160010160006101000a81548173ffffffffffffffffffffffffffffffffffffffff021916908373ffffffffffffffffffffffffffffffffffffffff16021790555060408201518160020160006101000a81548173ffffffffffffffffffffffffffffffffffffffff021916908373ffffffffffffffffffffffffffffffffffffffff16021790555060608201518160030190816106b191906115eb565b506080820151816004015560a08201518160050160006101000a81548160ff0219169083151502179055509050508273ffffffffffffffffffffffffffffffffffffffff168473ffffffffffffffffffffffffffffffffffffffff166002547f6fae3a56b604a336725ff2553d39a2e582989533b70b7b461b0a9ffd47b95db985856040516107419291906116bd565b60405180910390a450505050565b610757610b13565b60008211801561076957506002548211155b6107a8576040517f08c379a000000000000000000000000000000000000000000000000000000000815260040161079f906111d2565b60405180910390fd5b600160008381526020019081526020016000206040518060c0016040529081600082015481526020016001820160009054906101000a900473ffffffffffffffffffffffffffffffffffffffff1673ffffffffffffffffffffffffffffffffffffffff1673ffffffffffffffffffffffffffffffffffffffff1681526020016002820160009054906101000a900473ffffffffffffffffffffffffffffffffffffffff1673ffffffffffffffffffffffffffffffffffffffff1673ffffffffffffffffffffffffffffffffffffffff16815260200160038201805461088c906110e9565b80601f01602080910402602001604051908101604052809291908181526020018280546108b8906110e9565b80156109055780601f106108da57610100808354040283529160200191610905565b820191906000526020600020905b8154815290600101906020018083116108e857829003601f168201915b50505050508152602001600482015481526020016005820160009054906101000a900460ff1615151515815250509050919050565b6109426109c0565b600073ffffffffffffffffffffffffffffffffffffffff168173ffffffffffffffffffffffffffffffffffffffff16036109b45760006040517f1e4fbdf70000000000000000000000000000000000000000000000000000000081526004016109ab9190610d6c565b60405180910390fd5b6109bd81610a47565b50565b6109c8610b0b565b73ffffffffffffffffffffffffffffffffffffffff166109e66102bb565b73ffffffffffffffffffffffffffffffffffffffff1614610a4557610a09610b0b565b6040517f118cdaa7000000000000000000000000000000000000000000000000000000008152600401610a3c9190610d6c565b60405180910390fd5b565b60008060009054906101000a900473ffffffffffffffffffffffffffffffffffffffff169050816000806101000a81548173ffffffffffffffffffffffffffffffffffffffff021916908373ffffffffffffffffffffffffffffffffffffffff1602179055508173ffffffffffffffffffffffffffffffffffffffff168173ffffffffffffffffffffffffffffffffffffffff167f8be0079c531659141344cd1fd0a4f28419497f9722a3daafe3b4186f6b6457e060405160405180910390a35050565b600033905090565b6040518060c0016040528060008152602001600073ffffffffffffffffffffffffffffffffffffffff168152602001600073ffffffffffffffffffffffffffffffffffffffff16815260200160608152602001600081526020016000151581525090565b6000819050919050565b610b8a81610b77565b82525050565b6000602082019050610ba56000830184610b81565b92915050565b6000604051905090565b600080fd5b600080fd5b610bc881610b77565b8114610bd357600080fd5b50565b600081359050610be581610bbf565b92915050565b600060208284031215610c0157610c00610bb5565b5b6000610c0f84828501610bd6565b91505092915050565b600073ffffffffffffffffffffffffffffffffffffffff82169050919050565b6000610c4382610c18565b9050919050565b610c5381610c38565b82525050565b600081519050919050565b600082825260208201905092915050565b60005b83811015610c93578082015181840152602081019050610c78565b60008484015250505050565b6000601f19601f8301169050919050565b6000610cbb82610c59565b610cc58185610c64565b9350610cd5818560208601610c75565b610cde81610c9f565b840191505092915050565b60008115159050919050565b610cfe81610ce9565b82525050565b600060c082019050610d196000830189610b81565b610d266020830188610c4a565b610d336040830187610c4a565b8181036060830152610d458186610cb0565b9050610d546080830185610b81565b610d6160a0830184610cf5565b979650505050505050565b6000602082019050610d816000830184610c4a565b92915050565b610d9081610c38565b8114610d9b57600080fd5b50565b600081359050610dad81610d87565b92915050565b600080fd5b600080fd5b7f4e487b7100000000000000000000000000000000000000000000000000000000600052604160045260246000fd5b610df582610c9f565b810181811067ffffffffffffffff82111715610e1457610e13610dbd565b5b80604052505050565b6000610e27610bab565b9050610e338282610dec565b919050565b600067ffffffffffffffff821115610e5357610e52610dbd565b5b610e5c82610c9f565b9050602081019050919050565b82818337600083830152505050565b6000610e8b610e8684610e38565b610e1d565b905082815260208101848484011115610ea757610ea6610db8565b5b610eb2848285610e69565b509392505050565b600082601f830112610ecf57610ece610db3565b5b8135610edf848260208601610e78565b91505092915050565b60008060008060808587031215610f0257610f01610bb5565b5b6000610f1087828801610d9e565b9450506020610f2187828801610d9e565b935050604085013567ffffffffffffffff811115610f4257610f41610bba565b5b610f4e87828801610eba565b9250506060610f5f87828801610bd6565b91505092959194509250565b610f7481610b77565b82525050565b610f8381610c38565b82525050565b600082825260208201905092915050565b6000610fa582610c59565b610faf8185610f89565b9350610fbf818560208601610c75565b610fc881610c9f565b840191505092915050565b610fdc81610ce9565b82525050565b600060c083016000830151610ffa6000860182610f6b565b50602083015161100d6020860182610f7a565b5060408301516110206040860182610f7a565b50606083015184820360608601526110388282610f9a565b915050608083015161104d6080860182610f6b565b5060a083015161106060a0860182610fd3565b508091505092915050565b600060208201905081810360008301526110858184610fe2565b905092915050565b6000602082840312156110a3576110a2610bb5565b5b60006110b184828501610d9e565b91505092915050565b7f4e487b7100000000000000000000000000000000000000000000000000000000600052602260045260246000fd5b6000600282049050600182168061110157607f821691505b602082108103611114576111136110ba565b5b50919050565b7f4163636573732044656e69656421000000000000000000000000000000000000600082015250565b6000611150600e83610c64565b915061115b8261111a565b602082019050919050565b6000602082019050818103600083015261117f81611143565b9050919050565b7f496e76616c696420646973707574652049440000000000000000000000000000600082015250565b60006111bc601283610c64565b91506111c782611186565b602082019050919050565b600060208201905081810360008301526111eb816111af565b9050919050565b7f4469737075746520697320616c7265616479207265736f6c7665640000000000600082015250565b6000611228601b83610c64565b9150611233826111f2565b602082019050919050565b600060208201905081810360008301526112578161121b565b9050919050565b7f54776f20706172746965732063616e742062652073616d650000000000000000600082015250565b6000611294601883610c64565b915061129f8261125e565b602082019050919050565b600060208201905081810360008301526112c381611287565b9050919050565b7f4465736372697074696f6e2063616e6e6f7420626520656d7074790000000000600082015250565b6000611300601b83610c64565b915061130b826112ca565b602082019050919050565b6000602082019050818103600083015261132f816112f3565b9050919050565b7f566f74696e6720646561646c696e65206d75737420626520696e20746865206660008201527f7574757265000000000000000000000000000000000000000000000000000000602082015250565b6000611392602583610c64565b915061139d82611336565b604082019050919050565b600060208201905081810360008301526113c181611385565b9050919050565b7f4e487b7100000000000000000000000000000000000000000000000000000000600052601160045260246000fd5b600061140282610b77565b91507fffffffffffffffffffffffffffffffffffffffffffffffffffffffffffffffff8203611434576114336113c8565b5b600182019050919050565b60008190508160005260206000209050919050565b60006020601f8301049050919050565b600082821b905092915050565b6000600883026114a17fffffffffffffffffffffffffffffffffffffffffffffffffffffffffffffffff82611464565b6114ab8683611464565b95508019841693508086168417925050509392505050565b6000819050919050565b60006114e86114e36114de84610b77565b6114c3565b610b77565b9050919050565b6000819050919050565b611502836114cd565b61151661150e826114ef565b848454611471565b825550505050565b600090565b61152b61151e565b6115368184846114f9565b505050565b5b8181101561155a5761154f600082611523565b60018101905061153c565b5050565b601f82111561159f576115708161143f565b61157984611454565b81016020851015611588578190505b61159c61159485611454565b83018261153b565b50505b505050565b600082821c905092915050565b60006115c2600019846008026115a4565b1980831691505092915050565b60006115db83836115b1565b9150826002028217905092915050565b6115f482610c59565b67ffffffffffffffff81111561160d5761160c610dbd565b5b61161782546110e9565b61162282828561155e565b600060209050601f8311600181146116555760008415611643578287015190505b61164d85826115cf565b8655506116b5565b601f1984166116638661143f565b60005b8281101561168b57848901518255600182019150602085019450602081019050611666565b868310156116a857848901516116a4601f8916826115b1565b8355505b6001600288020188555050505b505050505050565b600060408201905081810360008301526116d78185610cb0565b90506116e66020830184610b81565b939250505056fea2646970667358221220951190468b4746c9e1a47b0fe7d0a6d436fb13946ae276f6a218ee9e8aadd00264736f6c634300081b0033",
  "linkReferences": {},
  "deployedLinkReferences": {}
}