{
  "_format": "hh-sol-artifact-1",
  "contractName": "Marketplace",
  "sourceName": "contracts/Marketplace.sol",
  "abi": [
    {
      "inputs": [
        {
          "internalType": "address",
          "name": "tokenAddress",
          "type": "address"
        },
        {
          "internalType": "address",
          "name": "disputeHandler",
          "type": "address"
        }
      ],
      "stateMutability": "nonpayable",
      "type": "constructor"
    },
    {
      "inputs": [
        {
          "internalType": "address",
          "name": "owner",
          "type": "address"
        }
      ],
      "name": "OwnableInvalidOwner",
      "type": "error"
    },
    {
      "inputs": [
        {
          "internalType": "address",
          "name": "account",
          "type": "address"
        }
      ],
      "name": "OwnableUnauthorizedAccount",
      "type": "error"
    },
    {
      "anonymous": false,
      "inputs": [
        {
          "indexed": true,
          "internalType": "uint256",
          "name": "disputeId",
          "type": "uint256"
        },
        {
          "indexed": true,
          "internalType": "address",
          "name": "creator",
          "type": "address"
        },
        {
          "indexed": false,
          "internalType": "address",
          "name": "clientA",
          "type": "address"
        },
        {
          "indexed": false,
          "internalType": "address",
          "name": "clientB",
          "type": "address"
        },
        {
          "indexed": false,
          "internalType": "string",
          "name": "description",
          "type": "string"
        },
        {
          "indexed": false,
          "internalType": "uint256",
          "name": "votingDeadline",
          "type": "uint256"
        }
      ],
      "name": "DisputeCreated",
      "type": "event"
    },
    {
      "anonymous": false,
      "inputs": [
        {
          "indexed": true,
          "internalType": "uint256",
          "name": "disputeId",
          "type": "uint256"
        },
        {
          "indexed": false,
          "internalType": "address",
          "name": "winner",
          "type": "address"
        }
      ],
      "name": "DisputeResolved",
      "type": "event"
    },
    {
      "anonymous": false,
      "inputs": [
        {
          "indexed": true,
          "internalType": "address",
          "name": "previousOwner",
          "type": "address"
        },
        {
          "indexed": true,
          "internalType": "address",
          "name": "newOwner",
          "type": "address"
        }
      ],
      "name": "OwnershipTransferred",
      "type": "event"
    },
    {
      "inputs": [],
      "name": "buyGRULL",
      "outputs": [
        {
          "internalType": "bool",
          "name": "",
          "type": "bool"
        }
      ],
      "stateMutability": "payable",
      "type": "function"
    },
    {
      "inputs": [],
      "name": "calculatePrice",
      "outputs": [
        {
          "internalType": "uint256",
          "name": "",
          "type": "uint256"
        }
      ],
      "stateMutability": "view",
      "type": "function"
    },
    {
      "inputs": [
        {
          "internalType": "address",
          "name": "_clientA",
          "type": "address"
        },
        {
          "internalType": "address",
          "name": "_clientB",
          "type": "address"
        },
        {
          "internalType": "string",
          "name": "_description",
          "type": "string"
        },
        {
          "internalType": "uint256",
          "name": "_votingDeadline",
          "type": "uint256"
        },
        {
          "internalType": "uint256[]",
          "name": "_skillsReqd",
          "type": "uint256[]"
        }
      ],
      "name": "createDispute",
      "outputs": [],
      "stateMutability": "nonpayable",
      "type": "function"
    },
    {
      "inputs": [
        {
          "internalType": "uint256",
          "name": "",
          "type": "uint256"
        }
      ],
      "name": "disputes",
      "outputs": [
        {
          "internalType": "uint256",
          "name": "id",
          "type": "uint256"
        },
        {
          "internalType": "address",
          "name": "creator",
          "type": "address"
        },
        {
          "internalType": "address",
          "name": "clientA",
          "type": "address"
        },
        {
          "internalType": "address",
          "name": "clientB",
          "type": "address"
        },
        {
          "internalType": "string",
          "name": "description",
          "type": "string"
        },
        {
          "internalType": "uint256",
          "name": "votingDeadline",
          "type": "uint256"
        },
        {
          "internalType": "bool",
          "name": "isResolved",
          "type": "bool"
        },
        {
          "internalType": "address",
          "name": "winner",
          "type": "address"
        }
      ],
      "stateMutability": "view",
      "type": "function"
    },
    {
      "inputs": [
        {
          "internalType": "uint256",
          "name": "_disputeId",
          "type": "uint256"
        }
      ],
      "name": "getDispute",
      "outputs": [
        {
          "components": [
            {
              "internalType": "uint256",
              "name": "id",
              "type": "uint256"
            },
            {
              "internalType": "address",
              "name": "creator",
              "type": "address"
            },
            {
              "internalType": "address",
              "name": "clientA",
              "type": "address"
            },
            {
              "internalType": "address",
              "name": "clientB",
              "type": "address"
            },
            {
              "internalType": "string",
              "name": "description",
              "type": "string"
            },
            {
              "internalType": "uint256[]",
              "name": "skillsReqd",
              "type": "uint256[]"
            },
            {
              "internalType": "uint256",
              "name": "votingDeadline",
              "type": "uint256"
            },
            {
              "internalType": "bool",
              "name": "isResolved",
              "type": "bool"
            },
            {
              "internalType": "address",
              "name": "winner",
              "type": "address"
            }
          ],
          "internalType": "struct Dispute",
          "name": "",
          "type": "tuple"
        }
      ],
      "stateMutability": "view",
      "type": "function"
    },
    {
      "inputs": [],
      "name": "getDisputeCount",
      "outputs": [
        {
          "internalType": "uint256",
          "name": "",
          "type": "uint256"
        }
      ],
      "stateMutability": "view",
      "type": "function"
    },
    {
      "inputs": [
        {
          "internalType": "uint256",
          "name": "_disputeId",
          "type": "uint256"
        }
      ],
      "name": "getDisputeResolved",
      "outputs": [
        {
          "internalType": "bool",
          "name": "",
          "type": "bool"
        },
        {
          "internalType": "address",
          "name": "",
          "type": "address"
        }
      ],
      "stateMutability": "nonpayable",
      "type": "function"
    },
    {
      "inputs": [
        {
          "internalType": "uint256",
          "name": "_disputeId",
          "type": "uint256"
        }
      ],
      "name": "getDisputeStatus",
      "outputs": [
        {
          "internalType": "bool",
          "name": "",
          "type": "bool"
        }
      ],
      "stateMutability": "view",
      "type": "function"
    },
    {
      "inputs": [],
      "name": "getGRULLOwnership",
      "outputs": [],
      "stateMutability": "nonpayable",
      "type": "function"
    },
    {
      "inputs": [
        {
          "internalType": "address",
          "name": "",
          "type": "address"
        }
      ],
      "name": "lastPurchase",
      "outputs": [
        {
          "internalType": "uint256",
          "name": "",
          "type": "uint256"
        }
      ],
      "stateMutability": "view",
      "type": "function"
    },
    {
      "inputs": [],
      "name": "owner",
      "outputs": [
        {
          "internalType": "address",
          "name": "",
          "type": "address"
        }
      ],
      "stateMutability": "view",
      "type": "function"
    },
    {
      "inputs": [],
      "name": "renounceOwnership",
      "outputs": [],
      "stateMutability": "nonpayable",
      "type": "function"
    },
    {
      "inputs": [],
      "name": "setApproveDisputeHandler",
      "outputs": [
        {
          "internalType": "bool",
          "name": "",
          "type": "bool"
        }
      ],
      "stateMutability": "nonpayable",
      "type": "function"
    },
    {
      "inputs": [
        {
          "internalType": "uint256",
          "name": "disputeId",
          "type": "uint256"
        },
        {
          "internalType": "bool",
          "name": "voteForA",
          "type": "bool"
        },
        {
          "internalType": "uint256",
          "name": "stakeAmount",
          "type": "uint256"
        },
        {
          "internalType": "uint256[]",
          "name": "skills",
          "type": "uint256[]"
        }
      ],
      "name": "stakeAndVote",
      "outputs": [],
      "stateMutability": "nonpayable",
      "type": "function"
    },
    {
      "inputs": [
        {
          "internalType": "address",
          "name": "newOwner",
          "type": "address"
        }
      ],
      "name": "transferOwnership",
      "outputs": [],
      "stateMutability": "nonpayable",
      "type": "function"
    },
    {
      "inputs": [],
      "name": "withdrawFunds",
      "outputs": [],
      "stateMutability": "payable",
      "type": "function"
    }
  ],
  "bytecode": "0x60c0604052600060025534801561001557600080fd5b5060405161352738038061352783398181016040528101906100379190610250565b33600073ffffffffffffffffffffffffffffffffffffffff168173ffffffffffffffffffffffffffffffffffffffff16036100aa5760006040517f1e4fbdf70000000000000000000000000000000000000000000000000000000081526004016100a1919061029f565b60405180910390fd5b6100b98161012960201b60201c565b508173ffffffffffffffffffffffffffffffffffffffff1660a08173ffffffffffffffffffffffffffffffffffffffff16815250508073ffffffffffffffffffffffffffffffffffffffff1660808173ffffffffffffffffffffffffffffffffffffffff168152505050506102ba565b60008060009054906101000a900473ffffffffffffffffffffffffffffffffffffffff169050816000806101000a81548173ffffffffffffffffffffffffffffffffffffffff021916908373ffffffffffffffffffffffffffffffffffffffff1602179055508173ffffffffffffffffffffffffffffffffffffffff168173ffffffffffffffffffffffffffffffffffffffff167f8be0079c531659141344cd1fd0a4f28419497f9722a3daafe3b4186f6b6457e060405160405180910390a35050565b600080fd5b600073ffffffffffffffffffffffffffffffffffffffff82169050919050565b600061021d826101f2565b9050919050565b61022d81610212565b811461023857600080fd5b50565b60008151905061024a81610224565b92915050565b60008060408385031215610267576102666101ed565b5b60006102758582860161023b565b92505060206102868582860161023b565b9150509250929050565b61029981610212565b82525050565b60006020820190506102b46000830184610290565b92915050565b60805160a05161321e610309600039600081816109b001528181610e380152818161124b01526112f601526000818161077f015281816109ec01528181610ad8015261109c015261321e6000f3fe6080604052600436106100f35760003560e01c8063715018a61161008a578063a2d687ef11610059578063a2d687ef14610306578063d348b4091461031d578063e3a96cbd14610348578063f2fde38b14610385576100f3565b8063715018a61461026857806371a753c31461027f5780638da5cb5b1461029d5780639b89d4fd146102c8576100f3565b8063421da68a116100c6578063421da68a146101935780634394a7fe146101d057806348dbec2e146101fb578063564a565d14610224576100f3565b806310987b77146100f857806320f7aa3f14610123578063222219e61461016057806324600fc314610189575b600080fd5b34801561010457600080fd5b5061010d6103ae565b60405161011a91906119a1565b60405180910390f35b34801561012f57600080fd5b5061014a600480360381019061014591906119fc565b6103b8565b6040516101579190611a44565b60405180910390f35b34801561016c57600080fd5b5061018760048036038101906101829190611ccb565b610435565b005b6101916108d2565b005b34801561019f57600080fd5b506101ba60048036038101906101b59190611d7e565b61098c565b6040516101c791906119a1565b60405180910390f35b3480156101dc57600080fd5b506101e56109a4565b6040516101f29190611a44565b60405180910390f35b34801561020757600080fd5b50610222600480360381019061021d9190611dd7565b610a7e565b005b34801561023057600080fd5b5061024b600480360381019061024691906119fc565b610b6d565b60405161025f989796959493929190611ee8565b60405180910390f35b34801561027457600080fd5b5061027d610cca565b005b610287610cde565b6040516102949190611a44565b60405180910390f35b3480156102a957600080fd5b506102b2610f12565b6040516102bf9190611f6d565b60405180910390f35b3480156102d457600080fd5b506102ef60048036038101906102ea91906119fc565b610f3b565b6040516102fd929190611f88565b60405180910390f35b34801561031257600080fd5b5061031b611241565b005b34801561032957600080fd5b506103326112d6565b60405161033f91906119a1565b60405180910390f35b34801561035457600080fd5b5061036f600480360381019061036a91906119fc565b6113af565b60405161037c91906121a3565b60405180910390f35b34801561039157600080fd5b506103ac60048036038101906103a79190611d7e565b61169f565b005b6000600254905090565b600080821180156103cb57506002548211155b61040a576040517f08c379a000000000000000000000000000000000000000000000000000000000815260040161040190612211565b60405180910390fd5b6001600083815260200190815260200160002060070160009054906101000a900460ff169050919050565b8373ffffffffffffffffffffffffffffffffffffffff168573ffffffffffffffffffffffffffffffffffffffff16036104a3576040517f08c379a000000000000000000000000000000000000000000000000000000000815260040161049a9061227d565b60405180910390fd5b60008351116104e7576040517f08c379a00000000000000000000000000000000000000000000000000000000081526004016104de906122e9565b60405180910390fd5b428211610529576040517f08c379a00000000000000000000000000000000000000000000000000000000081526004016105209061237b565b60405180910390fd5b6002600081548092919061053c906123ca565b919050555060405180610120016040528060025481526020013373ffffffffffffffffffffffffffffffffffffffff1681526020018673ffffffffffffffffffffffffffffffffffffffff1681526020018573ffffffffffffffffffffffffffffffffffffffff168152602001848152602001828152602001838152602001600015158152602001600073ffffffffffffffffffffffffffffffffffffffff168152506001600060025481526020019081526020016000206000820151816000015560208201518160010160006101000a81548173ffffffffffffffffffffffffffffffffffffffff021916908373ffffffffffffffffffffffffffffffffffffffff16021790555060408201518160020160006101000a81548173ffffffffffffffffffffffffffffffffffffffff021916908373ffffffffffffffffffffffffffffffffffffffff16021790555060608201518160030160006101000a81548173ffffffffffffffffffffffffffffffffffffffff021916908373ffffffffffffffffffffffffffffffffffffffff16021790555060808201518160040190816106e8919061261e565b5060a0820151816005019080519060200190610705929190611878565b5060c0820151816006015560e08201518160070160006101000a81548160ff0219169083151502179055506101008201518160070160016101000a81548173ffffffffffffffffffffffffffffffffffffffff021916908373ffffffffffffffffffffffffffffffffffffffff16021790555090505060007f000000000000000000000000000000000000000000000000000000000000000073ffffffffffffffffffffffffffffffffffffffff1663c4b9c72e6001600060025481526020019081526020016000206002546040518363ffffffff1660e01b81526004016107ee9291906129e3565b6020604051808303816000875af115801561080d573d6000803e3d6000fd5b505050506040513d601f19601f820116820180604052508101906108319190612a28565b905080610873576040517f08c379a000000000000000000000000000000000000000000000000000000000815260040161086a90612aa1565b60405180910390fd5b3373ffffffffffffffffffffffffffffffffffffffff166002547f84cc6176a87c4c0fa1b2660f39f582e4b29cbf20161a5e7d1b1c77237008f88b888888886040516108c29493929190612ac1565b60405180910390a3505050505050565b6108da611725565b6000803373ffffffffffffffffffffffffffffffffffffffff163460405161090190612b3e565b60006040518083038185875af1925050503d806000811461093e576040519150601f19603f3d011682016040523d82523d6000602084013e610943565b606091505b509150915081610988576040517f08c379a000000000000000000000000000000000000000000000000000000000815260040161097f90612b9f565b60405180910390fd5b5050565b60036020528060005260406000206000915090505481565b60006109ae611725565b7f000000000000000000000000000000000000000000000000000000000000000073ffffffffffffffffffffffffffffffffffffffff1663095ea7b37f000000000000000000000000000000000000000000000000000000000000000069d3c21bcecceda10000006040518363ffffffff1660e01b8152600401610a33929190612bfa565b6020604051808303816000875af1158015610a52573d6000803e3d6000fd5b505050506040513d601f19601f82011682018060405250810190610a769190612a28565b506001905090565b42600160008681526020019081526020016000206006015411610ad6576040517f08c379a0000000000000000000000000000000000000000000000000000000008152600401610acd90612c6f565b60405180910390fd5b7f000000000000000000000000000000000000000000000000000000000000000073ffffffffffffffffffffffffffffffffffffffff166348dbec2e858585856040518563ffffffff1660e01b8152600401610b359493929190612cfe565b600060405180830381600087803b158015610b4f57600080fd5b505af1158015610b63573d6000803e3d6000fd5b5050505050505050565b60016020528060005260406000206000915090508060000154908060010160009054906101000a900473ffffffffffffffffffffffffffffffffffffffff16908060020160009054906101000a900473ffffffffffffffffffffffffffffffffffffffff16908060030160009054906101000a900473ffffffffffffffffffffffffffffffffffffffff1690806004018054610c0890612441565b80601f0160208091040260200160405190810160405280929190818152602001828054610c3490612441565b8015610c815780601f10610c5657610100808354040283529160200191610c81565b820191906000526020600020905b815481529060010190602001808311610c6457829003601f168201915b5050505050908060060154908060070160009054906101000a900460ff16908060070160019054906101000a900473ffffffffffffffffffffffffffffffffffffffff16905088565b610cd2611725565b610cdc60006117ac565b565b600080683635c9adc5dea0000090506000610e10905060003411610d37576040517f08c379a0000000000000000000000000000000000000000000000000000000008152600401610d2e90612dbc565b60405180910390fd5b80600360003373ffffffffffffffffffffffffffffffffffffffff1673ffffffffffffffffffffffffffffffffffffffff1681526020019081526020016000205442610d839190612ddc565b1015610dc4576040517f08c379a0000000000000000000000000000000000000000000000000000000008152600401610dbb90612e82565b60405180910390fd5b6000610dce6112d6565b9050600081670de0b6b3a764000034610de79190612ea2565b610df19190612f13565b905083811115610e36576040517f08c379a0000000000000000000000000000000000000000000000000000000008152600401610e2d90612f90565b60405180910390fd5b7f000000000000000000000000000000000000000000000000000000000000000073ffffffffffffffffffffffffffffffffffffffff166340c10f1933836040518363ffffffff1660e01b8152600401610e91929190612fb0565b600060405180830381600087803b158015610eab57600080fd5b505af1158015610ebf573d6000803e3d6000fd5b5050505042600360003373ffffffffffffffffffffffffffffffffffffffff1673ffffffffffffffffffffffffffffffffffffffff16815260200190815260200160002081905550600194505050505090565b60008060009054906101000a900473ffffffffffffffffffffffffffffffffffffffff16905090565b600080600083118015610f5057506002548311155b610f8f576040517f08c379a0000000000000000000000000000000000000000000000000000000008152600401610f8690612211565b60405180910390fd5b6001600084815260200190815260200160002060070160009054906101000a900460ff1615610ff3576040517f08c379a0000000000000000000000000000000000000000000000000000000008152600401610fea90613025565b60405180910390fd5b3373ffffffffffffffffffffffffffffffffffffffff166001600085815260200190815260200160002060010160009054906101000a900473ffffffffffffffffffffffffffffffffffffffff1673ffffffffffffffffffffffffffffffffffffffff1614611097576040517f08c379a000000000000000000000000000000000000000000000000000000000815260040161108e90613091565b60405180910390fd5b6000807f000000000000000000000000000000000000000000000000000000000000000073ffffffffffffffffffffffffffffffffffffffff16631c099ad6866040518263ffffffff1660e01b81526004016110f391906119a1565b60408051808303816000875af1158015611111573d6000803e3d6000fd5b505050506040513d601f19601f8201168201806040525081019061113591906130c6565b9150915081611179576040517f08c379a000000000000000000000000000000000000000000000000000000000815260040161117090613152565b60405180910390fd5b600180600087815260200190815260200160002060070160006101000a81548160ff021916908315150217905550806001600087815260200190815260200160002060070160016101000a81548173ffffffffffffffffffffffffffffffffffffffff021916908373ffffffffffffffffffffffffffffffffffffffff160217905550847ff77ceb5e091d2da041bc760667f9d5fe7a756949eaf29250ad0e60ca6f4c27d98260405161122c9190611f6d565b60405180910390a28181935093505050915091565b611249611725565b7f000000000000000000000000000000000000000000000000000000000000000073ffffffffffffffffffffffffffffffffffffffff1663f2fde38b336040518263ffffffff1660e01b81526004016112a29190611f6d565b600060405180830381600087803b1580156112bc57600080fd5b505af11580156112d0573d6000803e3d6000fd5b50505050565b600080662386f26fc100009050600069d3c21bcecceda1000000905060007f000000000000000000000000000000000000000000000000000000000000000073ffffffffffffffffffffffffffffffffffffffff166318160ddd6040518163ffffffff1660e01b8152600401602060405180830381865afa15801561135f573d6000803e3d6000fd5b505050506040513d601f19601f820116820180604052508101906113839190613187565b90508183826113929190612ea2565b61139c9190612f13565b836113a791906131b4565b935050505090565b6113b76118c5565b6000821180156113c957506002548211155b611408576040517f08c379a00000000000000000000000000000000000000000000000000000000081526004016113ff90612211565b60405180910390fd5b6001600083815260200190815260200160002060405180610120016040529081600082015481526020016001820160009054906101000a900473ffffffffffffffffffffffffffffffffffffffff1673ffffffffffffffffffffffffffffffffffffffff1673ffffffffffffffffffffffffffffffffffffffff1681526020016002820160009054906101000a900473ffffffffffffffffffffffffffffffffffffffff1673ffffffffffffffffffffffffffffffffffffffff1673ffffffffffffffffffffffffffffffffffffffff1681526020016003820160009054906101000a900473ffffffffffffffffffffffffffffffffffffffff1673ffffffffffffffffffffffffffffffffffffffff1673ffffffffffffffffffffffffffffffffffffffff16815260200160048201805461154390612441565b80601f016020809104026020016040519081016040528092919081815260200182805461156f90612441565b80156115bc5780601f10611591576101008083540402835291602001916115bc565b820191906000526020600020905b81548152906001019060200180831161159f57829003601f168201915b505050505081526020016005820180548060200260200160405190810160405280929190818152602001828054801561161457602002820191906000526020600020905b815481526020019060010190808311611600575b50505050508152602001600682015481526020016007820160009054906101000a900460ff161515151581526020016007820160019054906101000a900473ffffffffffffffffffffffffffffffffffffffff1673ffffffffffffffffffffffffffffffffffffffff1673ffffffffffffffffffffffffffffffffffffffff16815250509050919050565b6116a7611725565b600073ffffffffffffffffffffffffffffffffffffffff168173ffffffffffffffffffffffffffffffffffffffff16036117195760006040517f1e4fbdf70000000000000000000000000000000000000000000000000000000081526004016117109190611f6d565b60405180910390fd5b611722816117ac565b50565b61172d611870565b73ffffffffffffffffffffffffffffffffffffffff1661174b610f12565b73ffffffffffffffffffffffffffffffffffffffff16146117aa5761176e611870565b6040517f118cdaa70000000000000000000000000000000000000000000000000000000081526004016117a19190611f6d565b60405180910390fd5b565b60008060009054906101000a900473ffffffffffffffffffffffffffffffffffffffff169050816000806101000a81548173ffffffffffffffffffffffffffffffffffffffff021916908373ffffffffffffffffffffffffffffffffffffffff1602179055508173ffffffffffffffffffffffffffffffffffffffff168173ffffffffffffffffffffffffffffffffffffffff167f8be0079c531659141344cd1fd0a4f28419497f9722a3daafe3b4186f6b6457e060405160405180910390a35050565b600033905090565b8280548282559060005260206000209081019282156118b4579160200282015b828111156118b3578251825591602001919060010190611898565b5b5090506118c1919061196b565b5090565b60405180610120016040528060008152602001600073ffffffffffffffffffffffffffffffffffffffff168152602001600073ffffffffffffffffffffffffffffffffffffffff168152602001600073ffffffffffffffffffffffffffffffffffffffff168152602001606081526020016060815260200160008152602001600015158152602001600073ffffffffffffffffffffffffffffffffffffffff1681525090565b5b8082111561198457600081600090555060010161196c565b5090565b6000819050919050565b61199b81611988565b82525050565b60006020820190506119b66000830184611992565b92915050565b6000604051905090565b600080fd5b600080fd5b6119d981611988565b81146119e457600080fd5b50565b6000813590506119f6816119d0565b92915050565b600060208284031215611a1257611a116119c6565b5b6000611a20848285016119e7565b91505092915050565b60008115159050919050565b611a3e81611a29565b82525050565b6000602082019050611a596000830184611a35565b92915050565b600073ffffffffffffffffffffffffffffffffffffffff82169050919050565b6000611a8a82611a5f565b9050919050565b611a9a81611a7f565b8114611aa557600080fd5b50565b600081359050611ab781611a91565b92915050565b600080fd5b600080fd5b6000601f19601f8301169050919050565b7f4e487b7100000000000000000000000000000000000000000000000000000000600052604160045260246000fd5b611b1082611ac7565b810181811067ffffffffffffffff82111715611b2f57611b2e611ad8565b5b80604052505050565b6000611b426119bc565b9050611b4e8282611b07565b919050565b600067ffffffffffffffff821115611b6e57611b6d611ad8565b5b611b7782611ac7565b9050602081019050919050565b82818337600083830152505050565b6000611ba6611ba184611b53565b611b38565b905082815260208101848484011115611bc257611bc1611ac2565b5b611bcd848285611b84565b509392505050565b600082601f830112611bea57611be9611abd565b5b8135611bfa848260208601611b93565b91505092915050565b600067ffffffffffffffff821115611c1e57611c1d611ad8565b5b602082029050602081019050919050565b600080fd5b6000611c47611c4284611c03565b611b38565b90508083825260208201905060208402830185811115611c6a57611c69611c2f565b5b835b81811015611c935780611c7f88826119e7565b845260208401935050602081019050611c6c565b5050509392505050565b600082601f830112611cb257611cb1611abd565b5b8135611cc2848260208601611c34565b91505092915050565b600080600080600060a08688031215611ce757611ce66119c6565b5b6000611cf588828901611aa8565b9550506020611d0688828901611aa8565b945050604086013567ffffffffffffffff811115611d2757611d266119cb565b5b611d3388828901611bd5565b9350506060611d44888289016119e7565b925050608086013567ffffffffffffffff811115611d6557611d646119cb565b5b611d7188828901611c9d565b9150509295509295909350565b600060208284031215611d9457611d936119c6565b5b6000611da284828501611aa8565b91505092915050565b611db481611a29565b8114611dbf57600080fd5b50565b600081359050611dd181611dab565b92915050565b60008060008060808587031215611df157611df06119c6565b5b6000611dff878288016119e7565b9450506020611e1087828801611dc2565b9350506040611e21878288016119e7565b925050606085013567ffffffffffffffff811115611e4257611e416119cb565b5b611e4e87828801611c9d565b91505092959194509250565b611e6381611a7f565b82525050565b600081519050919050565b600082825260208201905092915050565b60005b83811015611ea3578082015181840152602081019050611e88565b60008484015250505050565b6000611eba82611e69565b611ec48185611e74565b9350611ed4818560208601611e85565b611edd81611ac7565b840191505092915050565b600061010082019050611efe600083018b611992565b611f0b602083018a611e5a565b611f186040830189611e5a565b611f256060830188611e5a565b8181036080830152611f378187611eaf565b9050611f4660a0830186611992565b611f5360c0830185611a35565b611f6060e0830184611e5a565b9998505050505050505050565b6000602082019050611f826000830184611e5a565b92915050565b6000604082019050611f9d6000830185611a35565b611faa6020830184611e5a565b9392505050565b611fba81611988565b82525050565b611fc981611a7f565b82525050565b600082825260208201905092915050565b6000611feb82611e69565b611ff58185611fcf565b9350612005818560208601611e85565b61200e81611ac7565b840191505092915050565b600081519050919050565b600082825260208201905092915050565b6000819050602082019050919050565b60006120518383611fb1565b60208301905092915050565b6000602082019050919050565b600061207582612019565b61207f8185612024565b935061208a83612035565b8060005b838110156120bb5781516120a28882612045565b97506120ad8361205d565b92505060018101905061208e565b5085935050505092915050565b6120d181611a29565b82525050565b6000610120830160008301516120f06000860182611fb1565b5060208301516121036020860182611fc0565b5060408301516121166040860182611fc0565b5060608301516121296060860182611fc0565b50608083015184820360808601526121418282611fe0565b91505060a083015184820360a086015261215b828261206a565b91505060c083015161217060c0860182611fb1565b5060e083015161218360e08601826120c8565b50610100830151612198610100860182611fc0565b508091505092915050565b600060208201905081810360008301526121bd81846120d7565b905092915050565b7f496e76616c696420646973707574652049440000000000000000000000000000600082015250565b60006121fb601283611e74565b9150612206826121c5565b602082019050919050565b6000602082019050818103600083015261222a816121ee565b9050919050565b7f54776f20706172746965732063616e742062652073616d650000000000000000600082015250565b6000612267601883611e74565b915061227282612231565b602082019050919050565b600060208201905081810360008301526122968161225a565b9050919050565b7f4465736372697074696f6e2063616e6e6f7420626520656d7074790000000000600082015250565b60006122d3601b83611e74565b91506122de8261229d565b602082019050919050565b60006020820190508181036000830152612302816122c6565b9050919050565b7f566f74696e6720646561646c696e65206d75737420626520696e20746865206660008201527f7574757265000000000000000000000000000000000000000000000000000000602082015250565b6000612365602583611e74565b915061237082612309565b604082019050919050565b6000602082019050818103600083015261239481612358565b9050919050565b7f4e487b7100000000000000000000000000000000000000000000000000000000600052601160045260246000fd5b60006123d582611988565b91507fffffffffffffffffffffffffffffffffffffffffffffffffffffffffffffffff82036124075761240661239b565b5b600182019050919050565b7f4e487b7100000000000000000000000000000000000000000000000000000000600052602260045260246000fd5b6000600282049050600182168061245957607f821691505b60208210810361246c5761246b612412565b5b50919050565b60008190508160005260206000209050919050565b60006020601f8301049050919050565b600082821b905092915050565b6000600883026124d47fffffffffffffffffffffffffffffffffffffffffffffffffffffffffffffffff82612497565b6124de8683612497565b95508019841693508086168417925050509392505050565b6000819050919050565b600061251b61251661251184611988565b6124f6565b611988565b9050919050565b6000819050919050565b61253583612500565b61254961254182612522565b8484546124a4565b825550505050565b600090565b61255e612551565b61256981848461252c565b505050565b5b8181101561258d57612582600082612556565b60018101905061256f565b5050565b601f8211156125d2576125a381612472565b6125ac84612487565b810160208510156125bb578190505b6125cf6125c785612487565b83018261256e565b50505b505050565b600082821c905092915050565b60006125f5600019846008026125d7565b1980831691505092915050565b600061260e83836125e4565b9150826002028217905092915050565b61262782611e69565b67ffffffffffffffff8111156126405761263f611ad8565b5b61264a8254612441565b612655828285612591565b600060209050601f8311600181146126885760008415612676578287015190505b6126808582612602565b8655506126e8565b601f19841661269686612472565b60005b828110156126be57848901518255600182019150602085019450602081019050612699565b868310156126db57848901516126d7601f8916826125e4565b8355505b6001600288020188555050505b505050505050565b60008160001c9050919050565b6000819050919050565b600061271a612715836126f0565b6126fd565b9050919050565b600073ffffffffffffffffffffffffffffffffffffffff82169050919050565b600061275461274f836126f0565b612721565b9050919050565b6000815461276881612441565b6127728186611fcf565b9450600182166000811461278d57600181146127a3576127d6565b60ff1983168652811515602002860193506127d6565b6127ac85612472565b60005b838110156127ce578154818901526001820191506020810190506127af565b808801955050505b50505092915050565b600081549050919050565b60008190508160005260206000209050919050565b600061280b8254612707565b9050919050565b6000600182019050919050565b600061282a826127df565b6128348185612024565b935061283f836127ea565b8060005b8381101561287757612854826127ff565b61285e8882612045565b975061286983612812565b925050600181019050612843565b5085935050505092915050565b600060ff82169050919050565b60006128a461289f836126f0565b612884565b9050919050565b60008160081c9050919050565b60006128cb6128c6836128ab565b612721565b9050919050565b6000610120830160008084015490506128ea81612707565b6128f76000870182611fb1565b506001840154905061290881612741565b6129156020870182611fc0565b506002840154905061292681612741565b6129336040870182611fc0565b506003840154905061294481612741565b6129516060870182611fc0565b50600484018583036080870152612968838261275b565b9250506005840185830360a0870152612981838261281f565b9250506006840154905061299481612707565b6129a160c0870182611fb1565b50600784015490506129b281612891565b6129bf60e08701826120c8565b506129c9816128b8565b6129d7610100870182611fc0565b50819250505092915050565b600060408201905081810360008301526129fd81856128d2565b9050612a0c6020830184611992565b9392505050565b600081519050612a2281611dab565b92915050565b600060208284031215612a3e57612a3d6119c6565b5b6000612a4c84828501612a13565b91505092915050565b7f4661696c656420746f207375626d69742e000000000000000000000000000000600082015250565b6000612a8b601183611e74565b9150612a9682612a55565b602082019050919050565b60006020820190508181036000830152612aba81612a7e565b9050919050565b6000608082019050612ad66000830187611e5a565b612ae36020830186611e5a565b8181036040830152612af58185611eaf565b9050612b046060830184611992565b95945050505050565b600081905092915050565b50565b6000612b28600083612b0d565b9150612b3382612b18565b600082019050919050565b6000612b4982612b1b565b9150819050919050565b7f4661696c656420746f2073656e64204574686572000000000000000000000000600082015250565b6000612b89601483611e74565b9150612b9482612b53565b602082019050919050565b60006020820190508181036000830152612bb881612b7c565b9050919050565b6000819050919050565b6000612be4612bdf612bda84612bbf565b6124f6565b611988565b9050919050565b612bf481612bc9565b82525050565b6000604082019050612c0f6000830185611e5a565b612c1c6020830184612beb565b9392505050565b7f566f74696e6720646561646c696e652070617373656400000000000000000000600082015250565b6000612c59601683611e74565b9150612c6482612c23565b602082019050919050565b60006020820190508181036000830152612c8881612c4c565b9050919050565b600082825260208201905092915050565b6000612cab82612019565b612cb58185612c8f565b9350612cc083612035565b8060005b83811015612cf1578151612cd88882612045565b9750612ce38361205d565b925050600181019050612cc4565b5085935050505092915050565b6000608082019050612d136000830187611992565b612d206020830186611a35565b612d2d6040830185611992565b8181036060830152612d3f8184612ca0565b905095945050505050565b7f53656e6420736f6d652045544820746f20627579204752554c4c20546f6b656e60008201527f7300000000000000000000000000000000000000000000000000000000000000602082015250565b6000612da6602183611e74565b9150612db182612d4a565b604082019050919050565b60006020820190508181036000830152612dd581612d99565b9050919050565b6000612de782611988565b9150612df283611988565b9250828203905081811115612e0a57612e0961239b565b5b92915050565b7f43616e206f6e6c79207075726368617365206f6e63652065766572792032342060008201527f686f757273000000000000000000000000000000000000000000000000000000602082015250565b6000612e6c602583611e74565b9150612e7782612e10565b604082019050919050565b60006020820190508181036000830152612e9b81612e5f565b9050919050565b6000612ead82611988565b9150612eb883611988565b9250828202612ec681611988565b91508282048414831517612edd57612edc61239b565b5b5092915050565b7f4e487b7100000000000000000000000000000000000000000000000000000000600052601260045260246000fd5b6000612f1e82611988565b9150612f2983611988565b925082612f3957612f38612ee4565b5b828204905092915050565b7f45786365656473207075726368617365206c696d697400000000000000000000600082015250565b6000612f7a601683611e74565b9150612f8582612f44565b602082019050919050565b60006020820190508181036000830152612fa981612f6d565b9050919050565b6000604082019050612fc56000830185611e5a565b612fd26020830184611992565b9392505050565b7f4469737075746520697320616c7265616479207265736f6c7665640000000000600082015250565b600061300f601b83611e74565b915061301a82612fd9565b602082019050919050565b6000602082019050818103600083015261303e81613002565b9050919050565b7f4163636573732064656e69656400000000000000000000000000000000000000600082015250565b600061307b600d83611e74565b915061308682613045565b602082019050919050565b600060208201905081810360008301526130aa8161306e565b9050919050565b6000815190506130c081611a91565b92915050565b600080604083850312156130dd576130dc6119c6565b5b60006130eb85828601612a13565b92505060206130fc858286016130b1565b9150509250929050565b7f4572726f72207769746820736574746c656d656e740000000000000000000000600082015250565b600061313c601583611e74565b915061314782613106565b602082019050919050565b6000602082019050818103600083015261316b8161312f565b9050919050565b600081519050613181816119d0565b92915050565b60006020828403121561319d5761319c6119c6565b5b60006131ab84828501613172565b91505092915050565b60006131bf82611988565b91506131ca83611988565b92508282019050808211156131e2576131e161239b565b5b9291505056fea2646970667358221220bc59bd2fa3696bb64603ddad7b31b3db70c5ef5a1aeeb71ec81bd2321c40641a64736f6c634300081b0033",
  "linkReferences": {},
  "deployedLinkReferences": {}
}