{
  "_format": "hh-sol-artifact-1",
  "contractName": "Marketplace",
  "sourceName": "contracts/Marketplace.sol",
  "abi": [
    {
      "inputs": [
        {
          "internalType": "address",
          "name": "tokenAddress",
          "type": "address"
        },
        {
          "internalType": "address",
          "name": "disputeHandler",
          "type": "address"
        }
      ],
      "stateMutability": "nonpayable",
      "type": "constructor"
    },
    {
      "inputs": [
        {
          "internalType": "address",
          "name": "owner",
          "type": "address"
        }
      ],
      "name": "OwnableInvalidOwner",
      "type": "error"
    },
    {
      "inputs": [
        {
          "internalType": "address",
          "name": "account",
          "type": "address"
        }
      ],
      "name": "OwnableUnauthorizedAccount",
      "type": "error"
    },
    {
      "anonymous": false,
      "inputs": [
        {
          "indexed": true,
          "internalType": "uint256",
          "name": "disputeId",
          "type": "uint256"
        },
        {
          "indexed": true,
          "internalType": "address",
          "name": "creator",
          "type": "address"
        },
        {
          "indexed": false,
          "internalType": "address",
          "name": "clientA",
          "type": "address"
        },
        {
          "indexed": false,
          "internalType": "address",
          "name": "clientB",
          "type": "address"
        },
        {
          "indexed": false,
          "internalType": "string",
          "name": "description",
          "type": "string"
        },
        {
          "indexed": false,
          "internalType": "uint256",
          "name": "votingDeadline",
          "type": "uint256"
        }
      ],
      "name": "DisputeCreated",
      "type": "event"
    },
    {
      "anonymous": false,
      "inputs": [
        {
          "indexed": true,
          "internalType": "uint256",
          "name": "disputeId",
          "type": "uint256"
        },
        {
          "indexed": false,
          "internalType": "address",
          "name": "winner",
          "type": "address"
        }
      ],
      "name": "DisputeResolved",
      "type": "event"
    },
    {
      "anonymous": false,
      "inputs": [
        {
          "indexed": true,
          "internalType": "address",
          "name": "previousOwner",
          "type": "address"
        },
        {
          "indexed": true,
          "internalType": "address",
          "name": "newOwner",
          "type": "address"
        }
      ],
      "name": "OwnershipTransferred",
      "type": "event"
    },
    {
      "inputs": [],
      "name": "buyGRULL",
      "outputs": [
        {
          "internalType": "bool",
          "name": "",
          "type": "bool"
        }
      ],
      "stateMutability": "payable",
      "type": "function"
    },
    {
      "inputs": [],
      "name": "calculatePrice",
      "outputs": [
        {
          "internalType": "uint256",
          "name": "",
          "type": "uint256"
        }
      ],
      "stateMutability": "view",
      "type": "function"
    },
    {
      "inputs": [
        {
          "internalType": "address",
          "name": "_clientA",
          "type": "address"
        },
        {
          "internalType": "address",
          "name": "_clientB",
          "type": "address"
        },
        {
          "internalType": "string",
          "name": "_description",
          "type": "string"
        },
        {
          "internalType": "uint256",
          "name": "_votingDeadline",
          "type": "uint256"
        },
        {
          "internalType": "uint256[]",
          "name": "_skillsReqd",
          "type": "uint256[]"
        }
      ],
      "name": "createDispute",
      "outputs": [],
      "stateMutability": "nonpayable",
      "type": "function"
    },
    {
      "inputs": [
        {
          "internalType": "uint256",
          "name": "",
          "type": "uint256"
        }
      ],
      "name": "disputes",
      "outputs": [
        {
          "internalType": "uint256",
          "name": "id",
          "type": "uint256"
        },
        {
          "internalType": "address",
          "name": "creator",
          "type": "address"
        },
        {
          "internalType": "address",
          "name": "clientA",
          "type": "address"
        },
        {
          "internalType": "address",
          "name": "clientB",
          "type": "address"
        },
        {
          "internalType": "string",
          "name": "description",
          "type": "string"
        },
        {
          "internalType": "uint256",
          "name": "votingDeadline",
          "type": "uint256"
        },
        {
          "internalType": "bool",
          "name": "isResolved",
          "type": "bool"
        },
        {
          "internalType": "address",
          "name": "winner",
          "type": "address"
        }
      ],
      "stateMutability": "view",
      "type": "function"
    },
    {
      "inputs": [
        {
          "internalType": "uint256",
          "name": "_disputeId",
          "type": "uint256"
        }
      ],
      "name": "getDispute",
      "outputs": [
        {
          "components": [
            {
              "internalType": "uint256",
              "name": "id",
              "type": "uint256"
            },
            {
              "internalType": "address",
              "name": "creator",
              "type": "address"
            },
            {
              "internalType": "address",
              "name": "clientA",
              "type": "address"
            },
            {
              "internalType": "address",
              "name": "clientB",
              "type": "address"
            },
            {
              "internalType": "string",
              "name": "description",
              "type": "string"
            },
            {
              "internalType": "uint256[]",
              "name": "skillsReqd",
              "type": "uint256[]"
            },
            {
              "internalType": "uint256",
              "name": "votingDeadline",
              "type": "uint256"
            },
            {
              "internalType": "bool",
              "name": "isResolved",
              "type": "bool"
            },
            {
              "internalType": "address",
              "name": "winner",
              "type": "address"
            }
          ],
          "internalType": "struct Dispute",
          "name": "",
          "type": "tuple"
        }
      ],
      "stateMutability": "view",
      "type": "function"
    },
    {
      "inputs": [],
      "name": "getDisputeCount",
      "outputs": [
        {
          "internalType": "uint256",
          "name": "",
          "type": "uint256"
        }
      ],
      "stateMutability": "view",
      "type": "function"
    },
    {
      "inputs": [
        {
          "internalType": "uint256",
          "name": "_disputeId",
          "type": "uint256"
        }
      ],
      "name": "getDisputeResolved",
      "outputs": [
        {
          "internalType": "bool",
          "name": "",
          "type": "bool"
        },
        {
          "internalType": "address",
          "name": "",
          "type": "address"
        }
      ],
      "stateMutability": "nonpayable",
      "type": "function"
    },
    {
      "inputs": [
        {
          "internalType": "uint256",
          "name": "_disputeId",
          "type": "uint256"
        }
      ],
      "name": "getDisputeStatus",
      "outputs": [
        {
          "internalType": "bool",
          "name": "",
          "type": "bool"
        }
      ],
      "stateMutability": "view",
      "type": "function"
    },
    {
      "inputs": [
        {
          "internalType": "address",
          "name": "",
          "type": "address"
        }
      ],
      "name": "lastPurchase",
      "outputs": [
        {
          "internalType": "uint256",
          "name": "",
          "type": "uint256"
        }
      ],
      "stateMutability": "view",
      "type": "function"
    },
    {
      "inputs": [],
      "name": "owner",
      "outputs": [
        {
          "internalType": "address",
          "name": "",
          "type": "address"
        }
      ],
      "stateMutability": "view",
      "type": "function"
    },
    {
      "inputs": [],
      "name": "renounceOwnership",
      "outputs": [],
      "stateMutability": "nonpayable",
      "type": "function"
    },
    {
      "inputs": [],
      "name": "setApproveDisputeHandler",
      "outputs": [
        {
          "internalType": "bool",
          "name": "",
          "type": "bool"
        }
      ],
      "stateMutability": "nonpayable",
      "type": "function"
    },
    {
      "inputs": [
        {
          "internalType": "uint256",
          "name": "disputeId",
          "type": "uint256"
        },
        {
          "internalType": "bool",
          "name": "voteForA",
          "type": "bool"
        },
        {
          "internalType": "uint256",
          "name": "stakeAmount",
          "type": "uint256"
        },
        {
          "internalType": "uint256[]",
          "name": "skills",
          "type": "uint256[]"
        }
      ],
      "name": "stakeAndVote",
      "outputs": [],
      "stateMutability": "nonpayable",
      "type": "function"
    },
    {
      "inputs": [
        {
          "internalType": "address",
          "name": "newOwner",
          "type": "address"
        }
      ],
      "name": "transferOwnership",
      "outputs": [],
      "stateMutability": "nonpayable",
      "type": "function"
    }
  ],
  "bytecode": "0x60c0604052600060025534801561001557600080fd5b506040516132e83803806132e883398181016040528101906100379190610250565b33600073ffffffffffffffffffffffffffffffffffffffff168173ffffffffffffffffffffffffffffffffffffffff16036100aa5760006040517f1e4fbdf70000000000000000000000000000000000000000000000000000000081526004016100a1919061029f565b60405180910390fd5b6100b98161012960201b60201c565b508173ffffffffffffffffffffffffffffffffffffffff1660a08173ffffffffffffffffffffffffffffffffffffffff16815250508073ffffffffffffffffffffffffffffffffffffffff1660808173ffffffffffffffffffffffffffffffffffffffff168152505050506102ba565b60008060009054906101000a900473ffffffffffffffffffffffffffffffffffffffff169050816000806101000a81548173ffffffffffffffffffffffffffffffffffffffff021916908373ffffffffffffffffffffffffffffffffffffffff1602179055508173ffffffffffffffffffffffffffffffffffffffff168173ffffffffffffffffffffffffffffffffffffffff167f8be0079c531659141344cd1fd0a4f28419497f9722a3daafe3b4186f6b6457e060405160405180910390a35050565b600080fd5b600073ffffffffffffffffffffffffffffffffffffffff82169050919050565b600061021d826101f2565b9050919050565b61022d81610212565b811461023857600080fd5b50565b60008151905061024a81610224565b92915050565b60008060408385031215610267576102666101ed565b5b60006102758582860161023b565b92505060206102868582860161023b565b9150509250929050565b61029981610212565b82525050565b60006020820190506102b46000830184610290565b92915050565b60805160a051612fe6610302600039600081816108bf01528181610d470152611170015260008181610748015281816108fb015281816109e70152610fab0152612fe66000f3fe6080604052600436106100dd5760003560e01c8063715018a61161007f5780639b89d4fd116100595780639b89d4fd146102a8578063d348b409146102e6578063e3a96cbd14610311578063f2fde38b1461034e576100dd565b8063715018a61461024857806371a753c31461025f5780638da5cb5b1461027d576100dd565b8063421da68a116100bb578063421da68a146101735780634394a7fe146101b057806348dbec2e146101db578063564a565d14610204576100dd565b806310987b77146100e257806320f7aa3f1461010d578063222219e61461014a575b600080fd5b3480156100ee57600080fd5b506100f7610377565b604051610104919061181b565b60405180910390f35b34801561011957600080fd5b50610134600480360381019061012f9190611876565b610381565b60405161014191906118be565b60405180910390f35b34801561015657600080fd5b50610171600480360381019061016c9190611b45565b6103fe565b005b34801561017f57600080fd5b5061019a60048036038101906101959190611bf8565b61089b565b6040516101a7919061181b565b60405180910390f35b3480156101bc57600080fd5b506101c56108b3565b6040516101d291906118be565b60405180910390f35b3480156101e757600080fd5b5061020260048036038101906101fd9190611c51565b61098d565b005b34801561021057600080fd5b5061022b60048036038101906102269190611876565b610a7c565b60405161023f989796959493929190611d62565b60405180910390f35b34801561025457600080fd5b5061025d610bd9565b005b610267610bed565b60405161027491906118be565b60405180910390f35b34801561028957600080fd5b50610292610e21565b60405161029f9190611de7565b60405180910390f35b3480156102b457600080fd5b506102cf60048036038101906102ca9190611876565b610e4a565b6040516102dd929190611e02565b60405180910390f35b3480156102f257600080fd5b506102fb611150565b604051610308919061181b565b60405180910390f35b34801561031d57600080fd5b5061033860048036038101906103339190611876565b611229565b604051610345919061201d565b60405180910390f35b34801561035a57600080fd5b5061037560048036038101906103709190611bf8565b611519565b005b6000600254905090565b6000808211801561039457506002548211155b6103d3576040517f08c379a00000000000000000000000000000000000000000000000000000000081526004016103ca9061208b565b60405180910390fd5b6001600083815260200190815260200160002060070160009054906101000a900460ff169050919050565b8373ffffffffffffffffffffffffffffffffffffffff168573ffffffffffffffffffffffffffffffffffffffff160361046c576040517f08c379a0000000000000000000000000000000000000000000000000000000008152600401610463906120f7565b60405180910390fd5b60008351116104b0576040517f08c379a00000000000000000000000000000000000000000000000000000000081526004016104a790612163565b60405180910390fd5b4282116104f2576040517f08c379a00000000000000000000000000000000000000000000000000000000081526004016104e9906121f5565b60405180910390fd5b6002600081548092919061050590612244565b919050555060405180610120016040528060025481526020013373ffffffffffffffffffffffffffffffffffffffff1681526020018673ffffffffffffffffffffffffffffffffffffffff1681526020018573ffffffffffffffffffffffffffffffffffffffff168152602001848152602001828152602001838152602001600015158152602001600073ffffffffffffffffffffffffffffffffffffffff168152506001600060025481526020019081526020016000206000820151816000015560208201518160010160006101000a81548173ffffffffffffffffffffffffffffffffffffffff021916908373ffffffffffffffffffffffffffffffffffffffff16021790555060408201518160020160006101000a81548173ffffffffffffffffffffffffffffffffffffffff021916908373ffffffffffffffffffffffffffffffffffffffff16021790555060608201518160030160006101000a81548173ffffffffffffffffffffffffffffffffffffffff021916908373ffffffffffffffffffffffffffffffffffffffff16021790555060808201518160040190816106b19190612498565b5060a08201518160050190805190602001906106ce9291906116f2565b5060c0820151816006015560e08201518160070160006101000a81548160ff0219169083151502179055506101008201518160070160016101000a81548173ffffffffffffffffffffffffffffffffffffffff021916908373ffffffffffffffffffffffffffffffffffffffff16021790555090505060007f000000000000000000000000000000000000000000000000000000000000000073ffffffffffffffffffffffffffffffffffffffff1663c4b9c72e6001600060025481526020019081526020016000206002546040518363ffffffff1660e01b81526004016107b792919061285d565b6020604051808303816000875af11580156107d6573d6000803e3d6000fd5b505050506040513d601f19601f820116820180604052508101906107fa91906128a2565b90508061083c576040517f08c379a00000000000000000000000000000000000000000000000000000000081526004016108339061291b565b60405180910390fd5b3373ffffffffffffffffffffffffffffffffffffffff166002547f84cc6176a87c4c0fa1b2660f39f582e4b29cbf20161a5e7d1b1c77237008f88b8888888860405161088b949392919061293b565b60405180910390a3505050505050565b60036020528060005260406000206000915090505481565b60006108bd61159f565b7f000000000000000000000000000000000000000000000000000000000000000073ffffffffffffffffffffffffffffffffffffffff1663095ea7b37f000000000000000000000000000000000000000000000000000000000000000069d3c21bcecceda10000006040518363ffffffff1660e01b81526004016109429291906129c2565b6020604051808303816000875af1158015610961573d6000803e3d6000fd5b505050506040513d601f19601f8201168201806040525081019061098591906128a2565b506001905090565b426001600086815260200190815260200160002060060154116109e5576040517f08c379a00000000000000000000000000000000000000000000000000000000081526004016109dc90612a37565b60405180910390fd5b7f000000000000000000000000000000000000000000000000000000000000000073ffffffffffffffffffffffffffffffffffffffff166348dbec2e858585856040518563ffffffff1660e01b8152600401610a449493929190612ac6565b600060405180830381600087803b158015610a5e57600080fd5b505af1158015610a72573d6000803e3d6000fd5b5050505050505050565b60016020528060005260406000206000915090508060000154908060010160009054906101000a900473ffffffffffffffffffffffffffffffffffffffff16908060020160009054906101000a900473ffffffffffffffffffffffffffffffffffffffff16908060030160009054906101000a900473ffffffffffffffffffffffffffffffffffffffff1690806004018054610b17906122bb565b80601f0160208091040260200160405190810160405280929190818152602001828054610b43906122bb565b8015610b905780601f10610b6557610100808354040283529160200191610b90565b820191906000526020600020905b815481529060010190602001808311610b7357829003601f168201915b5050505050908060060154908060070160009054906101000a900460ff16908060070160019054906101000a900473ffffffffffffffffffffffffffffffffffffffff16905088565b610be161159f565b610beb6000611626565b565b600080683635c9adc5dea0000090506000610e10905060003411610c46576040517f08c379a0000000000000000000000000000000000000000000000000000000008152600401610c3d90612b84565b60405180910390fd5b80600360003373ffffffffffffffffffffffffffffffffffffffff1673ffffffffffffffffffffffffffffffffffffffff1681526020019081526020016000205442610c929190612ba4565b1015610cd3576040517f08c379a0000000000000000000000000000000000000000000000000000000008152600401610cca90612c4a565b60405180910390fd5b6000610cdd611150565b9050600081670de0b6b3a764000034610cf69190612c6a565b610d009190612cdb565b905083811115610d45576040517f08c379a0000000000000000000000000000000000000000000000000000000008152600401610d3c90612d58565b60405180910390fd5b7f000000000000000000000000000000000000000000000000000000000000000073ffffffffffffffffffffffffffffffffffffffff166340c10f1933836040518363ffffffff1660e01b8152600401610da0929190612d78565b600060405180830381600087803b158015610dba57600080fd5b505af1158015610dce573d6000803e3d6000fd5b5050505042600360003373ffffffffffffffffffffffffffffffffffffffff1673ffffffffffffffffffffffffffffffffffffffff16815260200190815260200160002081905550600194505050505090565b60008060009054906101000a900473ffffffffffffffffffffffffffffffffffffffff16905090565b600080600083118015610e5f57506002548311155b610e9e576040517f08c379a0000000000000000000000000000000000000000000000000000000008152600401610e959061208b565b60405180910390fd5b6001600084815260200190815260200160002060070160009054906101000a900460ff1615610f02576040517f08c379a0000000000000000000000000000000000000000000000000000000008152600401610ef990612ded565b60405180910390fd5b3373ffffffffffffffffffffffffffffffffffffffff166001600085815260200190815260200160002060010160009054906101000a900473ffffffffffffffffffffffffffffffffffffffff1673ffffffffffffffffffffffffffffffffffffffff1614610fa6576040517f08c379a0000000000000000000000000000000000000000000000000000000008152600401610f9d90612e59565b60405180910390fd5b6000807f000000000000000000000000000000000000000000000000000000000000000073ffffffffffffffffffffffffffffffffffffffff16631c099ad6866040518263ffffffff1660e01b8152600401611002919061181b565b60408051808303816000875af1158015611020573d6000803e3d6000fd5b505050506040513d601f19601f820116820180604052508101906110449190612e8e565b9150915081611088576040517f08c379a000000000000000000000000000000000000000000000000000000000815260040161107f90612f1a565b60405180910390fd5b600180600087815260200190815260200160002060070160006101000a81548160ff021916908315150217905550806001600087815260200190815260200160002060070160016101000a81548173ffffffffffffffffffffffffffffffffffffffff021916908373ffffffffffffffffffffffffffffffffffffffff160217905550847ff77ceb5e091d2da041bc760667f9d5fe7a756949eaf29250ad0e60ca6f4c27d98260405161113b9190611de7565b60405180910390a28181935093505050915091565b600080662386f26fc100009050600069d3c21bcecceda1000000905060007f000000000000000000000000000000000000000000000000000000000000000073ffffffffffffffffffffffffffffffffffffffff166318160ddd6040518163ffffffff1660e01b8152600401602060405180830381865afa1580156111d9573d6000803e3d6000fd5b505050506040513d601f19601f820116820180604052508101906111fd9190612f4f565b905081838261120c9190612c6a565b6112169190612cdb565b836112219190612f7c565b935050505090565b61123161173f565b60008211801561124357506002548211155b611282576040517f08c379a00000000000000000000000000000000000000000000000000000000081526004016112799061208b565b60405180910390fd5b6001600083815260200190815260200160002060405180610120016040529081600082015481526020016001820160009054906101000a900473ffffffffffffffffffffffffffffffffffffffff1673ffffffffffffffffffffffffffffffffffffffff1673ffffffffffffffffffffffffffffffffffffffff1681526020016002820160009054906101000a900473ffffffffffffffffffffffffffffffffffffffff1673ffffffffffffffffffffffffffffffffffffffff1673ffffffffffffffffffffffffffffffffffffffff1681526020016003820160009054906101000a900473ffffffffffffffffffffffffffffffffffffffff1673ffffffffffffffffffffffffffffffffffffffff1673ffffffffffffffffffffffffffffffffffffffff1681526020016004820180546113bd906122bb565b80601f01602080910402602001604051908101604052809291908181526020018280546113e9906122bb565b80156114365780601f1061140b57610100808354040283529160200191611436565b820191906000526020600020905b81548152906001019060200180831161141957829003601f168201915b505050505081526020016005820180548060200260200160405190810160405280929190818152602001828054801561148e57602002820191906000526020600020905b81548152602001906001019080831161147a575b50505050508152602001600682015481526020016007820160009054906101000a900460ff161515151581526020016007820160019054906101000a900473ffffffffffffffffffffffffffffffffffffffff1673ffffffffffffffffffffffffffffffffffffffff1673ffffffffffffffffffffffffffffffffffffffff16815250509050919050565b61152161159f565b600073ffffffffffffffffffffffffffffffffffffffff168173ffffffffffffffffffffffffffffffffffffffff16036115935760006040517f1e4fbdf700000000000000000000000000000000000000000000000000000000815260040161158a9190611de7565b60405180910390fd5b61159c81611626565b50565b6115a76116ea565b73ffffffffffffffffffffffffffffffffffffffff166115c5610e21565b73ffffffffffffffffffffffffffffffffffffffff1614611624576115e86116ea565b6040517f118cdaa700000000000000000000000000000000000000000000000000000000815260040161161b9190611de7565b60405180910390fd5b565b60008060009054906101000a900473ffffffffffffffffffffffffffffffffffffffff169050816000806101000a81548173ffffffffffffffffffffffffffffffffffffffff021916908373ffffffffffffffffffffffffffffffffffffffff1602179055508173ffffffffffffffffffffffffffffffffffffffff168173ffffffffffffffffffffffffffffffffffffffff167f8be0079c531659141344cd1fd0a4f28419497f9722a3daafe3b4186f6b6457e060405160405180910390a35050565b600033905090565b82805482825590600052602060002090810192821561172e579160200282015b8281111561172d578251825591602001919060010190611712565b5b50905061173b91906117e5565b5090565b60405180610120016040528060008152602001600073ffffffffffffffffffffffffffffffffffffffff168152602001600073ffffffffffffffffffffffffffffffffffffffff168152602001600073ffffffffffffffffffffffffffffffffffffffff168152602001606081526020016060815260200160008152602001600015158152602001600073ffffffffffffffffffffffffffffffffffffffff1681525090565b5b808211156117fe5760008160009055506001016117e6565b5090565b6000819050919050565b61181581611802565b82525050565b6000602082019050611830600083018461180c565b92915050565b6000604051905090565b600080fd5b600080fd5b61185381611802565b811461185e57600080fd5b50565b6000813590506118708161184a565b92915050565b60006020828403121561188c5761188b611840565b5b600061189a84828501611861565b91505092915050565b60008115159050919050565b6118b8816118a3565b82525050565b60006020820190506118d360008301846118af565b92915050565b600073ffffffffffffffffffffffffffffffffffffffff82169050919050565b6000611904826118d9565b9050919050565b611914816118f9565b811461191f57600080fd5b50565b6000813590506119318161190b565b92915050565b600080fd5b600080fd5b6000601f19601f8301169050919050565b7f4e487b7100000000000000000000000000000000000000000000000000000000600052604160045260246000fd5b61198a82611941565b810181811067ffffffffffffffff821117156119a9576119a8611952565b5b80604052505050565b60006119bc611836565b90506119c88282611981565b919050565b600067ffffffffffffffff8211156119e8576119e7611952565b5b6119f182611941565b9050602081019050919050565b82818337600083830152505050565b6000611a20611a1b846119cd565b6119b2565b905082815260208101848484011115611a3c57611a3b61193c565b5b611a478482856119fe565b509392505050565b600082601f830112611a6457611a63611937565b5b8135611a74848260208601611a0d565b91505092915050565b600067ffffffffffffffff821115611a9857611a97611952565b5b602082029050602081019050919050565b600080fd5b6000611ac1611abc84611a7d565b6119b2565b90508083825260208201905060208402830185811115611ae457611ae3611aa9565b5b835b81811015611b0d5780611af98882611861565b845260208401935050602081019050611ae6565b5050509392505050565b600082601f830112611b2c57611b2b611937565b5b8135611b3c848260208601611aae565b91505092915050565b600080600080600060a08688031215611b6157611b60611840565b5b6000611b6f88828901611922565b9550506020611b8088828901611922565b945050604086013567ffffffffffffffff811115611ba157611ba0611845565b5b611bad88828901611a4f565b9350506060611bbe88828901611861565b925050608086013567ffffffffffffffff811115611bdf57611bde611845565b5b611beb88828901611b17565b9150509295509295909350565b600060208284031215611c0e57611c0d611840565b5b6000611c1c84828501611922565b91505092915050565b611c2e816118a3565b8114611c3957600080fd5b50565b600081359050611c4b81611c25565b92915050565b60008060008060808587031215611c6b57611c6a611840565b5b6000611c7987828801611861565b9450506020611c8a87828801611c3c565b9350506040611c9b87828801611861565b925050606085013567ffffffffffffffff811115611cbc57611cbb611845565b5b611cc887828801611b17565b91505092959194509250565b611cdd816118f9565b82525050565b600081519050919050565b600082825260208201905092915050565b60005b83811015611d1d578082015181840152602081019050611d02565b60008484015250505050565b6000611d3482611ce3565b611d3e8185611cee565b9350611d4e818560208601611cff565b611d5781611941565b840191505092915050565b600061010082019050611d78600083018b61180c565b611d85602083018a611cd4565b611d926040830189611cd4565b611d9f6060830188611cd4565b8181036080830152611db18187611d29565b9050611dc060a083018661180c565b611dcd60c08301856118af565b611dda60e0830184611cd4565b9998505050505050505050565b6000602082019050611dfc6000830184611cd4565b92915050565b6000604082019050611e1760008301856118af565b611e246020830184611cd4565b9392505050565b611e3481611802565b82525050565b611e43816118f9565b82525050565b600082825260208201905092915050565b6000611e6582611ce3565b611e6f8185611e49565b9350611e7f818560208601611cff565b611e8881611941565b840191505092915050565b600081519050919050565b600082825260208201905092915050565b6000819050602082019050919050565b6000611ecb8383611e2b565b60208301905092915050565b6000602082019050919050565b6000611eef82611e93565b611ef98185611e9e565b9350611f0483611eaf565b8060005b83811015611f35578151611f1c8882611ebf565b9750611f2783611ed7565b925050600181019050611f08565b5085935050505092915050565b611f4b816118a3565b82525050565b600061012083016000830151611f6a6000860182611e2b565b506020830151611f7d6020860182611e3a565b506040830151611f906040860182611e3a565b506060830151611fa36060860182611e3a565b5060808301518482036080860152611fbb8282611e5a565b91505060a083015184820360a0860152611fd58282611ee4565b91505060c0830151611fea60c0860182611e2b565b5060e0830151611ffd60e0860182611f42565b50610100830151612012610100860182611e3a565b508091505092915050565b600060208201905081810360008301526120378184611f51565b905092915050565b7f496e76616c696420646973707574652049440000000000000000000000000000600082015250565b6000612075601283611cee565b91506120808261203f565b602082019050919050565b600060208201905081810360008301526120a481612068565b9050919050565b7f54776f20706172746965732063616e742062652073616d650000000000000000600082015250565b60006120e1601883611cee565b91506120ec826120ab565b602082019050919050565b60006020820190508181036000830152612110816120d4565b9050919050565b7f4465736372697074696f6e2063616e6e6f7420626520656d7074790000000000600082015250565b600061214d601b83611cee565b915061215882612117565b602082019050919050565b6000602082019050818103600083015261217c81612140565b9050919050565b7f566f74696e6720646561646c696e65206d75737420626520696e20746865206660008201527f7574757265000000000000000000000000000000000000000000000000000000602082015250565b60006121df602583611cee565b91506121ea82612183565b604082019050919050565b6000602082019050818103600083015261220e816121d2565b9050919050565b7f4e487b7100000000000000000000000000000000000000000000000000000000600052601160045260246000fd5b600061224f82611802565b91507fffffffffffffffffffffffffffffffffffffffffffffffffffffffffffffffff820361228157612280612215565b5b600182019050919050565b7f4e487b7100000000000000000000000000000000000000000000000000000000600052602260045260246000fd5b600060028204905060018216806122d357607f821691505b6020821081036122e6576122e561228c565b5b50919050565b60008190508160005260206000209050919050565b60006020601f8301049050919050565b600082821b905092915050565b60006008830261234e7fffffffffffffffffffffffffffffffffffffffffffffffffffffffffffffffff82612311565b6123588683612311565b95508019841693508086168417925050509392505050565b6000819050919050565b600061239561239061238b84611802565b612370565b611802565b9050919050565b6000819050919050565b6123af8361237a565b6123c36123bb8261239c565b84845461231e565b825550505050565b600090565b6123d86123cb565b6123e38184846123a6565b505050565b5b81811015612407576123fc6000826123d0565b6001810190506123e9565b5050565b601f82111561244c5761241d816122ec565b61242684612301565b81016020851015612435578190505b61244961244185612301565b8301826123e8565b50505b505050565b600082821c905092915050565b600061246f60001984600802612451565b1980831691505092915050565b6000612488838361245e565b9150826002028217905092915050565b6124a182611ce3565b67ffffffffffffffff8111156124ba576124b9611952565b5b6124c482546122bb565b6124cf82828561240b565b600060209050601f83116001811461250257600084156124f0578287015190505b6124fa858261247c565b865550612562565b601f198416612510866122ec565b60005b8281101561253857848901518255600182019150602085019450602081019050612513565b868310156125555784890151612551601f89168261245e565b8355505b6001600288020188555050505b505050505050565b60008160001c9050919050565b6000819050919050565b600061259461258f8361256a565b612577565b9050919050565b600073ffffffffffffffffffffffffffffffffffffffff82169050919050565b60006125ce6125c98361256a565b61259b565b9050919050565b600081546125e2816122bb565b6125ec8186611e49565b94506001821660008114612607576001811461261d57612650565b60ff198316865281151560200286019350612650565b612626856122ec565b60005b8381101561264857815481890152600182019150602081019050612629565b808801955050505b50505092915050565b600081549050919050565b60008190508160005260206000209050919050565b60006126858254612581565b9050919050565b6000600182019050919050565b60006126a482612659565b6126ae8185611e9e565b93506126b983612664565b8060005b838110156126f1576126ce82612679565b6126d88882611ebf565b97506126e38361268c565b9250506001810190506126bd565b5085935050505092915050565b600060ff82169050919050565b600061271e6127198361256a565b6126fe565b9050919050565b60008160081c9050919050565b600061274561274083612725565b61259b565b9050919050565b60006101208301600080840154905061276481612581565b6127716000870182611e2b565b5060018401549050612782816125bb565b61278f6020870182611e3a565b50600284015490506127a0816125bb565b6127ad6040870182611e3a565b50600384015490506127be816125bb565b6127cb6060870182611e3a565b506004840185830360808701526127e283826125d5565b9250506005840185830360a08701526127fb8382612699565b9250506006840154905061280e81612581565b61281b60c0870182611e2b565b506007840154905061282c8161270b565b61283960e0870182611f42565b5061284381612732565b612851610100870182611e3a565b50819250505092915050565b60006040820190508181036000830152612877818561274c565b9050612886602083018461180c565b9392505050565b60008151905061289c81611c25565b92915050565b6000602082840312156128b8576128b7611840565b5b60006128c68482850161288d565b91505092915050565b7f4661696c656420746f207375626d69742e000000000000000000000000000000600082015250565b6000612905601183611cee565b9150612910826128cf565b602082019050919050565b60006020820190508181036000830152612934816128f8565b9050919050565b60006080820190506129506000830187611cd4565b61295d6020830186611cd4565b818103604083015261296f8185611d29565b905061297e606083018461180c565b95945050505050565b6000819050919050565b60006129ac6129a76129a284612987565b612370565b611802565b9050919050565b6129bc81612991565b82525050565b60006040820190506129d76000830185611cd4565b6129e460208301846129b3565b9392505050565b7f566f74696e6720646561646c696e652070617373656400000000000000000000600082015250565b6000612a21601683611cee565b9150612a2c826129eb565b602082019050919050565b60006020820190508181036000830152612a5081612a14565b9050919050565b600082825260208201905092915050565b6000612a7382611e93565b612a7d8185612a57565b9350612a8883611eaf565b8060005b83811015612ab9578151612aa08882611ebf565b9750612aab83611ed7565b925050600181019050612a8c565b5085935050505092915050565b6000608082019050612adb600083018761180c565b612ae860208301866118af565b612af5604083018561180c565b8181036060830152612b078184612a68565b905095945050505050565b7f53656e6420736f6d652045544820746f20627579204752554c4c20546f6b656e60008201527f7300000000000000000000000000000000000000000000000000000000000000602082015250565b6000612b6e602183611cee565b9150612b7982612b12565b604082019050919050565b60006020820190508181036000830152612b9d81612b61565b9050919050565b6000612baf82611802565b9150612bba83611802565b9250828203905081811115612bd257612bd1612215565b5b92915050565b7f43616e206f6e6c79207075726368617365206f6e63652065766572792032342060008201527f686f757273000000000000000000000000000000000000000000000000000000602082015250565b6000612c34602583611cee565b9150612c3f82612bd8565b604082019050919050565b60006020820190508181036000830152612c6381612c27565b9050919050565b6000612c7582611802565b9150612c8083611802565b9250828202612c8e81611802565b91508282048414831517612ca557612ca4612215565b5b5092915050565b7f4e487b7100000000000000000000000000000000000000000000000000000000600052601260045260246000fd5b6000612ce682611802565b9150612cf183611802565b925082612d0157612d00612cac565b5b828204905092915050565b7f45786365656473207075726368617365206c696d697400000000000000000000600082015250565b6000612d42601683611cee565b9150612d4d82612d0c565b602082019050919050565b60006020820190508181036000830152612d7181612d35565b9050919050565b6000604082019050612d8d6000830185611cd4565b612d9a602083018461180c565b9392505050565b7f4469737075746520697320616c7265616479207265736f6c7665640000000000600082015250565b6000612dd7601b83611cee565b9150612de282612da1565b602082019050919050565b60006020820190508181036000830152612e0681612dca565b9050919050565b7f4163636573732064656e69656400000000000000000000000000000000000000600082015250565b6000612e43600d83611cee565b9150612e4e82612e0d565b602082019050919050565b60006020820190508181036000830152612e7281612e36565b9050919050565b600081519050612e888161190b565b92915050565b60008060408385031215612ea557612ea4611840565b5b6000612eb38582860161288d565b9250506020612ec485828601612e79565b9150509250929050565b7f4572726f72207769746820736574746c656d656e740000000000000000000000600082015250565b6000612f04601583611cee565b9150612f0f82612ece565b602082019050919050565b60006020820190508181036000830152612f3381612ef7565b9050919050565b600081519050612f498161184a565b92915050565b600060208284031215612f6557612f64611840565b5b6000612f7384828501612f3a565b91505092915050565b6000612f8782611802565b9150612f9283611802565b9250828201905080821115612faa57612fa9612215565b5b9291505056fea2646970667358221220f7be3f55054485b32077072042d3890a664f4ac7055268234a10ba6728d74c8164736f6c634300081b0033",
  "linkReferences": {},
  "deployedLinkReferences": {}
}