{
  "contracts/Marketplace.sol": {
    "Marketplace": {
      "abi": [
        {
          "inputs": [
            {
              "internalType": "address",
              "name": "tokenAddress",
              "type": "address"
            },
            {
              "internalType": "address",
              "name": "disputeHandler",
              "type": "address"
            }
          ],
          "stateMutability": "nonpayable",
          "type": "constructor"
        },
        {
          "inputs": [
            {
              "internalType": "address",
              "name": "owner",
              "type": "address"
            }
          ],
          "name": "OwnableInvalidOwner",
          "type": "error"
        },
        {
          "inputs": [
            {
              "internalType": "address",
              "name": "account",
              "type": "address"
            }
          ],
          "name": "OwnableUnauthorizedAccount",
          "type": "error"
        },
        {
          "anonymous": false,
          "inputs": [
            {
              "indexed": true,
              "internalType": "uint256",
              "name": "disputeId",
              "type": "uint256"
            },
            {
              "indexed": true,
              "internalType": "address",
              "name": "creator",
              "type": "address"
            },
            {
              "indexed": false,
              "internalType": "address",
              "name": "clientA",
              "type": "address"
            },
            {
              "indexed": false,
              "internalType": "address",
              "name": "clientB",
              "type": "address"
            },
            {
              "indexed": false,
              "internalType": "string",
              "name": "description",
              "type": "string"
            },
            {
              "indexed": false,
              "internalType": "uint256",
              "name": "votingDeadline",
              "type": "uint256"
            }
          ],
          "name": "DisputeCreated",
          "type": "event"
        },
        {
          "anonymous": false,
          "inputs": [
            {
              "indexed": true,
              "internalType": "uint256",
              "name": "disputeId",
              "type": "uint256"
            },
            {
              "indexed": false,
              "internalType": "address",
              "name": "winner",
              "type": "address"
            }
          ],
          "name": "DisputeResolved",
          "type": "event"
        },
        {
          "anonymous": false,
          "inputs": [
            {
              "indexed": true,
              "internalType": "address",
              "name": "previousOwner",
              "type": "address"
            },
            {
              "indexed": true,
              "internalType": "address",
              "name": "newOwner",
              "type": "address"
            }
          ],
          "name": "OwnershipTransferred",
          "type": "event"
        },
        {
          "inputs": [],
          "name": "buyGRULL",
          "outputs": [
            {
              "internalType": "bool",
              "name": "",
              "type": "bool"
            }
          ],
          "stateMutability": "payable",
          "type": "function"
        },
        {
          "inputs": [],
          "name": "calculatePrice",
          "outputs": [
            {
              "internalType": "uint256",
              "name": "",
              "type": "uint256"
            }
          ],
          "stateMutability": "view",
          "type": "function"
        },
        {
          "inputs": [
            {
              "internalType": "address",
              "name": "_clientA",
              "type": "address"
            },
            {
              "internalType": "address",
              "name": "_clientB",
              "type": "address"
            },
            {
              "internalType": "string",
              "name": "_description",
              "type": "string"
            },
            {
              "internalType": "uint256",
              "name": "_votingDeadline",
              "type": "uint256"
            },
            {
              "internalType": "uint256[]",
              "name": "_skillsReqd",
              "type": "uint256[]"
            }
          ],
          "name": "createDispute",
          "outputs": [],
          "stateMutability": "nonpayable",
          "type": "function"
        },
        {
          "inputs": [
            {
              "internalType": "uint256",
              "name": "",
              "type": "uint256"
            }
          ],
          "name": "disputes",
          "outputs": [
            {
              "internalType": "uint256",
              "name": "id",
              "type": "uint256"
            },
            {
              "internalType": "address",
              "name": "creator",
              "type": "address"
            },
            {
              "internalType": "address",
              "name": "clientA",
              "type": "address"
            },
            {
              "internalType": "address",
              "name": "clientB",
              "type": "address"
            },
            {
              "internalType": "string",
              "name": "description",
              "type": "string"
            },
            {
              "internalType": "uint256",
              "name": "votingDeadline",
              "type": "uint256"
            },
            {
              "internalType": "bool",
              "name": "isResolved",
              "type": "bool"
            },
            {
              "internalType": "address",
              "name": "winner",
              "type": "address"
            }
          ],
          "stateMutability": "view",
          "type": "function"
        },
        {
          "inputs": [
            {
              "internalType": "uint256",
              "name": "_disputeId",
              "type": "uint256"
            }
          ],
          "name": "getDispute",
          "outputs": [
            {
              "components": [
                {
                  "internalType": "uint256",
                  "name": "id",
                  "type": "uint256"
                },
                {
                  "internalType": "address",
                  "name": "creator",
                  "type": "address"
                },
                {
                  "internalType": "address",
                  "name": "clientA",
                  "type": "address"
                },
                {
                  "internalType": "address",
                  "name": "clientB",
                  "type": "address"
                },
                {
                  "internalType": "string",
                  "name": "description",
                  "type": "string"
                },
                {
                  "internalType": "uint256[]",
                  "name": "skillsReqd",
                  "type": "uint256[]"
                },
                {
                  "internalType": "uint256",
                  "name": "votingDeadline",
                  "type": "uint256"
                },
                {
                  "internalType": "bool",
                  "name": "isResolved",
                  "type": "bool"
                },
                {
                  "internalType": "address",
                  "name": "winner",
                  "type": "address"
                }
              ],
              "internalType": "struct Dispute",
              "name": "",
              "type": "tuple"
            }
          ],
          "stateMutability": "view",
          "type": "function"
        },
        {
          "inputs": [],
          "name": "getDisputeCount",
          "outputs": [
            {
              "internalType": "uint256",
              "name": "",
              "type": "uint256"
            }
          ],
          "stateMutability": "view",
          "type": "function"
        },
        {
          "inputs": [
            {
              "internalType": "uint256",
              "name": "_disputeId",
              "type": "uint256"
            }
          ],
          "name": "getDisputeResolved",
          "outputs": [
            {
              "internalType": "bool",
              "name": "",
              "type": "bool"
            },
            {
              "internalType": "address",
              "name": "",
              "type": "address"
            }
          ],
          "stateMutability": "nonpayable",
          "type": "function"
        },
        {
          "inputs": [
            {
              "internalType": "uint256",
              "name": "_disputeId",
              "type": "uint256"
            }
          ],
          "name": "getDisputeStatus",
          "outputs": [
            {
              "internalType": "bool",
              "name": "",
              "type": "bool"
            }
          ],
          "stateMutability": "view",
          "type": "function"
        },
        {
          "inputs": [
            {
              "internalType": "address",
              "name": "",
              "type": "address"
            }
          ],
          "name": "lastPurchase",
          "outputs": [
            {
              "internalType": "uint256",
              "name": "",
              "type": "uint256"
            }
          ],
          "stateMutability": "view",
          "type": "function"
        },
        {
          "inputs": [],
          "name": "owner",
          "outputs": [
            {
              "internalType": "address",
              "name": "",
              "type": "address"
            }
          ],
          "stateMutability": "view",
          "type": "function"
        },
        {
          "inputs": [],
          "name": "renounceOwnership",
          "outputs": [],
          "stateMutability": "nonpayable",
          "type": "function"
        },
        {
          "inputs": [],
          "name": "setApproveDisputeHandler",
          "outputs": [
            {
              "internalType": "bool",
              "name": "",
              "type": "bool"
            }
          ],
          "stateMutability": "nonpayable",
          "type": "function"
        },
        {
          "inputs": [
            {
              "internalType": "uint256",
              "name": "disputeId",
              "type": "uint256"
            },
            {
              "internalType": "bool",
              "name": "voteForA",
              "type": "bool"
            },
            {
              "internalType": "uint256",
              "name": "stakeAmount",
              "type": "uint256"
            },
            {
              "internalType": "uint256[]",
              "name": "skills",
              "type": "uint256[]"
            }
          ],
          "name": "stakeAndVote",
          "outputs": [],
          "stateMutability": "nonpayable",
          "type": "function"
        },
        {
          "inputs": [
            {
              "internalType": "address",
              "name": "newOwner",
              "type": "address"
            }
          ],
          "name": "transferOwnership",
          "outputs": [],
          "stateMutability": "nonpayable",
          "type": "function"
        }
      ],
      "evm": {
        "bytecode": {
          "linkReferences": {},
          "object": "60c0604052600060025534801561001557600080fd5b506040516132e83803806132e883398181016040528101906100379190610250565b33600073ffffffffffffffffffffffffffffffffffffffff168173ffffffffffffffffffffffffffffffffffffffff16036100aa5760006040517f1e4fbdf70000000000000000000000000000000000000000000000000000000081526004016100a1919061029f565b60405180910390fd5b6100b98161012960201b60201c565b508173ffffffffffffffffffffffffffffffffffffffff1660a08173ffffffffffffffffffffffffffffffffffffffff16815250508073ffffffffffffffffffffffffffffffffffffffff1660808173ffffffffffffffffffffffffffffffffffffffff168152505050506102ba565b60008060009054906101000a900473ffffffffffffffffffffffffffffffffffffffff169050816000806101000a81548173ffffffffffffffffffffffffffffffffffffffff021916908373ffffffffffffffffffffffffffffffffffffffff1602179055508173ffffffffffffffffffffffffffffffffffffffff168173ffffffffffffffffffffffffffffffffffffffff167f8be0079c531659141344cd1fd0a4f28419497f9722a3daafe3b4186f6b6457e060405160405180910390a35050565b600080fd5b600073ffffffffffffffffffffffffffffffffffffffff82169050919050565b600061021d826101f2565b9050919050565b61022d81610212565b811461023857600080fd5b50565b60008151905061024a81610224565b92915050565b60008060408385031215610267576102666101ed565b5b60006102758582860161023b565b92505060206102868582860161023b565b9150509250929050565b61029981610212565b82525050565b60006020820190506102b46000830184610290565b92915050565b60805160a051612fe6610302600039600081816108bf01528181610d470152611170015260008181610748015281816108fb015281816109e70152610fab0152612fe66000f3fe6080604052600436106100dd5760003560e01c8063715018a61161007f5780639b89d4fd116100595780639b89d4fd146102a8578063d348b409146102e6578063e3a96cbd14610311578063f2fde38b1461034e576100dd565b8063715018a61461024857806371a753c31461025f5780638da5cb5b1461027d576100dd565b8063421da68a116100bb578063421da68a146101735780634394a7fe146101b057806348dbec2e146101db578063564a565d14610204576100dd565b806310987b77146100e257806320f7aa3f1461010d578063222219e61461014a575b600080fd5b3480156100ee57600080fd5b506100f7610377565b604051610104919061181b565b60405180910390f35b34801561011957600080fd5b50610134600480360381019061012f9190611876565b610381565b60405161014191906118be565b60405180910390f35b34801561015657600080fd5b50610171600480360381019061016c9190611b45565b6103fe565b005b34801561017f57600080fd5b5061019a60048036038101906101959190611bf8565b61089b565b6040516101a7919061181b565b60405180910390f35b3480156101bc57600080fd5b506101c56108b3565b6040516101d291906118be565b60405180910390f35b3480156101e757600080fd5b5061020260048036038101906101fd9190611c51565b61098d565b005b34801561021057600080fd5b5061022b60048036038101906102269190611876565b610a7c565b60405161023f989796959493929190611d62565b60405180910390f35b34801561025457600080fd5b5061025d610bd9565b005b610267610bed565b60405161027491906118be565b60405180910390f35b34801561028957600080fd5b50610292610e21565b60405161029f9190611de7565b60405180910390f35b3480156102b457600080fd5b506102cf60048036038101906102ca9190611876565b610e4a565b6040516102dd929190611e02565b60405180910390f35b3480156102f257600080fd5b506102fb611150565b604051610308919061181b565b60405180910390f35b34801561031d57600080fd5b5061033860048036038101906103339190611876565b611229565b604051610345919061201d565b60405180910390f35b34801561035a57600080fd5b5061037560048036038101906103709190611bf8565b611519565b005b6000600254905090565b6000808211801561039457506002548211155b6103d3576040517f08c379a00000000000000000000000000000000000000000000000000000000081526004016103ca9061208b565b60405180910390fd5b6001600083815260200190815260200160002060070160009054906101000a900460ff169050919050565b8373ffffffffffffffffffffffffffffffffffffffff168573ffffffffffffffffffffffffffffffffffffffff160361046c576040517f08c379a0000000000000000000000000000000000000000000000000000000008152600401610463906120f7565b60405180910390fd5b60008351116104b0576040517f08c379a00000000000000000000000000000000000000000000000000000000081526004016104a790612163565b60405180910390fd5b4282116104f2576040517f08c379a00000000000000000000000000000000000000000000000000000000081526004016104e9906121f5565b60405180910390fd5b6002600081548092919061050590612244565b919050555060405180610120016040528060025481526020013373ffffffffffffffffffffffffffffffffffffffff1681526020018673ffffffffffffffffffffffffffffffffffffffff1681526020018573ffffffffffffffffffffffffffffffffffffffff168152602001848152602001828152602001838152602001600015158152602001600073ffffffffffffffffffffffffffffffffffffffff168152506001600060025481526020019081526020016000206000820151816000015560208201518160010160006101000a81548173ffffffffffffffffffffffffffffffffffffffff021916908373ffffffffffffffffffffffffffffffffffffffff16021790555060408201518160020160006101000a81548173ffffffffffffffffffffffffffffffffffffffff021916908373ffffffffffffffffffffffffffffffffffffffff16021790555060608201518160030160006101000a81548173ffffffffffffffffffffffffffffffffffffffff021916908373ffffffffffffffffffffffffffffffffffffffff16021790555060808201518160040190816106b19190612498565b5060a08201518160050190805190602001906106ce9291906116f2565b5060c0820151816006015560e08201518160070160006101000a81548160ff0219169083151502179055506101008201518160070160016101000a81548173ffffffffffffffffffffffffffffffffffffffff021916908373ffffffffffffffffffffffffffffffffffffffff16021790555090505060007f000000000000000000000000000000000000000000000000000000000000000073ffffffffffffffffffffffffffffffffffffffff1663c4b9c72e6001600060025481526020019081526020016000206002546040518363ffffffff1660e01b81526004016107b792919061285d565b6020604051808303816000875af11580156107d6573d6000803e3d6000fd5b505050506040513d601f19601f820116820180604052508101906107fa91906128a2565b90508061083c576040517f08c379a00000000000000000000000000000000000000000000000000000000081526004016108339061291b565b60405180910390fd5b3373ffffffffffffffffffffffffffffffffffffffff166002547f84cc6176a87c4c0fa1b2660f39f582e4b29cbf20161a5e7d1b1c77237008f88b8888888860405161088b949392919061293b565b60405180910390a3505050505050565b60036020528060005260406000206000915090505481565b60006108bd61159f565b7f000000000000000000000000000000000000000000000000000000000000000073ffffffffffffffffffffffffffffffffffffffff1663095ea7b37f000000000000000000000000000000000000000000000000000000000000000069d3c21bcecceda10000006040518363ffffffff1660e01b81526004016109429291906129c2565b6020604051808303816000875af1158015610961573d6000803e3d6000fd5b505050506040513d601f19601f8201168201806040525081019061098591906128a2565b506001905090565b426001600086815260200190815260200160002060060154116109e5576040517f08c379a00000000000000000000000000000000000000000000000000000000081526004016109dc90612a37565b60405180910390fd5b7f000000000000000000000000000000000000000000000000000000000000000073ffffffffffffffffffffffffffffffffffffffff166348dbec2e858585856040518563ffffffff1660e01b8152600401610a449493929190612ac6565b600060405180830381600087803b158015610a5e57600080fd5b505af1158015610a72573d6000803e3d6000fd5b5050505050505050565b60016020528060005260406000206000915090508060000154908060010160009054906101000a900473ffffffffffffffffffffffffffffffffffffffff16908060020160009054906101000a900473ffffffffffffffffffffffffffffffffffffffff16908060030160009054906101000a900473ffffffffffffffffffffffffffffffffffffffff1690806004018054610b17906122bb565b80601f0160208091040260200160405190810160405280929190818152602001828054610b43906122bb565b8015610b905780601f10610b6557610100808354040283529160200191610b90565b820191906000526020600020905b815481529060010190602001808311610b7357829003601f168201915b5050505050908060060154908060070160009054906101000a900460ff16908060070160019054906101000a900473ffffffffffffffffffffffffffffffffffffffff16905088565b610be161159f565b610beb6000611626565b565b600080683635c9adc5dea0000090506000610e10905060003411610c46576040517f08c379a0000000000000000000000000000000000000000000000000000000008152600401610c3d90612b84565b60405180910390fd5b80600360003373ffffffffffffffffffffffffffffffffffffffff1673ffffffffffffffffffffffffffffffffffffffff1681526020019081526020016000205442610c929190612ba4565b1015610cd3576040517f08c379a0000000000000000000000000000000000000000000000000000000008152600401610cca90612c4a565b60405180910390fd5b6000610cdd611150565b9050600081670de0b6b3a764000034610cf69190612c6a565b610d009190612cdb565b905083811115610d45576040517f08c379a0000000000000000000000000000000000000000000000000000000008152600401610d3c90612d58565b60405180910390fd5b7f000000000000000000000000000000000000000000000000000000000000000073ffffffffffffffffffffffffffffffffffffffff166340c10f1933836040518363ffffffff1660e01b8152600401610da0929190612d78565b600060405180830381600087803b158015610dba57600080fd5b505af1158015610dce573d6000803e3d6000fd5b5050505042600360003373ffffffffffffffffffffffffffffffffffffffff1673ffffffffffffffffffffffffffffffffffffffff16815260200190815260200160002081905550600194505050505090565b60008060009054906101000a900473ffffffffffffffffffffffffffffffffffffffff16905090565b600080600083118015610e5f57506002548311155b610e9e576040517f08c379a0000000000000000000000000000000000000000000000000000000008152600401610e959061208b565b60405180910390fd5b6001600084815260200190815260200160002060070160009054906101000a900460ff1615610f02576040517f08c379a0000000000000000000000000000000000000000000000000000000008152600401610ef990612ded565b60405180910390fd5b3373ffffffffffffffffffffffffffffffffffffffff166001600085815260200190815260200160002060010160009054906101000a900473ffffffffffffffffffffffffffffffffffffffff1673ffffffffffffffffffffffffffffffffffffffff1614610fa6576040517f08c379a0000000000000000000000000000000000000000000000000000000008152600401610f9d90612e59565b60405180910390fd5b6000807f000000000000000000000000000000000000000000000000000000000000000073ffffffffffffffffffffffffffffffffffffffff16631c099ad6866040518263ffffffff1660e01b8152600401611002919061181b565b60408051808303816000875af1158015611020573d6000803e3d6000fd5b505050506040513d601f19601f820116820180604052508101906110449190612e8e565b9150915081611088576040517f08c379a000000000000000000000000000000000000000000000000000000000815260040161107f90612f1a565b60405180910390fd5b600180600087815260200190815260200160002060070160006101000a81548160ff021916908315150217905550806001600087815260200190815260200160002060070160016101000a81548173ffffffffffffffffffffffffffffffffffffffff021916908373ffffffffffffffffffffffffffffffffffffffff160217905550847ff77ceb5e091d2da041bc760667f9d5fe7a756949eaf29250ad0e60ca6f4c27d98260405161113b9190611de7565b60405180910390a28181935093505050915091565b600080662386f26fc100009050600069d3c21bcecceda1000000905060007f000000000000000000000000000000000000000000000000000000000000000073ffffffffffffffffffffffffffffffffffffffff166318160ddd6040518163ffffffff1660e01b8152600401602060405180830381865afa1580156111d9573d6000803e3d6000fd5b505050506040513d601f19601f820116820180604052508101906111fd9190612f4f565b905081838261120c9190612c6a565b6112169190612cdb565b836112219190612f7c565b935050505090565b61123161173f565b60008211801561124357506002548211155b611282576040517f08c379a00000000000000000000000000000000000000000000000000000000081526004016112799061208b565b60405180910390fd5b6001600083815260200190815260200160002060405180610120016040529081600082015481526020016001820160009054906101000a900473ffffffffffffffffffffffffffffffffffffffff1673ffffffffffffffffffffffffffffffffffffffff1673ffffffffffffffffffffffffffffffffffffffff1681526020016002820160009054906101000a900473ffffffffffffffffffffffffffffffffffffffff1673ffffffffffffffffffffffffffffffffffffffff1673ffffffffffffffffffffffffffffffffffffffff1681526020016003820160009054906101000a900473ffffffffffffffffffffffffffffffffffffffff1673ffffffffffffffffffffffffffffffffffffffff1673ffffffffffffffffffffffffffffffffffffffff1681526020016004820180546113bd906122bb565b80601f01602080910402602001604051908101604052809291908181526020018280546113e9906122bb565b80156114365780601f1061140b57610100808354040283529160200191611436565b820191906000526020600020905b81548152906001019060200180831161141957829003601f168201915b505050505081526020016005820180548060200260200160405190810160405280929190818152602001828054801561148e57602002820191906000526020600020905b81548152602001906001019080831161147a575b50505050508152602001600682015481526020016007820160009054906101000a900460ff161515151581526020016007820160019054906101000a900473ffffffffffffffffffffffffffffffffffffffff1673ffffffffffffffffffffffffffffffffffffffff1673ffffffffffffffffffffffffffffffffffffffff16815250509050919050565b61152161159f565b600073ffffffffffffffffffffffffffffffffffffffff168173ffffffffffffffffffffffffffffffffffffffff16036115935760006040517f1e4fbdf700000000000000000000000000000000000000000000000000000000815260040161158a9190611de7565b60405180910390fd5b61159c81611626565b50565b6115a76116ea565b73ffffffffffffffffffffffffffffffffffffffff166115c5610e21565b73ffffffffffffffffffffffffffffffffffffffff1614611624576115e86116ea565b6040517f118cdaa700000000000000000000000000000000000000000000000000000000815260040161161b9190611de7565b60405180910390fd5b565b60008060009054906101000a900473ffffffffffffffffffffffffffffffffffffffff169050816000806101000a81548173ffffffffffffffffffffffffffffffffffffffff021916908373ffffffffffffffffffffffffffffffffffffffff1602179055508173ffffffffffffffffffffffffffffffffffffffff168173ffffffffffffffffffffffffffffffffffffffff167f8be0079c531659141344cd1fd0a4f28419497f9722a3daafe3b4186f6b6457e060405160405180910390a35050565b600033905090565b82805482825590600052602060002090810192821561172e579160200282015b8281111561172d578251825591602001919060010190611712565b5b50905061173b91906117e5565b5090565b60405180610120016040528060008152602001600073ffffffffffffffffffffffffffffffffffffffff168152602001600073ffffffffffffffffffffffffffffffffffffffff168152602001600073ffffffffffffffffffffffffffffffffffffffff168152602001606081526020016060815260200160008152602001600015158152602001600073ffffffffffffffffffffffffffffffffffffffff1681525090565b5b808211156117fe5760008160009055506001016117e6565b5090565b6000819050919050565b61181581611802565b82525050565b6000602082019050611830600083018461180c565b92915050565b6000604051905090565b600080fd5b600080fd5b61185381611802565b811461185e57600080fd5b50565b6000813590506118708161184a565b92915050565b60006020828403121561188c5761188b611840565b5b600061189a84828501611861565b91505092915050565b60008115159050919050565b6118b8816118a3565b82525050565b60006020820190506118d360008301846118af565b92915050565b600073ffffffffffffffffffffffffffffffffffffffff82169050919050565b6000611904826118d9565b9050919050565b611914816118f9565b811461191f57600080fd5b50565b6000813590506119318161190b565b92915050565b600080fd5b600080fd5b6000601f19601f8301169050919050565b7f4e487b7100000000000000000000000000000000000000000000000000000000600052604160045260246000fd5b61198a82611941565b810181811067ffffffffffffffff821117156119a9576119a8611952565b5b80604052505050565b60006119bc611836565b90506119c88282611981565b919050565b600067ffffffffffffffff8211156119e8576119e7611952565b5b6119f182611941565b9050602081019050919050565b82818337600083830152505050565b6000611a20611a1b846119cd565b6119b2565b905082815260208101848484011115611a3c57611a3b61193c565b5b611a478482856119fe565b509392505050565b600082601f830112611a6457611a63611937565b5b8135611a74848260208601611a0d565b91505092915050565b600067ffffffffffffffff821115611a9857611a97611952565b5b602082029050602081019050919050565b600080fd5b6000611ac1611abc84611a7d565b6119b2565b90508083825260208201905060208402830185811115611ae457611ae3611aa9565b5b835b81811015611b0d5780611af98882611861565b845260208401935050602081019050611ae6565b5050509392505050565b600082601f830112611b2c57611b2b611937565b5b8135611b3c848260208601611aae565b91505092915050565b600080600080600060a08688031215611b6157611b60611840565b5b6000611b6f88828901611922565b9550506020611b8088828901611922565b945050604086013567ffffffffffffffff811115611ba157611ba0611845565b5b611bad88828901611a4f565b9350506060611bbe88828901611861565b925050608086013567ffffffffffffffff811115611bdf57611bde611845565b5b611beb88828901611b17565b9150509295509295909350565b600060208284031215611c0e57611c0d611840565b5b6000611c1c84828501611922565b91505092915050565b611c2e816118a3565b8114611c3957600080fd5b50565b600081359050611c4b81611c25565b92915050565b60008060008060808587031215611c6b57611c6a611840565b5b6000611c7987828801611861565b9450506020611c8a87828801611c3c565b9350506040611c9b87828801611861565b925050606085013567ffffffffffffffff811115611cbc57611cbb611845565b5b611cc887828801611b17565b91505092959194509250565b611cdd816118f9565b82525050565b600081519050919050565b600082825260208201905092915050565b60005b83811015611d1d578082015181840152602081019050611d02565b60008484015250505050565b6000611d3482611ce3565b611d3e8185611cee565b9350611d4e818560208601611cff565b611d5781611941565b840191505092915050565b600061010082019050611d78600083018b61180c565b611d85602083018a611cd4565b611d926040830189611cd4565b611d9f6060830188611cd4565b8181036080830152611db18187611d29565b9050611dc060a083018661180c565b611dcd60c08301856118af565b611dda60e0830184611cd4565b9998505050505050505050565b6000602082019050611dfc6000830184611cd4565b92915050565b6000604082019050611e1760008301856118af565b611e246020830184611cd4565b9392505050565b611e3481611802565b82525050565b611e43816118f9565b82525050565b600082825260208201905092915050565b6000611e6582611ce3565b611e6f8185611e49565b9350611e7f818560208601611cff565b611e8881611941565b840191505092915050565b600081519050919050565b600082825260208201905092915050565b6000819050602082019050919050565b6000611ecb8383611e2b565b60208301905092915050565b6000602082019050919050565b6000611eef82611e93565b611ef98185611e9e565b9350611f0483611eaf565b8060005b83811015611f35578151611f1c8882611ebf565b9750611f2783611ed7565b925050600181019050611f08565b5085935050505092915050565b611f4b816118a3565b82525050565b600061012083016000830151611f6a6000860182611e2b565b506020830151611f7d6020860182611e3a565b506040830151611f906040860182611e3a565b506060830151611fa36060860182611e3a565b5060808301518482036080860152611fbb8282611e5a565b91505060a083015184820360a0860152611fd58282611ee4565b91505060c0830151611fea60c0860182611e2b565b5060e0830151611ffd60e0860182611f42565b50610100830151612012610100860182611e3a565b508091505092915050565b600060208201905081810360008301526120378184611f51565b905092915050565b7f496e76616c696420646973707574652049440000000000000000000000000000600082015250565b6000612075601283611cee565b91506120808261203f565b602082019050919050565b600060208201905081810360008301526120a481612068565b9050919050565b7f54776f20706172746965732063616e742062652073616d650000000000000000600082015250565b60006120e1601883611cee565b91506120ec826120ab565b602082019050919050565b60006020820190508181036000830152612110816120d4565b9050919050565b7f4465736372697074696f6e2063616e6e6f7420626520656d7074790000000000600082015250565b600061214d601b83611cee565b915061215882612117565b602082019050919050565b6000602082019050818103600083015261217c81612140565b9050919050565b7f566f74696e6720646561646c696e65206d75737420626520696e20746865206660008201527f7574757265000000000000000000000000000000000000000000000000000000602082015250565b60006121df602583611cee565b91506121ea82612183565b604082019050919050565b6000602082019050818103600083015261220e816121d2565b9050919050565b7f4e487b7100000000000000000000000000000000000000000000000000000000600052601160045260246000fd5b600061224f82611802565b91507fffffffffffffffffffffffffffffffffffffffffffffffffffffffffffffffff820361228157612280612215565b5b600182019050919050565b7f4e487b7100000000000000000000000000000000000000000000000000000000600052602260045260246000fd5b600060028204905060018216806122d357607f821691505b6020821081036122e6576122e561228c565b5b50919050565b60008190508160005260206000209050919050565b60006020601f8301049050919050565b600082821b905092915050565b60006008830261234e7fffffffffffffffffffffffffffffffffffffffffffffffffffffffffffffffff82612311565b6123588683612311565b95508019841693508086168417925050509392505050565b6000819050919050565b600061239561239061238b84611802565b612370565b611802565b9050919050565b6000819050919050565b6123af8361237a565b6123c36123bb8261239c565b84845461231e565b825550505050565b600090565b6123d86123cb565b6123e38184846123a6565b505050565b5b81811015612407576123fc6000826123d0565b6001810190506123e9565b5050565b601f82111561244c5761241d816122ec565b61242684612301565b81016020851015612435578190505b61244961244185612301565b8301826123e8565b50505b505050565b600082821c905092915050565b600061246f60001984600802612451565b1980831691505092915050565b6000612488838361245e565b9150826002028217905092915050565b6124a182611ce3565b67ffffffffffffffff8111156124ba576124b9611952565b5b6124c482546122bb565b6124cf82828561240b565b600060209050601f83116001811461250257600084156124f0578287015190505b6124fa858261247c565b865550612562565b601f198416612510866122ec565b60005b8281101561253857848901518255600182019150602085019450602081019050612513565b868310156125555784890151612551601f89168261245e565b8355505b6001600288020188555050505b505050505050565b60008160001c9050919050565b6000819050919050565b600061259461258f8361256a565b612577565b9050919050565b600073ffffffffffffffffffffffffffffffffffffffff82169050919050565b60006125ce6125c98361256a565b61259b565b9050919050565b600081546125e2816122bb565b6125ec8186611e49565b94506001821660008114612607576001811461261d57612650565b60ff198316865281151560200286019350612650565b612626856122ec565b60005b8381101561264857815481890152600182019150602081019050612629565b808801955050505b50505092915050565b600081549050919050565b60008190508160005260206000209050919050565b60006126858254612581565b9050919050565b6000600182019050919050565b60006126a482612659565b6126ae8185611e9e565b93506126b983612664565b8060005b838110156126f1576126ce82612679565b6126d88882611ebf565b97506126e38361268c565b9250506001810190506126bd565b5085935050505092915050565b600060ff82169050919050565b600061271e6127198361256a565b6126fe565b9050919050565b60008160081c9050919050565b600061274561274083612725565b61259b565b9050919050565b60006101208301600080840154905061276481612581565b6127716000870182611e2b565b5060018401549050612782816125bb565b61278f6020870182611e3a565b50600284015490506127a0816125bb565b6127ad6040870182611e3a565b50600384015490506127be816125bb565b6127cb6060870182611e3a565b506004840185830360808701526127e283826125d5565b9250506005840185830360a08701526127fb8382612699565b9250506006840154905061280e81612581565b61281b60c0870182611e2b565b506007840154905061282c8161270b565b61283960e0870182611f42565b5061284381612732565b612851610100870182611e3a565b50819250505092915050565b60006040820190508181036000830152612877818561274c565b9050612886602083018461180c565b9392505050565b60008151905061289c81611c25565b92915050565b6000602082840312156128b8576128b7611840565b5b60006128c68482850161288d565b91505092915050565b7f4661696c656420746f207375626d69742e000000000000000000000000000000600082015250565b6000612905601183611cee565b9150612910826128cf565b602082019050919050565b60006020820190508181036000830152612934816128f8565b9050919050565b60006080820190506129506000830187611cd4565b61295d6020830186611cd4565b818103604083015261296f8185611d29565b905061297e606083018461180c565b95945050505050565b6000819050919050565b60006129ac6129a76129a284612987565b612370565b611802565b9050919050565b6129bc81612991565b82525050565b60006040820190506129d76000830185611cd4565b6129e460208301846129b3565b9392505050565b7f566f74696e6720646561646c696e652070617373656400000000000000000000600082015250565b6000612a21601683611cee565b9150612a2c826129eb565b602082019050919050565b60006020820190508181036000830152612a5081612a14565b9050919050565b600082825260208201905092915050565b6000612a7382611e93565b612a7d8185612a57565b9350612a8883611eaf565b8060005b83811015612ab9578151612aa08882611ebf565b9750612aab83611ed7565b925050600181019050612a8c565b5085935050505092915050565b6000608082019050612adb600083018761180c565b612ae860208301866118af565b612af5604083018561180c565b8181036060830152612b078184612a68565b905095945050505050565b7f53656e6420736f6d652045544820746f20627579204752554c4c20546f6b656e60008201527f7300000000000000000000000000000000000000000000000000000000000000602082015250565b6000612b6e602183611cee565b9150612b7982612b12565b604082019050919050565b60006020820190508181036000830152612b9d81612b61565b9050919050565b6000612baf82611802565b9150612bba83611802565b9250828203905081811115612bd257612bd1612215565b5b92915050565b7f43616e206f6e6c79207075726368617365206f6e63652065766572792032342060008201527f686f757273000000000000000000000000000000000000000000000000000000602082015250565b6000612c34602583611cee565b9150612c3f82612bd8565b604082019050919050565b60006020820190508181036000830152612c6381612c27565b9050919050565b6000612c7582611802565b9150612c8083611802565b9250828202612c8e81611802565b91508282048414831517612ca557612ca4612215565b5b5092915050565b7f4e487b7100000000000000000000000000000000000000000000000000000000600052601260045260246000fd5b6000612ce682611802565b9150612cf183611802565b925082612d0157612d00612cac565b5b828204905092915050565b7f45786365656473207075726368617365206c696d697400000000000000000000600082015250565b6000612d42601683611cee565b9150612d4d82612d0c565b602082019050919050565b60006020820190508181036000830152612d7181612d35565b9050919050565b6000604082019050612d8d6000830185611cd4565b612d9a602083018461180c565b9392505050565b7f4469737075746520697320616c7265616479207265736f6c7665640000000000600082015250565b6000612dd7601b83611cee565b9150612de282612da1565b602082019050919050565b60006020820190508181036000830152612e0681612dca565b9050919050565b7f4163636573732064656e69656400000000000000000000000000000000000000600082015250565b6000612e43600d83611cee565b9150612e4e82612e0d565b602082019050919050565b60006020820190508181036000830152612e7281612e36565b9050919050565b600081519050612e888161190b565b92915050565b60008060408385031215612ea557612ea4611840565b5b6000612eb38582860161288d565b9250506020612ec485828601612e79565b9150509250929050565b7f4572726f72207769746820736574746c656d656e740000000000000000000000600082015250565b6000612f04601583611cee565b9150612f0f82612ece565b602082019050919050565b60006020820190508181036000830152612f3381612ef7565b9050919050565b600081519050612f498161184a565b92915050565b600060208284031215612f6557612f64611840565b5b6000612f7384828501612f3a565b91505092915050565b6000612f8782611802565b9150612f9283611802565b9250828201905080821115612faa57612fa9612215565b5b9291505056fea2646970667358221220f7be3f55054485b32077072042d3890a664f4ac7055268234a10ba6728d74c8164736f6c634300081b0033",
          "opcodes": "PUSH1 0xC0 PUSH1 0x40 MSTORE PUSH1 0x0 PUSH1 0x2 SSTORE CALLVALUE DUP1 ISZERO PUSH2 0x15 JUMPI PUSH1 0x0 DUP1 REVERT JUMPDEST POP PUSH1 0x40 MLOAD PUSH2 0x32E8 CODESIZE SUB DUP1 PUSH2 0x32E8 DUP4 CODECOPY DUP2 DUP2 ADD PUSH1 0x40 MSTORE DUP2 ADD SWAP1 PUSH2 0x37 SWAP2 SWAP1 PUSH2 0x250 JUMP JUMPDEST CALLER PUSH1 0x0 PUSH20 0xFFFFFFFFFFFFFFFFFFFFFFFFFFFFFFFFFFFFFFFF AND DUP2 PUSH20 0xFFFFFFFFFFFFFFFFFFFFFFFFFFFFFFFFFFFFFFFF AND SUB PUSH2 0xAA JUMPI PUSH1 0x0 PUSH1 0x40 MLOAD PUSH32 0x1E4FBDF700000000000000000000000000000000000000000000000000000000 DUP2 MSTORE PUSH1 0x4 ADD PUSH2 0xA1 SWAP2 SWAP1 PUSH2 0x29F JUMP JUMPDEST PUSH1 0x40 MLOAD DUP1 SWAP2 SUB SWAP1 REVERT JUMPDEST PUSH2 0xB9 DUP2 PUSH2 0x129 PUSH1 0x20 SHL PUSH1 0x20 SHR JUMP JUMPDEST POP DUP2 PUSH20 0xFFFFFFFFFFFFFFFFFFFFFFFFFFFFFFFFFFFFFFFF AND PUSH1 0xA0 DUP2 PUSH20 0xFFFFFFFFFFFFFFFFFFFFFFFFFFFFFFFFFFFFFFFF AND DUP2 MSTORE POP POP DUP1 PUSH20 0xFFFFFFFFFFFFFFFFFFFFFFFFFFFFFFFFFFFFFFFF AND PUSH1 0x80 DUP2 PUSH20 0xFFFFFFFFFFFFFFFFFFFFFFFFFFFFFFFFFFFFFFFF AND DUP2 MSTORE POP POP POP POP PUSH2 0x2BA JUMP JUMPDEST PUSH1 0x0 DUP1 PUSH1 0x0 SWAP1 SLOAD SWAP1 PUSH2 0x100 EXP SWAP1 DIV PUSH20 0xFFFFFFFFFFFFFFFFFFFFFFFFFFFFFFFFFFFFFFFF AND SWAP1 POP DUP2 PUSH1 0x0 DUP1 PUSH2 0x100 EXP DUP2 SLOAD DUP2 PUSH20 0xFFFFFFFFFFFFFFFFFFFFFFFFFFFFFFFFFFFFFFFF MUL NOT AND SWAP1 DUP4 PUSH20 0xFFFFFFFFFFFFFFFFFFFFFFFFFFFFFFFFFFFFFFFF AND MUL OR SWAP1 SSTORE POP DUP2 PUSH20 0xFFFFFFFFFFFFFFFFFFFFFFFFFFFFFFFFFFFFFFFF AND DUP2 PUSH20 0xFFFFFFFFFFFFFFFFFFFFFFFFFFFFFFFFFFFFFFFF AND PUSH32 0x8BE0079C531659141344CD1FD0A4F28419497F9722A3DAAFE3B4186F6B6457E0 PUSH1 0x40 MLOAD PUSH1 0x40 MLOAD DUP1 SWAP2 SUB SWAP1 LOG3 POP POP JUMP JUMPDEST PUSH1 0x0 DUP1 REVERT JUMPDEST PUSH1 0x0 PUSH20 0xFFFFFFFFFFFFFFFFFFFFFFFFFFFFFFFFFFFFFFFF DUP3 AND SWAP1 POP SWAP2 SWAP1 POP JUMP JUMPDEST PUSH1 0x0 PUSH2 0x21D DUP3 PUSH2 0x1F2 JUMP JUMPDEST SWAP1 POP SWAP2 SWAP1 POP JUMP JUMPDEST PUSH2 0x22D DUP2 PUSH2 0x212 JUMP JUMPDEST DUP2 EQ PUSH2 0x238 JUMPI PUSH1 0x0 DUP1 REVERT JUMPDEST POP JUMP JUMPDEST PUSH1 0x0 DUP2 MLOAD SWAP1 POP PUSH2 0x24A DUP2 PUSH2 0x224 JUMP JUMPDEST SWAP3 SWAP2 POP POP JUMP JUMPDEST PUSH1 0x0 DUP1 PUSH1 0x40 DUP4 DUP6 SUB SLT ISZERO PUSH2 0x267 JUMPI PUSH2 0x266 PUSH2 0x1ED JUMP JUMPDEST JUMPDEST PUSH1 0x0 PUSH2 0x275 DUP6 DUP3 DUP7 ADD PUSH2 0x23B JUMP JUMPDEST SWAP3 POP POP PUSH1 0x20 PUSH2 0x286 DUP6 DUP3 DUP7 ADD PUSH2 0x23B JUMP JUMPDEST SWAP2 POP POP SWAP3 POP SWAP3 SWAP1 POP JUMP JUMPDEST PUSH2 0x299 DUP2 PUSH2 0x212 JUMP JUMPDEST DUP3 MSTORE POP POP JUMP JUMPDEST PUSH1 0x0 PUSH1 0x20 DUP3 ADD SWAP1 POP PUSH2 0x2B4 PUSH1 0x0 DUP4 ADD DUP5 PUSH2 0x290 JUMP JUMPDEST SWAP3 SWAP2 POP POP JUMP JUMPDEST PUSH1 0x80 MLOAD PUSH1 0xA0 MLOAD PUSH2 0x2FE6 PUSH2 0x302 PUSH1 0x0 CODECOPY PUSH1 0x0 DUP2 DUP2 PUSH2 0x8BF ADD MSTORE DUP2 DUP2 PUSH2 0xD47 ADD MSTORE PUSH2 0x1170 ADD MSTORE PUSH1 0x0 DUP2 DUP2 PUSH2 0x748 ADD MSTORE DUP2 DUP2 PUSH2 0x8FB ADD MSTORE DUP2 DUP2 PUSH2 0x9E7 ADD MSTORE PUSH2 0xFAB ADD MSTORE PUSH2 0x2FE6 PUSH1 0x0 RETURN INVALID PUSH1 0x80 PUSH1 0x40 MSTORE PUSH1 0x4 CALLDATASIZE LT PUSH2 0xDD JUMPI PUSH1 0x0 CALLDATALOAD PUSH1 0xE0 SHR DUP1 PUSH4 0x715018A6 GT PUSH2 0x7F JUMPI DUP1 PUSH4 0x9B89D4FD GT PUSH2 0x59 JUMPI DUP1 PUSH4 0x9B89D4FD EQ PUSH2 0x2A8 JUMPI DUP1 PUSH4 0xD348B409 EQ PUSH2 0x2E6 JUMPI DUP1 PUSH4 0xE3A96CBD EQ PUSH2 0x311 JUMPI DUP1 PUSH4 0xF2FDE38B EQ PUSH2 0x34E JUMPI PUSH2 0xDD JUMP JUMPDEST DUP1 PUSH4 0x715018A6 EQ PUSH2 0x248 JUMPI DUP1 PUSH4 0x71A753C3 EQ PUSH2 0x25F JUMPI DUP1 PUSH4 0x8DA5CB5B EQ PUSH2 0x27D JUMPI PUSH2 0xDD JUMP JUMPDEST DUP1 PUSH4 0x421DA68A GT PUSH2 0xBB JUMPI DUP1 PUSH4 0x421DA68A EQ PUSH2 0x173 JUMPI DUP1 PUSH4 0x4394A7FE EQ PUSH2 0x1B0 JUMPI DUP1 PUSH4 0x48DBEC2E EQ PUSH2 0x1DB JUMPI DUP1 PUSH4 0x564A565D EQ PUSH2 0x204 JUMPI PUSH2 0xDD JUMP JUMPDEST DUP1 PUSH4 0x10987B77 EQ PUSH2 0xE2 JUMPI DUP1 PUSH4 0x20F7AA3F EQ PUSH2 0x10D JUMPI DUP1 PUSH4 0x222219E6 EQ PUSH2 0x14A JUMPI JUMPDEST PUSH1 0x0 DUP1 REVERT JUMPDEST CALLVALUE DUP1 ISZERO PUSH2 0xEE JUMPI PUSH1 0x0 DUP1 REVERT JUMPDEST POP PUSH2 0xF7 PUSH2 0x377 JUMP JUMPDEST PUSH1 0x40 MLOAD PUSH2 0x104 SWAP2 SWAP1 PUSH2 0x181B JUMP JUMPDEST PUSH1 0x40 MLOAD DUP1 SWAP2 SUB SWAP1 RETURN JUMPDEST CALLVALUE DUP1 ISZERO PUSH2 0x119 JUMPI PUSH1 0x0 DUP1 REVERT JUMPDEST POP PUSH2 0x134 PUSH1 0x4 DUP1 CALLDATASIZE SUB DUP2 ADD SWAP1 PUSH2 0x12F SWAP2 SWAP1 PUSH2 0x1876 JUMP JUMPDEST PUSH2 0x381 JUMP JUMPDEST PUSH1 0x40 MLOAD PUSH2 0x141 SWAP2 SWAP1 PUSH2 0x18BE JUMP JUMPDEST PUSH1 0x40 MLOAD DUP1 SWAP2 SUB SWAP1 RETURN JUMPDEST CALLVALUE DUP1 ISZERO PUSH2 0x156 JUMPI PUSH1 0x0 DUP1 REVERT JUMPDEST POP PUSH2 0x171 PUSH1 0x4 DUP1 CALLDATASIZE SUB DUP2 ADD SWAP1 PUSH2 0x16C SWAP2 SWAP1 PUSH2 0x1B45 JUMP JUMPDEST PUSH2 0x3FE JUMP JUMPDEST STOP JUMPDEST CALLVALUE DUP1 ISZERO PUSH2 0x17F JUMPI PUSH1 0x0 DUP1 REVERT JUMPDEST POP PUSH2 0x19A PUSH1 0x4 DUP1 CALLDATASIZE SUB DUP2 ADD SWAP1 PUSH2 0x195 SWAP2 SWAP1 PUSH2 0x1BF8 JUMP JUMPDEST PUSH2 0x89B JUMP JUMPDEST PUSH1 0x40 MLOAD PUSH2 0x1A7 SWAP2 SWAP1 PUSH2 0x181B JUMP JUMPDEST PUSH1 0x40 MLOAD DUP1 SWAP2 SUB SWAP1 RETURN JUMPDEST CALLVALUE DUP1 ISZERO PUSH2 0x1BC JUMPI PUSH1 0x0 DUP1 REVERT JUMPDEST POP PUSH2 0x1C5 PUSH2 0x8B3 JUMP JUMPDEST PUSH1 0x40 MLOAD PUSH2 0x1D2 SWAP2 SWAP1 PUSH2 0x18BE JUMP JUMPDEST PUSH1 0x40 MLOAD DUP1 SWAP2 SUB SWAP1 RETURN JUMPDEST CALLVALUE DUP1 ISZERO PUSH2 0x1E7 JUMPI PUSH1 0x0 DUP1 REVERT JUMPDEST POP PUSH2 0x202 PUSH1 0x4 DUP1 CALLDATASIZE SUB DUP2 ADD SWAP1 PUSH2 0x1FD SWAP2 SWAP1 PUSH2 0x1C51 JUMP JUMPDEST PUSH2 0x98D JUMP JUMPDEST STOP JUMPDEST CALLVALUE DUP1 ISZERO PUSH2 0x210 JUMPI PUSH1 0x0 DUP1 REVERT JUMPDEST POP PUSH2 0x22B PUSH1 0x4 DUP1 CALLDATASIZE SUB DUP2 ADD SWAP1 PUSH2 0x226 SWAP2 SWAP1 PUSH2 0x1876 JUMP JUMPDEST PUSH2 0xA7C JUMP JUMPDEST PUSH1 0x40 MLOAD PUSH2 0x23F SWAP9 SWAP8 SWAP7 SWAP6 SWAP5 SWAP4 SWAP3 SWAP2 SWAP1 PUSH2 0x1D62 JUMP JUMPDEST PUSH1 0x40 MLOAD DUP1 SWAP2 SUB SWAP1 RETURN JUMPDEST CALLVALUE DUP1 ISZERO PUSH2 0x254 JUMPI PUSH1 0x0 DUP1 REVERT JUMPDEST POP PUSH2 0x25D PUSH2 0xBD9 JUMP JUMPDEST STOP JUMPDEST PUSH2 0x267 PUSH2 0xBED JUMP JUMPDEST PUSH1 0x40 MLOAD PUSH2 0x274 SWAP2 SWAP1 PUSH2 0x18BE JUMP JUMPDEST PUSH1 0x40 MLOAD DUP1 SWAP2 SUB SWAP1 RETURN JUMPDEST CALLVALUE DUP1 ISZERO PUSH2 0x289 JUMPI PUSH1 0x0 DUP1 REVERT JUMPDEST POP PUSH2 0x292 PUSH2 0xE21 JUMP JUMPDEST PUSH1 0x40 MLOAD PUSH2 0x29F SWAP2 SWAP1 PUSH2 0x1DE7 JUMP JUMPDEST PUSH1 0x40 MLOAD DUP1 SWAP2 SUB SWAP1 RETURN JUMPDEST CALLVALUE DUP1 ISZERO PUSH2 0x2B4 JUMPI PUSH1 0x0 DUP1 REVERT JUMPDEST POP PUSH2 0x2CF PUSH1 0x4 DUP1 CALLDATASIZE SUB DUP2 ADD SWAP1 PUSH2 0x2CA SWAP2 SWAP1 PUSH2 0x1876 JUMP JUMPDEST PUSH2 0xE4A JUMP JUMPDEST PUSH1 0x40 MLOAD PUSH2 0x2DD SWAP3 SWAP2 SWAP1 PUSH2 0x1E02 JUMP JUMPDEST PUSH1 0x40 MLOAD DUP1 SWAP2 SUB SWAP1 RETURN JUMPDEST CALLVALUE DUP1 ISZERO PUSH2 0x2F2 JUMPI PUSH1 0x0 DUP1 REVERT JUMPDEST POP PUSH2 0x2FB PUSH2 0x1150 JUMP JUMPDEST PUSH1 0x40 MLOAD PUSH2 0x308 SWAP2 SWAP1 PUSH2 0x181B JUMP JUMPDEST PUSH1 0x40 MLOAD DUP1 SWAP2 SUB SWAP1 RETURN JUMPDEST CALLVALUE DUP1 ISZERO PUSH2 0x31D JUMPI PUSH1 0x0 DUP1 REVERT JUMPDEST POP PUSH2 0x338 PUSH1 0x4 DUP1 CALLDATASIZE SUB DUP2 ADD SWAP1 PUSH2 0x333 SWAP2 SWAP1 PUSH2 0x1876 JUMP JUMPDEST PUSH2 0x1229 JUMP JUMPDEST PUSH1 0x40 MLOAD PUSH2 0x345 SWAP2 SWAP1 PUSH2 0x201D JUMP JUMPDEST PUSH1 0x40 MLOAD DUP1 SWAP2 SUB SWAP1 RETURN JUMPDEST CALLVALUE DUP1 ISZERO PUSH2 0x35A JUMPI PUSH1 0x0 DUP1 REVERT JUMPDEST POP PUSH2 0x375 PUSH1 0x4 DUP1 CALLDATASIZE SUB DUP2 ADD SWAP1 PUSH2 0x370 SWAP2 SWAP1 PUSH2 0x1BF8 JUMP JUMPDEST PUSH2 0x1519 JUMP JUMPDEST STOP JUMPDEST PUSH1 0x0 PUSH1 0x2 SLOAD SWAP1 POP SWAP1 JUMP JUMPDEST PUSH1 0x0 DUP1 DUP3 GT DUP1 ISZERO PUSH2 0x394 JUMPI POP PUSH1 0x2 SLOAD DUP3 GT ISZERO JUMPDEST PUSH2 0x3D3 JUMPI PUSH1 0x40 MLOAD PUSH32 0x8C379A000000000000000000000000000000000000000000000000000000000 DUP2 MSTORE PUSH1 0x4 ADD PUSH2 0x3CA SWAP1 PUSH2 0x208B JUMP JUMPDEST PUSH1 0x40 MLOAD DUP1 SWAP2 SUB SWAP1 REVERT JUMPDEST PUSH1 0x1 PUSH1 0x0 DUP4 DUP2 MSTORE PUSH1 0x20 ADD SWAP1 DUP2 MSTORE PUSH1 0x20 ADD PUSH1 0x0 KECCAK256 PUSH1 0x7 ADD PUSH1 0x0 SWAP1 SLOAD SWAP1 PUSH2 0x100 EXP SWAP1 DIV PUSH1 0xFF AND SWAP1 POP SWAP2 SWAP1 POP JUMP JUMPDEST DUP4 PUSH20 0xFFFFFFFFFFFFFFFFFFFFFFFFFFFFFFFFFFFFFFFF AND DUP6 PUSH20 0xFFFFFFFFFFFFFFFFFFFFFFFFFFFFFFFFFFFFFFFF AND SUB PUSH2 0x46C JUMPI PUSH1 0x40 MLOAD PUSH32 0x8C379A000000000000000000000000000000000000000000000000000000000 DUP2 MSTORE PUSH1 0x4 ADD PUSH2 0x463 SWAP1 PUSH2 0x20F7 JUMP JUMPDEST PUSH1 0x40 MLOAD DUP1 SWAP2 SUB SWAP1 REVERT JUMPDEST PUSH1 0x0 DUP4 MLOAD GT PUSH2 0x4B0 JUMPI PUSH1 0x40 MLOAD PUSH32 0x8C379A000000000000000000000000000000000000000000000000000000000 DUP2 MSTORE PUSH1 0x4 ADD PUSH2 0x4A7 SWAP1 PUSH2 0x2163 JUMP JUMPDEST PUSH1 0x40 MLOAD DUP1 SWAP2 SUB SWAP1 REVERT JUMPDEST TIMESTAMP DUP3 GT PUSH2 0x4F2 JUMPI PUSH1 0x40 MLOAD PUSH32 0x8C379A000000000000000000000000000000000000000000000000000000000 DUP2 MSTORE PUSH1 0x4 ADD PUSH2 0x4E9 SWAP1 PUSH2 0x21F5 JUMP JUMPDEST PUSH1 0x40 MLOAD DUP1 SWAP2 SUB SWAP1 REVERT JUMPDEST PUSH1 0x2 PUSH1 0x0 DUP2 SLOAD DUP1 SWAP3 SWAP2 SWAP1 PUSH2 0x505 SWAP1 PUSH2 0x2244 JUMP JUMPDEST SWAP2 SWAP1 POP SSTORE POP PUSH1 0x40 MLOAD DUP1 PUSH2 0x120 ADD PUSH1 0x40 MSTORE DUP1 PUSH1 0x2 SLOAD DUP2 MSTORE PUSH1 0x20 ADD CALLER PUSH20 0xFFFFFFFFFFFFFFFFFFFFFFFFFFFFFFFFFFFFFFFF AND DUP2 MSTORE PUSH1 0x20 ADD DUP7 PUSH20 0xFFFFFFFFFFFFFFFFFFFFFFFFFFFFFFFFFFFFFFFF AND DUP2 MSTORE PUSH1 0x20 ADD DUP6 PUSH20 0xFFFFFFFFFFFFFFFFFFFFFFFFFFFFFFFFFFFFFFFF AND DUP2 MSTORE PUSH1 0x20 ADD DUP5 DUP2 MSTORE PUSH1 0x20 ADD DUP3 DUP2 MSTORE PUSH1 0x20 ADD DUP4 DUP2 MSTORE PUSH1 0x20 ADD PUSH1 0x0 ISZERO ISZERO DUP2 MSTORE PUSH1 0x20 ADD PUSH1 0x0 PUSH20 0xFFFFFFFFFFFFFFFFFFFFFFFFFFFFFFFFFFFFFFFF AND DUP2 MSTORE POP PUSH1 0x1 PUSH1 0x0 PUSH1 0x2 SLOAD DUP2 MSTORE PUSH1 0x20 ADD SWAP1 DUP2 MSTORE PUSH1 0x20 ADD PUSH1 0x0 KECCAK256 PUSH1 0x0 DUP3 ADD MLOAD DUP2 PUSH1 0x0 ADD SSTORE PUSH1 0x20 DUP3 ADD MLOAD DUP2 PUSH1 0x1 ADD PUSH1 0x0 PUSH2 0x100 EXP DUP2 SLOAD DUP2 PUSH20 0xFFFFFFFFFFFFFFFFFFFFFFFFFFFFFFFFFFFFFFFF MUL NOT AND SWAP1 DUP4 PUSH20 0xFFFFFFFFFFFFFFFFFFFFFFFFFFFFFFFFFFFFFFFF AND MUL OR SWAP1 SSTORE POP PUSH1 0x40 DUP3 ADD MLOAD DUP2 PUSH1 0x2 ADD PUSH1 0x0 PUSH2 0x100 EXP DUP2 SLOAD DUP2 PUSH20 0xFFFFFFFFFFFFFFFFFFFFFFFFFFFFFFFFFFFFFFFF MUL NOT AND SWAP1 DUP4 PUSH20 0xFFFFFFFFFFFFFFFFFFFFFFFFFFFFFFFFFFFFFFFF AND MUL OR SWAP1 SSTORE POP PUSH1 0x60 DUP3 ADD MLOAD DUP2 PUSH1 0x3 ADD PUSH1 0x0 PUSH2 0x100 EXP DUP2 SLOAD DUP2 PUSH20 0xFFFFFFFFFFFFFFFFFFFFFFFFFFFFFFFFFFFFFFFF MUL NOT AND SWAP1 DUP4 PUSH20 0xFFFFFFFFFFFFFFFFFFFFFFFFFFFFFFFFFFFFFFFF AND MUL OR SWAP1 SSTORE POP PUSH1 0x80 DUP3 ADD MLOAD DUP2 PUSH1 0x4 ADD SWAP1 DUP2 PUSH2 0x6B1 SWAP2 SWAP1 PUSH2 0x2498 JUMP JUMPDEST POP PUSH1 0xA0 DUP3 ADD MLOAD DUP2 PUSH1 0x5 ADD SWAP1 DUP1 MLOAD SWAP1 PUSH1 0x20 ADD SWAP1 PUSH2 0x6CE SWAP3 SWAP2 SWAP1 PUSH2 0x16F2 JUMP JUMPDEST POP PUSH1 0xC0 DUP3 ADD MLOAD DUP2 PUSH1 0x6 ADD SSTORE PUSH1 0xE0 DUP3 ADD MLOAD DUP2 PUSH1 0x7 ADD PUSH1 0x0 PUSH2 0x100 EXP DUP2 SLOAD DUP2 PUSH1 0xFF MUL NOT AND SWAP1 DUP4 ISZERO ISZERO MUL OR SWAP1 SSTORE POP PUSH2 0x100 DUP3 ADD MLOAD DUP2 PUSH1 0x7 ADD PUSH1 0x1 PUSH2 0x100 EXP DUP2 SLOAD DUP2 PUSH20 0xFFFFFFFFFFFFFFFFFFFFFFFFFFFFFFFFFFFFFFFF MUL NOT AND SWAP1 DUP4 PUSH20 0xFFFFFFFFFFFFFFFFFFFFFFFFFFFFFFFFFFFFFFFF AND MUL OR SWAP1 SSTORE POP SWAP1 POP POP PUSH1 0x0 PUSH32 0x0 PUSH20 0xFFFFFFFFFFFFFFFFFFFFFFFFFFFFFFFFFFFFFFFF AND PUSH4 0xC4B9C72E PUSH1 0x1 PUSH1 0x0 PUSH1 0x2 SLOAD DUP2 MSTORE PUSH1 0x20 ADD SWAP1 DUP2 MSTORE PUSH1 0x20 ADD PUSH1 0x0 KECCAK256 PUSH1 0x2 SLOAD PUSH1 0x40 MLOAD DUP4 PUSH4 0xFFFFFFFF AND PUSH1 0xE0 SHL DUP2 MSTORE PUSH1 0x4 ADD PUSH2 0x7B7 SWAP3 SWAP2 SWAP1 PUSH2 0x285D JUMP JUMPDEST PUSH1 0x20 PUSH1 0x40 MLOAD DUP1 DUP4 SUB DUP2 PUSH1 0x0 DUP8 GAS CALL ISZERO DUP1 ISZERO PUSH2 0x7D6 JUMPI RETURNDATASIZE PUSH1 0x0 DUP1 RETURNDATACOPY RETURNDATASIZE PUSH1 0x0 REVERT JUMPDEST POP POP POP POP PUSH1 0x40 MLOAD RETURNDATASIZE PUSH1 0x1F NOT PUSH1 0x1F DUP3 ADD AND DUP3 ADD DUP1 PUSH1 0x40 MSTORE POP DUP2 ADD SWAP1 PUSH2 0x7FA SWAP2 SWAP1 PUSH2 0x28A2 JUMP JUMPDEST SWAP1 POP DUP1 PUSH2 0x83C JUMPI PUSH1 0x40 MLOAD PUSH32 0x8C379A000000000000000000000000000000000000000000000000000000000 DUP2 MSTORE PUSH1 0x4 ADD PUSH2 0x833 SWAP1 PUSH2 0x291B JUMP JUMPDEST PUSH1 0x40 MLOAD DUP1 SWAP2 SUB SWAP1 REVERT JUMPDEST CALLER PUSH20 0xFFFFFFFFFFFFFFFFFFFFFFFFFFFFFFFFFFFFFFFF AND PUSH1 0x2 SLOAD PUSH32 0x84CC6176A87C4C0FA1B2660F39F582E4B29CBF20161A5E7D1B1C77237008F88B DUP9 DUP9 DUP9 DUP9 PUSH1 0x40 MLOAD PUSH2 0x88B SWAP5 SWAP4 SWAP3 SWAP2 SWAP1 PUSH2 0x293B JUMP JUMPDEST PUSH1 0x40 MLOAD DUP1 SWAP2 SUB SWAP1 LOG3 POP POP POP POP POP POP JUMP JUMPDEST PUSH1 0x3 PUSH1 0x20 MSTORE DUP1 PUSH1 0x0 MSTORE PUSH1 0x40 PUSH1 0x0 KECCAK256 PUSH1 0x0 SWAP2 POP SWAP1 POP SLOAD DUP2 JUMP JUMPDEST PUSH1 0x0 PUSH2 0x8BD PUSH2 0x159F JUMP JUMPDEST PUSH32 0x0 PUSH20 0xFFFFFFFFFFFFFFFFFFFFFFFFFFFFFFFFFFFFFFFF AND PUSH4 0x95EA7B3 PUSH32 0x0 PUSH10 0xD3C21BCECCEDA1000000 PUSH1 0x40 MLOAD DUP4 PUSH4 0xFFFFFFFF AND PUSH1 0xE0 SHL DUP2 MSTORE PUSH1 0x4 ADD PUSH2 0x942 SWAP3 SWAP2 SWAP1 PUSH2 0x29C2 JUMP JUMPDEST PUSH1 0x20 PUSH1 0x40 MLOAD DUP1 DUP4 SUB DUP2 PUSH1 0x0 DUP8 GAS CALL ISZERO DUP1 ISZERO PUSH2 0x961 JUMPI RETURNDATASIZE PUSH1 0x0 DUP1 RETURNDATACOPY RETURNDATASIZE PUSH1 0x0 REVERT JUMPDEST POP POP POP POP PUSH1 0x40 MLOAD RETURNDATASIZE PUSH1 0x1F NOT PUSH1 0x1F DUP3 ADD AND DUP3 ADD DUP1 PUSH1 0x40 MSTORE POP DUP2 ADD SWAP1 PUSH2 0x985 SWAP2 SWAP1 PUSH2 0x28A2 JUMP JUMPDEST POP PUSH1 0x1 SWAP1 POP SWAP1 JUMP JUMPDEST TIMESTAMP PUSH1 0x1 PUSH1 0x0 DUP7 DUP2 MSTORE PUSH1 0x20 ADD SWAP1 DUP2 MSTORE PUSH1 0x20 ADD PUSH1 0x0 KECCAK256 PUSH1 0x6 ADD SLOAD GT PUSH2 0x9E5 JUMPI PUSH1 0x40 MLOAD PUSH32 0x8C379A000000000000000000000000000000000000000000000000000000000 DUP2 MSTORE PUSH1 0x4 ADD PUSH2 0x9DC SWAP1 PUSH2 0x2A37 JUMP JUMPDEST PUSH1 0x40 MLOAD DUP1 SWAP2 SUB SWAP1 REVERT JUMPDEST PUSH32 0x0 PUSH20 0xFFFFFFFFFFFFFFFFFFFFFFFFFFFFFFFFFFFFFFFF AND PUSH4 0x48DBEC2E DUP6 DUP6 DUP6 DUP6 PUSH1 0x40 MLOAD DUP6 PUSH4 0xFFFFFFFF AND PUSH1 0xE0 SHL DUP2 MSTORE PUSH1 0x4 ADD PUSH2 0xA44 SWAP5 SWAP4 SWAP3 SWAP2 SWAP1 PUSH2 0x2AC6 JUMP JUMPDEST PUSH1 0x0 PUSH1 0x40 MLOAD DUP1 DUP4 SUB DUP2 PUSH1 0x0 DUP8 DUP1 EXTCODESIZE ISZERO DUP1 ISZERO PUSH2 0xA5E JUMPI PUSH1 0x0 DUP1 REVERT JUMPDEST POP GAS CALL ISZERO DUP1 ISZERO PUSH2 0xA72 JUMPI RETURNDATASIZE PUSH1 0x0 DUP1 RETURNDATACOPY RETURNDATASIZE PUSH1 0x0 REVERT JUMPDEST POP POP POP POP POP POP POP POP JUMP JUMPDEST PUSH1 0x1 PUSH1 0x20 MSTORE DUP1 PUSH1 0x0 MSTORE PUSH1 0x40 PUSH1 0x0 KECCAK256 PUSH1 0x0 SWAP2 POP SWAP1 POP DUP1 PUSH1 0x0 ADD SLOAD SWAP1 DUP1 PUSH1 0x1 ADD PUSH1 0x0 SWAP1 SLOAD SWAP1 PUSH2 0x100 EXP SWAP1 DIV PUSH20 0xFFFFFFFFFFFFFFFFFFFFFFFFFFFFFFFFFFFFFFFF AND SWAP1 DUP1 PUSH1 0x2 ADD PUSH1 0x0 SWAP1 SLOAD SWAP1 PUSH2 0x100 EXP SWAP1 DIV PUSH20 0xFFFFFFFFFFFFFFFFFFFFFFFFFFFFFFFFFFFFFFFF AND SWAP1 DUP1 PUSH1 0x3 ADD PUSH1 0x0 SWAP1 SLOAD SWAP1 PUSH2 0x100 EXP SWAP1 DIV PUSH20 0xFFFFFFFFFFFFFFFFFFFFFFFFFFFFFFFFFFFFFFFF AND SWAP1 DUP1 PUSH1 0x4 ADD DUP1 SLOAD PUSH2 0xB17 SWAP1 PUSH2 0x22BB JUMP JUMPDEST DUP1 PUSH1 0x1F ADD PUSH1 0x20 DUP1 SWAP2 DIV MUL PUSH1 0x20 ADD PUSH1 0x40 MLOAD SWAP1 DUP2 ADD PUSH1 0x40 MSTORE DUP1 SWAP3 SWAP2 SWAP1 DUP2 DUP2 MSTORE PUSH1 0x20 ADD DUP3 DUP1 SLOAD PUSH2 0xB43 SWAP1 PUSH2 0x22BB JUMP JUMPDEST DUP1 ISZERO PUSH2 0xB90 JUMPI DUP1 PUSH1 0x1F LT PUSH2 0xB65 JUMPI PUSH2 0x100 DUP1 DUP4 SLOAD DIV MUL DUP4 MSTORE SWAP2 PUSH1 0x20 ADD SWAP2 PUSH2 0xB90 JUMP JUMPDEST DUP3 ADD SWAP2 SWAP1 PUSH1 0x0 MSTORE PUSH1 0x20 PUSH1 0x0 KECCAK256 SWAP1 JUMPDEST DUP2 SLOAD DUP2 MSTORE SWAP1 PUSH1 0x1 ADD SWAP1 PUSH1 0x20 ADD DUP1 DUP4 GT PUSH2 0xB73 JUMPI DUP3 SWAP1 SUB PUSH1 0x1F AND DUP3 ADD SWAP2 JUMPDEST POP POP POP POP POP SWAP1 DUP1 PUSH1 0x6 ADD SLOAD SWAP1 DUP1 PUSH1 0x7 ADD PUSH1 0x0 SWAP1 SLOAD SWAP1 PUSH2 0x100 EXP SWAP1 DIV PUSH1 0xFF AND SWAP1 DUP1 PUSH1 0x7 ADD PUSH1 0x1 SWAP1 SLOAD SWAP1 PUSH2 0x100 EXP SWAP1 DIV PUSH20 0xFFFFFFFFFFFFFFFFFFFFFFFFFFFFFFFFFFFFFFFF AND SWAP1 POP DUP9 JUMP JUMPDEST PUSH2 0xBE1 PUSH2 0x159F JUMP JUMPDEST PUSH2 0xBEB PUSH1 0x0 PUSH2 0x1626 JUMP JUMPDEST JUMP JUMPDEST PUSH1 0x0 DUP1 PUSH9 0x3635C9ADC5DEA00000 SWAP1 POP PUSH1 0x0 PUSH2 0xE10 SWAP1 POP PUSH1 0x0 CALLVALUE GT PUSH2 0xC46 JUMPI PUSH1 0x40 MLOAD PUSH32 0x8C379A000000000000000000000000000000000000000000000000000000000 DUP2 MSTORE PUSH1 0x4 ADD PUSH2 0xC3D SWAP1 PUSH2 0x2B84 JUMP JUMPDEST PUSH1 0x40 MLOAD DUP1 SWAP2 SUB SWAP1 REVERT JUMPDEST DUP1 PUSH1 0x3 PUSH1 0x0 CALLER PUSH20 0xFFFFFFFFFFFFFFFFFFFFFFFFFFFFFFFFFFFFFFFF AND PUSH20 0xFFFFFFFFFFFFFFFFFFFFFFFFFFFFFFFFFFFFFFFF AND DUP2 MSTORE PUSH1 0x20 ADD SWAP1 DUP2 MSTORE PUSH1 0x20 ADD PUSH1 0x0 KECCAK256 SLOAD TIMESTAMP PUSH2 0xC92 SWAP2 SWAP1 PUSH2 0x2BA4 JUMP JUMPDEST LT ISZERO PUSH2 0xCD3 JUMPI PUSH1 0x40 MLOAD PUSH32 0x8C379A000000000000000000000000000000000000000000000000000000000 DUP2 MSTORE PUSH1 0x4 ADD PUSH2 0xCCA SWAP1 PUSH2 0x2C4A JUMP JUMPDEST PUSH1 0x40 MLOAD DUP1 SWAP2 SUB SWAP1 REVERT JUMPDEST PUSH1 0x0 PUSH2 0xCDD PUSH2 0x1150 JUMP JUMPDEST SWAP1 POP PUSH1 0x0 DUP2 PUSH8 0xDE0B6B3A7640000 CALLVALUE PUSH2 0xCF6 SWAP2 SWAP1 PUSH2 0x2C6A JUMP JUMPDEST PUSH2 0xD00 SWAP2 SWAP1 PUSH2 0x2CDB JUMP JUMPDEST SWAP1 POP DUP4 DUP2 GT ISZERO PUSH2 0xD45 JUMPI PUSH1 0x40 MLOAD PUSH32 0x8C379A000000000000000000000000000000000000000000000000000000000 DUP2 MSTORE PUSH1 0x4 ADD PUSH2 0xD3C SWAP1 PUSH2 0x2D58 JUMP JUMPDEST PUSH1 0x40 MLOAD DUP1 SWAP2 SUB SWAP1 REVERT JUMPDEST PUSH32 0x0 PUSH20 0xFFFFFFFFFFFFFFFFFFFFFFFFFFFFFFFFFFFFFFFF AND PUSH4 0x40C10F19 CALLER DUP4 PUSH1 0x40 MLOAD DUP4 PUSH4 0xFFFFFFFF AND PUSH1 0xE0 SHL DUP2 MSTORE PUSH1 0x4 ADD PUSH2 0xDA0 SWAP3 SWAP2 SWAP1 PUSH2 0x2D78 JUMP JUMPDEST PUSH1 0x0 PUSH1 0x40 MLOAD DUP1 DUP4 SUB DUP2 PUSH1 0x0 DUP8 DUP1 EXTCODESIZE ISZERO DUP1 ISZERO PUSH2 0xDBA JUMPI PUSH1 0x0 DUP1 REVERT JUMPDEST POP GAS CALL ISZERO DUP1 ISZERO PUSH2 0xDCE JUMPI RETURNDATASIZE PUSH1 0x0 DUP1 RETURNDATACOPY RETURNDATASIZE PUSH1 0x0 REVERT JUMPDEST POP POP POP POP TIMESTAMP PUSH1 0x3 PUSH1 0x0 CALLER PUSH20 0xFFFFFFFFFFFFFFFFFFFFFFFFFFFFFFFFFFFFFFFF AND PUSH20 0xFFFFFFFFFFFFFFFFFFFFFFFFFFFFFFFFFFFFFFFF AND DUP2 MSTORE PUSH1 0x20 ADD SWAP1 DUP2 MSTORE PUSH1 0x20 ADD PUSH1 0x0 KECCAK256 DUP2 SWAP1 SSTORE POP PUSH1 0x1 SWAP5 POP POP POP POP POP SWAP1 JUMP JUMPDEST PUSH1 0x0 DUP1 PUSH1 0x0 SWAP1 SLOAD SWAP1 PUSH2 0x100 EXP SWAP1 DIV PUSH20 0xFFFFFFFFFFFFFFFFFFFFFFFFFFFFFFFFFFFFFFFF AND SWAP1 POP SWAP1 JUMP JUMPDEST PUSH1 0x0 DUP1 PUSH1 0x0 DUP4 GT DUP1 ISZERO PUSH2 0xE5F JUMPI POP PUSH1 0x2 SLOAD DUP4 GT ISZERO JUMPDEST PUSH2 0xE9E JUMPI PUSH1 0x40 MLOAD PUSH32 0x8C379A000000000000000000000000000000000000000000000000000000000 DUP2 MSTORE PUSH1 0x4 ADD PUSH2 0xE95 SWAP1 PUSH2 0x208B JUMP JUMPDEST PUSH1 0x40 MLOAD DUP1 SWAP2 SUB SWAP1 REVERT JUMPDEST PUSH1 0x1 PUSH1 0x0 DUP5 DUP2 MSTORE PUSH1 0x20 ADD SWAP1 DUP2 MSTORE PUSH1 0x20 ADD PUSH1 0x0 KECCAK256 PUSH1 0x7 ADD PUSH1 0x0 SWAP1 SLOAD SWAP1 PUSH2 0x100 EXP SWAP1 DIV PUSH1 0xFF AND ISZERO PUSH2 0xF02 JUMPI PUSH1 0x40 MLOAD PUSH32 0x8C379A000000000000000000000000000000000000000000000000000000000 DUP2 MSTORE PUSH1 0x4 ADD PUSH2 0xEF9 SWAP1 PUSH2 0x2DED JUMP JUMPDEST PUSH1 0x40 MLOAD DUP1 SWAP2 SUB SWAP1 REVERT JUMPDEST CALLER PUSH20 0xFFFFFFFFFFFFFFFFFFFFFFFFFFFFFFFFFFFFFFFF AND PUSH1 0x1 PUSH1 0x0 DUP6 DUP2 MSTORE PUSH1 0x20 ADD SWAP1 DUP2 MSTORE PUSH1 0x20 ADD PUSH1 0x0 KECCAK256 PUSH1 0x1 ADD PUSH1 0x0 SWAP1 SLOAD SWAP1 PUSH2 0x100 EXP SWAP1 DIV PUSH20 0xFFFFFFFFFFFFFFFFFFFFFFFFFFFFFFFFFFFFFFFF AND PUSH20 0xFFFFFFFFFFFFFFFFFFFFFFFFFFFFFFFFFFFFFFFF AND EQ PUSH2 0xFA6 JUMPI PUSH1 0x40 MLOAD PUSH32 0x8C379A000000000000000000000000000000000000000000000000000000000 DUP2 MSTORE PUSH1 0x4 ADD PUSH2 0xF9D SWAP1 PUSH2 0x2E59 JUMP JUMPDEST PUSH1 0x40 MLOAD DUP1 SWAP2 SUB SWAP1 REVERT JUMPDEST PUSH1 0x0 DUP1 PUSH32 0x0 PUSH20 0xFFFFFFFFFFFFFFFFFFFFFFFFFFFFFFFFFFFFFFFF AND PUSH4 0x1C099AD6 DUP7 PUSH1 0x40 MLOAD DUP3 PUSH4 0xFFFFFFFF AND PUSH1 0xE0 SHL DUP2 MSTORE PUSH1 0x4 ADD PUSH2 0x1002 SWAP2 SWAP1 PUSH2 0x181B JUMP JUMPDEST PUSH1 0x40 DUP1 MLOAD DUP1 DUP4 SUB DUP2 PUSH1 0x0 DUP8 GAS CALL ISZERO DUP1 ISZERO PUSH2 0x1020 JUMPI RETURNDATASIZE PUSH1 0x0 DUP1 RETURNDATACOPY RETURNDATASIZE PUSH1 0x0 REVERT JUMPDEST POP POP POP POP PUSH1 0x40 MLOAD RETURNDATASIZE PUSH1 0x1F NOT PUSH1 0x1F DUP3 ADD AND DUP3 ADD DUP1 PUSH1 0x40 MSTORE POP DUP2 ADD SWAP1 PUSH2 0x1044 SWAP2 SWAP1 PUSH2 0x2E8E JUMP JUMPDEST SWAP2 POP SWAP2 POP DUP2 PUSH2 0x1088 JUMPI PUSH1 0x40 MLOAD PUSH32 0x8C379A000000000000000000000000000000000000000000000000000000000 DUP2 MSTORE PUSH1 0x4 ADD PUSH2 0x107F SWAP1 PUSH2 0x2F1A JUMP JUMPDEST PUSH1 0x40 MLOAD DUP1 SWAP2 SUB SWAP1 REVERT JUMPDEST PUSH1 0x1 DUP1 PUSH1 0x0 DUP8 DUP2 MSTORE PUSH1 0x20 ADD SWAP1 DUP2 MSTORE PUSH1 0x20 ADD PUSH1 0x0 KECCAK256 PUSH1 0x7 ADD PUSH1 0x0 PUSH2 0x100 EXP DUP2 SLOAD DUP2 PUSH1 0xFF MUL NOT AND SWAP1 DUP4 ISZERO ISZERO MUL OR SWAP1 SSTORE POP DUP1 PUSH1 0x1 PUSH1 0x0 DUP8 DUP2 MSTORE PUSH1 0x20 ADD SWAP1 DUP2 MSTORE PUSH1 0x20 ADD PUSH1 0x0 KECCAK256 PUSH1 0x7 ADD PUSH1 0x1 PUSH2 0x100 EXP DUP2 SLOAD DUP2 PUSH20 0xFFFFFFFFFFFFFFFFFFFFFFFFFFFFFFFFFFFFFFFF MUL NOT AND SWAP1 DUP4 PUSH20 0xFFFFFFFFFFFFFFFFFFFFFFFFFFFFFFFFFFFFFFFF AND MUL OR SWAP1 SSTORE POP DUP5 PUSH32 0xF77CEB5E091D2DA041BC760667F9D5FE7A756949EAF29250AD0E60CA6F4C27D9 DUP3 PUSH1 0x40 MLOAD PUSH2 0x113B SWAP2 SWAP1 PUSH2 0x1DE7 JUMP JUMPDEST PUSH1 0x40 MLOAD DUP1 SWAP2 SUB SWAP1 LOG2 DUP2 DUP2 SWAP4 POP SWAP4 POP POP POP SWAP2 POP SWAP2 JUMP JUMPDEST PUSH1 0x0 DUP1 PUSH7 0x2386F26FC10000 SWAP1 POP PUSH1 0x0 PUSH10 0xD3C21BCECCEDA1000000 SWAP1 POP PUSH1 0x0 PUSH32 0x0 PUSH20 0xFFFFFFFFFFFFFFFFFFFFFFFFFFFFFFFFFFFFFFFF AND PUSH4 0x18160DDD PUSH1 0x40 MLOAD DUP2 PUSH4 0xFFFFFFFF AND PUSH1 0xE0 SHL DUP2 MSTORE PUSH1 0x4 ADD PUSH1 0x20 PUSH1 0x40 MLOAD DUP1 DUP4 SUB DUP2 DUP7 GAS STATICCALL ISZERO DUP1 ISZERO PUSH2 0x11D9 JUMPI RETURNDATASIZE PUSH1 0x0 DUP1 RETURNDATACOPY RETURNDATASIZE PUSH1 0x0 REVERT JUMPDEST POP POP POP POP PUSH1 0x40 MLOAD RETURNDATASIZE PUSH1 0x1F NOT PUSH1 0x1F DUP3 ADD AND DUP3 ADD DUP1 PUSH1 0x40 MSTORE POP DUP2 ADD SWAP1 PUSH2 0x11FD SWAP2 SWAP1 PUSH2 0x2F4F JUMP JUMPDEST SWAP1 POP DUP2 DUP4 DUP3 PUSH2 0x120C SWAP2 SWAP1 PUSH2 0x2C6A JUMP JUMPDEST PUSH2 0x1216 SWAP2 SWAP1 PUSH2 0x2CDB JUMP JUMPDEST DUP4 PUSH2 0x1221 SWAP2 SWAP1 PUSH2 0x2F7C JUMP JUMPDEST SWAP4 POP POP POP POP SWAP1 JUMP JUMPDEST PUSH2 0x1231 PUSH2 0x173F JUMP JUMPDEST PUSH1 0x0 DUP3 GT DUP1 ISZERO PUSH2 0x1243 JUMPI POP PUSH1 0x2 SLOAD DUP3 GT ISZERO JUMPDEST PUSH2 0x1282 JUMPI PUSH1 0x40 MLOAD PUSH32 0x8C379A000000000000000000000000000000000000000000000000000000000 DUP2 MSTORE PUSH1 0x4 ADD PUSH2 0x1279 SWAP1 PUSH2 0x208B JUMP JUMPDEST PUSH1 0x40 MLOAD DUP1 SWAP2 SUB SWAP1 REVERT JUMPDEST PUSH1 0x1 PUSH1 0x0 DUP4 DUP2 MSTORE PUSH1 0x20 ADD SWAP1 DUP2 MSTORE PUSH1 0x20 ADD PUSH1 0x0 KECCAK256 PUSH1 0x40 MLOAD DUP1 PUSH2 0x120 ADD PUSH1 0x40 MSTORE SWAP1 DUP2 PUSH1 0x0 DUP3 ADD SLOAD DUP2 MSTORE PUSH1 0x20 ADD PUSH1 0x1 DUP3 ADD PUSH1 0x0 SWAP1 SLOAD SWAP1 PUSH2 0x100 EXP SWAP1 DIV PUSH20 0xFFFFFFFFFFFFFFFFFFFFFFFFFFFFFFFFFFFFFFFF AND PUSH20 0xFFFFFFFFFFFFFFFFFFFFFFFFFFFFFFFFFFFFFFFF AND PUSH20 0xFFFFFFFFFFFFFFFFFFFFFFFFFFFFFFFFFFFFFFFF AND DUP2 MSTORE PUSH1 0x20 ADD PUSH1 0x2 DUP3 ADD PUSH1 0x0 SWAP1 SLOAD SWAP1 PUSH2 0x100 EXP SWAP1 DIV PUSH20 0xFFFFFFFFFFFFFFFFFFFFFFFFFFFFFFFFFFFFFFFF AND PUSH20 0xFFFFFFFFFFFFFFFFFFFFFFFFFFFFFFFFFFFFFFFF AND PUSH20 0xFFFFFFFFFFFFFFFFFFFFFFFFFFFFFFFFFFFFFFFF AND DUP2 MSTORE PUSH1 0x20 ADD PUSH1 0x3 DUP3 ADD PUSH1 0x0 SWAP1 SLOAD SWAP1 PUSH2 0x100 EXP SWAP1 DIV PUSH20 0xFFFFFFFFFFFFFFFFFFFFFFFFFFFFFFFFFFFFFFFF AND PUSH20 0xFFFFFFFFFFFFFFFFFFFFFFFFFFFFFFFFFFFFFFFF AND PUSH20 0xFFFFFFFFFFFFFFFFFFFFFFFFFFFFFFFFFFFFFFFF AND DUP2 MSTORE PUSH1 0x20 ADD PUSH1 0x4 DUP3 ADD DUP1 SLOAD PUSH2 0x13BD SWAP1 PUSH2 0x22BB JUMP JUMPDEST DUP1 PUSH1 0x1F ADD PUSH1 0x20 DUP1 SWAP2 DIV MUL PUSH1 0x20 ADD PUSH1 0x40 MLOAD SWAP1 DUP2 ADD PUSH1 0x40 MSTORE DUP1 SWAP3 SWAP2 SWAP1 DUP2 DUP2 MSTORE PUSH1 0x20 ADD DUP3 DUP1 SLOAD PUSH2 0x13E9 SWAP1 PUSH2 0x22BB JUMP JUMPDEST DUP1 ISZERO PUSH2 0x1436 JUMPI DUP1 PUSH1 0x1F LT PUSH2 0x140B JUMPI PUSH2 0x100 DUP1 DUP4 SLOAD DIV MUL DUP4 MSTORE SWAP2 PUSH1 0x20 ADD SWAP2 PUSH2 0x1436 JUMP JUMPDEST DUP3 ADD SWAP2 SWAP1 PUSH1 0x0 MSTORE PUSH1 0x20 PUSH1 0x0 KECCAK256 SWAP1 JUMPDEST DUP2 SLOAD DUP2 MSTORE SWAP1 PUSH1 0x1 ADD SWAP1 PUSH1 0x20 ADD DUP1 DUP4 GT PUSH2 0x1419 JUMPI DUP3 SWAP1 SUB PUSH1 0x1F AND DUP3 ADD SWAP2 JUMPDEST POP POP POP POP POP DUP2 MSTORE PUSH1 0x20 ADD PUSH1 0x5 DUP3 ADD DUP1 SLOAD DUP1 PUSH1 0x20 MUL PUSH1 0x20 ADD PUSH1 0x40 MLOAD SWAP1 DUP2 ADD PUSH1 0x40 MSTORE DUP1 SWAP3 SWAP2 SWAP1 DUP2 DUP2 MSTORE PUSH1 0x20 ADD DUP3 DUP1 SLOAD DUP1 ISZERO PUSH2 0x148E JUMPI PUSH1 0x20 MUL DUP3 ADD SWAP2 SWAP1 PUSH1 0x0 MSTORE PUSH1 0x20 PUSH1 0x0 KECCAK256 SWAP1 JUMPDEST DUP2 SLOAD DUP2 MSTORE PUSH1 0x20 ADD SWAP1 PUSH1 0x1 ADD SWAP1 DUP1 DUP4 GT PUSH2 0x147A JUMPI JUMPDEST POP POP POP POP POP DUP2 MSTORE PUSH1 0x20 ADD PUSH1 0x6 DUP3 ADD SLOAD DUP2 MSTORE PUSH1 0x20 ADD PUSH1 0x7 DUP3 ADD PUSH1 0x0 SWAP1 SLOAD SWAP1 PUSH2 0x100 EXP SWAP1 DIV PUSH1 0xFF AND ISZERO ISZERO ISZERO ISZERO DUP2 MSTORE PUSH1 0x20 ADD PUSH1 0x7 DUP3 ADD PUSH1 0x1 SWAP1 SLOAD SWAP1 PUSH2 0x100 EXP SWAP1 DIV PUSH20 0xFFFFFFFFFFFFFFFFFFFFFFFFFFFFFFFFFFFFFFFF AND PUSH20 0xFFFFFFFFFFFFFFFFFFFFFFFFFFFFFFFFFFFFFFFF AND PUSH20 0xFFFFFFFFFFFFFFFFFFFFFFFFFFFFFFFFFFFFFFFF AND DUP2 MSTORE POP POP SWAP1 POP SWAP2 SWAP1 POP JUMP JUMPDEST PUSH2 0x1521 PUSH2 0x159F JUMP JUMPDEST PUSH1 0x0 PUSH20 0xFFFFFFFFFFFFFFFFFFFFFFFFFFFFFFFFFFFFFFFF AND DUP2 PUSH20 0xFFFFFFFFFFFFFFFFFFFFFFFFFFFFFFFFFFFFFFFF AND SUB PUSH2 0x1593 JUMPI PUSH1 0x0 PUSH1 0x40 MLOAD PUSH32 0x1E4FBDF700000000000000000000000000000000000000000000000000000000 DUP2 MSTORE PUSH1 0x4 ADD PUSH2 0x158A SWAP2 SWAP1 PUSH2 0x1DE7 JUMP JUMPDEST PUSH1 0x40 MLOAD DUP1 SWAP2 SUB SWAP1 REVERT JUMPDEST PUSH2 0x159C DUP2 PUSH2 0x1626 JUMP JUMPDEST POP JUMP JUMPDEST PUSH2 0x15A7 PUSH2 0x16EA JUMP JUMPDEST PUSH20 0xFFFFFFFFFFFFFFFFFFFFFFFFFFFFFFFFFFFFFFFF AND PUSH2 0x15C5 PUSH2 0xE21 JUMP JUMPDEST PUSH20 0xFFFFFFFFFFFFFFFFFFFFFFFFFFFFFFFFFFFFFFFF AND EQ PUSH2 0x1624 JUMPI PUSH2 0x15E8 PUSH2 0x16EA JUMP JUMPDEST PUSH1 0x40 MLOAD PUSH32 0x118CDAA700000000000000000000000000000000000000000000000000000000 DUP2 MSTORE PUSH1 0x4 ADD PUSH2 0x161B SWAP2 SWAP1 PUSH2 0x1DE7 JUMP JUMPDEST PUSH1 0x40 MLOAD DUP1 SWAP2 SUB SWAP1 REVERT JUMPDEST JUMP JUMPDEST PUSH1 0x0 DUP1 PUSH1 0x0 SWAP1 SLOAD SWAP1 PUSH2 0x100 EXP SWAP1 DIV PUSH20 0xFFFFFFFFFFFFFFFFFFFFFFFFFFFFFFFFFFFFFFFF AND SWAP1 POP DUP2 PUSH1 0x0 DUP1 PUSH2 0x100 EXP DUP2 SLOAD DUP2 PUSH20 0xFFFFFFFFFFFFFFFFFFFFFFFFFFFFFFFFFFFFFFFF MUL NOT AND SWAP1 DUP4 PUSH20 0xFFFFFFFFFFFFFFFFFFFFFFFFFFFFFFFFFFFFFFFF AND MUL OR SWAP1 SSTORE POP DUP2 PUSH20 0xFFFFFFFFFFFFFFFFFFFFFFFFFFFFFFFFFFFFFFFF AND DUP2 PUSH20 0xFFFFFFFFFFFFFFFFFFFFFFFFFFFFFFFFFFFFFFFF AND PUSH32 0x8BE0079C531659141344CD1FD0A4F28419497F9722A3DAAFE3B4186F6B6457E0 PUSH1 0x40 MLOAD PUSH1 0x40 MLOAD DUP1 SWAP2 SUB SWAP1 LOG3 POP POP JUMP JUMPDEST PUSH1 0x0 CALLER SWAP1 POP SWAP1 JUMP JUMPDEST DUP3 DUP1 SLOAD DUP3 DUP3 SSTORE SWAP1 PUSH1 0x0 MSTORE PUSH1 0x20 PUSH1 0x0 KECCAK256 SWAP1 DUP2 ADD SWAP3 DUP3 ISZERO PUSH2 0x172E JUMPI SWAP2 PUSH1 0x20 MUL DUP3 ADD JUMPDEST DUP3 DUP2 GT ISZERO PUSH2 0x172D JUMPI DUP3 MLOAD DUP3 SSTORE SWAP2 PUSH1 0x20 ADD SWAP2 SWAP1 PUSH1 0x1 ADD SWAP1 PUSH2 0x1712 JUMP JUMPDEST JUMPDEST POP SWAP1 POP PUSH2 0x173B SWAP2 SWAP1 PUSH2 0x17E5 JUMP JUMPDEST POP SWAP1 JUMP JUMPDEST PUSH1 0x40 MLOAD DUP1 PUSH2 0x120 ADD PUSH1 0x40 MSTORE DUP1 PUSH1 0x0 DUP2 MSTORE PUSH1 0x20 ADD PUSH1 0x0 PUSH20 0xFFFFFFFFFFFFFFFFFFFFFFFFFFFFFFFFFFFFFFFF AND DUP2 MSTORE PUSH1 0x20 ADD PUSH1 0x0 PUSH20 0xFFFFFFFFFFFFFFFFFFFFFFFFFFFFFFFFFFFFFFFF AND DUP2 MSTORE PUSH1 0x20 ADD PUSH1 0x0 PUSH20 0xFFFFFFFFFFFFFFFFFFFFFFFFFFFFFFFFFFFFFFFF AND DUP2 MSTORE PUSH1 0x20 ADD PUSH1 0x60 DUP2 MSTORE PUSH1 0x20 ADD PUSH1 0x60 DUP2 MSTORE PUSH1 0x20 ADD PUSH1 0x0 DUP2 MSTORE PUSH1 0x20 ADD PUSH1 0x0 ISZERO ISZERO DUP2 MSTORE PUSH1 0x20 ADD PUSH1 0x0 PUSH20 0xFFFFFFFFFFFFFFFFFFFFFFFFFFFFFFFFFFFFFFFF AND DUP2 MSTORE POP SWAP1 JUMP JUMPDEST JUMPDEST DUP1 DUP3 GT ISZERO PUSH2 0x17FE JUMPI PUSH1 0x0 DUP2 PUSH1 0x0 SWAP1 SSTORE POP PUSH1 0x1 ADD PUSH2 0x17E6 JUMP JUMPDEST POP SWAP1 JUMP JUMPDEST PUSH1 0x0 DUP2 SWAP1 POP SWAP2 SWAP1 POP JUMP JUMPDEST PUSH2 0x1815 DUP2 PUSH2 0x1802 JUMP JUMPDEST DUP3 MSTORE POP POP JUMP JUMPDEST PUSH1 0x0 PUSH1 0x20 DUP3 ADD SWAP1 POP PUSH2 0x1830 PUSH1 0x0 DUP4 ADD DUP5 PUSH2 0x180C JUMP JUMPDEST SWAP3 SWAP2 POP POP JUMP JUMPDEST PUSH1 0x0 PUSH1 0x40 MLOAD SWAP1 POP SWAP1 JUMP JUMPDEST PUSH1 0x0 DUP1 REVERT JUMPDEST PUSH1 0x0 DUP1 REVERT JUMPDEST PUSH2 0x1853 DUP2 PUSH2 0x1802 JUMP JUMPDEST DUP2 EQ PUSH2 0x185E JUMPI PUSH1 0x0 DUP1 REVERT JUMPDEST POP JUMP JUMPDEST PUSH1 0x0 DUP2 CALLDATALOAD SWAP1 POP PUSH2 0x1870 DUP2 PUSH2 0x184A JUMP JUMPDEST SWAP3 SWAP2 POP POP JUMP JUMPDEST PUSH1 0x0 PUSH1 0x20 DUP3 DUP5 SUB SLT ISZERO PUSH2 0x188C JUMPI PUSH2 0x188B PUSH2 0x1840 JUMP JUMPDEST JUMPDEST PUSH1 0x0 PUSH2 0x189A DUP5 DUP3 DUP6 ADD PUSH2 0x1861 JUMP JUMPDEST SWAP2 POP POP SWAP3 SWAP2 POP POP JUMP JUMPDEST PUSH1 0x0 DUP2 ISZERO ISZERO SWAP1 POP SWAP2 SWAP1 POP JUMP JUMPDEST PUSH2 0x18B8 DUP2 PUSH2 0x18A3 JUMP JUMPDEST DUP3 MSTORE POP POP JUMP JUMPDEST PUSH1 0x0 PUSH1 0x20 DUP3 ADD SWAP1 POP PUSH2 0x18D3 PUSH1 0x0 DUP4 ADD DUP5 PUSH2 0x18AF JUMP JUMPDEST SWAP3 SWAP2 POP POP JUMP JUMPDEST PUSH1 0x0 PUSH20 0xFFFFFFFFFFFFFFFFFFFFFFFFFFFFFFFFFFFFFFFF DUP3 AND SWAP1 POP SWAP2 SWAP1 POP JUMP JUMPDEST PUSH1 0x0 PUSH2 0x1904 DUP3 PUSH2 0x18D9 JUMP JUMPDEST SWAP1 POP SWAP2 SWAP1 POP JUMP JUMPDEST PUSH2 0x1914 DUP2 PUSH2 0x18F9 JUMP JUMPDEST DUP2 EQ PUSH2 0x191F JUMPI PUSH1 0x0 DUP1 REVERT JUMPDEST POP JUMP JUMPDEST PUSH1 0x0 DUP2 CALLDATALOAD SWAP1 POP PUSH2 0x1931 DUP2 PUSH2 0x190B JUMP JUMPDEST SWAP3 SWAP2 POP POP JUMP JUMPDEST PUSH1 0x0 DUP1 REVERT JUMPDEST PUSH1 0x0 DUP1 REVERT JUMPDEST PUSH1 0x0 PUSH1 0x1F NOT PUSH1 0x1F DUP4 ADD AND SWAP1 POP SWAP2 SWAP1 POP JUMP JUMPDEST PUSH32 0x4E487B7100000000000000000000000000000000000000000000000000000000 PUSH1 0x0 MSTORE PUSH1 0x41 PUSH1 0x4 MSTORE PUSH1 0x24 PUSH1 0x0 REVERT JUMPDEST PUSH2 0x198A DUP3 PUSH2 0x1941 JUMP JUMPDEST DUP2 ADD DUP2 DUP2 LT PUSH8 0xFFFFFFFFFFFFFFFF DUP3 GT OR ISZERO PUSH2 0x19A9 JUMPI PUSH2 0x19A8 PUSH2 0x1952 JUMP JUMPDEST JUMPDEST DUP1 PUSH1 0x40 MSTORE POP POP POP JUMP JUMPDEST PUSH1 0x0 PUSH2 0x19BC PUSH2 0x1836 JUMP JUMPDEST SWAP1 POP PUSH2 0x19C8 DUP3 DUP3 PUSH2 0x1981 JUMP JUMPDEST SWAP2 SWAP1 POP JUMP JUMPDEST PUSH1 0x0 PUSH8 0xFFFFFFFFFFFFFFFF DUP3 GT ISZERO PUSH2 0x19E8 JUMPI PUSH2 0x19E7 PUSH2 0x1952 JUMP JUMPDEST JUMPDEST PUSH2 0x19F1 DUP3 PUSH2 0x1941 JUMP JUMPDEST SWAP1 POP PUSH1 0x20 DUP2 ADD SWAP1 POP SWAP2 SWAP1 POP JUMP JUMPDEST DUP3 DUP2 DUP4 CALLDATACOPY PUSH1 0x0 DUP4 DUP4 ADD MSTORE POP POP POP JUMP JUMPDEST PUSH1 0x0 PUSH2 0x1A20 PUSH2 0x1A1B DUP5 PUSH2 0x19CD JUMP JUMPDEST PUSH2 0x19B2 JUMP JUMPDEST SWAP1 POP DUP3 DUP2 MSTORE PUSH1 0x20 DUP2 ADD DUP5 DUP5 DUP5 ADD GT ISZERO PUSH2 0x1A3C JUMPI PUSH2 0x1A3B PUSH2 0x193C JUMP JUMPDEST JUMPDEST PUSH2 0x1A47 DUP5 DUP3 DUP6 PUSH2 0x19FE JUMP JUMPDEST POP SWAP4 SWAP3 POP POP POP JUMP JUMPDEST PUSH1 0x0 DUP3 PUSH1 0x1F DUP4 ADD SLT PUSH2 0x1A64 JUMPI PUSH2 0x1A63 PUSH2 0x1937 JUMP JUMPDEST JUMPDEST DUP2 CALLDATALOAD PUSH2 0x1A74 DUP5 DUP3 PUSH1 0x20 DUP7 ADD PUSH2 0x1A0D JUMP JUMPDEST SWAP2 POP POP SWAP3 SWAP2 POP POP JUMP JUMPDEST PUSH1 0x0 PUSH8 0xFFFFFFFFFFFFFFFF DUP3 GT ISZERO PUSH2 0x1A98 JUMPI PUSH2 0x1A97 PUSH2 0x1952 JUMP JUMPDEST JUMPDEST PUSH1 0x20 DUP3 MUL SWAP1 POP PUSH1 0x20 DUP2 ADD SWAP1 POP SWAP2 SWAP1 POP JUMP JUMPDEST PUSH1 0x0 DUP1 REVERT JUMPDEST PUSH1 0x0 PUSH2 0x1AC1 PUSH2 0x1ABC DUP5 PUSH2 0x1A7D JUMP JUMPDEST PUSH2 0x19B2 JUMP JUMPDEST SWAP1 POP DUP1 DUP4 DUP3 MSTORE PUSH1 0x20 DUP3 ADD SWAP1 POP PUSH1 0x20 DUP5 MUL DUP4 ADD DUP6 DUP2 GT ISZERO PUSH2 0x1AE4 JUMPI PUSH2 0x1AE3 PUSH2 0x1AA9 JUMP JUMPDEST JUMPDEST DUP4 JUMPDEST DUP2 DUP2 LT ISZERO PUSH2 0x1B0D JUMPI DUP1 PUSH2 0x1AF9 DUP9 DUP3 PUSH2 0x1861 JUMP JUMPDEST DUP5 MSTORE PUSH1 0x20 DUP5 ADD SWAP4 POP POP PUSH1 0x20 DUP2 ADD SWAP1 POP PUSH2 0x1AE6 JUMP JUMPDEST POP POP POP SWAP4 SWAP3 POP POP POP JUMP JUMPDEST PUSH1 0x0 DUP3 PUSH1 0x1F DUP4 ADD SLT PUSH2 0x1B2C JUMPI PUSH2 0x1B2B PUSH2 0x1937 JUMP JUMPDEST JUMPDEST DUP2 CALLDATALOAD PUSH2 0x1B3C DUP5 DUP3 PUSH1 0x20 DUP7 ADD PUSH2 0x1AAE JUMP JUMPDEST SWAP2 POP POP SWAP3 SWAP2 POP POP JUMP JUMPDEST PUSH1 0x0 DUP1 PUSH1 0x0 DUP1 PUSH1 0x0 PUSH1 0xA0 DUP7 DUP9 SUB SLT ISZERO PUSH2 0x1B61 JUMPI PUSH2 0x1B60 PUSH2 0x1840 JUMP JUMPDEST JUMPDEST PUSH1 0x0 PUSH2 0x1B6F DUP9 DUP3 DUP10 ADD PUSH2 0x1922 JUMP JUMPDEST SWAP6 POP POP PUSH1 0x20 PUSH2 0x1B80 DUP9 DUP3 DUP10 ADD PUSH2 0x1922 JUMP JUMPDEST SWAP5 POP POP PUSH1 0x40 DUP7 ADD CALLDATALOAD PUSH8 0xFFFFFFFFFFFFFFFF DUP2 GT ISZERO PUSH2 0x1BA1 JUMPI PUSH2 0x1BA0 PUSH2 0x1845 JUMP JUMPDEST JUMPDEST PUSH2 0x1BAD DUP9 DUP3 DUP10 ADD PUSH2 0x1A4F JUMP JUMPDEST SWAP4 POP POP PUSH1 0x60 PUSH2 0x1BBE DUP9 DUP3 DUP10 ADD PUSH2 0x1861 JUMP JUMPDEST SWAP3 POP POP PUSH1 0x80 DUP7 ADD CALLDATALOAD PUSH8 0xFFFFFFFFFFFFFFFF DUP2 GT ISZERO PUSH2 0x1BDF JUMPI PUSH2 0x1BDE PUSH2 0x1845 JUMP JUMPDEST JUMPDEST PUSH2 0x1BEB DUP9 DUP3 DUP10 ADD PUSH2 0x1B17 JUMP JUMPDEST SWAP2 POP POP SWAP3 SWAP6 POP SWAP3 SWAP6 SWAP1 SWAP4 POP JUMP JUMPDEST PUSH1 0x0 PUSH1 0x20 DUP3 DUP5 SUB SLT ISZERO PUSH2 0x1C0E JUMPI PUSH2 0x1C0D PUSH2 0x1840 JUMP JUMPDEST JUMPDEST PUSH1 0x0 PUSH2 0x1C1C DUP5 DUP3 DUP6 ADD PUSH2 0x1922 JUMP JUMPDEST SWAP2 POP POP SWAP3 SWAP2 POP POP JUMP JUMPDEST PUSH2 0x1C2E DUP2 PUSH2 0x18A3 JUMP JUMPDEST DUP2 EQ PUSH2 0x1C39 JUMPI PUSH1 0x0 DUP1 REVERT JUMPDEST POP JUMP JUMPDEST PUSH1 0x0 DUP2 CALLDATALOAD SWAP1 POP PUSH2 0x1C4B DUP2 PUSH2 0x1C25 JUMP JUMPDEST SWAP3 SWAP2 POP POP JUMP JUMPDEST PUSH1 0x0 DUP1 PUSH1 0x0 DUP1 PUSH1 0x80 DUP6 DUP8 SUB SLT ISZERO PUSH2 0x1C6B JUMPI PUSH2 0x1C6A PUSH2 0x1840 JUMP JUMPDEST JUMPDEST PUSH1 0x0 PUSH2 0x1C79 DUP8 DUP3 DUP9 ADD PUSH2 0x1861 JUMP JUMPDEST SWAP5 POP POP PUSH1 0x20 PUSH2 0x1C8A DUP8 DUP3 DUP9 ADD PUSH2 0x1C3C JUMP JUMPDEST SWAP4 POP POP PUSH1 0x40 PUSH2 0x1C9B DUP8 DUP3 DUP9 ADD PUSH2 0x1861 JUMP JUMPDEST SWAP3 POP POP PUSH1 0x60 DUP6 ADD CALLDATALOAD PUSH8 0xFFFFFFFFFFFFFFFF DUP2 GT ISZERO PUSH2 0x1CBC JUMPI PUSH2 0x1CBB PUSH2 0x1845 JUMP JUMPDEST JUMPDEST PUSH2 0x1CC8 DUP8 DUP3 DUP9 ADD PUSH2 0x1B17 JUMP JUMPDEST SWAP2 POP POP SWAP3 SWAP6 SWAP2 SWAP5 POP SWAP3 POP JUMP JUMPDEST PUSH2 0x1CDD DUP2 PUSH2 0x18F9 JUMP JUMPDEST DUP3 MSTORE POP POP JUMP JUMPDEST PUSH1 0x0 DUP2 MLOAD SWAP1 POP SWAP2 SWAP1 POP JUMP JUMPDEST PUSH1 0x0 DUP3 DUP3 MSTORE PUSH1 0x20 DUP3 ADD SWAP1 POP SWAP3 SWAP2 POP POP JUMP JUMPDEST PUSH1 0x0 JUMPDEST DUP4 DUP2 LT ISZERO PUSH2 0x1D1D JUMPI DUP1 DUP3 ADD MLOAD DUP2 DUP5 ADD MSTORE PUSH1 0x20 DUP2 ADD SWAP1 POP PUSH2 0x1D02 JUMP JUMPDEST PUSH1 0x0 DUP5 DUP5 ADD MSTORE POP POP POP POP JUMP JUMPDEST PUSH1 0x0 PUSH2 0x1D34 DUP3 PUSH2 0x1CE3 JUMP JUMPDEST PUSH2 0x1D3E DUP2 DUP6 PUSH2 0x1CEE JUMP JUMPDEST SWAP4 POP PUSH2 0x1D4E DUP2 DUP6 PUSH1 0x20 DUP7 ADD PUSH2 0x1CFF JUMP JUMPDEST PUSH2 0x1D57 DUP2 PUSH2 0x1941 JUMP JUMPDEST DUP5 ADD SWAP2 POP POP SWAP3 SWAP2 POP POP JUMP JUMPDEST PUSH1 0x0 PUSH2 0x100 DUP3 ADD SWAP1 POP PUSH2 0x1D78 PUSH1 0x0 DUP4 ADD DUP12 PUSH2 0x180C JUMP JUMPDEST PUSH2 0x1D85 PUSH1 0x20 DUP4 ADD DUP11 PUSH2 0x1CD4 JUMP JUMPDEST PUSH2 0x1D92 PUSH1 0x40 DUP4 ADD DUP10 PUSH2 0x1CD4 JUMP JUMPDEST PUSH2 0x1D9F PUSH1 0x60 DUP4 ADD DUP9 PUSH2 0x1CD4 JUMP JUMPDEST DUP2 DUP2 SUB PUSH1 0x80 DUP4 ADD MSTORE PUSH2 0x1DB1 DUP2 DUP8 PUSH2 0x1D29 JUMP JUMPDEST SWAP1 POP PUSH2 0x1DC0 PUSH1 0xA0 DUP4 ADD DUP7 PUSH2 0x180C JUMP JUMPDEST PUSH2 0x1DCD PUSH1 0xC0 DUP4 ADD DUP6 PUSH2 0x18AF JUMP JUMPDEST PUSH2 0x1DDA PUSH1 0xE0 DUP4 ADD DUP5 PUSH2 0x1CD4 JUMP JUMPDEST SWAP10 SWAP9 POP POP POP POP POP POP POP POP POP JUMP JUMPDEST PUSH1 0x0 PUSH1 0x20 DUP3 ADD SWAP1 POP PUSH2 0x1DFC PUSH1 0x0 DUP4 ADD DUP5 PUSH2 0x1CD4 JUMP JUMPDEST SWAP3 SWAP2 POP POP JUMP JUMPDEST PUSH1 0x0 PUSH1 0x40 DUP3 ADD SWAP1 POP PUSH2 0x1E17 PUSH1 0x0 DUP4 ADD DUP6 PUSH2 0x18AF JUMP JUMPDEST PUSH2 0x1E24 PUSH1 0x20 DUP4 ADD DUP5 PUSH2 0x1CD4 JUMP JUMPDEST SWAP4 SWAP3 POP POP POP JUMP JUMPDEST PUSH2 0x1E34 DUP2 PUSH2 0x1802 JUMP JUMPDEST DUP3 MSTORE POP POP JUMP JUMPDEST PUSH2 0x1E43 DUP2 PUSH2 0x18F9 JUMP JUMPDEST DUP3 MSTORE POP POP JUMP JUMPDEST PUSH1 0x0 DUP3 DUP3 MSTORE PUSH1 0x20 DUP3 ADD SWAP1 POP SWAP3 SWAP2 POP POP JUMP JUMPDEST PUSH1 0x0 PUSH2 0x1E65 DUP3 PUSH2 0x1CE3 JUMP JUMPDEST PUSH2 0x1E6F DUP2 DUP6 PUSH2 0x1E49 JUMP JUMPDEST SWAP4 POP PUSH2 0x1E7F DUP2 DUP6 PUSH1 0x20 DUP7 ADD PUSH2 0x1CFF JUMP JUMPDEST PUSH2 0x1E88 DUP2 PUSH2 0x1941 JUMP JUMPDEST DUP5 ADD SWAP2 POP POP SWAP3 SWAP2 POP POP JUMP JUMPDEST PUSH1 0x0 DUP2 MLOAD SWAP1 POP SWAP2 SWAP1 POP JUMP JUMPDEST PUSH1 0x0 DUP3 DUP3 MSTORE PUSH1 0x20 DUP3 ADD SWAP1 POP SWAP3 SWAP2 POP POP JUMP JUMPDEST PUSH1 0x0 DUP2 SWAP1 POP PUSH1 0x20 DUP3 ADD SWAP1 POP SWAP2 SWAP1 POP JUMP JUMPDEST PUSH1 0x0 PUSH2 0x1ECB DUP4 DUP4 PUSH2 0x1E2B JUMP JUMPDEST PUSH1 0x20 DUP4 ADD SWAP1 POP SWAP3 SWAP2 POP POP JUMP JUMPDEST PUSH1 0x0 PUSH1 0x20 DUP3 ADD SWAP1 POP SWAP2 SWAP1 POP JUMP JUMPDEST PUSH1 0x0 PUSH2 0x1EEF DUP3 PUSH2 0x1E93 JUMP JUMPDEST PUSH2 0x1EF9 DUP2 DUP6 PUSH2 0x1E9E JUMP JUMPDEST SWAP4 POP PUSH2 0x1F04 DUP4 PUSH2 0x1EAF JUMP JUMPDEST DUP1 PUSH1 0x0 JUMPDEST DUP4 DUP2 LT ISZERO PUSH2 0x1F35 JUMPI DUP2 MLOAD PUSH2 0x1F1C DUP9 DUP3 PUSH2 0x1EBF JUMP JUMPDEST SWAP8 POP PUSH2 0x1F27 DUP4 PUSH2 0x1ED7 JUMP JUMPDEST SWAP3 POP POP PUSH1 0x1 DUP2 ADD SWAP1 POP PUSH2 0x1F08 JUMP JUMPDEST POP DUP6 SWAP4 POP POP POP POP SWAP3 SWAP2 POP POP JUMP JUMPDEST PUSH2 0x1F4B DUP2 PUSH2 0x18A3 JUMP JUMPDEST DUP3 MSTORE POP POP JUMP JUMPDEST PUSH1 0x0 PUSH2 0x120 DUP4 ADD PUSH1 0x0 DUP4 ADD MLOAD PUSH2 0x1F6A PUSH1 0x0 DUP7 ADD DUP3 PUSH2 0x1E2B JUMP JUMPDEST POP PUSH1 0x20 DUP4 ADD MLOAD PUSH2 0x1F7D PUSH1 0x20 DUP7 ADD DUP3 PUSH2 0x1E3A JUMP JUMPDEST POP PUSH1 0x40 DUP4 ADD MLOAD PUSH2 0x1F90 PUSH1 0x40 DUP7 ADD DUP3 PUSH2 0x1E3A JUMP JUMPDEST POP PUSH1 0x60 DUP4 ADD MLOAD PUSH2 0x1FA3 PUSH1 0x60 DUP7 ADD DUP3 PUSH2 0x1E3A JUMP JUMPDEST POP PUSH1 0x80 DUP4 ADD MLOAD DUP5 DUP3 SUB PUSH1 0x80 DUP7 ADD MSTORE PUSH2 0x1FBB DUP3 DUP3 PUSH2 0x1E5A JUMP JUMPDEST SWAP2 POP POP PUSH1 0xA0 DUP4 ADD MLOAD DUP5 DUP3 SUB PUSH1 0xA0 DUP7 ADD MSTORE PUSH2 0x1FD5 DUP3 DUP3 PUSH2 0x1EE4 JUMP JUMPDEST SWAP2 POP POP PUSH1 0xC0 DUP4 ADD MLOAD PUSH2 0x1FEA PUSH1 0xC0 DUP7 ADD DUP3 PUSH2 0x1E2B JUMP JUMPDEST POP PUSH1 0xE0 DUP4 ADD MLOAD PUSH2 0x1FFD PUSH1 0xE0 DUP7 ADD DUP3 PUSH2 0x1F42 JUMP JUMPDEST POP PUSH2 0x100 DUP4 ADD MLOAD PUSH2 0x2012 PUSH2 0x100 DUP7 ADD DUP3 PUSH2 0x1E3A JUMP JUMPDEST POP DUP1 SWAP2 POP POP SWAP3 SWAP2 POP POP JUMP JUMPDEST PUSH1 0x0 PUSH1 0x20 DUP3 ADD SWAP1 POP DUP2 DUP2 SUB PUSH1 0x0 DUP4 ADD MSTORE PUSH2 0x2037 DUP2 DUP5 PUSH2 0x1F51 JUMP JUMPDEST SWAP1 POP SWAP3 SWAP2 POP POP JUMP JUMPDEST PUSH32 0x496E76616C696420646973707574652049440000000000000000000000000000 PUSH1 0x0 DUP3 ADD MSTORE POP JUMP JUMPDEST PUSH1 0x0 PUSH2 0x2075 PUSH1 0x12 DUP4 PUSH2 0x1CEE JUMP JUMPDEST SWAP2 POP PUSH2 0x2080 DUP3 PUSH2 0x203F JUMP JUMPDEST PUSH1 0x20 DUP3 ADD SWAP1 POP SWAP2 SWAP1 POP JUMP JUMPDEST PUSH1 0x0 PUSH1 0x20 DUP3 ADD SWAP1 POP DUP2 DUP2 SUB PUSH1 0x0 DUP4 ADD MSTORE PUSH2 0x20A4 DUP2 PUSH2 0x2068 JUMP JUMPDEST SWAP1 POP SWAP2 SWAP1 POP JUMP JUMPDEST PUSH32 0x54776F20706172746965732063616E742062652073616D650000000000000000 PUSH1 0x0 DUP3 ADD MSTORE POP JUMP JUMPDEST PUSH1 0x0 PUSH2 0x20E1 PUSH1 0x18 DUP4 PUSH2 0x1CEE JUMP JUMPDEST SWAP2 POP PUSH2 0x20EC DUP3 PUSH2 0x20AB JUMP JUMPDEST PUSH1 0x20 DUP3 ADD SWAP1 POP SWAP2 SWAP1 POP JUMP JUMPDEST PUSH1 0x0 PUSH1 0x20 DUP3 ADD SWAP1 POP DUP2 DUP2 SUB PUSH1 0x0 DUP4 ADD MSTORE PUSH2 0x2110 DUP2 PUSH2 0x20D4 JUMP JUMPDEST SWAP1 POP SWAP2 SWAP1 POP JUMP JUMPDEST PUSH32 0x4465736372697074696F6E2063616E6E6F7420626520656D7074790000000000 PUSH1 0x0 DUP3 ADD MSTORE POP JUMP JUMPDEST PUSH1 0x0 PUSH2 0x214D PUSH1 0x1B DUP4 PUSH2 0x1CEE JUMP JUMPDEST SWAP2 POP PUSH2 0x2158 DUP3 PUSH2 0x2117 JUMP JUMPDEST PUSH1 0x20 DUP3 ADD SWAP1 POP SWAP2 SWAP1 POP JUMP JUMPDEST PUSH1 0x0 PUSH1 0x20 DUP3 ADD SWAP1 POP DUP2 DUP2 SUB PUSH1 0x0 DUP4 ADD MSTORE PUSH2 0x217C DUP2 PUSH2 0x2140 JUMP JUMPDEST SWAP1 POP SWAP2 SWAP1 POP JUMP JUMPDEST PUSH32 0x566F74696E6720646561646C696E65206D75737420626520696E207468652066 PUSH1 0x0 DUP3 ADD MSTORE PUSH32 0x7574757265000000000000000000000000000000000000000000000000000000 PUSH1 0x20 DUP3 ADD MSTORE POP JUMP JUMPDEST PUSH1 0x0 PUSH2 0x21DF PUSH1 0x25 DUP4 PUSH2 0x1CEE JUMP JUMPDEST SWAP2 POP PUSH2 0x21EA DUP3 PUSH2 0x2183 JUMP JUMPDEST PUSH1 0x40 DUP3 ADD SWAP1 POP SWAP2 SWAP1 POP JUMP JUMPDEST PUSH1 0x0 PUSH1 0x20 DUP3 ADD SWAP1 POP DUP2 DUP2 SUB PUSH1 0x0 DUP4 ADD MSTORE PUSH2 0x220E DUP2 PUSH2 0x21D2 JUMP JUMPDEST SWAP1 POP SWAP2 SWAP1 POP JUMP JUMPDEST PUSH32 0x4E487B7100000000000000000000000000000000000000000000000000000000 PUSH1 0x0 MSTORE PUSH1 0x11 PUSH1 0x4 MSTORE PUSH1 0x24 PUSH1 0x0 REVERT JUMPDEST PUSH1 0x0 PUSH2 0x224F DUP3 PUSH2 0x1802 JUMP JUMPDEST SWAP2 POP PUSH32 0xFFFFFFFFFFFFFFFFFFFFFFFFFFFFFFFFFFFFFFFFFFFFFFFFFFFFFFFFFFFFFFFF DUP3 SUB PUSH2 0x2281 JUMPI PUSH2 0x2280 PUSH2 0x2215 JUMP JUMPDEST JUMPDEST PUSH1 0x1 DUP3 ADD SWAP1 POP SWAP2 SWAP1 POP JUMP JUMPDEST PUSH32 0x4E487B7100000000000000000000000000000000000000000000000000000000 PUSH1 0x0 MSTORE PUSH1 0x22 PUSH1 0x4 MSTORE PUSH1 0x24 PUSH1 0x0 REVERT JUMPDEST PUSH1 0x0 PUSH1 0x2 DUP3 DIV SWAP1 POP PUSH1 0x1 DUP3 AND DUP1 PUSH2 0x22D3 JUMPI PUSH1 0x7F DUP3 AND SWAP2 POP JUMPDEST PUSH1 0x20 DUP3 LT DUP2 SUB PUSH2 0x22E6 JUMPI PUSH2 0x22E5 PUSH2 0x228C JUMP JUMPDEST JUMPDEST POP SWAP2 SWAP1 POP JUMP JUMPDEST PUSH1 0x0 DUP2 SWAP1 POP DUP2 PUSH1 0x0 MSTORE PUSH1 0x20 PUSH1 0x0 KECCAK256 SWAP1 POP SWAP2 SWAP1 POP JUMP JUMPDEST PUSH1 0x0 PUSH1 0x20 PUSH1 0x1F DUP4 ADD DIV SWAP1 POP SWAP2 SWAP1 POP JUMP JUMPDEST PUSH1 0x0 DUP3 DUP3 SHL SWAP1 POP SWAP3 SWAP2 POP POP JUMP JUMPDEST PUSH1 0x0 PUSH1 0x8 DUP4 MUL PUSH2 0x234E PUSH32 0xFFFFFFFFFFFFFFFFFFFFFFFFFFFFFFFFFFFFFFFFFFFFFFFFFFFFFFFFFFFFFFFF DUP3 PUSH2 0x2311 JUMP JUMPDEST PUSH2 0x2358 DUP7 DUP4 PUSH2 0x2311 JUMP JUMPDEST SWAP6 POP DUP1 NOT DUP5 AND SWAP4 POP DUP1 DUP7 AND DUP5 OR SWAP3 POP POP POP SWAP4 SWAP3 POP POP POP JUMP JUMPDEST PUSH1 0x0 DUP2 SWAP1 POP SWAP2 SWAP1 POP JUMP JUMPDEST PUSH1 0x0 PUSH2 0x2395 PUSH2 0x2390 PUSH2 0x238B DUP5 PUSH2 0x1802 JUMP JUMPDEST PUSH2 0x2370 JUMP JUMPDEST PUSH2 0x1802 JUMP JUMPDEST SWAP1 POP SWAP2 SWAP1 POP JUMP JUMPDEST PUSH1 0x0 DUP2 SWAP1 POP SWAP2 SWAP1 POP JUMP JUMPDEST PUSH2 0x23AF DUP4 PUSH2 0x237A JUMP JUMPDEST PUSH2 0x23C3 PUSH2 0x23BB DUP3 PUSH2 0x239C JUMP JUMPDEST DUP5 DUP5 SLOAD PUSH2 0x231E JUMP JUMPDEST DUP3 SSTORE POP POP POP POP JUMP JUMPDEST PUSH1 0x0 SWAP1 JUMP JUMPDEST PUSH2 0x23D8 PUSH2 0x23CB JUMP JUMPDEST PUSH2 0x23E3 DUP2 DUP5 DUP5 PUSH2 0x23A6 JUMP JUMPDEST POP POP POP JUMP JUMPDEST JUMPDEST DUP2 DUP2 LT ISZERO PUSH2 0x2407 JUMPI PUSH2 0x23FC PUSH1 0x0 DUP3 PUSH2 0x23D0 JUMP JUMPDEST PUSH1 0x1 DUP2 ADD SWAP1 POP PUSH2 0x23E9 JUMP JUMPDEST POP POP JUMP JUMPDEST PUSH1 0x1F DUP3 GT ISZERO PUSH2 0x244C JUMPI PUSH2 0x241D DUP2 PUSH2 0x22EC JUMP JUMPDEST PUSH2 0x2426 DUP5 PUSH2 0x2301 JUMP JUMPDEST DUP2 ADD PUSH1 0x20 DUP6 LT ISZERO PUSH2 0x2435 JUMPI DUP2 SWAP1 POP JUMPDEST PUSH2 0x2449 PUSH2 0x2441 DUP6 PUSH2 0x2301 JUMP JUMPDEST DUP4 ADD DUP3 PUSH2 0x23E8 JUMP JUMPDEST POP POP JUMPDEST POP POP POP JUMP JUMPDEST PUSH1 0x0 DUP3 DUP3 SHR SWAP1 POP SWAP3 SWAP2 POP POP JUMP JUMPDEST PUSH1 0x0 PUSH2 0x246F PUSH1 0x0 NOT DUP5 PUSH1 0x8 MUL PUSH2 0x2451 JUMP JUMPDEST NOT DUP1 DUP4 AND SWAP2 POP POP SWAP3 SWAP2 POP POP JUMP JUMPDEST PUSH1 0x0 PUSH2 0x2488 DUP4 DUP4 PUSH2 0x245E JUMP JUMPDEST SWAP2 POP DUP3 PUSH1 0x2 MUL DUP3 OR SWAP1 POP SWAP3 SWAP2 POP POP JUMP JUMPDEST PUSH2 0x24A1 DUP3 PUSH2 0x1CE3 JUMP JUMPDEST PUSH8 0xFFFFFFFFFFFFFFFF DUP2 GT ISZERO PUSH2 0x24BA JUMPI PUSH2 0x24B9 PUSH2 0x1952 JUMP JUMPDEST JUMPDEST PUSH2 0x24C4 DUP3 SLOAD PUSH2 0x22BB JUMP JUMPDEST PUSH2 0x24CF DUP3 DUP3 DUP6 PUSH2 0x240B JUMP JUMPDEST PUSH1 0x0 PUSH1 0x20 SWAP1 POP PUSH1 0x1F DUP4 GT PUSH1 0x1 DUP2 EQ PUSH2 0x2502 JUMPI PUSH1 0x0 DUP5 ISZERO PUSH2 0x24F0 JUMPI DUP3 DUP8 ADD MLOAD SWAP1 POP JUMPDEST PUSH2 0x24FA DUP6 DUP3 PUSH2 0x247C JUMP JUMPDEST DUP7 SSTORE POP PUSH2 0x2562 JUMP JUMPDEST PUSH1 0x1F NOT DUP5 AND PUSH2 0x2510 DUP7 PUSH2 0x22EC JUMP JUMPDEST PUSH1 0x0 JUMPDEST DUP3 DUP2 LT ISZERO PUSH2 0x2538 JUMPI DUP5 DUP10 ADD MLOAD DUP3 SSTORE PUSH1 0x1 DUP3 ADD SWAP2 POP PUSH1 0x20 DUP6 ADD SWAP5 POP PUSH1 0x20 DUP2 ADD SWAP1 POP PUSH2 0x2513 JUMP JUMPDEST DUP7 DUP4 LT ISZERO PUSH2 0x2555 JUMPI DUP5 DUP10 ADD MLOAD PUSH2 0x2551 PUSH1 0x1F DUP10 AND DUP3 PUSH2 0x245E JUMP JUMPDEST DUP4 SSTORE POP JUMPDEST PUSH1 0x1 PUSH1 0x2 DUP9 MUL ADD DUP9 SSTORE POP POP POP JUMPDEST POP POP POP POP POP POP JUMP JUMPDEST PUSH1 0x0 DUP2 PUSH1 0x0 SHR SWAP1 POP SWAP2 SWAP1 POP JUMP JUMPDEST PUSH1 0x0 DUP2 SWAP1 POP SWAP2 SWAP1 POP JUMP JUMPDEST PUSH1 0x0 PUSH2 0x2594 PUSH2 0x258F DUP4 PUSH2 0x256A JUMP JUMPDEST PUSH2 0x2577 JUMP JUMPDEST SWAP1 POP SWAP2 SWAP1 POP JUMP JUMPDEST PUSH1 0x0 PUSH20 0xFFFFFFFFFFFFFFFFFFFFFFFFFFFFFFFFFFFFFFFF DUP3 AND SWAP1 POP SWAP2 SWAP1 POP JUMP JUMPDEST PUSH1 0x0 PUSH2 0x25CE PUSH2 0x25C9 DUP4 PUSH2 0x256A JUMP JUMPDEST PUSH2 0x259B JUMP JUMPDEST SWAP1 POP SWAP2 SWAP1 POP JUMP JUMPDEST PUSH1 0x0 DUP2 SLOAD PUSH2 0x25E2 DUP2 PUSH2 0x22BB JUMP JUMPDEST PUSH2 0x25EC DUP2 DUP7 PUSH2 0x1E49 JUMP JUMPDEST SWAP5 POP PUSH1 0x1 DUP3 AND PUSH1 0x0 DUP2 EQ PUSH2 0x2607 JUMPI PUSH1 0x1 DUP2 EQ PUSH2 0x261D JUMPI PUSH2 0x2650 JUMP JUMPDEST PUSH1 0xFF NOT DUP4 AND DUP7 MSTORE DUP2 ISZERO ISZERO PUSH1 0x20 MUL DUP7 ADD SWAP4 POP PUSH2 0x2650 JUMP JUMPDEST PUSH2 0x2626 DUP6 PUSH2 0x22EC JUMP JUMPDEST PUSH1 0x0 JUMPDEST DUP4 DUP2 LT ISZERO PUSH2 0x2648 JUMPI DUP2 SLOAD DUP2 DUP10 ADD MSTORE PUSH1 0x1 DUP3 ADD SWAP2 POP PUSH1 0x20 DUP2 ADD SWAP1 POP PUSH2 0x2629 JUMP JUMPDEST DUP1 DUP9 ADD SWAP6 POP POP POP JUMPDEST POP POP POP SWAP3 SWAP2 POP POP JUMP JUMPDEST PUSH1 0x0 DUP2 SLOAD SWAP1 POP SWAP2 SWAP1 POP JUMP JUMPDEST PUSH1 0x0 DUP2 SWAP1 POP DUP2 PUSH1 0x0 MSTORE PUSH1 0x20 PUSH1 0x0 KECCAK256 SWAP1 POP SWAP2 SWAP1 POP JUMP JUMPDEST PUSH1 0x0 PUSH2 0x2685 DUP3 SLOAD PUSH2 0x2581 JUMP JUMPDEST SWAP1 POP SWAP2 SWAP1 POP JUMP JUMPDEST PUSH1 0x0 PUSH1 0x1 DUP3 ADD SWAP1 POP SWAP2 SWAP1 POP JUMP JUMPDEST PUSH1 0x0 PUSH2 0x26A4 DUP3 PUSH2 0x2659 JUMP JUMPDEST PUSH2 0x26AE DUP2 DUP6 PUSH2 0x1E9E JUMP JUMPDEST SWAP4 POP PUSH2 0x26B9 DUP4 PUSH2 0x2664 JUMP JUMPDEST DUP1 PUSH1 0x0 JUMPDEST DUP4 DUP2 LT ISZERO PUSH2 0x26F1 JUMPI PUSH2 0x26CE DUP3 PUSH2 0x2679 JUMP JUMPDEST PUSH2 0x26D8 DUP9 DUP3 PUSH2 0x1EBF JUMP JUMPDEST SWAP8 POP PUSH2 0x26E3 DUP4 PUSH2 0x268C JUMP JUMPDEST SWAP3 POP POP PUSH1 0x1 DUP2 ADD SWAP1 POP PUSH2 0x26BD JUMP JUMPDEST POP DUP6 SWAP4 POP POP POP POP SWAP3 SWAP2 POP POP JUMP JUMPDEST PUSH1 0x0 PUSH1 0xFF DUP3 AND SWAP1 POP SWAP2 SWAP1 POP JUMP JUMPDEST PUSH1 0x0 PUSH2 0x271E PUSH2 0x2719 DUP4 PUSH2 0x256A JUMP JUMPDEST PUSH2 0x26FE JUMP JUMPDEST SWAP1 POP SWAP2 SWAP1 POP JUMP JUMPDEST PUSH1 0x0 DUP2 PUSH1 0x8 SHR SWAP1 POP SWAP2 SWAP1 POP JUMP JUMPDEST PUSH1 0x0 PUSH2 0x2745 PUSH2 0x2740 DUP4 PUSH2 0x2725 JUMP JUMPDEST PUSH2 0x259B JUMP JUMPDEST SWAP1 POP SWAP2 SWAP1 POP JUMP JUMPDEST PUSH1 0x0 PUSH2 0x120 DUP4 ADD PUSH1 0x0 DUP1 DUP5 ADD SLOAD SWAP1 POP PUSH2 0x2764 DUP2 PUSH2 0x2581 JUMP JUMPDEST PUSH2 0x2771 PUSH1 0x0 DUP8 ADD DUP3 PUSH2 0x1E2B JUMP JUMPDEST POP PUSH1 0x1 DUP5 ADD SLOAD SWAP1 POP PUSH2 0x2782 DUP2 PUSH2 0x25BB JUMP JUMPDEST PUSH2 0x278F PUSH1 0x20 DUP8 ADD DUP3 PUSH2 0x1E3A JUMP JUMPDEST POP PUSH1 0x2 DUP5 ADD SLOAD SWAP1 POP PUSH2 0x27A0 DUP2 PUSH2 0x25BB JUMP JUMPDEST PUSH2 0x27AD PUSH1 0x40 DUP8 ADD DUP3 PUSH2 0x1E3A JUMP JUMPDEST POP PUSH1 0x3 DUP5 ADD SLOAD SWAP1 POP PUSH2 0x27BE DUP2 PUSH2 0x25BB JUMP JUMPDEST PUSH2 0x27CB PUSH1 0x60 DUP8 ADD DUP3 PUSH2 0x1E3A JUMP JUMPDEST POP PUSH1 0x4 DUP5 ADD DUP6 DUP4 SUB PUSH1 0x80 DUP8 ADD MSTORE PUSH2 0x27E2 DUP4 DUP3 PUSH2 0x25D5 JUMP JUMPDEST SWAP3 POP POP PUSH1 0x5 DUP5 ADD DUP6 DUP4 SUB PUSH1 0xA0 DUP8 ADD MSTORE PUSH2 0x27FB DUP4 DUP3 PUSH2 0x2699 JUMP JUMPDEST SWAP3 POP POP PUSH1 0x6 DUP5 ADD SLOAD SWAP1 POP PUSH2 0x280E DUP2 PUSH2 0x2581 JUMP JUMPDEST PUSH2 0x281B PUSH1 0xC0 DUP8 ADD DUP3 PUSH2 0x1E2B JUMP JUMPDEST POP PUSH1 0x7 DUP5 ADD SLOAD SWAP1 POP PUSH2 0x282C DUP2 PUSH2 0x270B JUMP JUMPDEST PUSH2 0x2839 PUSH1 0xE0 DUP8 ADD DUP3 PUSH2 0x1F42 JUMP JUMPDEST POP PUSH2 0x2843 DUP2 PUSH2 0x2732 JUMP JUMPDEST PUSH2 0x2851 PUSH2 0x100 DUP8 ADD DUP3 PUSH2 0x1E3A JUMP JUMPDEST POP DUP2 SWAP3 POP POP POP SWAP3 SWAP2 POP POP JUMP JUMPDEST PUSH1 0x0 PUSH1 0x40 DUP3 ADD SWAP1 POP DUP2 DUP2 SUB PUSH1 0x0 DUP4 ADD MSTORE PUSH2 0x2877 DUP2 DUP6 PUSH2 0x274C JUMP JUMPDEST SWAP1 POP PUSH2 0x2886 PUSH1 0x20 DUP4 ADD DUP5 PUSH2 0x180C JUMP JUMPDEST SWAP4 SWAP3 POP POP POP JUMP JUMPDEST PUSH1 0x0 DUP2 MLOAD SWAP1 POP PUSH2 0x289C DUP2 PUSH2 0x1C25 JUMP JUMPDEST SWAP3 SWAP2 POP POP JUMP JUMPDEST PUSH1 0x0 PUSH1 0x20 DUP3 DUP5 SUB SLT ISZERO PUSH2 0x28B8 JUMPI PUSH2 0x28B7 PUSH2 0x1840 JUMP JUMPDEST JUMPDEST PUSH1 0x0 PUSH2 0x28C6 DUP5 DUP3 DUP6 ADD PUSH2 0x288D JUMP JUMPDEST SWAP2 POP POP SWAP3 SWAP2 POP POP JUMP JUMPDEST PUSH32 0x4661696C656420746F207375626D69742E000000000000000000000000000000 PUSH1 0x0 DUP3 ADD MSTORE POP JUMP JUMPDEST PUSH1 0x0 PUSH2 0x2905 PUSH1 0x11 DUP4 PUSH2 0x1CEE JUMP JUMPDEST SWAP2 POP PUSH2 0x2910 DUP3 PUSH2 0x28CF JUMP JUMPDEST PUSH1 0x20 DUP3 ADD SWAP1 POP SWAP2 SWAP1 POP JUMP JUMPDEST PUSH1 0x0 PUSH1 0x20 DUP3 ADD SWAP1 POP DUP2 DUP2 SUB PUSH1 0x0 DUP4 ADD MSTORE PUSH2 0x2934 DUP2 PUSH2 0x28F8 JUMP JUMPDEST SWAP1 POP SWAP2 SWAP1 POP JUMP JUMPDEST PUSH1 0x0 PUSH1 0x80 DUP3 ADD SWAP1 POP PUSH2 0x2950 PUSH1 0x0 DUP4 ADD DUP8 PUSH2 0x1CD4 JUMP JUMPDEST PUSH2 0x295D PUSH1 0x20 DUP4 ADD DUP7 PUSH2 0x1CD4 JUMP JUMPDEST DUP2 DUP2 SUB PUSH1 0x40 DUP4 ADD MSTORE PUSH2 0x296F DUP2 DUP6 PUSH2 0x1D29 JUMP JUMPDEST SWAP1 POP PUSH2 0x297E PUSH1 0x60 DUP4 ADD DUP5 PUSH2 0x180C JUMP JUMPDEST SWAP6 SWAP5 POP POP POP POP POP JUMP JUMPDEST PUSH1 0x0 DUP2 SWAP1 POP SWAP2 SWAP1 POP JUMP JUMPDEST PUSH1 0x0 PUSH2 0x29AC PUSH2 0x29A7 PUSH2 0x29A2 DUP5 PUSH2 0x2987 JUMP JUMPDEST PUSH2 0x2370 JUMP JUMPDEST PUSH2 0x1802 JUMP JUMPDEST SWAP1 POP SWAP2 SWAP1 POP JUMP JUMPDEST PUSH2 0x29BC DUP2 PUSH2 0x2991 JUMP JUMPDEST DUP3 MSTORE POP POP JUMP JUMPDEST PUSH1 0x0 PUSH1 0x40 DUP3 ADD SWAP1 POP PUSH2 0x29D7 PUSH1 0x0 DUP4 ADD DUP6 PUSH2 0x1CD4 JUMP JUMPDEST PUSH2 0x29E4 PUSH1 0x20 DUP4 ADD DUP5 PUSH2 0x29B3 JUMP JUMPDEST SWAP4 SWAP3 POP POP POP JUMP JUMPDEST PUSH32 0x566F74696E6720646561646C696E652070617373656400000000000000000000 PUSH1 0x0 DUP3 ADD MSTORE POP JUMP JUMPDEST PUSH1 0x0 PUSH2 0x2A21 PUSH1 0x16 DUP4 PUSH2 0x1CEE JUMP JUMPDEST SWAP2 POP PUSH2 0x2A2C DUP3 PUSH2 0x29EB JUMP JUMPDEST PUSH1 0x20 DUP3 ADD SWAP1 POP SWAP2 SWAP1 POP JUMP JUMPDEST PUSH1 0x0 PUSH1 0x20 DUP3 ADD SWAP1 POP DUP2 DUP2 SUB PUSH1 0x0 DUP4 ADD MSTORE PUSH2 0x2A50 DUP2 PUSH2 0x2A14 JUMP JUMPDEST SWAP1 POP SWAP2 SWAP1 POP JUMP JUMPDEST PUSH1 0x0 DUP3 DUP3 MSTORE PUSH1 0x20 DUP3 ADD SWAP1 POP SWAP3 SWAP2 POP POP JUMP JUMPDEST PUSH1 0x0 PUSH2 0x2A73 DUP3 PUSH2 0x1E93 JUMP JUMPDEST PUSH2 0x2A7D DUP2 DUP6 PUSH2 0x2A57 JUMP JUMPDEST SWAP4 POP PUSH2 0x2A88 DUP4 PUSH2 0x1EAF JUMP JUMPDEST DUP1 PUSH1 0x0 JUMPDEST DUP4 DUP2 LT ISZERO PUSH2 0x2AB9 JUMPI DUP2 MLOAD PUSH2 0x2AA0 DUP9 DUP3 PUSH2 0x1EBF JUMP JUMPDEST SWAP8 POP PUSH2 0x2AAB DUP4 PUSH2 0x1ED7 JUMP JUMPDEST SWAP3 POP POP PUSH1 0x1 DUP2 ADD SWAP1 POP PUSH2 0x2A8C JUMP JUMPDEST POP DUP6 SWAP4 POP POP POP POP SWAP3 SWAP2 POP POP JUMP JUMPDEST PUSH1 0x0 PUSH1 0x80 DUP3 ADD SWAP1 POP PUSH2 0x2ADB PUSH1 0x0 DUP4 ADD DUP8 PUSH2 0x180C JUMP JUMPDEST PUSH2 0x2AE8 PUSH1 0x20 DUP4 ADD DUP7 PUSH2 0x18AF JUMP JUMPDEST PUSH2 0x2AF5 PUSH1 0x40 DUP4 ADD DUP6 PUSH2 0x180C JUMP JUMPDEST DUP2 DUP2 SUB PUSH1 0x60 DUP4 ADD MSTORE PUSH2 0x2B07 DUP2 DUP5 PUSH2 0x2A68 JUMP JUMPDEST SWAP1 POP SWAP6 SWAP5 POP POP POP POP POP JUMP JUMPDEST PUSH32 0x53656E6420736F6D652045544820746F20627579204752554C4C20546F6B656E PUSH1 0x0 DUP3 ADD MSTORE PUSH32 0x7300000000000000000000000000000000000000000000000000000000000000 PUSH1 0x20 DUP3 ADD MSTORE POP JUMP JUMPDEST PUSH1 0x0 PUSH2 0x2B6E PUSH1 0x21 DUP4 PUSH2 0x1CEE JUMP JUMPDEST SWAP2 POP PUSH2 0x2B79 DUP3 PUSH2 0x2B12 JUMP JUMPDEST PUSH1 0x40 DUP3 ADD SWAP1 POP SWAP2 SWAP1 POP JUMP JUMPDEST PUSH1 0x0 PUSH1 0x20 DUP3 ADD SWAP1 POP DUP2 DUP2 SUB PUSH1 0x0 DUP4 ADD MSTORE PUSH2 0x2B9D DUP2 PUSH2 0x2B61 JUMP JUMPDEST SWAP1 POP SWAP2 SWAP1 POP JUMP JUMPDEST PUSH1 0x0 PUSH2 0x2BAF DUP3 PUSH2 0x1802 JUMP JUMPDEST SWAP2 POP PUSH2 0x2BBA DUP4 PUSH2 0x1802 JUMP JUMPDEST SWAP3 POP DUP3 DUP3 SUB SWAP1 POP DUP2 DUP2 GT ISZERO PUSH2 0x2BD2 JUMPI PUSH2 0x2BD1 PUSH2 0x2215 JUMP JUMPDEST JUMPDEST SWAP3 SWAP2 POP POP JUMP JUMPDEST PUSH32 0x43616E206F6E6C79207075726368617365206F6E636520657665727920323420 PUSH1 0x0 DUP3 ADD MSTORE PUSH32 0x686F757273000000000000000000000000000000000000000000000000000000 PUSH1 0x20 DUP3 ADD MSTORE POP JUMP JUMPDEST PUSH1 0x0 PUSH2 0x2C34 PUSH1 0x25 DUP4 PUSH2 0x1CEE JUMP JUMPDEST SWAP2 POP PUSH2 0x2C3F DUP3 PUSH2 0x2BD8 JUMP JUMPDEST PUSH1 0x40 DUP3 ADD SWAP1 POP SWAP2 SWAP1 POP JUMP JUMPDEST PUSH1 0x0 PUSH1 0x20 DUP3 ADD SWAP1 POP DUP2 DUP2 SUB PUSH1 0x0 DUP4 ADD MSTORE PUSH2 0x2C63 DUP2 PUSH2 0x2C27 JUMP JUMPDEST SWAP1 POP SWAP2 SWAP1 POP JUMP JUMPDEST PUSH1 0x0 PUSH2 0x2C75 DUP3 PUSH2 0x1802 JUMP JUMPDEST SWAP2 POP PUSH2 0x2C80 DUP4 PUSH2 0x1802 JUMP JUMPDEST SWAP3 POP DUP3 DUP3 MUL PUSH2 0x2C8E DUP2 PUSH2 0x1802 JUMP JUMPDEST SWAP2 POP DUP3 DUP3 DIV DUP5 EQ DUP4 ISZERO OR PUSH2 0x2CA5 JUMPI PUSH2 0x2CA4 PUSH2 0x2215 JUMP JUMPDEST JUMPDEST POP SWAP3 SWAP2 POP POP JUMP JUMPDEST PUSH32 0x4E487B7100000000000000000000000000000000000000000000000000000000 PUSH1 0x0 MSTORE PUSH1 0x12 PUSH1 0x4 MSTORE PUSH1 0x24 PUSH1 0x0 REVERT JUMPDEST PUSH1 0x0 PUSH2 0x2CE6 DUP3 PUSH2 0x1802 JUMP JUMPDEST SWAP2 POP PUSH2 0x2CF1 DUP4 PUSH2 0x1802 JUMP JUMPDEST SWAP3 POP DUP3 PUSH2 0x2D01 JUMPI PUSH2 0x2D00 PUSH2 0x2CAC JUMP JUMPDEST JUMPDEST DUP3 DUP3 DIV SWAP1 POP SWAP3 SWAP2 POP POP JUMP JUMPDEST PUSH32 0x45786365656473207075726368617365206C696D697400000000000000000000 PUSH1 0x0 DUP3 ADD MSTORE POP JUMP JUMPDEST PUSH1 0x0 PUSH2 0x2D42 PUSH1 0x16 DUP4 PUSH2 0x1CEE JUMP JUMPDEST SWAP2 POP PUSH2 0x2D4D DUP3 PUSH2 0x2D0C JUMP JUMPDEST PUSH1 0x20 DUP3 ADD SWAP1 POP SWAP2 SWAP1 POP JUMP JUMPDEST PUSH1 0x0 PUSH1 0x20 DUP3 ADD SWAP1 POP DUP2 DUP2 SUB PUSH1 0x0 DUP4 ADD MSTORE PUSH2 0x2D71 DUP2 PUSH2 0x2D35 JUMP JUMPDEST SWAP1 POP SWAP2 SWAP1 POP JUMP JUMPDEST PUSH1 0x0 PUSH1 0x40 DUP3 ADD SWAP1 POP PUSH2 0x2D8D PUSH1 0x0 DUP4 ADD DUP6 PUSH2 0x1CD4 JUMP JUMPDEST PUSH2 0x2D9A PUSH1 0x20 DUP4 ADD DUP5 PUSH2 0x180C JUMP JUMPDEST SWAP4 SWAP3 POP POP POP JUMP JUMPDEST PUSH32 0x4469737075746520697320616C7265616479207265736F6C7665640000000000 PUSH1 0x0 DUP3 ADD MSTORE POP JUMP JUMPDEST PUSH1 0x0 PUSH2 0x2DD7 PUSH1 0x1B DUP4 PUSH2 0x1CEE JUMP JUMPDEST SWAP2 POP PUSH2 0x2DE2 DUP3 PUSH2 0x2DA1 JUMP JUMPDEST PUSH1 0x20 DUP3 ADD SWAP1 POP SWAP2 SWAP1 POP JUMP JUMPDEST PUSH1 0x0 PUSH1 0x20 DUP3 ADD SWAP1 POP DUP2 DUP2 SUB PUSH1 0x0 DUP4 ADD MSTORE PUSH2 0x2E06 DUP2 PUSH2 0x2DCA JUMP JUMPDEST SWAP1 POP SWAP2 SWAP1 POP JUMP JUMPDEST PUSH32 0x4163636573732064656E69656400000000000000000000000000000000000000 PUSH1 0x0 DUP3 ADD MSTORE POP JUMP JUMPDEST PUSH1 0x0 PUSH2 0x2E43 PUSH1 0xD DUP4 PUSH2 0x1CEE JUMP JUMPDEST SWAP2 POP PUSH2 0x2E4E DUP3 PUSH2 0x2E0D JUMP JUMPDEST PUSH1 0x20 DUP3 ADD SWAP1 POP SWAP2 SWAP1 POP JUMP JUMPDEST PUSH1 0x0 PUSH1 0x20 DUP3 ADD SWAP1 POP DUP2 DUP2 SUB PUSH1 0x0 DUP4 ADD MSTORE PUSH2 0x2E72 DUP2 PUSH2 0x2E36 JUMP JUMPDEST SWAP1 POP SWAP2 SWAP1 POP JUMP JUMPDEST PUSH1 0x0 DUP2 MLOAD SWAP1 POP PUSH2 0x2E88 DUP2 PUSH2 0x190B JUMP JUMPDEST SWAP3 SWAP2 POP POP JUMP JUMPDEST PUSH1 0x0 DUP1 PUSH1 0x40 DUP4 DUP6 SUB SLT ISZERO PUSH2 0x2EA5 JUMPI PUSH2 0x2EA4 PUSH2 0x1840 JUMP JUMPDEST JUMPDEST PUSH1 0x0 PUSH2 0x2EB3 DUP6 DUP3 DUP7 ADD PUSH2 0x288D JUMP JUMPDEST SWAP3 POP POP PUSH1 0x20 PUSH2 0x2EC4 DUP6 DUP3 DUP7 ADD PUSH2 0x2E79 JUMP JUMPDEST SWAP2 POP POP SWAP3 POP SWAP3 SWAP1 POP JUMP JUMPDEST PUSH32 0x4572726F72207769746820736574746C656D656E740000000000000000000000 PUSH1 0x0 DUP3 ADD MSTORE POP JUMP JUMPDEST PUSH1 0x0 PUSH2 0x2F04 PUSH1 0x15 DUP4 PUSH2 0x1CEE JUMP JUMPDEST SWAP2 POP PUSH2 0x2F0F DUP3 PUSH2 0x2ECE JUMP JUMPDEST PUSH1 0x20 DUP3 ADD SWAP1 POP SWAP2 SWAP1 POP JUMP JUMPDEST PUSH1 0x0 PUSH1 0x20 DUP3 ADD SWAP1 POP DUP2 DUP2 SUB PUSH1 0x0 DUP4 ADD MSTORE PUSH2 0x2F33 DUP2 PUSH2 0x2EF7 JUMP JUMPDEST SWAP1 POP SWAP2 SWAP1 POP JUMP JUMPDEST PUSH1 0x0 DUP2 MLOAD SWAP1 POP PUSH2 0x2F49 DUP2 PUSH2 0x184A JUMP JUMPDEST SWAP3 SWAP2 POP POP JUMP JUMPDEST PUSH1 0x0 PUSH1 0x20 DUP3 DUP5 SUB SLT ISZERO PUSH2 0x2F65 JUMPI PUSH2 0x2F64 PUSH2 0x1840 JUMP JUMPDEST JUMPDEST PUSH1 0x0 PUSH2 0x2F73 DUP5 DUP3 DUP6 ADD PUSH2 0x2F3A JUMP JUMPDEST SWAP2 POP POP SWAP3 SWAP2 POP POP JUMP JUMPDEST PUSH1 0x0 PUSH2 0x2F87 DUP3 PUSH2 0x1802 JUMP JUMPDEST SWAP2 POP PUSH2 0x2F92 DUP4 PUSH2 0x1802 JUMP JUMPDEST SWAP3 POP DUP3 DUP3 ADD SWAP1 POP DUP1 DUP3 GT ISZERO PUSH2 0x2FAA JUMPI PUSH2 0x2FA9 PUSH2 0x2215 JUMP JUMPDEST JUMPDEST SWAP3 SWAP2 POP POP JUMP INVALID LOG2 PUSH5 0x6970667358 0x22 SLT KECCAK256 0xF7 0xBE EXTCODEHASH SSTORE SDIV PREVRANDAO DUP6 0xB3 KECCAK256 PUSH24 0x72042D3890A664F4AC7055268234A10BA6728D74C816473 PUSH16 0x6C634300081B00330000000000000000 "
        },
        "methodIdentifiers": {
          "buyGRULL()": "71a753c3",
          "calculatePrice()": "d348b409",
          "createDispute(address,address,string,uint256,uint256[])": "222219e6",
          "disputes(uint256)": "564a565d",
          "getDispute(uint256)": "e3a96cbd",
          "getDisputeCount()": "10987b77",
          "getDisputeResolved(uint256)": "9b89d4fd",
          "getDisputeStatus(uint256)": "20f7aa3f",
          "lastPurchase(address)": "421da68a",
          "owner()": "8da5cb5b",
          "renounceOwnership()": "715018a6",
          "setApproveDisputeHandler()": "4394a7fe",
          "stakeAndVote(uint256,bool,uint256,uint256[])": "48dbec2e",
          "transferOwnership(address)": "f2fde38b"
        }
      }
    }
  }
}