{
  "contracts/DISPUTE_HANDLER.sol": {
    "DisputeHandler": {
      "abi": [
        {
          "inputs": [
            {
              "internalType": "address",
              "name": "_grullToken",
              "type": "address"
            }
          ],
          "stateMutability": "nonpayable",
          "type": "constructor"
        },
        {
          "inputs": [
            {
              "internalType": "address",
              "name": "owner",
              "type": "address"
            }
          ],
          "name": "OwnableInvalidOwner",
          "type": "error"
        },
        {
          "inputs": [
            {
              "internalType": "address",
              "name": "account",
              "type": "address"
            }
          ],
          "name": "OwnableUnauthorizedAccount",
          "type": "error"
        },
        {
          "anonymous": false,
          "inputs": [
            {
              "indexed": false,
              "internalType": "uint256",
              "name": "disputeId",
              "type": "uint256"
            },
            {
              "indexed": false,
              "internalType": "address",
              "name": "winner",
              "type": "address"
            },
            {
              "indexed": false,
              "internalType": "address",
              "name": "loser",
              "type": "address"
            }
          ],
          "name": "DisputeSettled",
          "type": "event"
        },
        {
          "anonymous": false,
          "inputs": [
            {
              "indexed": true,
              "internalType": "address",
              "name": "previousOwner",
              "type": "address"
            },
            {
              "indexed": true,
              "internalType": "address",
              "name": "newOwner",
              "type": "address"
            }
          ],
          "name": "OwnershipTransferred",
          "type": "event"
        },
        {
          "inputs": [],
          "name": "GRULL_TOKEN_ADDRESS",
          "outputs": [
            {
              "internalType": "address",
              "name": "",
              "type": "address"
            }
          ],
          "stateMutability": "view",
          "type": "function"
        },
        {
          "inputs": [
            {
              "internalType": "uint256",
              "name": "",
              "type": "uint256"
            }
          ],
          "name": "disputes",
          "outputs": [
            {
              "internalType": "uint256",
              "name": "id",
              "type": "uint256"
            },
            {
              "internalType": "address",
              "name": "clientA",
              "type": "address"
            },
            {
              "internalType": "address",
              "name": "clientB",
              "type": "address"
            },
            {
              "internalType": "uint256",
              "name": "votingDeadline",
              "type": "uint256"
            },
            {
              "internalType": "bool",
              "name": "isResolved",
              "type": "bool"
            },
            {
              "internalType": "uint256",
              "name": "totalStaked",
              "type": "uint256"
            },
            {
              "internalType": "uint256",
              "name": "votesForA",
              "type": "uint256"
            },
            {
              "internalType": "uint256",
              "name": "votesForB",
              "type": "uint256"
            }
          ],
          "stateMutability": "view",
          "type": "function"
        },
        {
          "inputs": [],
          "name": "getGRULLOwnership",
          "outputs": [],
          "stateMutability": "nonpayable",
          "type": "function"
        },
        {
          "inputs": [],
          "name": "grullToken",
          "outputs": [
            {
              "internalType": "contract IERC20",
              "name": "",
              "type": "address"
            }
          ],
          "stateMutability": "view",
          "type": "function"
        },
        {
          "inputs": [
            {
              "components": [
                {
                  "internalType": "uint256",
                  "name": "id",
                  "type": "uint256"
                },
                {
                  "internalType": "address",
                  "name": "creator",
                  "type": "address"
                },
                {
                  "internalType": "address",
                  "name": "clientA",
                  "type": "address"
                },
                {
                  "internalType": "address",
                  "name": "clientB",
                  "type": "address"
                },
                {
                  "internalType": "string",
                  "name": "description",
                  "type": "string"
                },
                {
                  "internalType": "uint256[]",
                  "name": "skillsReqd",
                  "type": "uint256[]"
                },
                {
                  "internalType": "uint256",
                  "name": "votingDeadline",
                  "type": "uint256"
                },
                {
                  "internalType": "bool",
                  "name": "isResolved",
                  "type": "bool"
                },
                {
                  "internalType": "address",
                  "name": "winner",
                  "type": "address"
                }
              ],
              "internalType": "struct IMARKETPLACE.Dispute",
              "name": "_newDispute",
              "type": "tuple"
            },
            {
              "internalType": "uint256",
              "name": "disputeCount",
              "type": "uint256"
            }
          ],
          "name": "handleCreateDispute",
          "outputs": [
            {
              "internalType": "bool",
              "name": "",
              "type": "bool"
            }
          ],
          "stateMutability": "nonpayable",
          "type": "function"
        },
        {
          "inputs": [
            {
              "internalType": "uint256",
              "name": "stakedAmount",
              "type": "uint256"
            },
            {
              "internalType": "uint256[]",
              "name": "jurySkills",
              "type": "uint256[]"
            },
            {
              "internalType": "uint256[]",
              "name": "requiredSkills",
              "type": "uint256[]"
            }
          ],
          "name": "normaliser",
          "outputs": [
            {
              "internalType": "uint256",
              "name": "",
              "type": "uint256"
            }
          ],
          "stateMutability": "pure",
          "type": "function"
        },
        {
          "inputs": [],
          "name": "owner",
          "outputs": [
            {
              "internalType": "address",
              "name": "",
              "type": "address"
            }
          ],
          "stateMutability": "view",
          "type": "function"
        },
        {
          "inputs": [],
          "name": "renounceOwnership",
          "outputs": [],
          "stateMutability": "nonpayable",
          "type": "function"
        },
        {
          "inputs": [
            {
              "internalType": "address",
              "name": "_address",
              "type": "address"
            }
          ],
          "name": "setGRULLApproveal",
          "outputs": [
            {
              "internalType": "bool",
              "name": "",
              "type": "bool"
            }
          ],
          "stateMutability": "nonpayable",
          "type": "function"
        },
        {
          "inputs": [
            {
              "internalType": "uint256",
              "name": "disputeId",
              "type": "uint256"
            }
          ],
          "name": "settleDispute",
          "outputs": [
            {
              "internalType": "bool",
              "name": "",
              "type": "bool"
            },
            {
              "internalType": "address",
              "name": "",
              "type": "address"
            }
          ],
          "stateMutability": "nonpayable",
          "type": "function"
        },
        {
          "inputs": [
            {
              "internalType": "uint256",
              "name": "disputeId",
              "type": "uint256"
            },
            {
              "internalType": "bool",
              "name": "voteForA",
              "type": "bool"
            },
            {
              "internalType": "uint256",
              "name": "stakeAmount",
              "type": "uint256"
            },
            {
              "internalType": "uint256[]",
              "name": "skills",
              "type": "uint256[]"
            }
          ],
          "name": "stakeAndVote",
          "outputs": [],
          "stateMutability": "nonpayable",
          "type": "function"
        },
        {
          "inputs": [
            {
              "internalType": "address",
              "name": "newOwner",
              "type": "address"
            }
          ],
          "name": "transferOwnership",
          "outputs": [],
          "stateMutability": "nonpayable",
          "type": "function"
        },
        {
          "inputs": [],
          "name": "withdrawFunds",
          "outputs": [],
          "stateMutability": "payable",
          "type": "function"
        }
      ],
      "evm": {
        "bytecode": {
          "linkReferences": {},
          "object": "60a060405234801561001057600080fd5b50604051612cc5380380612cc583398181016040528101906100329190610257565b33600073ffffffffffffffffffffffffffffffffffffffff168173ffffffffffffffffffffffffffffffffffffffff16036100a55760006040517f1e4fbdf700000000000000000000000000000000000000000000000000000000815260040161009c9190610293565b60405180910390fd5b6100b48161013060201b60201c565b508073ffffffffffffffffffffffffffffffffffffffff1660808173ffffffffffffffffffffffffffffffffffffffff168152505080600260006101000a81548173ffffffffffffffffffffffffffffffffffffffff021916908373ffffffffffffffffffffffffffffffffffffffff160217905550506102ae565b60008060009054906101000a900473ffffffffffffffffffffffffffffffffffffffff169050816000806101000a81548173ffffffffffffffffffffffffffffffffffffffff021916908373ffffffffffffffffffffffffffffffffffffffff1602179055508173ffffffffffffffffffffffffffffffffffffffff168173ffffffffffffffffffffffffffffffffffffffff167f8be0079c531659141344cd1fd0a4f28419497f9722a3daafe3b4186f6b6457e060405160405180910390a35050565b600080fd5b600073ffffffffffffffffffffffffffffffffffffffff82169050919050565b6000610224826101f9565b9050919050565b61023481610219565b811461023f57600080fd5b50565b6000815190506102518161022b565b92915050565b60006020828403121561026d5761026c6101f4565b5b600061027b84828501610242565b91505092915050565b61028d81610219565b82525050565b60006020820190506102a86000830184610284565b92915050565b6080516129ee6102d76000396000818161076501528181610c4b0152610ead01526129ee6000f3fe6080604052600436106100c25760003560e01c80638da5cb5b1161007f578063c9cf5ddf11610059578063c9cf5ddf1461023d578063f2fde38b14610268578063f5d4663514610291578063ff65cdae146102ce576100c2565b80638da5cb5b146101be578063a2d687ef146101e9578063c4b9c72e14610200576100c2565b80631c099ad6146100c757806324600fc3146101055780633c4cd4771461010f57806348dbec2e1461013a578063564a565d14610163578063715018a6146101a7575b600080fd5b3480156100d357600080fd5b506100ee60048036038101906100e99190611c65565b61030b565b6040516100fc929190611cee565b60405180910390f35b61010d6106a9565b005b34801561011b57600080fd5b50610124610763565b6040516101319190611d17565b60405180910390f35b34801561014657600080fd5b50610161600480360381019061015c9190611eb7565b610787565b005b34801561016f57600080fd5b5061018a60048036038101906101859190611c65565b610b6f565b60405161019e989796959493929190611f49565b60405180910390f35b3480156101b357600080fd5b506101bc610c04565b005b3480156101ca57600080fd5b506101d3610c18565b6040516101e09190611d17565b60405180910390f35b3480156101f557600080fd5b506101fe610c41565b005b34801561020c57600080fd5b50610227600480360381019061022291906121ca565b610cd6565b6040516102349190612226565b60405180910390f35b34801561024957600080fd5b50610252610df5565b60405161025f91906122a0565b60405180910390f35b34801561027457600080fd5b5061028f600480360381019061028a91906122bb565b610e1b565b005b34801561029d57600080fd5b506102b860048036038101906102b391906122bb565b610ea1565b6040516102c59190612226565b60405180910390f35b3480156102da57600080fd5b506102f560048036038101906102f091906122e8565b610f5d565b6040516103029190612373565b60405180910390f35b60008060006001600085815260200190815260200160002090508060050160009054906101000a900460ff1615610377576040517f08c379a000000000000000000000000000000000000000000000000000000000815260040161036e906123eb565b60405180910390fd5b428160040154106103bd576040517f08c379a00000000000000000000000000000000000000000000000000000000081526004016103b490612457565b60405180910390fd5b6000816008015482600701546103d391906124a6565b905060006064603c836103e691906124da565b6103f0919061254b565b905060006103fe87836110e1565b905060008060005b835181101561058557600087600901600086848151811061042a5761042961257c565b5b602002602001015173ffffffffffffffffffffffffffffffffffffffff1673ffffffffffffffffffffffffffffffffffffffff168152602001908152602001600020905060018160030160006101000a81548160ff021916908315150217905550600061053b826002018054806020026020016040519081016040528092919081815260200182805480156104de57602002820191906000526020600020905b8154815260200190600101908083116104ca575b50505050508a60030180548060200260200160405190810160405280929190818152602001828054801561053157602002820191906000526020600020905b81548152602001906001019080831161051d575b5050505050611277565b90508160030160019054906101000a900460ff161561056757808561056091906124a6565b9450610576565b808461057391906124a6565b93505b50508080600101915050610406565b50600080828411156105e4578760010160009054906101000a900473ffffffffffffffffffffffffffffffffffffffff1691508760020160009054906101000a900473ffffffffffffffffffffffffffffffffffffffff169050610633565b8760020160009054906101000a900473ffffffffffffffffffffffffffffffffffffffff1691508760010160009054906101000a900473ffffffffffffffffffffffffffffffffffffffff1690505b61063d8b83611306565b60018860050160006101000a81548160ff0219169083151502179055507f35877583839d988b6da68ba7e2b2836d26c0d18b83d80943b5633ded778bc4fc8b838360405161068d939291906125ab565b60405180910390a1600182995099505050505050505050915091565b6106b1611a33565b6000803373ffffffffffffffffffffffffffffffffffffffff16346040516106d890612613565b60006040518083038185875af1925050503d8060008114610715576040519150601f19603f3d011682016040523d82523d6000602084013e61071a565b606091505b50915091508161075f576040517f08c379a000000000000000000000000000000000000000000000000000000000815260040161075690612674565b60405180910390fd5b5050565b7f000000000000000000000000000000000000000000000000000000000000000081565b426001600086815260200190815260200160002060040154116107df576040517f08c379a00000000000000000000000000000000000000000000000000000000081526004016107d6906126e0565b60405180910390fd5b60006001600086815260200190815260200160002060090160003373ffffffffffffffffffffffffffffffffffffffff1673ffffffffffffffffffffffffffffffffffffffff1681526020019081526020016000206001015414610878576040517f08c379a000000000000000000000000000000000000000000000000000000000815260040161086f9061274c565b60405180910390fd5b600260009054906101000a900473ffffffffffffffffffffffffffffffffffffffff1673ffffffffffffffffffffffffffffffffffffffff166323b872dd3230856040518463ffffffff1660e01b81526004016108d79392919061276c565b6020604051808303816000875af11580156108f6573d6000803e3d6000fd5b505050506040513d601f19601f8201168201806040525081019061091a91906127b8565b506040518060a001604052803373ffffffffffffffffffffffffffffffffffffffff1681526020018381526020018281526020016000151581526020018415158152506001600086815260200190815260200160002060090160003373ffffffffffffffffffffffffffffffffffffffff1673ffffffffffffffffffffffffffffffffffffffff16815260200190815260200160002060008201518160000160006101000a81548173ffffffffffffffffffffffffffffffffffffffff021916908373ffffffffffffffffffffffffffffffffffffffff160217905550602082015181600101556040820151816002019080519060200190610a1d929190611bb1565b5060608201518160030160006101000a81548160ff02191690831515021790555060808201518160030160016101000a81548160ff02191690831515021790555090505060016000858152602001908152602001600020600a01339080600181540180825580915050600190039060005260206000200160009091909190916101000a81548173ffffffffffffffffffffffffffffffffffffffff021916908373ffffffffffffffffffffffffffffffffffffffff16021790555081600160008681526020019081526020016000206006016000828254610afe91906124a6565b925050819055508215610b3c57600160008581526020019081526020016000206007016000815480929190610b32906127e5565b9190505550610b69565b600160008581526020019081526020016000206008016000815480929190610b63906127e5565b91905055505b50505050565b60016020528060005260406000206000915090508060000154908060010160009054906101000a900473ffffffffffffffffffffffffffffffffffffffff16908060020160009054906101000a900473ffffffffffffffffffffffffffffffffffffffff16908060040154908060050160009054906101000a900460ff16908060060154908060070154908060080154905088565b610c0c611a33565b610c166000611aba565b565b60008060009054906101000a900473ffffffffffffffffffffffffffffffffffffffff16905090565b610c49611a33565b7f000000000000000000000000000000000000000000000000000000000000000073ffffffffffffffffffffffffffffffffffffffff1663f2fde38b336040518263ffffffff1660e01b8152600401610ca29190611d17565b600060405180830381600087803b158015610cbc57600080fd5b505af1158015610cd0573d6000803e3d6000fd5b50505050565b60008060016000848152602001908152602001600020905082816000018190555083604001518160010160006101000a81548173ffffffffffffffffffffffffffffffffffffffff021916908373ffffffffffffffffffffffffffffffffffffffff16021790555083606001518160020160006101000a81548173ffffffffffffffffffffffffffffffffffffffff021916908373ffffffffffffffffffffffffffffffffffffffff1602179055508360a00151816003019080519060200190610da1929190611bb1565b508360c00151816004018190555060008160050160006101000a81548160ff021916908315150217905550600081600601819055506000816007018190555060008160080181905550600191505092915050565b600260009054906101000a900473ffffffffffffffffffffffffffffffffffffffff1681565b610e23611a33565b600073ffffffffffffffffffffffffffffffffffffffff168173ffffffffffffffffffffffffffffffffffffffff1603610e955760006040517f1e4fbdf7000000000000000000000000000000000000000000000000000000008152600401610e8c9190611d17565b60405180910390fd5b610e9e81611aba565b50565b6000610eab611a33565b7f000000000000000000000000000000000000000000000000000000000000000073ffffffffffffffffffffffffffffffffffffffff1663095ea7b38369d3c21bcecceda10000006040518363ffffffff1660e01b8152600401610f10929190612868565b6020604051808303816000875af1158015610f2f573d6000803e3d6000fd5b505050506040513d601f19601f82011682018060405250810190610f5391906127b8565b5060019050919050565b6000806000905060008351905060008111610fad576040517f08c379a0000000000000000000000000000000000000000000000000000000008152600401610fa490612903565b60405180910390fd5b60005b8181101561102d5760005b865181101561101f57868181518110610fd757610fd661257c565b5b6020026020010151868381518110610ff257610ff161257c565b5b60200260200101510361101257838061100a906127e5565b94505061101f565b8080600101915050610fbb565b508080600101915050610fb0565b506000601e9050600060469050600080890361104c5760009050611084565b6110576103e9611b7e565b61106c60018b61106791906124a6565b611b7e565b8461107791906124da565b611081919061254b565b90505b600084838761109391906124da565b61109d919061254b565b9050600081836110ad91906124a6565b905060648111156110c157606490506110d0565b60018110156110cf57600190505b5b809750505050505050509392505050565b60606000600160008581526020019081526020016000209050600081600a0180548060200260200160405190810160405280929190818152602001828054801561118057602002820191906000526020600020905b8160009054906101000a900473ffffffffffffffffffffffffffffffffffffffff1673ffffffffffffffffffffffffffffffffffffffff1681526020019060010190808311611136575b5050505050905060008151851061119857815161119a565b845b905060008167ffffffffffffffff8111156111b8576111b7611d74565b5b6040519080825280602002602001820160405280156111e65781602001602082028036833780820191505090505b50905060005b82811015611269578381815181106112075761120661257c565b5b60200260200101518282815181106112225761122161257c565b5b602002602001019073ffffffffffffffffffffffffffffffffffffffff16908173ffffffffffffffffffffffffffffffffffffffff168152505080806001019150506111ec565b508094505050505092915050565b6000806000905060005b84518110156112fb5760005b84518110156112ed578481815181106112a9576112a861257c565b5b60200260200101518683815181106112c4576112c361257c565b5b6020026020010151036112e05782806112dc906127e5565b9350505b808060010191505061128d565b508080600101915050611281565b508091505092915050565b60006001600084815260200190815260200160002090506000805b82600a01805490508110156115a657600083600901600085600a01848154811061134e5761134d61257c565b5b9060005260206000200160009054906101000a900473ffffffffffffffffffffffffffffffffffffffff1673ffffffffffffffffffffffffffffffffffffffff1673ffffffffffffffffffffffffffffffffffffffff1681526020019081526020016000206040518060a00160405290816000820160009054906101000a900473ffffffffffffffffffffffffffffffffffffffff1673ffffffffffffffffffffffffffffffffffffffff1673ffffffffffffffffffffffffffffffffffffffff168152602001600182015481526020016002820180548060200260200160405190810160405280929190818152602001828054801561146d57602002820191906000526020600020905b815481526020019060010190808311611459575b505050505081526020016003820160009054906101000a900460ff161515151581526020016003820160019054906101000a900460ff1615151515815250509050806060015115611598578060800151801561151857508360010160009054906101000a900473ffffffffffffffffffffffffffffffffffffffff1673ffffffffffffffffffffffffffffffffffffffff168573ffffffffffffffffffffffffffffffffffffffff16145b806115805750806080015115801561157f57508360020160009054906101000a900473ffffffffffffffffffffffffffffffffffffffff1673ffffffffffffffffffffffffffffffffffffffff168573ffffffffffffffffffffffffffffffffffffffff16145b5b6115975780602001518361159491906124a6565b92505b5b508080600101915050611321565b5060005b82600a0180549050811015611a2c57600083600901600085600a0184815481106115d7576115d661257c565b5b9060005260206000200160009054906101000a900473ffffffffffffffffffffffffffffffffffffffff1673ffffffffffffffffffffffffffffffffffffffff1673ffffffffffffffffffffffffffffffffffffffff1681526020019081526020016000206040518060a00160405290816000820160009054906101000a900473ffffffffffffffffffffffffffffffffffffffff1673ffffffffffffffffffffffffffffffffffffffff1673ffffffffffffffffffffffffffffffffffffffff16815260200160018201548152602001600282018054806020026020016040519081016040528092919081815260200182805480156116f657602002820191906000526020600020905b8154815260200190600101908083116116e2575b505050505081526020016003820160009054906101000a900460ff161515151581526020016003820160019054906101000a900460ff1615151515815250509050806060015115611a1e57806080015180156117a157508360010160009054906101000a900473ffffffffffffffffffffffffffffffffffffffff1673ffffffffffffffffffffffffffffffffffffffff168573ffffffffffffffffffffffffffffffffffffffff16145b806118095750806080015115801561180857508360020160009054906101000a900473ffffffffffffffffffffffffffffffffffffffff1673ffffffffffffffffffffffffffffffffffffffff168573ffffffffffffffffffffffffffffffffffffffff16145b5b1561192f57600084600601548260200151611824919061254b565b8461182f91906124da565b826020015161183e91906124a6565b90506000600260009054906101000a900473ffffffffffffffffffffffffffffffffffffffff1673ffffffffffffffffffffffffffffffffffffffff1663a9059cbb8460000151846040518363ffffffff1660e01b81526004016118a3929190612923565b6020604051808303816000875af11580156118c2573d6000803e3d6000fd5b505050506040513d601f19601f820116820180604052508101906118e691906127b8565b905080611928576040517f08c379a000000000000000000000000000000000000000000000000000000000815260040161191f90612998565b60405180910390fd5b5050611a1d565b6000600260009054906101000a900473ffffffffffffffffffffffffffffffffffffffff1673ffffffffffffffffffffffffffffffffffffffff1663a9059cbb836000015184602001516040518363ffffffff1660e01b8152600401611996929190612923565b6020604051808303816000875af11580156119b5573d6000803e3d6000fd5b505050506040513d601f19601f820116820180604052508101906119d991906127b8565b905080611a1b576040517f08c379a0000000000000000000000000000000000000000000000000000000008152600401611a1290612998565b60405180910390fd5b505b5b5080806001019150506115aa565b5050505050565b611a3b611ba9565b73ffffffffffffffffffffffffffffffffffffffff16611a59610c18565b73ffffffffffffffffffffffffffffffffffffffff1614611ab857611a7c611ba9565b6040517f118cdaa7000000000000000000000000000000000000000000000000000000008152600401611aaf9190611d17565b60405180910390fd5b565b60008060009054906101000a900473ffffffffffffffffffffffffffffffffffffffff169050816000806101000a81548173ffffffffffffffffffffffffffffffffffffffff021916908373ffffffffffffffffffffffffffffffffffffffff1602179055508173ffffffffffffffffffffffffffffffffffffffff168173ffffffffffffffffffffffffffffffffffffffff167f8be0079c531659141344cd1fd0a4f28419497f9722a3daafe3b4186f6b6457e060405160405180910390a35050565b60005b6001821115611ba457600182901c91508080611b9c906127e5565b915050611b81565b919050565b600033905090565b828054828255906000526020600020908101928215611bed579160200282015b82811115611bec578251825591602001919060010190611bd1565b5b509050611bfa9190611bfe565b5090565b5b80821115611c17576000816000905550600101611bff565b5090565b6000604051905090565b600080fd5b600080fd5b6000819050919050565b611c4281611c2f565b8114611c4d57600080fd5b50565b600081359050611c5f81611c39565b92915050565b600060208284031215611c7b57611c7a611c25565b5b6000611c8984828501611c50565b91505092915050565b60008115159050919050565b611ca781611c92565b82525050565b600073ffffffffffffffffffffffffffffffffffffffff82169050919050565b6000611cd882611cad565b9050919050565b611ce881611ccd565b82525050565b6000604082019050611d036000830185611c9e565b611d106020830184611cdf565b9392505050565b6000602082019050611d2c6000830184611cdf565b92915050565b611d3b81611c92565b8114611d4657600080fd5b50565b600081359050611d5881611d32565b92915050565b600080fd5b6000601f19601f8301169050919050565b7f4e487b7100000000000000000000000000000000000000000000000000000000600052604160045260246000fd5b611dac82611d63565b810181811067ffffffffffffffff82111715611dcb57611dca611d74565b5b80604052505050565b6000611dde611c1b565b9050611dea8282611da3565b919050565b600067ffffffffffffffff821115611e0a57611e09611d74565b5b602082029050602081019050919050565b600080fd5b6000611e33611e2e84611def565b611dd4565b90508083825260208201905060208402830185811115611e5657611e55611e1b565b5b835b81811015611e7f5780611e6b8882611c50565b845260208401935050602081019050611e58565b5050509392505050565b600082601f830112611e9e57611e9d611d5e565b5b8135611eae848260208601611e20565b91505092915050565b60008060008060808587031215611ed157611ed0611c25565b5b6000611edf87828801611c50565b9450506020611ef087828801611d49565b9350506040611f0187828801611c50565b925050606085013567ffffffffffffffff811115611f2257611f21611c2a565b5b611f2e87828801611e89565b91505092959194509250565b611f4381611c2f565b82525050565b600061010082019050611f5f600083018b611f3a565b611f6c602083018a611cdf565b611f796040830189611cdf565b611f866060830188611f3a565b611f936080830187611c9e565b611fa060a0830186611f3a565b611fad60c0830185611f3a565b611fba60e0830184611f3a565b9998505050505050505050565b600080fd5b600080fd5b611fda81611ccd565b8114611fe557600080fd5b50565b600081359050611ff781611fd1565b92915050565b600080fd5b600067ffffffffffffffff82111561201d5761201c611d74565b5b61202682611d63565b9050602081019050919050565b82818337600083830152505050565b600061205561205084612002565b611dd4565b90508281526020810184848401111561207157612070611ffd565b5b61207c848285612033565b509392505050565b600082601f83011261209957612098611d5e565b5b81356120a9848260208601612042565b91505092915050565b600061012082840312156120c9576120c8611fc7565b5b6120d4610120611dd4565b905060006120e484828501611c50565b60008301525060206120f884828501611fe8565b602083015250604061210c84828501611fe8565b604083015250606061212084828501611fe8565b606083015250608082013567ffffffffffffffff81111561214457612143611fcc565b5b61215084828501612084565b60808301525060a082013567ffffffffffffffff81111561217457612173611fcc565b5b61218084828501611e89565b60a08301525060c061219484828501611c50565b60c08301525060e06121a884828501611d49565b60e0830152506101006121bd84828501611fe8565b6101008301525092915050565b600080604083850312156121e1576121e0611c25565b5b600083013567ffffffffffffffff8111156121ff576121fe611c2a565b5b61220b858286016120b2565b925050602061221c85828601611c50565b9150509250929050565b600060208201905061223b6000830184611c9e565b92915050565b6000819050919050565b600061226661226161225c84611cad565b612241565b611cad565b9050919050565b60006122788261224b565b9050919050565b600061228a8261226d565b9050919050565b61229a8161227f565b82525050565b60006020820190506122b56000830184612291565b92915050565b6000602082840312156122d1576122d0611c25565b5b60006122df84828501611fe8565b91505092915050565b60008060006060848603121561230157612300611c25565b5b600061230f86828701611c50565b935050602084013567ffffffffffffffff8111156123305761232f611c2a565b5b61233c86828701611e89565b925050604084013567ffffffffffffffff81111561235d5761235c611c2a565b5b61236986828701611e89565b9150509250925092565b60006020820190506123886000830184611f3a565b92915050565b600082825260208201905092915050565b7f4469737075746520616c7265616479207265736f6c7665640000000000000000600082015250565b60006123d560188361238e565b91506123e08261239f565b602082019050919050565b60006020820190508181036000830152612404816123c8565b9050919050565b7f566f74696e67207374696c6c206f6e676f696e67000000000000000000000000600082015250565b600061244160148361238e565b915061244c8261240b565b602082019050919050565b6000602082019050818103600083015261247081612434565b9050919050565b7f4e487b7100000000000000000000000000000000000000000000000000000000600052601160045260246000fd5b60006124b182611c2f565b91506124bc83611c2f565b92508282019050808211156124d4576124d3612477565b5b92915050565b60006124e582611c2f565b91506124f083611c2f565b92508282026124fe81611c2f565b9150828204841483151761251557612514612477565b5b5092915050565b7f4e487b7100000000000000000000000000000000000000000000000000000000600052601260045260246000fd5b600061255682611c2f565b915061256183611c2f565b9250826125715761257061251c565b5b828204905092915050565b7f4e487b7100000000000000000000000000000000000000000000000000000000600052603260045260246000fd5b60006060820190506125c06000830186611f3a565b6125cd6020830185611cdf565b6125da6040830184611cdf565b949350505050565b600081905092915050565b50565b60006125fd6000836125e2565b9150612608826125ed565b600082019050919050565b600061261e826125f0565b9150819050919050565b7f4661696c656420746f2073656e64204574686572000000000000000000000000600082015250565b600061265e60148361238e565b915061266982612628565b602082019050919050565b6000602082019050818103600083015261268d81612651565b9050919050565b7f566f74696e6720646561646c696e652070617373656400000000000000000000600082015250565b60006126ca60168361238e565b91506126d582612694565b602082019050919050565b600060208201905081810360008301526126f9816126bd565b9050919050565b7f416c726561647920766f74656400000000000000000000000000000000000000600082015250565b6000612736600d8361238e565b915061274182612700565b602082019050919050565b6000602082019050818103600083015261276581612729565b9050919050565b60006060820190506127816000830186611cdf565b61278e6020830185611cdf565b61279b6040830184611f3a565b949350505050565b6000815190506127b281611d32565b92915050565b6000602082840312156127ce576127cd611c25565b5b60006127dc848285016127a3565b91505092915050565b60006127f082611c2f565b91507fffffffffffffffffffffffffffffffffffffffffffffffffffffffffffffffff820361282257612821612477565b5b600182019050919050565b6000819050919050565b600061285261284d6128488461282d565b612241565b611c2f565b9050919050565b61286281612837565b82525050565b600060408201905061287d6000830185611cdf565b61288a6020830184612859565b9392505050565b7f7265717569726564536b696c6c73206172726179206d757374206e6f7420626560008201527f20656d7074790000000000000000000000000000000000000000000000000000602082015250565b60006128ed60268361238e565b91506128f882612891565b604082019050919050565b6000602082019050818103600083015261291c816128e0565b9050919050565b60006040820190506129386000830185611cdf565b6129456020830184611f3a565b9392505050565b7f4572726f7220696e20736574746c696e67207472616465730000000000000000600082015250565b600061298260188361238e565b915061298d8261294c565b602082019050919050565b600060208201905081810360008301526129b181612975565b905091905056fea264697066735822122081bd628b509bf29cf6ccf39756e0412c066716ffaad25fbb18a84867e82cd2c664736f6c634300081b0033",
          "opcodes": "PUSH1 0xA0 PUSH1 0x40 MSTORE CALLVALUE DUP1 ISZERO PUSH2 0x10 JUMPI PUSH1 0x0 DUP1 REVERT JUMPDEST POP PUSH1 0x40 MLOAD PUSH2 0x2CC5 CODESIZE SUB DUP1 PUSH2 0x2CC5 DUP4 CODECOPY DUP2 DUP2 ADD PUSH1 0x40 MSTORE DUP2 ADD SWAP1 PUSH2 0x32 SWAP2 SWAP1 PUSH2 0x257 JUMP JUMPDEST CALLER PUSH1 0x0 PUSH20 0xFFFFFFFFFFFFFFFFFFFFFFFFFFFFFFFFFFFFFFFF AND DUP2 PUSH20 0xFFFFFFFFFFFFFFFFFFFFFFFFFFFFFFFFFFFFFFFF AND SUB PUSH2 0xA5 JUMPI PUSH1 0x0 PUSH1 0x40 MLOAD PUSH32 0x1E4FBDF700000000000000000000000000000000000000000000000000000000 DUP2 MSTORE PUSH1 0x4 ADD PUSH2 0x9C SWAP2 SWAP1 PUSH2 0x293 JUMP JUMPDEST PUSH1 0x40 MLOAD DUP1 SWAP2 SUB SWAP1 REVERT JUMPDEST PUSH2 0xB4 DUP2 PUSH2 0x130 PUSH1 0x20 SHL PUSH1 0x20 SHR JUMP JUMPDEST POP DUP1 PUSH20 0xFFFFFFFFFFFFFFFFFFFFFFFFFFFFFFFFFFFFFFFF AND PUSH1 0x80 DUP2 PUSH20 0xFFFFFFFFFFFFFFFFFFFFFFFFFFFFFFFFFFFFFFFF AND DUP2 MSTORE POP POP DUP1 PUSH1 0x2 PUSH1 0x0 PUSH2 0x100 EXP DUP2 SLOAD DUP2 PUSH20 0xFFFFFFFFFFFFFFFFFFFFFFFFFFFFFFFFFFFFFFFF MUL NOT AND SWAP1 DUP4 PUSH20 0xFFFFFFFFFFFFFFFFFFFFFFFFFFFFFFFFFFFFFFFF AND MUL OR SWAP1 SSTORE POP POP PUSH2 0x2AE JUMP JUMPDEST PUSH1 0x0 DUP1 PUSH1 0x0 SWAP1 SLOAD SWAP1 PUSH2 0x100 EXP SWAP1 DIV PUSH20 0xFFFFFFFFFFFFFFFFFFFFFFFFFFFFFFFFFFFFFFFF AND SWAP1 POP DUP2 PUSH1 0x0 DUP1 PUSH2 0x100 EXP DUP2 SLOAD DUP2 PUSH20 0xFFFFFFFFFFFFFFFFFFFFFFFFFFFFFFFFFFFFFFFF MUL NOT AND SWAP1 DUP4 PUSH20 0xFFFFFFFFFFFFFFFFFFFFFFFFFFFFFFFFFFFFFFFF AND MUL OR SWAP1 SSTORE POP DUP2 PUSH20 0xFFFFFFFFFFFFFFFFFFFFFFFFFFFFFFFFFFFFFFFF AND DUP2 PUSH20 0xFFFFFFFFFFFFFFFFFFFFFFFFFFFFFFFFFFFFFFFF AND PUSH32 0x8BE0079C531659141344CD1FD0A4F28419497F9722A3DAAFE3B4186F6B6457E0 PUSH1 0x40 MLOAD PUSH1 0x40 MLOAD DUP1 SWAP2 SUB SWAP1 LOG3 POP POP JUMP JUMPDEST PUSH1 0x0 DUP1 REVERT JUMPDEST PUSH1 0x0 PUSH20 0xFFFFFFFFFFFFFFFFFFFFFFFFFFFFFFFFFFFFFFFF DUP3 AND SWAP1 POP SWAP2 SWAP1 POP JUMP JUMPDEST PUSH1 0x0 PUSH2 0x224 DUP3 PUSH2 0x1F9 JUMP JUMPDEST SWAP1 POP SWAP2 SWAP1 POP JUMP JUMPDEST PUSH2 0x234 DUP2 PUSH2 0x219 JUMP JUMPDEST DUP2 EQ PUSH2 0x23F JUMPI PUSH1 0x0 DUP1 REVERT JUMPDEST POP JUMP JUMPDEST PUSH1 0x0 DUP2 MLOAD SWAP1 POP PUSH2 0x251 DUP2 PUSH2 0x22B JUMP JUMPDEST SWAP3 SWAP2 POP POP JUMP JUMPDEST PUSH1 0x0 PUSH1 0x20 DUP3 DUP5 SUB SLT ISZERO PUSH2 0x26D JUMPI PUSH2 0x26C PUSH2 0x1F4 JUMP JUMPDEST JUMPDEST PUSH1 0x0 PUSH2 0x27B DUP5 DUP3 DUP6 ADD PUSH2 0x242 JUMP JUMPDEST SWAP2 POP POP SWAP3 SWAP2 POP POP JUMP JUMPDEST PUSH2 0x28D DUP2 PUSH2 0x219 JUMP JUMPDEST DUP3 MSTORE POP POP JUMP JUMPDEST PUSH1 0x0 PUSH1 0x20 DUP3 ADD SWAP1 POP PUSH2 0x2A8 PUSH1 0x0 DUP4 ADD DUP5 PUSH2 0x284 JUMP JUMPDEST SWAP3 SWAP2 POP POP JUMP JUMPDEST PUSH1 0x80 MLOAD PUSH2 0x29EE PUSH2 0x2D7 PUSH1 0x0 CODECOPY PUSH1 0x0 DUP2 DUP2 PUSH2 0x765 ADD MSTORE DUP2 DUP2 PUSH2 0xC4B ADD MSTORE PUSH2 0xEAD ADD MSTORE PUSH2 0x29EE PUSH1 0x0 RETURN INVALID PUSH1 0x80 PUSH1 0x40 MSTORE PUSH1 0x4 CALLDATASIZE LT PUSH2 0xC2 JUMPI PUSH1 0x0 CALLDATALOAD PUSH1 0xE0 SHR DUP1 PUSH4 0x8DA5CB5B GT PUSH2 0x7F JUMPI DUP1 PUSH4 0xC9CF5DDF GT PUSH2 0x59 JUMPI DUP1 PUSH4 0xC9CF5DDF EQ PUSH2 0x23D JUMPI DUP1 PUSH4 0xF2FDE38B EQ PUSH2 0x268 JUMPI DUP1 PUSH4 0xF5D46635 EQ PUSH2 0x291 JUMPI DUP1 PUSH4 0xFF65CDAE EQ PUSH2 0x2CE JUMPI PUSH2 0xC2 JUMP JUMPDEST DUP1 PUSH4 0x8DA5CB5B EQ PUSH2 0x1BE JUMPI DUP1 PUSH4 0xA2D687EF EQ PUSH2 0x1E9 JUMPI DUP1 PUSH4 0xC4B9C72E EQ PUSH2 0x200 JUMPI PUSH2 0xC2 JUMP JUMPDEST DUP1 PUSH4 0x1C099AD6 EQ PUSH2 0xC7 JUMPI DUP1 PUSH4 0x24600FC3 EQ PUSH2 0x105 JUMPI DUP1 PUSH4 0x3C4CD477 EQ PUSH2 0x10F JUMPI DUP1 PUSH4 0x48DBEC2E EQ PUSH2 0x13A JUMPI DUP1 PUSH4 0x564A565D EQ PUSH2 0x163 JUMPI DUP1 PUSH4 0x715018A6 EQ PUSH2 0x1A7 JUMPI JUMPDEST PUSH1 0x0 DUP1 REVERT JUMPDEST CALLVALUE DUP1 ISZERO PUSH2 0xD3 JUMPI PUSH1 0x0 DUP1 REVERT JUMPDEST POP PUSH2 0xEE PUSH1 0x4 DUP1 CALLDATASIZE SUB DUP2 ADD SWAP1 PUSH2 0xE9 SWAP2 SWAP1 PUSH2 0x1C65 JUMP JUMPDEST PUSH2 0x30B JUMP JUMPDEST PUSH1 0x40 MLOAD PUSH2 0xFC SWAP3 SWAP2 SWAP1 PUSH2 0x1CEE JUMP JUMPDEST PUSH1 0x40 MLOAD DUP1 SWAP2 SUB SWAP1 RETURN JUMPDEST PUSH2 0x10D PUSH2 0x6A9 JUMP JUMPDEST STOP JUMPDEST CALLVALUE DUP1 ISZERO PUSH2 0x11B JUMPI PUSH1 0x0 DUP1 REVERT JUMPDEST POP PUSH2 0x124 PUSH2 0x763 JUMP JUMPDEST PUSH1 0x40 MLOAD PUSH2 0x131 SWAP2 SWAP1 PUSH2 0x1D17 JUMP JUMPDEST PUSH1 0x40 MLOAD DUP1 SWAP2 SUB SWAP1 RETURN JUMPDEST CALLVALUE DUP1 ISZERO PUSH2 0x146 JUMPI PUSH1 0x0 DUP1 REVERT JUMPDEST POP PUSH2 0x161 PUSH1 0x4 DUP1 CALLDATASIZE SUB DUP2 ADD SWAP1 PUSH2 0x15C SWAP2 SWAP1 PUSH2 0x1EB7 JUMP JUMPDEST PUSH2 0x787 JUMP JUMPDEST STOP JUMPDEST CALLVALUE DUP1 ISZERO PUSH2 0x16F JUMPI PUSH1 0x0 DUP1 REVERT JUMPDEST POP PUSH2 0x18A PUSH1 0x4 DUP1 CALLDATASIZE SUB DUP2 ADD SWAP1 PUSH2 0x185 SWAP2 SWAP1 PUSH2 0x1C65 JUMP JUMPDEST PUSH2 0xB6F JUMP JUMPDEST PUSH1 0x40 MLOAD PUSH2 0x19E SWAP9 SWAP8 SWAP7 SWAP6 SWAP5 SWAP4 SWAP3 SWAP2 SWAP1 PUSH2 0x1F49 JUMP JUMPDEST PUSH1 0x40 MLOAD DUP1 SWAP2 SUB SWAP1 RETURN JUMPDEST CALLVALUE DUP1 ISZERO PUSH2 0x1B3 JUMPI PUSH1 0x0 DUP1 REVERT JUMPDEST POP PUSH2 0x1BC PUSH2 0xC04 JUMP JUMPDEST STOP JUMPDEST CALLVALUE DUP1 ISZERO PUSH2 0x1CA JUMPI PUSH1 0x0 DUP1 REVERT JUMPDEST POP PUSH2 0x1D3 PUSH2 0xC18 JUMP JUMPDEST PUSH1 0x40 MLOAD PUSH2 0x1E0 SWAP2 SWAP1 PUSH2 0x1D17 JUMP JUMPDEST PUSH1 0x40 MLOAD DUP1 SWAP2 SUB SWAP1 RETURN JUMPDEST CALLVALUE DUP1 ISZERO PUSH2 0x1F5 JUMPI PUSH1 0x0 DUP1 REVERT JUMPDEST POP PUSH2 0x1FE PUSH2 0xC41 JUMP JUMPDEST STOP JUMPDEST CALLVALUE DUP1 ISZERO PUSH2 0x20C JUMPI PUSH1 0x0 DUP1 REVERT JUMPDEST POP PUSH2 0x227 PUSH1 0x4 DUP1 CALLDATASIZE SUB DUP2 ADD SWAP1 PUSH2 0x222 SWAP2 SWAP1 PUSH2 0x21CA JUMP JUMPDEST PUSH2 0xCD6 JUMP JUMPDEST PUSH1 0x40 MLOAD PUSH2 0x234 SWAP2 SWAP1 PUSH2 0x2226 JUMP JUMPDEST PUSH1 0x40 MLOAD DUP1 SWAP2 SUB SWAP1 RETURN JUMPDEST CALLVALUE DUP1 ISZERO PUSH2 0x249 JUMPI PUSH1 0x0 DUP1 REVERT JUMPDEST POP PUSH2 0x252 PUSH2 0xDF5 JUMP JUMPDEST PUSH1 0x40 MLOAD PUSH2 0x25F SWAP2 SWAP1 PUSH2 0x22A0 JUMP JUMPDEST PUSH1 0x40 MLOAD DUP1 SWAP2 SUB SWAP1 RETURN JUMPDEST CALLVALUE DUP1 ISZERO PUSH2 0x274 JUMPI PUSH1 0x0 DUP1 REVERT JUMPDEST POP PUSH2 0x28F PUSH1 0x4 DUP1 CALLDATASIZE SUB DUP2 ADD SWAP1 PUSH2 0x28A SWAP2 SWAP1 PUSH2 0x22BB JUMP JUMPDEST PUSH2 0xE1B JUMP JUMPDEST STOP JUMPDEST CALLVALUE DUP1 ISZERO PUSH2 0x29D JUMPI PUSH1 0x0 DUP1 REVERT JUMPDEST POP PUSH2 0x2B8 PUSH1 0x4 DUP1 CALLDATASIZE SUB DUP2 ADD SWAP1 PUSH2 0x2B3 SWAP2 SWAP1 PUSH2 0x22BB JUMP JUMPDEST PUSH2 0xEA1 JUMP JUMPDEST PUSH1 0x40 MLOAD PUSH2 0x2C5 SWAP2 SWAP1 PUSH2 0x2226 JUMP JUMPDEST PUSH1 0x40 MLOAD DUP1 SWAP2 SUB SWAP1 RETURN JUMPDEST CALLVALUE DUP1 ISZERO PUSH2 0x2DA JUMPI PUSH1 0x0 DUP1 REVERT JUMPDEST POP PUSH2 0x2F5 PUSH1 0x4 DUP1 CALLDATASIZE SUB DUP2 ADD SWAP1 PUSH2 0x2F0 SWAP2 SWAP1 PUSH2 0x22E8 JUMP JUMPDEST PUSH2 0xF5D JUMP JUMPDEST PUSH1 0x40 MLOAD PUSH2 0x302 SWAP2 SWAP1 PUSH2 0x2373 JUMP JUMPDEST PUSH1 0x40 MLOAD DUP1 SWAP2 SUB SWAP1 RETURN JUMPDEST PUSH1 0x0 DUP1 PUSH1 0x0 PUSH1 0x1 PUSH1 0x0 DUP6 DUP2 MSTORE PUSH1 0x20 ADD SWAP1 DUP2 MSTORE PUSH1 0x20 ADD PUSH1 0x0 KECCAK256 SWAP1 POP DUP1 PUSH1 0x5 ADD PUSH1 0x0 SWAP1 SLOAD SWAP1 PUSH2 0x100 EXP SWAP1 DIV PUSH1 0xFF AND ISZERO PUSH2 0x377 JUMPI PUSH1 0x40 MLOAD PUSH32 0x8C379A000000000000000000000000000000000000000000000000000000000 DUP2 MSTORE PUSH1 0x4 ADD PUSH2 0x36E SWAP1 PUSH2 0x23EB JUMP JUMPDEST PUSH1 0x40 MLOAD DUP1 SWAP2 SUB SWAP1 REVERT JUMPDEST TIMESTAMP DUP2 PUSH1 0x4 ADD SLOAD LT PUSH2 0x3BD JUMPI PUSH1 0x40 MLOAD PUSH32 0x8C379A000000000000000000000000000000000000000000000000000000000 DUP2 MSTORE PUSH1 0x4 ADD PUSH2 0x3B4 SWAP1 PUSH2 0x2457 JUMP JUMPDEST PUSH1 0x40 MLOAD DUP1 SWAP2 SUB SWAP1 REVERT JUMPDEST PUSH1 0x0 DUP2 PUSH1 0x8 ADD SLOAD DUP3 PUSH1 0x7 ADD SLOAD PUSH2 0x3D3 SWAP2 SWAP1 PUSH2 0x24A6 JUMP JUMPDEST SWAP1 POP PUSH1 0x0 PUSH1 0x64 PUSH1 0x3C DUP4 PUSH2 0x3E6 SWAP2 SWAP1 PUSH2 0x24DA JUMP JUMPDEST PUSH2 0x3F0 SWAP2 SWAP1 PUSH2 0x254B JUMP JUMPDEST SWAP1 POP PUSH1 0x0 PUSH2 0x3FE DUP8 DUP4 PUSH2 0x10E1 JUMP JUMPDEST SWAP1 POP PUSH1 0x0 DUP1 PUSH1 0x0 JUMPDEST DUP4 MLOAD DUP2 LT ISZERO PUSH2 0x585 JUMPI PUSH1 0x0 DUP8 PUSH1 0x9 ADD PUSH1 0x0 DUP7 DUP5 DUP2 MLOAD DUP2 LT PUSH2 0x42A JUMPI PUSH2 0x429 PUSH2 0x257C JUMP JUMPDEST JUMPDEST PUSH1 0x20 MUL PUSH1 0x20 ADD ADD MLOAD PUSH20 0xFFFFFFFFFFFFFFFFFFFFFFFFFFFFFFFFFFFFFFFF AND PUSH20 0xFFFFFFFFFFFFFFFFFFFFFFFFFFFFFFFFFFFFFFFF AND DUP2 MSTORE PUSH1 0x20 ADD SWAP1 DUP2 MSTORE PUSH1 0x20 ADD PUSH1 0x0 KECCAK256 SWAP1 POP PUSH1 0x1 DUP2 PUSH1 0x3 ADD PUSH1 0x0 PUSH2 0x100 EXP DUP2 SLOAD DUP2 PUSH1 0xFF MUL NOT AND SWAP1 DUP4 ISZERO ISZERO MUL OR SWAP1 SSTORE POP PUSH1 0x0 PUSH2 0x53B DUP3 PUSH1 0x2 ADD DUP1 SLOAD DUP1 PUSH1 0x20 MUL PUSH1 0x20 ADD PUSH1 0x40 MLOAD SWAP1 DUP2 ADD PUSH1 0x40 MSTORE DUP1 SWAP3 SWAP2 SWAP1 DUP2 DUP2 MSTORE PUSH1 0x20 ADD DUP3 DUP1 SLOAD DUP1 ISZERO PUSH2 0x4DE JUMPI PUSH1 0x20 MUL DUP3 ADD SWAP2 SWAP1 PUSH1 0x0 MSTORE PUSH1 0x20 PUSH1 0x0 KECCAK256 SWAP1 JUMPDEST DUP2 SLOAD DUP2 MSTORE PUSH1 0x20 ADD SWAP1 PUSH1 0x1 ADD SWAP1 DUP1 DUP4 GT PUSH2 0x4CA JUMPI JUMPDEST POP POP POP POP POP DUP11 PUSH1 0x3 ADD DUP1 SLOAD DUP1 PUSH1 0x20 MUL PUSH1 0x20 ADD PUSH1 0x40 MLOAD SWAP1 DUP2 ADD PUSH1 0x40 MSTORE DUP1 SWAP3 SWAP2 SWAP1 DUP2 DUP2 MSTORE PUSH1 0x20 ADD DUP3 DUP1 SLOAD DUP1 ISZERO PUSH2 0x531 JUMPI PUSH1 0x20 MUL DUP3 ADD SWAP2 SWAP1 PUSH1 0x0 MSTORE PUSH1 0x20 PUSH1 0x0 KECCAK256 SWAP1 JUMPDEST DUP2 SLOAD DUP2 MSTORE PUSH1 0x20 ADD SWAP1 PUSH1 0x1 ADD SWAP1 DUP1 DUP4 GT PUSH2 0x51D JUMPI JUMPDEST POP POP POP POP POP PUSH2 0x1277 JUMP JUMPDEST SWAP1 POP DUP2 PUSH1 0x3 ADD PUSH1 0x1 SWAP1 SLOAD SWAP1 PUSH2 0x100 EXP SWAP1 DIV PUSH1 0xFF AND ISZERO PUSH2 0x567 JUMPI DUP1 DUP6 PUSH2 0x560 SWAP2 SWAP1 PUSH2 0x24A6 JUMP JUMPDEST SWAP5 POP PUSH2 0x576 JUMP JUMPDEST DUP1 DUP5 PUSH2 0x573 SWAP2 SWAP1 PUSH2 0x24A6 JUMP JUMPDEST SWAP4 POP JUMPDEST POP POP DUP1 DUP1 PUSH1 0x1 ADD SWAP2 POP POP PUSH2 0x406 JUMP JUMPDEST POP PUSH1 0x0 DUP1 DUP3 DUP5 GT ISZERO PUSH2 0x5E4 JUMPI DUP8 PUSH1 0x1 ADD PUSH1 0x0 SWAP1 SLOAD SWAP1 PUSH2 0x100 EXP SWAP1 DIV PUSH20 0xFFFFFFFFFFFFFFFFFFFFFFFFFFFFFFFFFFFFFFFF AND SWAP2 POP DUP8 PUSH1 0x2 ADD PUSH1 0x0 SWAP1 SLOAD SWAP1 PUSH2 0x100 EXP SWAP1 DIV PUSH20 0xFFFFFFFFFFFFFFFFFFFFFFFFFFFFFFFFFFFFFFFF AND SWAP1 POP PUSH2 0x633 JUMP JUMPDEST DUP8 PUSH1 0x2 ADD PUSH1 0x0 SWAP1 SLOAD SWAP1 PUSH2 0x100 EXP SWAP1 DIV PUSH20 0xFFFFFFFFFFFFFFFFFFFFFFFFFFFFFFFFFFFFFFFF AND SWAP2 POP DUP8 PUSH1 0x1 ADD PUSH1 0x0 SWAP1 SLOAD SWAP1 PUSH2 0x100 EXP SWAP1 DIV PUSH20 0xFFFFFFFFFFFFFFFFFFFFFFFFFFFFFFFFFFFFFFFF AND SWAP1 POP JUMPDEST PUSH2 0x63D DUP12 DUP4 PUSH2 0x1306 JUMP JUMPDEST PUSH1 0x1 DUP9 PUSH1 0x5 ADD PUSH1 0x0 PUSH2 0x100 EXP DUP2 SLOAD DUP2 PUSH1 0xFF MUL NOT AND SWAP1 DUP4 ISZERO ISZERO MUL OR SWAP1 SSTORE POP PUSH32 0x35877583839D988B6DA68BA7E2B2836D26C0D18B83D80943B5633DED778BC4FC DUP12 DUP4 DUP4 PUSH1 0x40 MLOAD PUSH2 0x68D SWAP4 SWAP3 SWAP2 SWAP1 PUSH2 0x25AB JUMP JUMPDEST PUSH1 0x40 MLOAD DUP1 SWAP2 SUB SWAP1 LOG1 PUSH1 0x1 DUP3 SWAP10 POP SWAP10 POP POP POP POP POP POP POP POP POP SWAP2 POP SWAP2 JUMP JUMPDEST PUSH2 0x6B1 PUSH2 0x1A33 JUMP JUMPDEST PUSH1 0x0 DUP1 CALLER PUSH20 0xFFFFFFFFFFFFFFFFFFFFFFFFFFFFFFFFFFFFFFFF AND CALLVALUE PUSH1 0x40 MLOAD PUSH2 0x6D8 SWAP1 PUSH2 0x2613 JUMP JUMPDEST PUSH1 0x0 PUSH1 0x40 MLOAD DUP1 DUP4 SUB DUP2 DUP6 DUP8 GAS CALL SWAP3 POP POP POP RETURNDATASIZE DUP1 PUSH1 0x0 DUP2 EQ PUSH2 0x715 JUMPI PUSH1 0x40 MLOAD SWAP2 POP PUSH1 0x1F NOT PUSH1 0x3F RETURNDATASIZE ADD AND DUP3 ADD PUSH1 0x40 MSTORE RETURNDATASIZE DUP3 MSTORE RETURNDATASIZE PUSH1 0x0 PUSH1 0x20 DUP5 ADD RETURNDATACOPY PUSH2 0x71A JUMP JUMPDEST PUSH1 0x60 SWAP2 POP JUMPDEST POP SWAP2 POP SWAP2 POP DUP2 PUSH2 0x75F JUMPI PUSH1 0x40 MLOAD PUSH32 0x8C379A000000000000000000000000000000000000000000000000000000000 DUP2 MSTORE PUSH1 0x4 ADD PUSH2 0x756 SWAP1 PUSH2 0x2674 JUMP JUMPDEST PUSH1 0x40 MLOAD DUP1 SWAP2 SUB SWAP1 REVERT JUMPDEST POP POP JUMP JUMPDEST PUSH32 0x0 DUP2 JUMP JUMPDEST TIMESTAMP PUSH1 0x1 PUSH1 0x0 DUP7 DUP2 MSTORE PUSH1 0x20 ADD SWAP1 DUP2 MSTORE PUSH1 0x20 ADD PUSH1 0x0 KECCAK256 PUSH1 0x4 ADD SLOAD GT PUSH2 0x7DF JUMPI PUSH1 0x40 MLOAD PUSH32 0x8C379A000000000000000000000000000000000000000000000000000000000 DUP2 MSTORE PUSH1 0x4 ADD PUSH2 0x7D6 SWAP1 PUSH2 0x26E0 JUMP JUMPDEST PUSH1 0x40 MLOAD DUP1 SWAP2 SUB SWAP1 REVERT JUMPDEST PUSH1 0x0 PUSH1 0x1 PUSH1 0x0 DUP7 DUP2 MSTORE PUSH1 0x20 ADD SWAP1 DUP2 MSTORE PUSH1 0x20 ADD PUSH1 0x0 KECCAK256 PUSH1 0x9 ADD PUSH1 0x0 CALLER PUSH20 0xFFFFFFFFFFFFFFFFFFFFFFFFFFFFFFFFFFFFFFFF AND PUSH20 0xFFFFFFFFFFFFFFFFFFFFFFFFFFFFFFFFFFFFFFFF AND DUP2 MSTORE PUSH1 0x20 ADD SWAP1 DUP2 MSTORE PUSH1 0x20 ADD PUSH1 0x0 KECCAK256 PUSH1 0x1 ADD SLOAD EQ PUSH2 0x878 JUMPI PUSH1 0x40 MLOAD PUSH32 0x8C379A000000000000000000000000000000000000000000000000000000000 DUP2 MSTORE PUSH1 0x4 ADD PUSH2 0x86F SWAP1 PUSH2 0x274C JUMP JUMPDEST PUSH1 0x40 MLOAD DUP1 SWAP2 SUB SWAP1 REVERT JUMPDEST PUSH1 0x2 PUSH1 0x0 SWAP1 SLOAD SWAP1 PUSH2 0x100 EXP SWAP1 DIV PUSH20 0xFFFFFFFFFFFFFFFFFFFFFFFFFFFFFFFFFFFFFFFF AND PUSH20 0xFFFFFFFFFFFFFFFFFFFFFFFFFFFFFFFFFFFFFFFF AND PUSH4 0x23B872DD ORIGIN ADDRESS DUP6 PUSH1 0x40 MLOAD DUP5 PUSH4 0xFFFFFFFF AND PUSH1 0xE0 SHL DUP2 MSTORE PUSH1 0x4 ADD PUSH2 0x8D7 SWAP4 SWAP3 SWAP2 SWAP1 PUSH2 0x276C JUMP JUMPDEST PUSH1 0x20 PUSH1 0x40 MLOAD DUP1 DUP4 SUB DUP2 PUSH1 0x0 DUP8 GAS CALL ISZERO DUP1 ISZERO PUSH2 0x8F6 JUMPI RETURNDATASIZE PUSH1 0x0 DUP1 RETURNDATACOPY RETURNDATASIZE PUSH1 0x0 REVERT JUMPDEST POP POP POP POP PUSH1 0x40 MLOAD RETURNDATASIZE PUSH1 0x1F NOT PUSH1 0x1F DUP3 ADD AND DUP3 ADD DUP1 PUSH1 0x40 MSTORE POP DUP2 ADD SWAP1 PUSH2 0x91A SWAP2 SWAP1 PUSH2 0x27B8 JUMP JUMPDEST POP PUSH1 0x40 MLOAD DUP1 PUSH1 0xA0 ADD PUSH1 0x40 MSTORE DUP1 CALLER PUSH20 0xFFFFFFFFFFFFFFFFFFFFFFFFFFFFFFFFFFFFFFFF AND DUP2 MSTORE PUSH1 0x20 ADD DUP4 DUP2 MSTORE PUSH1 0x20 ADD DUP3 DUP2 MSTORE PUSH1 0x20 ADD PUSH1 0x0 ISZERO ISZERO DUP2 MSTORE PUSH1 0x20 ADD DUP5 ISZERO ISZERO DUP2 MSTORE POP PUSH1 0x1 PUSH1 0x0 DUP7 DUP2 MSTORE PUSH1 0x20 ADD SWAP1 DUP2 MSTORE PUSH1 0x20 ADD PUSH1 0x0 KECCAK256 PUSH1 0x9 ADD PUSH1 0x0 CALLER PUSH20 0xFFFFFFFFFFFFFFFFFFFFFFFFFFFFFFFFFFFFFFFF AND PUSH20 0xFFFFFFFFFFFFFFFFFFFFFFFFFFFFFFFFFFFFFFFF AND DUP2 MSTORE PUSH1 0x20 ADD SWAP1 DUP2 MSTORE PUSH1 0x20 ADD PUSH1 0x0 KECCAK256 PUSH1 0x0 DUP3 ADD MLOAD DUP2 PUSH1 0x0 ADD PUSH1 0x0 PUSH2 0x100 EXP DUP2 SLOAD DUP2 PUSH20 0xFFFFFFFFFFFFFFFFFFFFFFFFFFFFFFFFFFFFFFFF MUL NOT AND SWAP1 DUP4 PUSH20 0xFFFFFFFFFFFFFFFFFFFFFFFFFFFFFFFFFFFFFFFF AND MUL OR SWAP1 SSTORE POP PUSH1 0x20 DUP3 ADD MLOAD DUP2 PUSH1 0x1 ADD SSTORE PUSH1 0x40 DUP3 ADD MLOAD DUP2 PUSH1 0x2 ADD SWAP1 DUP1 MLOAD SWAP1 PUSH1 0x20 ADD SWAP1 PUSH2 0xA1D SWAP3 SWAP2 SWAP1 PUSH2 0x1BB1 JUMP JUMPDEST POP PUSH1 0x60 DUP3 ADD MLOAD DUP2 PUSH1 0x3 ADD PUSH1 0x0 PUSH2 0x100 EXP DUP2 SLOAD DUP2 PUSH1 0xFF MUL NOT AND SWAP1 DUP4 ISZERO ISZERO MUL OR SWAP1 SSTORE POP PUSH1 0x80 DUP3 ADD MLOAD DUP2 PUSH1 0x3 ADD PUSH1 0x1 PUSH2 0x100 EXP DUP2 SLOAD DUP2 PUSH1 0xFF MUL NOT AND SWAP1 DUP4 ISZERO ISZERO MUL OR SWAP1 SSTORE POP SWAP1 POP POP PUSH1 0x1 PUSH1 0x0 DUP6 DUP2 MSTORE PUSH1 0x20 ADD SWAP1 DUP2 MSTORE PUSH1 0x20 ADD PUSH1 0x0 KECCAK256 PUSH1 0xA ADD CALLER SWAP1 DUP1 PUSH1 0x1 DUP2 SLOAD ADD DUP1 DUP3 SSTORE DUP1 SWAP2 POP POP PUSH1 0x1 SWAP1 SUB SWAP1 PUSH1 0x0 MSTORE PUSH1 0x20 PUSH1 0x0 KECCAK256 ADD PUSH1 0x0 SWAP1 SWAP2 SWAP1 SWAP2 SWAP1 SWAP2 PUSH2 0x100 EXP DUP2 SLOAD DUP2 PUSH20 0xFFFFFFFFFFFFFFFFFFFFFFFFFFFFFFFFFFFFFFFF MUL NOT AND SWAP1 DUP4 PUSH20 0xFFFFFFFFFFFFFFFFFFFFFFFFFFFFFFFFFFFFFFFF AND MUL OR SWAP1 SSTORE POP DUP2 PUSH1 0x1 PUSH1 0x0 DUP7 DUP2 MSTORE PUSH1 0x20 ADD SWAP1 DUP2 MSTORE PUSH1 0x20 ADD PUSH1 0x0 KECCAK256 PUSH1 0x6 ADD PUSH1 0x0 DUP3 DUP3 SLOAD PUSH2 0xAFE SWAP2 SWAP1 PUSH2 0x24A6 JUMP JUMPDEST SWAP3 POP POP DUP2 SWAP1 SSTORE POP DUP3 ISZERO PUSH2 0xB3C JUMPI PUSH1 0x1 PUSH1 0x0 DUP6 DUP2 MSTORE PUSH1 0x20 ADD SWAP1 DUP2 MSTORE PUSH1 0x20 ADD PUSH1 0x0 KECCAK256 PUSH1 0x7 ADD PUSH1 0x0 DUP2 SLOAD DUP1 SWAP3 SWAP2 SWAP1 PUSH2 0xB32 SWAP1 PUSH2 0x27E5 JUMP JUMPDEST SWAP2 SWAP1 POP SSTORE POP PUSH2 0xB69 JUMP JUMPDEST PUSH1 0x1 PUSH1 0x0 DUP6 DUP2 MSTORE PUSH1 0x20 ADD SWAP1 DUP2 MSTORE PUSH1 0x20 ADD PUSH1 0x0 KECCAK256 PUSH1 0x8 ADD PUSH1 0x0 DUP2 SLOAD DUP1 SWAP3 SWAP2 SWAP1 PUSH2 0xB63 SWAP1 PUSH2 0x27E5 JUMP JUMPDEST SWAP2 SWAP1 POP SSTORE POP JUMPDEST POP POP POP POP JUMP JUMPDEST PUSH1 0x1 PUSH1 0x20 MSTORE DUP1 PUSH1 0x0 MSTORE PUSH1 0x40 PUSH1 0x0 KECCAK256 PUSH1 0x0 SWAP2 POP SWAP1 POP DUP1 PUSH1 0x0 ADD SLOAD SWAP1 DUP1 PUSH1 0x1 ADD PUSH1 0x0 SWAP1 SLOAD SWAP1 PUSH2 0x100 EXP SWAP1 DIV PUSH20 0xFFFFFFFFFFFFFFFFFFFFFFFFFFFFFFFFFFFFFFFF AND SWAP1 DUP1 PUSH1 0x2 ADD PUSH1 0x0 SWAP1 SLOAD SWAP1 PUSH2 0x100 EXP SWAP1 DIV PUSH20 0xFFFFFFFFFFFFFFFFFFFFFFFFFFFFFFFFFFFFFFFF AND SWAP1 DUP1 PUSH1 0x4 ADD SLOAD SWAP1 DUP1 PUSH1 0x5 ADD PUSH1 0x0 SWAP1 SLOAD SWAP1 PUSH2 0x100 EXP SWAP1 DIV PUSH1 0xFF AND SWAP1 DUP1 PUSH1 0x6 ADD SLOAD SWAP1 DUP1 PUSH1 0x7 ADD SLOAD SWAP1 DUP1 PUSH1 0x8 ADD SLOAD SWAP1 POP DUP9 JUMP JUMPDEST PUSH2 0xC0C PUSH2 0x1A33 JUMP JUMPDEST PUSH2 0xC16 PUSH1 0x0 PUSH2 0x1ABA JUMP JUMPDEST JUMP JUMPDEST PUSH1 0x0 DUP1 PUSH1 0x0 SWAP1 SLOAD SWAP1 PUSH2 0x100 EXP SWAP1 DIV PUSH20 0xFFFFFFFFFFFFFFFFFFFFFFFFFFFFFFFFFFFFFFFF AND SWAP1 POP SWAP1 JUMP JUMPDEST PUSH2 0xC49 PUSH2 0x1A33 JUMP JUMPDEST PUSH32 0x0 PUSH20 0xFFFFFFFFFFFFFFFFFFFFFFFFFFFFFFFFFFFFFFFF AND PUSH4 0xF2FDE38B CALLER PUSH1 0x40 MLOAD DUP3 PUSH4 0xFFFFFFFF AND PUSH1 0xE0 SHL DUP2 MSTORE PUSH1 0x4 ADD PUSH2 0xCA2 SWAP2 SWAP1 PUSH2 0x1D17 JUMP JUMPDEST PUSH1 0x0 PUSH1 0x40 MLOAD DUP1 DUP4 SUB DUP2 PUSH1 0x0 DUP8 DUP1 EXTCODESIZE ISZERO DUP1 ISZERO PUSH2 0xCBC JUMPI PUSH1 0x0 DUP1 REVERT JUMPDEST POP GAS CALL ISZERO DUP1 ISZERO PUSH2 0xCD0 JUMPI RETURNDATASIZE PUSH1 0x0 DUP1 RETURNDATACOPY RETURNDATASIZE PUSH1 0x0 REVERT JUMPDEST POP POP POP POP JUMP JUMPDEST PUSH1 0x0 DUP1 PUSH1 0x1 PUSH1 0x0 DUP5 DUP2 MSTORE PUSH1 0x20 ADD SWAP1 DUP2 MSTORE PUSH1 0x20 ADD PUSH1 0x0 KECCAK256 SWAP1 POP DUP3 DUP2 PUSH1 0x0 ADD DUP2 SWAP1 SSTORE POP DUP4 PUSH1 0x40 ADD MLOAD DUP2 PUSH1 0x1 ADD PUSH1 0x0 PUSH2 0x100 EXP DUP2 SLOAD DUP2 PUSH20 0xFFFFFFFFFFFFFFFFFFFFFFFFFFFFFFFFFFFFFFFF MUL NOT AND SWAP1 DUP4 PUSH20 0xFFFFFFFFFFFFFFFFFFFFFFFFFFFFFFFFFFFFFFFF AND MUL OR SWAP1 SSTORE POP DUP4 PUSH1 0x60 ADD MLOAD DUP2 PUSH1 0x2 ADD PUSH1 0x0 PUSH2 0x100 EXP DUP2 SLOAD DUP2 PUSH20 0xFFFFFFFFFFFFFFFFFFFFFFFFFFFFFFFFFFFFFFFF MUL NOT AND SWAP1 DUP4 PUSH20 0xFFFFFFFFFFFFFFFFFFFFFFFFFFFFFFFFFFFFFFFF AND MUL OR SWAP1 SSTORE POP DUP4 PUSH1 0xA0 ADD MLOAD DUP2 PUSH1 0x3 ADD SWAP1 DUP1 MLOAD SWAP1 PUSH1 0x20 ADD SWAP1 PUSH2 0xDA1 SWAP3 SWAP2 SWAP1 PUSH2 0x1BB1 JUMP JUMPDEST POP DUP4 PUSH1 0xC0 ADD MLOAD DUP2 PUSH1 0x4 ADD DUP2 SWAP1 SSTORE POP PUSH1 0x0 DUP2 PUSH1 0x5 ADD PUSH1 0x0 PUSH2 0x100 EXP DUP2 SLOAD DUP2 PUSH1 0xFF MUL NOT AND SWAP1 DUP4 ISZERO ISZERO MUL OR SWAP1 SSTORE POP PUSH1 0x0 DUP2 PUSH1 0x6 ADD DUP2 SWAP1 SSTORE POP PUSH1 0x0 DUP2 PUSH1 0x7 ADD DUP2 SWAP1 SSTORE POP PUSH1 0x0 DUP2 PUSH1 0x8 ADD DUP2 SWAP1 SSTORE POP PUSH1 0x1 SWAP2 POP POP SWAP3 SWAP2 POP POP JUMP JUMPDEST PUSH1 0x2 PUSH1 0x0 SWAP1 SLOAD SWAP1 PUSH2 0x100 EXP SWAP1 DIV PUSH20 0xFFFFFFFFFFFFFFFFFFFFFFFFFFFFFFFFFFFFFFFF AND DUP2 JUMP JUMPDEST PUSH2 0xE23 PUSH2 0x1A33 JUMP JUMPDEST PUSH1 0x0 PUSH20 0xFFFFFFFFFFFFFFFFFFFFFFFFFFFFFFFFFFFFFFFF AND DUP2 PUSH20 0xFFFFFFFFFFFFFFFFFFFFFFFFFFFFFFFFFFFFFFFF AND SUB PUSH2 0xE95 JUMPI PUSH1 0x0 PUSH1 0x40 MLOAD PUSH32 0x1E4FBDF700000000000000000000000000000000000000000000000000000000 DUP2 MSTORE PUSH1 0x4 ADD PUSH2 0xE8C SWAP2 SWAP1 PUSH2 0x1D17 JUMP JUMPDEST PUSH1 0x40 MLOAD DUP1 SWAP2 SUB SWAP1 REVERT JUMPDEST PUSH2 0xE9E DUP2 PUSH2 0x1ABA JUMP JUMPDEST POP JUMP JUMPDEST PUSH1 0x0 PUSH2 0xEAB PUSH2 0x1A33 JUMP JUMPDEST PUSH32 0x0 PUSH20 0xFFFFFFFFFFFFFFFFFFFFFFFFFFFFFFFFFFFFFFFF AND PUSH4 0x95EA7B3 DUP4 PUSH10 0xD3C21BCECCEDA1000000 PUSH1 0x40 MLOAD DUP4 PUSH4 0xFFFFFFFF AND PUSH1 0xE0 SHL DUP2 MSTORE PUSH1 0x4 ADD PUSH2 0xF10 SWAP3 SWAP2 SWAP1 PUSH2 0x2868 JUMP JUMPDEST PUSH1 0x20 PUSH1 0x40 MLOAD DUP1 DUP4 SUB DUP2 PUSH1 0x0 DUP8 GAS CALL ISZERO DUP1 ISZERO PUSH2 0xF2F JUMPI RETURNDATASIZE PUSH1 0x0 DUP1 RETURNDATACOPY RETURNDATASIZE PUSH1 0x0 REVERT JUMPDEST POP POP POP POP PUSH1 0x40 MLOAD RETURNDATASIZE PUSH1 0x1F NOT PUSH1 0x1F DUP3 ADD AND DUP3 ADD DUP1 PUSH1 0x40 MSTORE POP DUP2 ADD SWAP1 PUSH2 0xF53 SWAP2 SWAP1 PUSH2 0x27B8 JUMP JUMPDEST POP PUSH1 0x1 SWAP1 POP SWAP2 SWAP1 POP JUMP JUMPDEST PUSH1 0x0 DUP1 PUSH1 0x0 SWAP1 POP PUSH1 0x0 DUP4 MLOAD SWAP1 POP PUSH1 0x0 DUP2 GT PUSH2 0xFAD JUMPI PUSH1 0x40 MLOAD PUSH32 0x8C379A000000000000000000000000000000000000000000000000000000000 DUP2 MSTORE PUSH1 0x4 ADD PUSH2 0xFA4 SWAP1 PUSH2 0x2903 JUMP JUMPDEST PUSH1 0x40 MLOAD DUP1 SWAP2 SUB SWAP1 REVERT JUMPDEST PUSH1 0x0 JUMPDEST DUP2 DUP2 LT ISZERO PUSH2 0x102D JUMPI PUSH1 0x0 JUMPDEST DUP7 MLOAD DUP2 LT ISZERO PUSH2 0x101F JUMPI DUP7 DUP2 DUP2 MLOAD DUP2 LT PUSH2 0xFD7 JUMPI PUSH2 0xFD6 PUSH2 0x257C JUMP JUMPDEST JUMPDEST PUSH1 0x20 MUL PUSH1 0x20 ADD ADD MLOAD DUP7 DUP4 DUP2 MLOAD DUP2 LT PUSH2 0xFF2 JUMPI PUSH2 0xFF1 PUSH2 0x257C JUMP JUMPDEST JUMPDEST PUSH1 0x20 MUL PUSH1 0x20 ADD ADD MLOAD SUB PUSH2 0x1012 JUMPI DUP4 DUP1 PUSH2 0x100A SWAP1 PUSH2 0x27E5 JUMP JUMPDEST SWAP5 POP POP PUSH2 0x101F JUMP JUMPDEST DUP1 DUP1 PUSH1 0x1 ADD SWAP2 POP POP PUSH2 0xFBB JUMP JUMPDEST POP DUP1 DUP1 PUSH1 0x1 ADD SWAP2 POP POP PUSH2 0xFB0 JUMP JUMPDEST POP PUSH1 0x0 PUSH1 0x1E SWAP1 POP PUSH1 0x0 PUSH1 0x46 SWAP1 POP PUSH1 0x0 DUP1 DUP10 SUB PUSH2 0x104C JUMPI PUSH1 0x0 SWAP1 POP PUSH2 0x1084 JUMP JUMPDEST PUSH2 0x1057 PUSH2 0x3E9 PUSH2 0x1B7E JUMP JUMPDEST PUSH2 0x106C PUSH1 0x1 DUP12 PUSH2 0x1067 SWAP2 SWAP1 PUSH2 0x24A6 JUMP JUMPDEST PUSH2 0x1B7E JUMP JUMPDEST DUP5 PUSH2 0x1077 SWAP2 SWAP1 PUSH2 0x24DA JUMP JUMPDEST PUSH2 0x1081 SWAP2 SWAP1 PUSH2 0x254B JUMP JUMPDEST SWAP1 POP JUMPDEST PUSH1 0x0 DUP5 DUP4 DUP8 PUSH2 0x1093 SWAP2 SWAP1 PUSH2 0x24DA JUMP JUMPDEST PUSH2 0x109D SWAP2 SWAP1 PUSH2 0x254B JUMP JUMPDEST SWAP1 POP PUSH1 0x0 DUP2 DUP4 PUSH2 0x10AD SWAP2 SWAP1 PUSH2 0x24A6 JUMP JUMPDEST SWAP1 POP PUSH1 0x64 DUP2 GT ISZERO PUSH2 0x10C1 JUMPI PUSH1 0x64 SWAP1 POP PUSH2 0x10D0 JUMP JUMPDEST PUSH1 0x1 DUP2 LT ISZERO PUSH2 0x10CF JUMPI PUSH1 0x1 SWAP1 POP JUMPDEST JUMPDEST DUP1 SWAP8 POP POP POP POP POP POP POP POP SWAP4 SWAP3 POP POP POP JUMP JUMPDEST PUSH1 0x60 PUSH1 0x0 PUSH1 0x1 PUSH1 0x0 DUP6 DUP2 MSTORE PUSH1 0x20 ADD SWAP1 DUP2 MSTORE PUSH1 0x20 ADD PUSH1 0x0 KECCAK256 SWAP1 POP PUSH1 0x0 DUP2 PUSH1 0xA ADD DUP1 SLOAD DUP1 PUSH1 0x20 MUL PUSH1 0x20 ADD PUSH1 0x40 MLOAD SWAP1 DUP2 ADD PUSH1 0x40 MSTORE DUP1 SWAP3 SWAP2 SWAP1 DUP2 DUP2 MSTORE PUSH1 0x20 ADD DUP3 DUP1 SLOAD DUP1 ISZERO PUSH2 0x1180 JUMPI PUSH1 0x20 MUL DUP3 ADD SWAP2 SWAP1 PUSH1 0x0 MSTORE PUSH1 0x20 PUSH1 0x0 KECCAK256 SWAP1 JUMPDEST DUP2 PUSH1 0x0 SWAP1 SLOAD SWAP1 PUSH2 0x100 EXP SWAP1 DIV PUSH20 0xFFFFFFFFFFFFFFFFFFFFFFFFFFFFFFFFFFFFFFFF AND PUSH20 0xFFFFFFFFFFFFFFFFFFFFFFFFFFFFFFFFFFFFFFFF AND DUP2 MSTORE PUSH1 0x20 ADD SWAP1 PUSH1 0x1 ADD SWAP1 DUP1 DUP4 GT PUSH2 0x1136 JUMPI JUMPDEST POP POP POP POP POP SWAP1 POP PUSH1 0x0 DUP2 MLOAD DUP6 LT PUSH2 0x1198 JUMPI DUP2 MLOAD PUSH2 0x119A JUMP JUMPDEST DUP5 JUMPDEST SWAP1 POP PUSH1 0x0 DUP2 PUSH8 0xFFFFFFFFFFFFFFFF DUP2 GT ISZERO PUSH2 0x11B8 JUMPI PUSH2 0x11B7 PUSH2 0x1D74 JUMP JUMPDEST JUMPDEST PUSH1 0x40 MLOAD SWAP1 DUP1 DUP3 MSTORE DUP1 PUSH1 0x20 MUL PUSH1 0x20 ADD DUP3 ADD PUSH1 0x40 MSTORE DUP1 ISZERO PUSH2 0x11E6 JUMPI DUP2 PUSH1 0x20 ADD PUSH1 0x20 DUP3 MUL DUP1 CALLDATASIZE DUP4 CALLDATACOPY DUP1 DUP3 ADD SWAP2 POP POP SWAP1 POP JUMPDEST POP SWAP1 POP PUSH1 0x0 JUMPDEST DUP3 DUP2 LT ISZERO PUSH2 0x1269 JUMPI DUP4 DUP2 DUP2 MLOAD DUP2 LT PUSH2 0x1207 JUMPI PUSH2 0x1206 PUSH2 0x257C JUMP JUMPDEST JUMPDEST PUSH1 0x20 MUL PUSH1 0x20 ADD ADD MLOAD DUP3 DUP3 DUP2 MLOAD DUP2 LT PUSH2 0x1222 JUMPI PUSH2 0x1221 PUSH2 0x257C JUMP JUMPDEST JUMPDEST PUSH1 0x20 MUL PUSH1 0x20 ADD ADD SWAP1 PUSH20 0xFFFFFFFFFFFFFFFFFFFFFFFFFFFFFFFFFFFFFFFF AND SWAP1 DUP2 PUSH20 0xFFFFFFFFFFFFFFFFFFFFFFFFFFFFFFFFFFFFFFFF AND DUP2 MSTORE POP POP DUP1 DUP1 PUSH1 0x1 ADD SWAP2 POP POP PUSH2 0x11EC JUMP JUMPDEST POP DUP1 SWAP5 POP POP POP POP POP SWAP3 SWAP2 POP POP JUMP JUMPDEST PUSH1 0x0 DUP1 PUSH1 0x0 SWAP1 POP PUSH1 0x0 JUMPDEST DUP5 MLOAD DUP2 LT ISZERO PUSH2 0x12FB JUMPI PUSH1 0x0 JUMPDEST DUP5 MLOAD DUP2 LT ISZERO PUSH2 0x12ED JUMPI DUP5 DUP2 DUP2 MLOAD DUP2 LT PUSH2 0x12A9 JUMPI PUSH2 0x12A8 PUSH2 0x257C JUMP JUMPDEST JUMPDEST PUSH1 0x20 MUL PUSH1 0x20 ADD ADD MLOAD DUP7 DUP4 DUP2 MLOAD DUP2 LT PUSH2 0x12C4 JUMPI PUSH2 0x12C3 PUSH2 0x257C JUMP JUMPDEST JUMPDEST PUSH1 0x20 MUL PUSH1 0x20 ADD ADD MLOAD SUB PUSH2 0x12E0 JUMPI DUP3 DUP1 PUSH2 0x12DC SWAP1 PUSH2 0x27E5 JUMP JUMPDEST SWAP4 POP POP JUMPDEST DUP1 DUP1 PUSH1 0x1 ADD SWAP2 POP POP PUSH2 0x128D JUMP JUMPDEST POP DUP1 DUP1 PUSH1 0x1 ADD SWAP2 POP POP PUSH2 0x1281 JUMP JUMPDEST POP DUP1 SWAP2 POP POP SWAP3 SWAP2 POP POP JUMP JUMPDEST PUSH1 0x0 PUSH1 0x1 PUSH1 0x0 DUP5 DUP2 MSTORE PUSH1 0x20 ADD SWAP1 DUP2 MSTORE PUSH1 0x20 ADD PUSH1 0x0 KECCAK256 SWAP1 POP PUSH1 0x0 DUP1 JUMPDEST DUP3 PUSH1 0xA ADD DUP1 SLOAD SWAP1 POP DUP2 LT ISZERO PUSH2 0x15A6 JUMPI PUSH1 0x0 DUP4 PUSH1 0x9 ADD PUSH1 0x0 DUP6 PUSH1 0xA ADD DUP5 DUP2 SLOAD DUP2 LT PUSH2 0x134E JUMPI PUSH2 0x134D PUSH2 0x257C JUMP JUMPDEST JUMPDEST SWAP1 PUSH1 0x0 MSTORE PUSH1 0x20 PUSH1 0x0 KECCAK256 ADD PUSH1 0x0 SWAP1 SLOAD SWAP1 PUSH2 0x100 EXP SWAP1 DIV PUSH20 0xFFFFFFFFFFFFFFFFFFFFFFFFFFFFFFFFFFFFFFFF AND PUSH20 0xFFFFFFFFFFFFFFFFFFFFFFFFFFFFFFFFFFFFFFFF AND PUSH20 0xFFFFFFFFFFFFFFFFFFFFFFFFFFFFFFFFFFFFFFFF AND DUP2 MSTORE PUSH1 0x20 ADD SWAP1 DUP2 MSTORE PUSH1 0x20 ADD PUSH1 0x0 KECCAK256 PUSH1 0x40 MLOAD DUP1 PUSH1 0xA0 ADD PUSH1 0x40 MSTORE SWAP1 DUP2 PUSH1 0x0 DUP3 ADD PUSH1 0x0 SWAP1 SLOAD SWAP1 PUSH2 0x100 EXP SWAP1 DIV PUSH20 0xFFFFFFFFFFFFFFFFFFFFFFFFFFFFFFFFFFFFFFFF AND PUSH20 0xFFFFFFFFFFFFFFFFFFFFFFFFFFFFFFFFFFFFFFFF AND PUSH20 0xFFFFFFFFFFFFFFFFFFFFFFFFFFFFFFFFFFFFFFFF AND DUP2 MSTORE PUSH1 0x20 ADD PUSH1 0x1 DUP3 ADD SLOAD DUP2 MSTORE PUSH1 0x20 ADD PUSH1 0x2 DUP3 ADD DUP1 SLOAD DUP1 PUSH1 0x20 MUL PUSH1 0x20 ADD PUSH1 0x40 MLOAD SWAP1 DUP2 ADD PUSH1 0x40 MSTORE DUP1 SWAP3 SWAP2 SWAP1 DUP2 DUP2 MSTORE PUSH1 0x20 ADD DUP3 DUP1 SLOAD DUP1 ISZERO PUSH2 0x146D JUMPI PUSH1 0x20 MUL DUP3 ADD SWAP2 SWAP1 PUSH1 0x0 MSTORE PUSH1 0x20 PUSH1 0x0 KECCAK256 SWAP1 JUMPDEST DUP2 SLOAD DUP2 MSTORE PUSH1 0x20 ADD SWAP1 PUSH1 0x1 ADD SWAP1 DUP1 DUP4 GT PUSH2 0x1459 JUMPI JUMPDEST POP POP POP POP POP DUP2 MSTORE PUSH1 0x20 ADD PUSH1 0x3 DUP3 ADD PUSH1 0x0 SWAP1 SLOAD SWAP1 PUSH2 0x100 EXP SWAP1 DIV PUSH1 0xFF AND ISZERO ISZERO ISZERO ISZERO DUP2 MSTORE PUSH1 0x20 ADD PUSH1 0x3 DUP3 ADD PUSH1 0x1 SWAP1 SLOAD SWAP1 PUSH2 0x100 EXP SWAP1 DIV PUSH1 0xFF AND ISZERO ISZERO ISZERO ISZERO DUP2 MSTORE POP POP SWAP1 POP DUP1 PUSH1 0x60 ADD MLOAD ISZERO PUSH2 0x1598 JUMPI DUP1 PUSH1 0x80 ADD MLOAD DUP1 ISZERO PUSH2 0x1518 JUMPI POP DUP4 PUSH1 0x1 ADD PUSH1 0x0 SWAP1 SLOAD SWAP1 PUSH2 0x100 EXP SWAP1 DIV PUSH20 0xFFFFFFFFFFFFFFFFFFFFFFFFFFFFFFFFFFFFFFFF AND PUSH20 0xFFFFFFFFFFFFFFFFFFFFFFFFFFFFFFFFFFFFFFFF AND DUP6 PUSH20 0xFFFFFFFFFFFFFFFFFFFFFFFFFFFFFFFFFFFFFFFF AND EQ JUMPDEST DUP1 PUSH2 0x1580 JUMPI POP DUP1 PUSH1 0x80 ADD MLOAD ISZERO DUP1 ISZERO PUSH2 0x157F JUMPI POP DUP4 PUSH1 0x2 ADD PUSH1 0x0 SWAP1 SLOAD SWAP1 PUSH2 0x100 EXP SWAP1 DIV PUSH20 0xFFFFFFFFFFFFFFFFFFFFFFFFFFFFFFFFFFFFFFFF AND PUSH20 0xFFFFFFFFFFFFFFFFFFFFFFFFFFFFFFFFFFFFFFFF AND DUP6 PUSH20 0xFFFFFFFFFFFFFFFFFFFFFFFFFFFFFFFFFFFFFFFF AND EQ JUMPDEST JUMPDEST PUSH2 0x1597 JUMPI DUP1 PUSH1 0x20 ADD MLOAD DUP4 PUSH2 0x1594 SWAP2 SWAP1 PUSH2 0x24A6 JUMP JUMPDEST SWAP3 POP JUMPDEST JUMPDEST POP DUP1 DUP1 PUSH1 0x1 ADD SWAP2 POP POP PUSH2 0x1321 JUMP JUMPDEST POP PUSH1 0x0 JUMPDEST DUP3 PUSH1 0xA ADD DUP1 SLOAD SWAP1 POP DUP2 LT ISZERO PUSH2 0x1A2C JUMPI PUSH1 0x0 DUP4 PUSH1 0x9 ADD PUSH1 0x0 DUP6 PUSH1 0xA ADD DUP5 DUP2 SLOAD DUP2 LT PUSH2 0x15D7 JUMPI PUSH2 0x15D6 PUSH2 0x257C JUMP JUMPDEST JUMPDEST SWAP1 PUSH1 0x0 MSTORE PUSH1 0x20 PUSH1 0x0 KECCAK256 ADD PUSH1 0x0 SWAP1 SLOAD SWAP1 PUSH2 0x100 EXP SWAP1 DIV PUSH20 0xFFFFFFFFFFFFFFFFFFFFFFFFFFFFFFFFFFFFFFFF AND PUSH20 0xFFFFFFFFFFFFFFFFFFFFFFFFFFFFFFFFFFFFFFFF AND PUSH20 0xFFFFFFFFFFFFFFFFFFFFFFFFFFFFFFFFFFFFFFFF AND DUP2 MSTORE PUSH1 0x20 ADD SWAP1 DUP2 MSTORE PUSH1 0x20 ADD PUSH1 0x0 KECCAK256 PUSH1 0x40 MLOAD DUP1 PUSH1 0xA0 ADD PUSH1 0x40 MSTORE SWAP1 DUP2 PUSH1 0x0 DUP3 ADD PUSH1 0x0 SWAP1 SLOAD SWAP1 PUSH2 0x100 EXP SWAP1 DIV PUSH20 0xFFFFFFFFFFFFFFFFFFFFFFFFFFFFFFFFFFFFFFFF AND PUSH20 0xFFFFFFFFFFFFFFFFFFFFFFFFFFFFFFFFFFFFFFFF AND PUSH20 0xFFFFFFFFFFFFFFFFFFFFFFFFFFFFFFFFFFFFFFFF AND DUP2 MSTORE PUSH1 0x20 ADD PUSH1 0x1 DUP3 ADD SLOAD DUP2 MSTORE PUSH1 0x20 ADD PUSH1 0x2 DUP3 ADD DUP1 SLOAD DUP1 PUSH1 0x20 MUL PUSH1 0x20 ADD PUSH1 0x40 MLOAD SWAP1 DUP2 ADD PUSH1 0x40 MSTORE DUP1 SWAP3 SWAP2 SWAP1 DUP2 DUP2 MSTORE PUSH1 0x20 ADD DUP3 DUP1 SLOAD DUP1 ISZERO PUSH2 0x16F6 JUMPI PUSH1 0x20 MUL DUP3 ADD SWAP2 SWAP1 PUSH1 0x0 MSTORE PUSH1 0x20 PUSH1 0x0 KECCAK256 SWAP1 JUMPDEST DUP2 SLOAD DUP2 MSTORE PUSH1 0x20 ADD SWAP1 PUSH1 0x1 ADD SWAP1 DUP1 DUP4 GT PUSH2 0x16E2 JUMPI JUMPDEST POP POP POP POP POP DUP2 MSTORE PUSH1 0x20 ADD PUSH1 0x3 DUP3 ADD PUSH1 0x0 SWAP1 SLOAD SWAP1 PUSH2 0x100 EXP SWAP1 DIV PUSH1 0xFF AND ISZERO ISZERO ISZERO ISZERO DUP2 MSTORE PUSH1 0x20 ADD PUSH1 0x3 DUP3 ADD PUSH1 0x1 SWAP1 SLOAD SWAP1 PUSH2 0x100 EXP SWAP1 DIV PUSH1 0xFF AND ISZERO ISZERO ISZERO ISZERO DUP2 MSTORE POP POP SWAP1 POP DUP1 PUSH1 0x60 ADD MLOAD ISZERO PUSH2 0x1A1E JUMPI DUP1 PUSH1 0x80 ADD MLOAD DUP1 ISZERO PUSH2 0x17A1 JUMPI POP DUP4 PUSH1 0x1 ADD PUSH1 0x0 SWAP1 SLOAD SWAP1 PUSH2 0x100 EXP SWAP1 DIV PUSH20 0xFFFFFFFFFFFFFFFFFFFFFFFFFFFFFFFFFFFFFFFF AND PUSH20 0xFFFFFFFFFFFFFFFFFFFFFFFFFFFFFFFFFFFFFFFF AND DUP6 PUSH20 0xFFFFFFFFFFFFFFFFFFFFFFFFFFFFFFFFFFFFFFFF AND EQ JUMPDEST DUP1 PUSH2 0x1809 JUMPI POP DUP1 PUSH1 0x80 ADD MLOAD ISZERO DUP1 ISZERO PUSH2 0x1808 JUMPI POP DUP4 PUSH1 0x2 ADD PUSH1 0x0 SWAP1 SLOAD SWAP1 PUSH2 0x100 EXP SWAP1 DIV PUSH20 0xFFFFFFFFFFFFFFFFFFFFFFFFFFFFFFFFFFFFFFFF AND PUSH20 0xFFFFFFFFFFFFFFFFFFFFFFFFFFFFFFFFFFFFFFFF AND DUP6 PUSH20 0xFFFFFFFFFFFFFFFFFFFFFFFFFFFFFFFFFFFFFFFF AND EQ JUMPDEST JUMPDEST ISZERO PUSH2 0x192F JUMPI PUSH1 0x0 DUP5 PUSH1 0x6 ADD SLOAD DUP3 PUSH1 0x20 ADD MLOAD PUSH2 0x1824 SWAP2 SWAP1 PUSH2 0x254B JUMP JUMPDEST DUP5 PUSH2 0x182F SWAP2 SWAP1 PUSH2 0x24DA JUMP JUMPDEST DUP3 PUSH1 0x20 ADD MLOAD PUSH2 0x183E SWAP2 SWAP1 PUSH2 0x24A6 JUMP JUMPDEST SWAP1 POP PUSH1 0x0 PUSH1 0x2 PUSH1 0x0 SWAP1 SLOAD SWAP1 PUSH2 0x100 EXP SWAP1 DIV PUSH20 0xFFFFFFFFFFFFFFFFFFFFFFFFFFFFFFFFFFFFFFFF AND PUSH20 0xFFFFFFFFFFFFFFFFFFFFFFFFFFFFFFFFFFFFFFFF AND PUSH4 0xA9059CBB DUP5 PUSH1 0x0 ADD MLOAD DUP5 PUSH1 0x40 MLOAD DUP4 PUSH4 0xFFFFFFFF AND PUSH1 0xE0 SHL DUP2 MSTORE PUSH1 0x4 ADD PUSH2 0x18A3 SWAP3 SWAP2 SWAP1 PUSH2 0x2923 JUMP JUMPDEST PUSH1 0x20 PUSH1 0x40 MLOAD DUP1 DUP4 SUB DUP2 PUSH1 0x0 DUP8 GAS CALL ISZERO DUP1 ISZERO PUSH2 0x18C2 JUMPI RETURNDATASIZE PUSH1 0x0 DUP1 RETURNDATACOPY RETURNDATASIZE PUSH1 0x0 REVERT JUMPDEST POP POP POP POP PUSH1 0x40 MLOAD RETURNDATASIZE PUSH1 0x1F NOT PUSH1 0x1F DUP3 ADD AND DUP3 ADD DUP1 PUSH1 0x40 MSTORE POP DUP2 ADD SWAP1 PUSH2 0x18E6 SWAP2 SWAP1 PUSH2 0x27B8 JUMP JUMPDEST SWAP1 POP DUP1 PUSH2 0x1928 JUMPI PUSH1 0x40 MLOAD PUSH32 0x8C379A000000000000000000000000000000000000000000000000000000000 DUP2 MSTORE PUSH1 0x4 ADD PUSH2 0x191F SWAP1 PUSH2 0x2998 JUMP JUMPDEST PUSH1 0x40 MLOAD DUP1 SWAP2 SUB SWAP1 REVERT JUMPDEST POP POP PUSH2 0x1A1D JUMP JUMPDEST PUSH1 0x0 PUSH1 0x2 PUSH1 0x0 SWAP1 SLOAD SWAP1 PUSH2 0x100 EXP SWAP1 DIV PUSH20 0xFFFFFFFFFFFFFFFFFFFFFFFFFFFFFFFFFFFFFFFF AND PUSH20 0xFFFFFFFFFFFFFFFFFFFFFFFFFFFFFFFFFFFFFFFF AND PUSH4 0xA9059CBB DUP4 PUSH1 0x0 ADD MLOAD DUP5 PUSH1 0x20 ADD MLOAD PUSH1 0x40 MLOAD DUP4 PUSH4 0xFFFFFFFF AND PUSH1 0xE0 SHL DUP2 MSTORE PUSH1 0x4 ADD PUSH2 0x1996 SWAP3 SWAP2 SWAP1 PUSH2 0x2923 JUMP JUMPDEST PUSH1 0x20 PUSH1 0x40 MLOAD DUP1 DUP4 SUB DUP2 PUSH1 0x0 DUP8 GAS CALL ISZERO DUP1 ISZERO PUSH2 0x19B5 JUMPI RETURNDATASIZE PUSH1 0x0 DUP1 RETURNDATACOPY RETURNDATASIZE PUSH1 0x0 REVERT JUMPDEST POP POP POP POP PUSH1 0x40 MLOAD RETURNDATASIZE PUSH1 0x1F NOT PUSH1 0x1F DUP3 ADD AND DUP3 ADD DUP1 PUSH1 0x40 MSTORE POP DUP2 ADD SWAP1 PUSH2 0x19D9 SWAP2 SWAP1 PUSH2 0x27B8 JUMP JUMPDEST SWAP1 POP DUP1 PUSH2 0x1A1B JUMPI PUSH1 0x40 MLOAD PUSH32 0x8C379A000000000000000000000000000000000000000000000000000000000 DUP2 MSTORE PUSH1 0x4 ADD PUSH2 0x1A12 SWAP1 PUSH2 0x2998 JUMP JUMPDEST PUSH1 0x40 MLOAD DUP1 SWAP2 SUB SWAP1 REVERT JUMPDEST POP JUMPDEST JUMPDEST POP DUP1 DUP1 PUSH1 0x1 ADD SWAP2 POP POP PUSH2 0x15AA JUMP JUMPDEST POP POP POP POP POP JUMP JUMPDEST PUSH2 0x1A3B PUSH2 0x1BA9 JUMP JUMPDEST PUSH20 0xFFFFFFFFFFFFFFFFFFFFFFFFFFFFFFFFFFFFFFFF AND PUSH2 0x1A59 PUSH2 0xC18 JUMP JUMPDEST PUSH20 0xFFFFFFFFFFFFFFFFFFFFFFFFFFFFFFFFFFFFFFFF AND EQ PUSH2 0x1AB8 JUMPI PUSH2 0x1A7C PUSH2 0x1BA9 JUMP JUMPDEST PUSH1 0x40 MLOAD PUSH32 0x118CDAA700000000000000000000000000000000000000000000000000000000 DUP2 MSTORE PUSH1 0x4 ADD PUSH2 0x1AAF SWAP2 SWAP1 PUSH2 0x1D17 JUMP JUMPDEST PUSH1 0x40 MLOAD DUP1 SWAP2 SUB SWAP1 REVERT JUMPDEST JUMP JUMPDEST PUSH1 0x0 DUP1 PUSH1 0x0 SWAP1 SLOAD SWAP1 PUSH2 0x100 EXP SWAP1 DIV PUSH20 0xFFFFFFFFFFFFFFFFFFFFFFFFFFFFFFFFFFFFFFFF AND SWAP1 POP DUP2 PUSH1 0x0 DUP1 PUSH2 0x100 EXP DUP2 SLOAD DUP2 PUSH20 0xFFFFFFFFFFFFFFFFFFFFFFFFFFFFFFFFFFFFFFFF MUL NOT AND SWAP1 DUP4 PUSH20 0xFFFFFFFFFFFFFFFFFFFFFFFFFFFFFFFFFFFFFFFF AND MUL OR SWAP1 SSTORE POP DUP2 PUSH20 0xFFFFFFFFFFFFFFFFFFFFFFFFFFFFFFFFFFFFFFFF AND DUP2 PUSH20 0xFFFFFFFFFFFFFFFFFFFFFFFFFFFFFFFFFFFFFFFF AND PUSH32 0x8BE0079C531659141344CD1FD0A4F28419497F9722A3DAAFE3B4186F6B6457E0 PUSH1 0x40 MLOAD PUSH1 0x40 MLOAD DUP1 SWAP2 SUB SWAP1 LOG3 POP POP JUMP JUMPDEST PUSH1 0x0 JUMPDEST PUSH1 0x1 DUP3 GT ISZERO PUSH2 0x1BA4 JUMPI PUSH1 0x1 DUP3 SWAP1 SHR SWAP2 POP DUP1 DUP1 PUSH2 0x1B9C SWAP1 PUSH2 0x27E5 JUMP JUMPDEST SWAP2 POP POP PUSH2 0x1B81 JUMP JUMPDEST SWAP2 SWAP1 POP JUMP JUMPDEST PUSH1 0x0 CALLER SWAP1 POP SWAP1 JUMP JUMPDEST DUP3 DUP1 SLOAD DUP3 DUP3 SSTORE SWAP1 PUSH1 0x0 MSTORE PUSH1 0x20 PUSH1 0x0 KECCAK256 SWAP1 DUP2 ADD SWAP3 DUP3 ISZERO PUSH2 0x1BED JUMPI SWAP2 PUSH1 0x20 MUL DUP3 ADD JUMPDEST DUP3 DUP2 GT ISZERO PUSH2 0x1BEC JUMPI DUP3 MLOAD DUP3 SSTORE SWAP2 PUSH1 0x20 ADD SWAP2 SWAP1 PUSH1 0x1 ADD SWAP1 PUSH2 0x1BD1 JUMP JUMPDEST JUMPDEST POP SWAP1 POP PUSH2 0x1BFA SWAP2 SWAP1 PUSH2 0x1BFE JUMP JUMPDEST POP SWAP1 JUMP JUMPDEST JUMPDEST DUP1 DUP3 GT ISZERO PUSH2 0x1C17 JUMPI PUSH1 0x0 DUP2 PUSH1 0x0 SWAP1 SSTORE POP PUSH1 0x1 ADD PUSH2 0x1BFF JUMP JUMPDEST POP SWAP1 JUMP JUMPDEST PUSH1 0x0 PUSH1 0x40 MLOAD SWAP1 POP SWAP1 JUMP JUMPDEST PUSH1 0x0 DUP1 REVERT JUMPDEST PUSH1 0x0 DUP1 REVERT JUMPDEST PUSH1 0x0 DUP2 SWAP1 POP SWAP2 SWAP1 POP JUMP JUMPDEST PUSH2 0x1C42 DUP2 PUSH2 0x1C2F JUMP JUMPDEST DUP2 EQ PUSH2 0x1C4D JUMPI PUSH1 0x0 DUP1 REVERT JUMPDEST POP JUMP JUMPDEST PUSH1 0x0 DUP2 CALLDATALOAD SWAP1 POP PUSH2 0x1C5F DUP2 PUSH2 0x1C39 JUMP JUMPDEST SWAP3 SWAP2 POP POP JUMP JUMPDEST PUSH1 0x0 PUSH1 0x20 DUP3 DUP5 SUB SLT ISZERO PUSH2 0x1C7B JUMPI PUSH2 0x1C7A PUSH2 0x1C25 JUMP JUMPDEST JUMPDEST PUSH1 0x0 PUSH2 0x1C89 DUP5 DUP3 DUP6 ADD PUSH2 0x1C50 JUMP JUMPDEST SWAP2 POP POP SWAP3 SWAP2 POP POP JUMP JUMPDEST PUSH1 0x0 DUP2 ISZERO ISZERO SWAP1 POP SWAP2 SWAP1 POP JUMP JUMPDEST PUSH2 0x1CA7 DUP2 PUSH2 0x1C92 JUMP JUMPDEST DUP3 MSTORE POP POP JUMP JUMPDEST PUSH1 0x0 PUSH20 0xFFFFFFFFFFFFFFFFFFFFFFFFFFFFFFFFFFFFFFFF DUP3 AND SWAP1 POP SWAP2 SWAP1 POP JUMP JUMPDEST PUSH1 0x0 PUSH2 0x1CD8 DUP3 PUSH2 0x1CAD JUMP JUMPDEST SWAP1 POP SWAP2 SWAP1 POP JUMP JUMPDEST PUSH2 0x1CE8 DUP2 PUSH2 0x1CCD JUMP JUMPDEST DUP3 MSTORE POP POP JUMP JUMPDEST PUSH1 0x0 PUSH1 0x40 DUP3 ADD SWAP1 POP PUSH2 0x1D03 PUSH1 0x0 DUP4 ADD DUP6 PUSH2 0x1C9E JUMP JUMPDEST PUSH2 0x1D10 PUSH1 0x20 DUP4 ADD DUP5 PUSH2 0x1CDF JUMP JUMPDEST SWAP4 SWAP3 POP POP POP JUMP JUMPDEST PUSH1 0x0 PUSH1 0x20 DUP3 ADD SWAP1 POP PUSH2 0x1D2C PUSH1 0x0 DUP4 ADD DUP5 PUSH2 0x1CDF JUMP JUMPDEST SWAP3 SWAP2 POP POP JUMP JUMPDEST PUSH2 0x1D3B DUP2 PUSH2 0x1C92 JUMP JUMPDEST DUP2 EQ PUSH2 0x1D46 JUMPI PUSH1 0x0 DUP1 REVERT JUMPDEST POP JUMP JUMPDEST PUSH1 0x0 DUP2 CALLDATALOAD SWAP1 POP PUSH2 0x1D58 DUP2 PUSH2 0x1D32 JUMP JUMPDEST SWAP3 SWAP2 POP POP JUMP JUMPDEST PUSH1 0x0 DUP1 REVERT JUMPDEST PUSH1 0x0 PUSH1 0x1F NOT PUSH1 0x1F DUP4 ADD AND SWAP1 POP SWAP2 SWAP1 POP JUMP JUMPDEST PUSH32 0x4E487B7100000000000000000000000000000000000000000000000000000000 PUSH1 0x0 MSTORE PUSH1 0x41 PUSH1 0x4 MSTORE PUSH1 0x24 PUSH1 0x0 REVERT JUMPDEST PUSH2 0x1DAC DUP3 PUSH2 0x1D63 JUMP JUMPDEST DUP2 ADD DUP2 DUP2 LT PUSH8 0xFFFFFFFFFFFFFFFF DUP3 GT OR ISZERO PUSH2 0x1DCB JUMPI PUSH2 0x1DCA PUSH2 0x1D74 JUMP JUMPDEST JUMPDEST DUP1 PUSH1 0x40 MSTORE POP POP POP JUMP JUMPDEST PUSH1 0x0 PUSH2 0x1DDE PUSH2 0x1C1B JUMP JUMPDEST SWAP1 POP PUSH2 0x1DEA DUP3 DUP3 PUSH2 0x1DA3 JUMP JUMPDEST SWAP2 SWAP1 POP JUMP JUMPDEST PUSH1 0x0 PUSH8 0xFFFFFFFFFFFFFFFF DUP3 GT ISZERO PUSH2 0x1E0A JUMPI PUSH2 0x1E09 PUSH2 0x1D74 JUMP JUMPDEST JUMPDEST PUSH1 0x20 DUP3 MUL SWAP1 POP PUSH1 0x20 DUP2 ADD SWAP1 POP SWAP2 SWAP1 POP JUMP JUMPDEST PUSH1 0x0 DUP1 REVERT JUMPDEST PUSH1 0x0 PUSH2 0x1E33 PUSH2 0x1E2E DUP5 PUSH2 0x1DEF JUMP JUMPDEST PUSH2 0x1DD4 JUMP JUMPDEST SWAP1 POP DUP1 DUP4 DUP3 MSTORE PUSH1 0x20 DUP3 ADD SWAP1 POP PUSH1 0x20 DUP5 MUL DUP4 ADD DUP6 DUP2 GT ISZERO PUSH2 0x1E56 JUMPI PUSH2 0x1E55 PUSH2 0x1E1B JUMP JUMPDEST JUMPDEST DUP4 JUMPDEST DUP2 DUP2 LT ISZERO PUSH2 0x1E7F JUMPI DUP1 PUSH2 0x1E6B DUP9 DUP3 PUSH2 0x1C50 JUMP JUMPDEST DUP5 MSTORE PUSH1 0x20 DUP5 ADD SWAP4 POP POP PUSH1 0x20 DUP2 ADD SWAP1 POP PUSH2 0x1E58 JUMP JUMPDEST POP POP POP SWAP4 SWAP3 POP POP POP JUMP JUMPDEST PUSH1 0x0 DUP3 PUSH1 0x1F DUP4 ADD SLT PUSH2 0x1E9E JUMPI PUSH2 0x1E9D PUSH2 0x1D5E JUMP JUMPDEST JUMPDEST DUP2 CALLDATALOAD PUSH2 0x1EAE DUP5 DUP3 PUSH1 0x20 DUP7 ADD PUSH2 0x1E20 JUMP JUMPDEST SWAP2 POP POP SWAP3 SWAP2 POP POP JUMP JUMPDEST PUSH1 0x0 DUP1 PUSH1 0x0 DUP1 PUSH1 0x80 DUP6 DUP8 SUB SLT ISZERO PUSH2 0x1ED1 JUMPI PUSH2 0x1ED0 PUSH2 0x1C25 JUMP JUMPDEST JUMPDEST PUSH1 0x0 PUSH2 0x1EDF DUP8 DUP3 DUP9 ADD PUSH2 0x1C50 JUMP JUMPDEST SWAP5 POP POP PUSH1 0x20 PUSH2 0x1EF0 DUP8 DUP3 DUP9 ADD PUSH2 0x1D49 JUMP JUMPDEST SWAP4 POP POP PUSH1 0x40 PUSH2 0x1F01 DUP8 DUP3 DUP9 ADD PUSH2 0x1C50 JUMP JUMPDEST SWAP3 POP POP PUSH1 0x60 DUP6 ADD CALLDATALOAD PUSH8 0xFFFFFFFFFFFFFFFF DUP2 GT ISZERO PUSH2 0x1F22 JUMPI PUSH2 0x1F21 PUSH2 0x1C2A JUMP JUMPDEST JUMPDEST PUSH2 0x1F2E DUP8 DUP3 DUP9 ADD PUSH2 0x1E89 JUMP JUMPDEST SWAP2 POP POP SWAP3 SWAP6 SWAP2 SWAP5 POP SWAP3 POP JUMP JUMPDEST PUSH2 0x1F43 DUP2 PUSH2 0x1C2F JUMP JUMPDEST DUP3 MSTORE POP POP JUMP JUMPDEST PUSH1 0x0 PUSH2 0x100 DUP3 ADD SWAP1 POP PUSH2 0x1F5F PUSH1 0x0 DUP4 ADD DUP12 PUSH2 0x1F3A JUMP JUMPDEST PUSH2 0x1F6C PUSH1 0x20 DUP4 ADD DUP11 PUSH2 0x1CDF JUMP JUMPDEST PUSH2 0x1F79 PUSH1 0x40 DUP4 ADD DUP10 PUSH2 0x1CDF JUMP JUMPDEST PUSH2 0x1F86 PUSH1 0x60 DUP4 ADD DUP9 PUSH2 0x1F3A JUMP JUMPDEST PUSH2 0x1F93 PUSH1 0x80 DUP4 ADD DUP8 PUSH2 0x1C9E JUMP JUMPDEST PUSH2 0x1FA0 PUSH1 0xA0 DUP4 ADD DUP7 PUSH2 0x1F3A JUMP JUMPDEST PUSH2 0x1FAD PUSH1 0xC0 DUP4 ADD DUP6 PUSH2 0x1F3A JUMP JUMPDEST PUSH2 0x1FBA PUSH1 0xE0 DUP4 ADD DUP5 PUSH2 0x1F3A JUMP JUMPDEST SWAP10 SWAP9 POP POP POP POP POP POP POP POP POP JUMP JUMPDEST PUSH1 0x0 DUP1 REVERT JUMPDEST PUSH1 0x0 DUP1 REVERT JUMPDEST PUSH2 0x1FDA DUP2 PUSH2 0x1CCD JUMP JUMPDEST DUP2 EQ PUSH2 0x1FE5 JUMPI PUSH1 0x0 DUP1 REVERT JUMPDEST POP JUMP JUMPDEST PUSH1 0x0 DUP2 CALLDATALOAD SWAP1 POP PUSH2 0x1FF7 DUP2 PUSH2 0x1FD1 JUMP JUMPDEST SWAP3 SWAP2 POP POP JUMP JUMPDEST PUSH1 0x0 DUP1 REVERT JUMPDEST PUSH1 0x0 PUSH8 0xFFFFFFFFFFFFFFFF DUP3 GT ISZERO PUSH2 0x201D JUMPI PUSH2 0x201C PUSH2 0x1D74 JUMP JUMPDEST JUMPDEST PUSH2 0x2026 DUP3 PUSH2 0x1D63 JUMP JUMPDEST SWAP1 POP PUSH1 0x20 DUP2 ADD SWAP1 POP SWAP2 SWAP1 POP JUMP JUMPDEST DUP3 DUP2 DUP4 CALLDATACOPY PUSH1 0x0 DUP4 DUP4 ADD MSTORE POP POP POP JUMP JUMPDEST PUSH1 0x0 PUSH2 0x2055 PUSH2 0x2050 DUP5 PUSH2 0x2002 JUMP JUMPDEST PUSH2 0x1DD4 JUMP JUMPDEST SWAP1 POP DUP3 DUP2 MSTORE PUSH1 0x20 DUP2 ADD DUP5 DUP5 DUP5 ADD GT ISZERO PUSH2 0x2071 JUMPI PUSH2 0x2070 PUSH2 0x1FFD JUMP JUMPDEST JUMPDEST PUSH2 0x207C DUP5 DUP3 DUP6 PUSH2 0x2033 JUMP JUMPDEST POP SWAP4 SWAP3 POP POP POP JUMP JUMPDEST PUSH1 0x0 DUP3 PUSH1 0x1F DUP4 ADD SLT PUSH2 0x2099 JUMPI PUSH2 0x2098 PUSH2 0x1D5E JUMP JUMPDEST JUMPDEST DUP2 CALLDATALOAD PUSH2 0x20A9 DUP5 DUP3 PUSH1 0x20 DUP7 ADD PUSH2 0x2042 JUMP JUMPDEST SWAP2 POP POP SWAP3 SWAP2 POP POP JUMP JUMPDEST PUSH1 0x0 PUSH2 0x120 DUP3 DUP5 SUB SLT ISZERO PUSH2 0x20C9 JUMPI PUSH2 0x20C8 PUSH2 0x1FC7 JUMP JUMPDEST JUMPDEST PUSH2 0x20D4 PUSH2 0x120 PUSH2 0x1DD4 JUMP JUMPDEST SWAP1 POP PUSH1 0x0 PUSH2 0x20E4 DUP5 DUP3 DUP6 ADD PUSH2 0x1C50 JUMP JUMPDEST PUSH1 0x0 DUP4 ADD MSTORE POP PUSH1 0x20 PUSH2 0x20F8 DUP5 DUP3 DUP6 ADD PUSH2 0x1FE8 JUMP JUMPDEST PUSH1 0x20 DUP4 ADD MSTORE POP PUSH1 0x40 PUSH2 0x210C DUP5 DUP3 DUP6 ADD PUSH2 0x1FE8 JUMP JUMPDEST PUSH1 0x40 DUP4 ADD MSTORE POP PUSH1 0x60 PUSH2 0x2120 DUP5 DUP3 DUP6 ADD PUSH2 0x1FE8 JUMP JUMPDEST PUSH1 0x60 DUP4 ADD MSTORE POP PUSH1 0x80 DUP3 ADD CALLDATALOAD PUSH8 0xFFFFFFFFFFFFFFFF DUP2 GT ISZERO PUSH2 0x2144 JUMPI PUSH2 0x2143 PUSH2 0x1FCC JUMP JUMPDEST JUMPDEST PUSH2 0x2150 DUP5 DUP3 DUP6 ADD PUSH2 0x2084 JUMP JUMPDEST PUSH1 0x80 DUP4 ADD MSTORE POP PUSH1 0xA0 DUP3 ADD CALLDATALOAD PUSH8 0xFFFFFFFFFFFFFFFF DUP2 GT ISZERO PUSH2 0x2174 JUMPI PUSH2 0x2173 PUSH2 0x1FCC JUMP JUMPDEST JUMPDEST PUSH2 0x2180 DUP5 DUP3 DUP6 ADD PUSH2 0x1E89 JUMP JUMPDEST PUSH1 0xA0 DUP4 ADD MSTORE POP PUSH1 0xC0 PUSH2 0x2194 DUP5 DUP3 DUP6 ADD PUSH2 0x1C50 JUMP JUMPDEST PUSH1 0xC0 DUP4 ADD MSTORE POP PUSH1 0xE0 PUSH2 0x21A8 DUP5 DUP3 DUP6 ADD PUSH2 0x1D49 JUMP JUMPDEST PUSH1 0xE0 DUP4 ADD MSTORE POP PUSH2 0x100 PUSH2 0x21BD DUP5 DUP3 DUP6 ADD PUSH2 0x1FE8 JUMP JUMPDEST PUSH2 0x100 DUP4 ADD MSTORE POP SWAP3 SWAP2 POP POP JUMP JUMPDEST PUSH1 0x0 DUP1 PUSH1 0x40 DUP4 DUP6 SUB SLT ISZERO PUSH2 0x21E1 JUMPI PUSH2 0x21E0 PUSH2 0x1C25 JUMP JUMPDEST JUMPDEST PUSH1 0x0 DUP4 ADD CALLDATALOAD PUSH8 0xFFFFFFFFFFFFFFFF DUP2 GT ISZERO PUSH2 0x21FF JUMPI PUSH2 0x21FE PUSH2 0x1C2A JUMP JUMPDEST JUMPDEST PUSH2 0x220B DUP6 DUP3 DUP7 ADD PUSH2 0x20B2 JUMP JUMPDEST SWAP3 POP POP PUSH1 0x20 PUSH2 0x221C DUP6 DUP3 DUP7 ADD PUSH2 0x1C50 JUMP JUMPDEST SWAP2 POP POP SWAP3 POP SWAP3 SWAP1 POP JUMP JUMPDEST PUSH1 0x0 PUSH1 0x20 DUP3 ADD SWAP1 POP PUSH2 0x223B PUSH1 0x0 DUP4 ADD DUP5 PUSH2 0x1C9E JUMP JUMPDEST SWAP3 SWAP2 POP POP JUMP JUMPDEST PUSH1 0x0 DUP2 SWAP1 POP SWAP2 SWAP1 POP JUMP JUMPDEST PUSH1 0x0 PUSH2 0x2266 PUSH2 0x2261 PUSH2 0x225C DUP5 PUSH2 0x1CAD JUMP JUMPDEST PUSH2 0x2241 JUMP JUMPDEST PUSH2 0x1CAD JUMP JUMPDEST SWAP1 POP SWAP2 SWAP1 POP JUMP JUMPDEST PUSH1 0x0 PUSH2 0x2278 DUP3 PUSH2 0x224B JUMP JUMPDEST SWAP1 POP SWAP2 SWAP1 POP JUMP JUMPDEST PUSH1 0x0 PUSH2 0x228A DUP3 PUSH2 0x226D JUMP JUMPDEST SWAP1 POP SWAP2 SWAP1 POP JUMP JUMPDEST PUSH2 0x229A DUP2 PUSH2 0x227F JUMP JUMPDEST DUP3 MSTORE POP POP JUMP JUMPDEST PUSH1 0x0 PUSH1 0x20 DUP3 ADD SWAP1 POP PUSH2 0x22B5 PUSH1 0x0 DUP4 ADD DUP5 PUSH2 0x2291 JUMP JUMPDEST SWAP3 SWAP2 POP POP JUMP JUMPDEST PUSH1 0x0 PUSH1 0x20 DUP3 DUP5 SUB SLT ISZERO PUSH2 0x22D1 JUMPI PUSH2 0x22D0 PUSH2 0x1C25 JUMP JUMPDEST JUMPDEST PUSH1 0x0 PUSH2 0x22DF DUP5 DUP3 DUP6 ADD PUSH2 0x1FE8 JUMP JUMPDEST SWAP2 POP POP SWAP3 SWAP2 POP POP JUMP JUMPDEST PUSH1 0x0 DUP1 PUSH1 0x0 PUSH1 0x60 DUP5 DUP7 SUB SLT ISZERO PUSH2 0x2301 JUMPI PUSH2 0x2300 PUSH2 0x1C25 JUMP JUMPDEST JUMPDEST PUSH1 0x0 PUSH2 0x230F DUP7 DUP3 DUP8 ADD PUSH2 0x1C50 JUMP JUMPDEST SWAP4 POP POP PUSH1 0x20 DUP5 ADD CALLDATALOAD PUSH8 0xFFFFFFFFFFFFFFFF DUP2 GT ISZERO PUSH2 0x2330 JUMPI PUSH2 0x232F PUSH2 0x1C2A JUMP JUMPDEST JUMPDEST PUSH2 0x233C DUP7 DUP3 DUP8 ADD PUSH2 0x1E89 JUMP JUMPDEST SWAP3 POP POP PUSH1 0x40 DUP5 ADD CALLDATALOAD PUSH8 0xFFFFFFFFFFFFFFFF DUP2 GT ISZERO PUSH2 0x235D JUMPI PUSH2 0x235C PUSH2 0x1C2A JUMP JUMPDEST JUMPDEST PUSH2 0x2369 DUP7 DUP3 DUP8 ADD PUSH2 0x1E89 JUMP JUMPDEST SWAP2 POP POP SWAP3 POP SWAP3 POP SWAP3 JUMP JUMPDEST PUSH1 0x0 PUSH1 0x20 DUP3 ADD SWAP1 POP PUSH2 0x2388 PUSH1 0x0 DUP4 ADD DUP5 PUSH2 0x1F3A JUMP JUMPDEST SWAP3 SWAP2 POP POP JUMP JUMPDEST PUSH1 0x0 DUP3 DUP3 MSTORE PUSH1 0x20 DUP3 ADD SWAP1 POP SWAP3 SWAP2 POP POP JUMP JUMPDEST PUSH32 0x4469737075746520616C7265616479207265736F6C7665640000000000000000 PUSH1 0x0 DUP3 ADD MSTORE POP JUMP JUMPDEST PUSH1 0x0 PUSH2 0x23D5 PUSH1 0x18 DUP4 PUSH2 0x238E JUMP JUMPDEST SWAP2 POP PUSH2 0x23E0 DUP3 PUSH2 0x239F JUMP JUMPDEST PUSH1 0x20 DUP3 ADD SWAP1 POP SWAP2 SWAP1 POP JUMP JUMPDEST PUSH1 0x0 PUSH1 0x20 DUP3 ADD SWAP1 POP DUP2 DUP2 SUB PUSH1 0x0 DUP4 ADD MSTORE PUSH2 0x2404 DUP2 PUSH2 0x23C8 JUMP JUMPDEST SWAP1 POP SWAP2 SWAP1 POP JUMP JUMPDEST PUSH32 0x566F74696E67207374696C6C206F6E676F696E67000000000000000000000000 PUSH1 0x0 DUP3 ADD MSTORE POP JUMP JUMPDEST PUSH1 0x0 PUSH2 0x2441 PUSH1 0x14 DUP4 PUSH2 0x238E JUMP JUMPDEST SWAP2 POP PUSH2 0x244C DUP3 PUSH2 0x240B JUMP JUMPDEST PUSH1 0x20 DUP3 ADD SWAP1 POP SWAP2 SWAP1 POP JUMP JUMPDEST PUSH1 0x0 PUSH1 0x20 DUP3 ADD SWAP1 POP DUP2 DUP2 SUB PUSH1 0x0 DUP4 ADD MSTORE PUSH2 0x2470 DUP2 PUSH2 0x2434 JUMP JUMPDEST SWAP1 POP SWAP2 SWAP1 POP JUMP JUMPDEST PUSH32 0x4E487B7100000000000000000000000000000000000000000000000000000000 PUSH1 0x0 MSTORE PUSH1 0x11 PUSH1 0x4 MSTORE PUSH1 0x24 PUSH1 0x0 REVERT JUMPDEST PUSH1 0x0 PUSH2 0x24B1 DUP3 PUSH2 0x1C2F JUMP JUMPDEST SWAP2 POP PUSH2 0x24BC DUP4 PUSH2 0x1C2F JUMP JUMPDEST SWAP3 POP DUP3 DUP3 ADD SWAP1 POP DUP1 DUP3 GT ISZERO PUSH2 0x24D4 JUMPI PUSH2 0x24D3 PUSH2 0x2477 JUMP JUMPDEST JUMPDEST SWAP3 SWAP2 POP POP JUMP JUMPDEST PUSH1 0x0 PUSH2 0x24E5 DUP3 PUSH2 0x1C2F JUMP JUMPDEST SWAP2 POP PUSH2 0x24F0 DUP4 PUSH2 0x1C2F JUMP JUMPDEST SWAP3 POP DUP3 DUP3 MUL PUSH2 0x24FE DUP2 PUSH2 0x1C2F JUMP JUMPDEST SWAP2 POP DUP3 DUP3 DIV DUP5 EQ DUP4 ISZERO OR PUSH2 0x2515 JUMPI PUSH2 0x2514 PUSH2 0x2477 JUMP JUMPDEST JUMPDEST POP SWAP3 SWAP2 POP POP JUMP JUMPDEST PUSH32 0x4E487B7100000000000000000000000000000000000000000000000000000000 PUSH1 0x0 MSTORE PUSH1 0x12 PUSH1 0x4 MSTORE PUSH1 0x24 PUSH1 0x0 REVERT JUMPDEST PUSH1 0x0 PUSH2 0x2556 DUP3 PUSH2 0x1C2F JUMP JUMPDEST SWAP2 POP PUSH2 0x2561 DUP4 PUSH2 0x1C2F JUMP JUMPDEST SWAP3 POP DUP3 PUSH2 0x2571 JUMPI PUSH2 0x2570 PUSH2 0x251C JUMP JUMPDEST JUMPDEST DUP3 DUP3 DIV SWAP1 POP SWAP3 SWAP2 POP POP JUMP JUMPDEST PUSH32 0x4E487B7100000000000000000000000000000000000000000000000000000000 PUSH1 0x0 MSTORE PUSH1 0x32 PUSH1 0x4 MSTORE PUSH1 0x24 PUSH1 0x0 REVERT JUMPDEST PUSH1 0x0 PUSH1 0x60 DUP3 ADD SWAP1 POP PUSH2 0x25C0 PUSH1 0x0 DUP4 ADD DUP7 PUSH2 0x1F3A JUMP JUMPDEST PUSH2 0x25CD PUSH1 0x20 DUP4 ADD DUP6 PUSH2 0x1CDF JUMP JUMPDEST PUSH2 0x25DA PUSH1 0x40 DUP4 ADD DUP5 PUSH2 0x1CDF JUMP JUMPDEST SWAP5 SWAP4 POP POP POP POP JUMP JUMPDEST PUSH1 0x0 DUP2 SWAP1 POP SWAP3 SWAP2 POP POP JUMP JUMPDEST POP JUMP JUMPDEST PUSH1 0x0 PUSH2 0x25FD PUSH1 0x0 DUP4 PUSH2 0x25E2 JUMP JUMPDEST SWAP2 POP PUSH2 0x2608 DUP3 PUSH2 0x25ED JUMP JUMPDEST PUSH1 0x0 DUP3 ADD SWAP1 POP SWAP2 SWAP1 POP JUMP JUMPDEST PUSH1 0x0 PUSH2 0x261E DUP3 PUSH2 0x25F0 JUMP JUMPDEST SWAP2 POP DUP2 SWAP1 POP SWAP2 SWAP1 POP JUMP JUMPDEST PUSH32 0x4661696C656420746F2073656E64204574686572000000000000000000000000 PUSH1 0x0 DUP3 ADD MSTORE POP JUMP JUMPDEST PUSH1 0x0 PUSH2 0x265E PUSH1 0x14 DUP4 PUSH2 0x238E JUMP JUMPDEST SWAP2 POP PUSH2 0x2669 DUP3 PUSH2 0x2628 JUMP JUMPDEST PUSH1 0x20 DUP3 ADD SWAP1 POP SWAP2 SWAP1 POP JUMP JUMPDEST PUSH1 0x0 PUSH1 0x20 DUP3 ADD SWAP1 POP DUP2 DUP2 SUB PUSH1 0x0 DUP4 ADD MSTORE PUSH2 0x268D DUP2 PUSH2 0x2651 JUMP JUMPDEST SWAP1 POP SWAP2 SWAP1 POP JUMP JUMPDEST PUSH32 0x566F74696E6720646561646C696E652070617373656400000000000000000000 PUSH1 0x0 DUP3 ADD MSTORE POP JUMP JUMPDEST PUSH1 0x0 PUSH2 0x26CA PUSH1 0x16 DUP4 PUSH2 0x238E JUMP JUMPDEST SWAP2 POP PUSH2 0x26D5 DUP3 PUSH2 0x2694 JUMP JUMPDEST PUSH1 0x20 DUP3 ADD SWAP1 POP SWAP2 SWAP1 POP JUMP JUMPDEST PUSH1 0x0 PUSH1 0x20 DUP3 ADD SWAP1 POP DUP2 DUP2 SUB PUSH1 0x0 DUP4 ADD MSTORE PUSH2 0x26F9 DUP2 PUSH2 0x26BD JUMP JUMPDEST SWAP1 POP SWAP2 SWAP1 POP JUMP JUMPDEST PUSH32 0x416C726561647920766F74656400000000000000000000000000000000000000 PUSH1 0x0 DUP3 ADD MSTORE POP JUMP JUMPDEST PUSH1 0x0 PUSH2 0x2736 PUSH1 0xD DUP4 PUSH2 0x238E JUMP JUMPDEST SWAP2 POP PUSH2 0x2741 DUP3 PUSH2 0x2700 JUMP JUMPDEST PUSH1 0x20 DUP3 ADD SWAP1 POP SWAP2 SWAP1 POP JUMP JUMPDEST PUSH1 0x0 PUSH1 0x20 DUP3 ADD SWAP1 POP DUP2 DUP2 SUB PUSH1 0x0 DUP4 ADD MSTORE PUSH2 0x2765 DUP2 PUSH2 0x2729 JUMP JUMPDEST SWAP1 POP SWAP2 SWAP1 POP JUMP JUMPDEST PUSH1 0x0 PUSH1 0x60 DUP3 ADD SWAP1 POP PUSH2 0x2781 PUSH1 0x0 DUP4 ADD DUP7 PUSH2 0x1CDF JUMP JUMPDEST PUSH2 0x278E PUSH1 0x20 DUP4 ADD DUP6 PUSH2 0x1CDF JUMP JUMPDEST PUSH2 0x279B PUSH1 0x40 DUP4 ADD DUP5 PUSH2 0x1F3A JUMP JUMPDEST SWAP5 SWAP4 POP POP POP POP JUMP JUMPDEST PUSH1 0x0 DUP2 MLOAD SWAP1 POP PUSH2 0x27B2 DUP2 PUSH2 0x1D32 JUMP JUMPDEST SWAP3 SWAP2 POP POP JUMP JUMPDEST PUSH1 0x0 PUSH1 0x20 DUP3 DUP5 SUB SLT ISZERO PUSH2 0x27CE JUMPI PUSH2 0x27CD PUSH2 0x1C25 JUMP JUMPDEST JUMPDEST PUSH1 0x0 PUSH2 0x27DC DUP5 DUP3 DUP6 ADD PUSH2 0x27A3 JUMP JUMPDEST SWAP2 POP POP SWAP3 SWAP2 POP POP JUMP JUMPDEST PUSH1 0x0 PUSH2 0x27F0 DUP3 PUSH2 0x1C2F JUMP JUMPDEST SWAP2 POP PUSH32 0xFFFFFFFFFFFFFFFFFFFFFFFFFFFFFFFFFFFFFFFFFFFFFFFFFFFFFFFFFFFFFFFF DUP3 SUB PUSH2 0x2822 JUMPI PUSH2 0x2821 PUSH2 0x2477 JUMP JUMPDEST JUMPDEST PUSH1 0x1 DUP3 ADD SWAP1 POP SWAP2 SWAP1 POP JUMP JUMPDEST PUSH1 0x0 DUP2 SWAP1 POP SWAP2 SWAP1 POP JUMP JUMPDEST PUSH1 0x0 PUSH2 0x2852 PUSH2 0x284D PUSH2 0x2848 DUP5 PUSH2 0x282D JUMP JUMPDEST PUSH2 0x2241 JUMP JUMPDEST PUSH2 0x1C2F JUMP JUMPDEST SWAP1 POP SWAP2 SWAP1 POP JUMP JUMPDEST PUSH2 0x2862 DUP2 PUSH2 0x2837 JUMP JUMPDEST DUP3 MSTORE POP POP JUMP JUMPDEST PUSH1 0x0 PUSH1 0x40 DUP3 ADD SWAP1 POP PUSH2 0x287D PUSH1 0x0 DUP4 ADD DUP6 PUSH2 0x1CDF JUMP JUMPDEST PUSH2 0x288A PUSH1 0x20 DUP4 ADD DUP5 PUSH2 0x2859 JUMP JUMPDEST SWAP4 SWAP3 POP POP POP JUMP JUMPDEST PUSH32 0x7265717569726564536B696C6C73206172726179206D757374206E6F74206265 PUSH1 0x0 DUP3 ADD MSTORE PUSH32 0x20656D7074790000000000000000000000000000000000000000000000000000 PUSH1 0x20 DUP3 ADD MSTORE POP JUMP JUMPDEST PUSH1 0x0 PUSH2 0x28ED PUSH1 0x26 DUP4 PUSH2 0x238E JUMP JUMPDEST SWAP2 POP PUSH2 0x28F8 DUP3 PUSH2 0x2891 JUMP JUMPDEST PUSH1 0x40 DUP3 ADD SWAP1 POP SWAP2 SWAP1 POP JUMP JUMPDEST PUSH1 0x0 PUSH1 0x20 DUP3 ADD SWAP1 POP DUP2 DUP2 SUB PUSH1 0x0 DUP4 ADD MSTORE PUSH2 0x291C DUP2 PUSH2 0x28E0 JUMP JUMPDEST SWAP1 POP SWAP2 SWAP1 POP JUMP JUMPDEST PUSH1 0x0 PUSH1 0x40 DUP3 ADD SWAP1 POP PUSH2 0x2938 PUSH1 0x0 DUP4 ADD DUP6 PUSH2 0x1CDF JUMP JUMPDEST PUSH2 0x2945 PUSH1 0x20 DUP4 ADD DUP5 PUSH2 0x1F3A JUMP JUMPDEST SWAP4 SWAP3 POP POP POP JUMP JUMPDEST PUSH32 0x4572726F7220696E20736574746C696E67207472616465730000000000000000 PUSH1 0x0 DUP3 ADD MSTORE POP JUMP JUMPDEST PUSH1 0x0 PUSH2 0x2982 PUSH1 0x18 DUP4 PUSH2 0x238E JUMP JUMPDEST SWAP2 POP PUSH2 0x298D DUP3 PUSH2 0x294C JUMP JUMPDEST PUSH1 0x20 DUP3 ADD SWAP1 POP SWAP2 SWAP1 POP JUMP JUMPDEST PUSH1 0x0 PUSH1 0x20 DUP3 ADD SWAP1 POP DUP2 DUP2 SUB PUSH1 0x0 DUP4 ADD MSTORE PUSH2 0x29B1 DUP2 PUSH2 0x2975 JUMP JUMPDEST SWAP1 POP SWAP2 SWAP1 POP JUMP INVALID LOG2 PUSH5 0x6970667358 0x22 SLT KECCAK256 DUP2 0xBD PUSH3 0x8B509B CALLCODE SWAP13 0xF6 0xCC RETURN SWAP8 JUMP 0xE0 COINBASE 0x2C MOD PUSH8 0x16FFAAD25FBB18A8 BASEFEE PUSH8 0xE82CD2C664736F6C PUSH4 0x4300081B STOP CALLER "
        },
        "methodIdentifiers": {
          "GRULL_TOKEN_ADDRESS()": "3c4cd477",
          "disputes(uint256)": "564a565d",
          "getGRULLOwnership()": "a2d687ef",
          "grullToken()": "c9cf5ddf",
          "handleCreateDispute((uint256,address,address,address,string,uint256[],uint256,bool,address),uint256)": "c4b9c72e",
          "normaliser(uint256,uint256[],uint256[])": "ff65cdae",
          "owner()": "8da5cb5b",
          "renounceOwnership()": "715018a6",
          "setGRULLApproveal(address)": "f5d46635",
          "settleDispute(uint256)": "1c099ad6",
          "stakeAndVote(uint256,bool,uint256,uint256[])": "48dbec2e",
          "transferOwnership(address)": "f2fde38b",
          "withdrawFunds()": "24600fc3"
        }
      }
    }
  }
}